{
  "address": "0xb05D2BCA095482e5A6bC8D17D3340A63C5224DEd",
  "abi": [
    {
      "inputs": [
        {
          "internalType": "contract IEntryPoint",
          "name": "_entryPoint",
          "type": "address"
        },
        {
          "internalType": "address",
          "name": "_hexlink",
          "type": "address"
        },
        {
          "internalType": "address",
          "name": "_hexlinkDev",
          "type": "address"
        }
      ],
      "stateMutability": "nonpayable",
      "type": "constructor"
    },
    {
      "inputs": [],
      "name": "NotClaimingAirdrop",
      "type": "error"
    },
    {
      "inputs": [],
      "name": "NotFromHexlinkAccount",
      "type": "error"
    },
    {
      "inputs": [],
      "name": "NotHexlinkExcutionFunction",
      "type": "error"
    },
    {
      "anonymous": false,
      "inputs": [
        {
          "indexed": false,
          "internalType": "address",
          "name": "previousAdmin",
          "type": "address"
        },
        {
          "indexed": false,
          "internalType": "address",
          "name": "newAdmin",
          "type": "address"
        }
      ],
      "name": "AdminChanged",
      "type": "event"
    },
    {
      "anonymous": false,
      "inputs": [
        {
          "indexed": true,
          "internalType": "address",
          "name": "target",
          "type": "address"
        },
        {
          "indexed": true,
          "internalType": "bytes4",
          "name": "selector",
          "type": "bytes4"
        }
      ],
      "name": "Approved",
      "type": "event"
    },
    {
      "anonymous": false,
      "inputs": [
        {
          "indexed": true,
          "internalType": "address",
          "name": "beacon",
          "type": "address"
        }
      ],
      "name": "BeaconUpgraded",
      "type": "event"
    },
    {
      "anonymous": false,
      "inputs": [
        {
          "indexed": false,
          "internalType": "uint8",
          "name": "version",
          "type": "uint8"
        }
      ],
      "name": "Initialized",
      "type": "event"
    },
    {
      "anonymous": false,
      "inputs": [
        {
          "indexed": true,
          "internalType": "address",
          "name": "previousOwner",
          "type": "address"
        },
        {
          "indexed": true,
          "internalType": "address",
          "name": "newOwner",
          "type": "address"
        }
      ],
      "name": "OwnershipTransferred",
      "type": "event"
    },
    {
      "anonymous": false,
      "inputs": [
        {
          "indexed": true,
          "internalType": "address",
          "name": "target",
          "type": "address"
        },
        {
          "indexed": true,
          "internalType": "bytes4",
          "name": "selector",
          "type": "bytes4"
        }
      ],
      "name": "Unapproved",
      "type": "event"
    },
    {
      "anonymous": false,
      "inputs": [
        {
          "indexed": true,
          "internalType": "address",
          "name": "implementation",
          "type": "address"
        }
      ],
      "name": "Upgraded",
      "type": "event"
    },
    {
      "inputs": [
        {
          "internalType": "uint32",
          "name": "unstakeDelaySec",
          "type": "uint32"
        }
      ],
      "name": "addStake",
      "outputs": [],
      "stateMutability": "payable",
      "type": "function"
    },
    {
      "inputs": [
        {
          "internalType": "address",
          "name": "target",
          "type": "address"
        },
        {
          "internalType": "bytes4",
          "name": "selector",
          "type": "bytes4"
        }
      ],
      "name": "approve",
      "outputs": [],
      "stateMutability": "nonpayable",
      "type": "function"
    },
    {
      "inputs": [],
      "name": "deposit",
      "outputs": [],
      "stateMutability": "payable",
      "type": "function"
    },
    {
      "inputs": [],
      "name": "entryPoint",
      "outputs": [
        {
          "internalType": "contract IEntryPoint",
          "name": "",
          "type": "address"
        }
      ],
      "stateMutability": "view",
      "type": "function"
    },
    {
      "inputs": [],
      "name": "getDeposit",
      "outputs": [
        {
          "internalType": "uint256",
          "name": "",
          "type": "uint256"
        }
      ],
      "stateMutability": "view",
      "type": "function"
    },
    {
      "inputs": [],
      "name": "hexlink",
      "outputs": [
        {
          "internalType": "address",
          "name": "",
          "type": "address"
        }
      ],
      "stateMutability": "view",
      "type": "function"
    },
    {
      "inputs": [],
      "name": "hexlinkDev",
      "outputs": [
        {
          "internalType": "address",
          "name": "",
          "type": "address"
        }
      ],
      "stateMutability": "view",
      "type": "function"
    },
    {
      "inputs": [],
      "name": "implementation",
      "outputs": [
        {
          "internalType": "address",
          "name": "",
          "type": "address"
        }
      ],
      "stateMutability": "view",
      "type": "function"
    },
    {
      "inputs": [
        {
          "internalType": "address",
          "name": "owner",
          "type": "address"
        },
        {
          "internalType": "address[]",
          "name": "targets",
          "type": "address[]"
        },
        {
          "internalType": "bytes4[]",
          "name": "selectors",
          "type": "bytes4[]"
        }
      ],
      "name": "initialize",
      "outputs": [],
      "stateMutability": "nonpayable",
      "type": "function"
    },
    {
      "inputs": [
        {
          "internalType": "address",
          "name": "target",
          "type": "address"
        },
        {
          "internalType": "bytes4",
          "name": "selector",
          "type": "bytes4"
        }
      ],
      "name": "isApproved",
      "outputs": [
        {
          "internalType": "bool",
          "name": "",
          "type": "bool"
        }
      ],
      "stateMutability": "view",
      "type": "function"
    },
    {
      "inputs": [],
      "name": "owner",
      "outputs": [
        {
          "internalType": "address",
          "name": "",
          "type": "address"
        }
      ],
      "stateMutability": "view",
      "type": "function"
    },
    {
      "inputs": [
        {
          "internalType": "enum IPaymaster.PostOpMode",
          "name": "mode",
          "type": "uint8"
        },
        {
          "internalType": "bytes",
          "name": "context",
          "type": "bytes"
        },
        {
          "internalType": "uint256",
          "name": "actualGasCost",
          "type": "uint256"
        }
      ],
      "name": "postOp",
      "outputs": [],
      "stateMutability": "nonpayable",
      "type": "function"
    },
    {
      "inputs": [],
      "name": "proxiableUUID",
      "outputs": [
        {
          "internalType": "bytes32",
          "name": "",
          "type": "bytes32"
        }
      ],
      "stateMutability": "view",
      "type": "function"
    },
    {
      "inputs": [],
      "name": "renounceOwnership",
      "outputs": [],
      "stateMutability": "nonpayable",
      "type": "function"
    },
    {
      "inputs": [
        {
          "internalType": "address",
          "name": "newOwner",
          "type": "address"
        }
      ],
      "name": "transferOwnership",
      "outputs": [],
      "stateMutability": "nonpayable",
      "type": "function"
    },
    {
      "inputs": [
        {
          "internalType": "address",
          "name": "target",
          "type": "address"
        },
        {
          "internalType": "bytes4",
          "name": "selector",
          "type": "bytes4"
        }
      ],
      "name": "unapprove",
      "outputs": [],
      "stateMutability": "nonpayable",
      "type": "function"
    },
    {
      "inputs": [],
      "name": "unlockStake",
      "outputs": [],
      "stateMutability": "nonpayable",
      "type": "function"
    },
    {
      "inputs": [
        {
          "internalType": "address",
          "name": "newImplementation",
          "type": "address"
        }
      ],
      "name": "upgradeTo",
      "outputs": [],
      "stateMutability": "nonpayable",
      "type": "function"
    },
    {
      "inputs": [
        {
          "internalType": "address",
          "name": "newImplementation",
          "type": "address"
        },
        {
          "internalType": "bytes",
          "name": "data",
          "type": "bytes"
        }
      ],
      "name": "upgradeToAndCall",
      "outputs": [],
      "stateMutability": "payable",
      "type": "function"
    },
    {
      "inputs": [
        {
          "components": [
            {
              "internalType": "address",
              "name": "sender",
              "type": "address"
            },
            {
              "internalType": "uint256",
              "name": "nonce",
              "type": "uint256"
            },
            {
              "internalType": "bytes",
              "name": "initCode",
              "type": "bytes"
            },
            {
              "internalType": "bytes",
              "name": "callData",
              "type": "bytes"
            },
            {
              "internalType": "uint256",
              "name": "callGasLimit",
              "type": "uint256"
            },
            {
              "internalType": "uint256",
              "name": "verificationGasLimit",
              "type": "uint256"
            },
            {
              "internalType": "uint256",
              "name": "preVerificationGas",
              "type": "uint256"
            },
            {
              "internalType": "uint256",
              "name": "maxFeePerGas",
              "type": "uint256"
            },
            {
              "internalType": "uint256",
              "name": "maxPriorityFeePerGas",
              "type": "uint256"
            },
            {
              "internalType": "bytes",
              "name": "paymasterAndData",
              "type": "bytes"
            },
            {
              "internalType": "bytes",
              "name": "signature",
              "type": "bytes"
            }
          ],
          "internalType": "struct UserOperation",
          "name": "userOp",
          "type": "tuple"
        },
        {
          "internalType": "bytes32",
          "name": "userOpHash",
          "type": "bytes32"
        },
        {
          "internalType": "uint256",
          "name": "maxCost",
          "type": "uint256"
        }
      ],
      "name": "validatePaymasterUserOp",
      "outputs": [
        {
          "internalType": "bytes",
          "name": "context",
          "type": "bytes"
        },
        {
          "internalType": "uint256",
          "name": "validationData",
          "type": "uint256"
        }
      ],
      "stateMutability": "nonpayable",
      "type": "function"
    },
    {
      "inputs": [
        {
          "internalType": "address payable",
          "name": "withdrawAddress",
          "type": "address"
        }
      ],
      "name": "withdrawStake",
      "outputs": [],
      "stateMutability": "nonpayable",
      "type": "function"
    },
    {
      "inputs": [
        {
          "internalType": "address payable",
          "name": "withdrawAddress",
          "type": "address"
        },
        {
          "internalType": "uint256",
          "name": "amount",
          "type": "uint256"
        }
      ],
      "name": "withdrawTo",
      "outputs": [],
      "stateMutability": "nonpayable",
      "type": "function"
    }
  ],
  "transactionHash": "0x4abd1fe363ba8731d932ce4c6df5193827506e283ca1fec59eab167034b522e0",
  "args": [
    "0x5FF137D4b0FDCD49DcA30c7CF57E578a026d2789",
    "0x5d710eB40B46Acf46d26C99725e39F344C569Cc3",
    "0xee5D73C7A86A17FfbE632967c3cD79bA79A1FdC0"
  ],
  "numDeployments": 1,
  "solcInputHash": "967ffa0e409be2d1fc4047a907861b53",
  "bytecode": "0x61010080604052346200010157601f62001d8738819003918201601f19168301916001600160401b038311848410176200010757808492606094604052833981010312620001015780516200008091620000598262000121565b60406020820151916200006c8362000121565b0151916200007a8362000121565b62000134565b604051611be59081620001a28239608051818181610f84015281816110d501526114fa015260a05181818161023e01528181610afa01528181610b8e01528181610bf301528181610c7001528181610ce601528181610d4d0152610da7015260c0518181816103f501526108d2015260e0518181816101910152610a850152f35b50600080fd5b50505050634e487b7160e01b600052604160045260246000fd5b6001600160a01b03811614156200010157565b306080526000805462010000600160b01b0319811633601081811b62010000600160b01b031692909217845560405190939290911c6001600160a01b0316917f8be0079c531659141344cd1fd0a4f28419497f9722a3daafe3b4186f6b6457e091a360a05260c05260e05256fe6040608081526004361015610015575b50600080fd5b600090813560e01c80630396cb601461041a5780631908fea8146103dd578063205c2878146103c557806327ab3c021461037a5780633451e33f146103625780633496d6b81461034a5780633659cfe6146103335780634f1ef2861461032057806352d1902d146103045780635c60da1b146102cc578063715018a6146102b55780638da5cb5b1461028a578063a9a2340914610263578063b0d691fe14610226578063bb9fe6bf1461020f578063c23a5cea146101f8578063c399ec88146101cd578063d0e30db0146101bb578063d44916ea14610179578063db5942f414610161578063f2fde38b146101475763f465c77e14610115575b5061000f565b346101435761013f915061013261012b366107ea565b5050610891565b9290915192839283610875565b0390f35b5080fd5b50346101435761015e610159366106cf565b610eb8565b51f35b50346101435761015e610173366104a5565b906118e2565b5090346101b6575061018a36610453565b518061013f7f000000000000000000000000000000000000000000000000000000000000000082610461565b809150fd5b506101c536610453565b61015e610af8565b50346101435761013f91506101e136610453565b6101e9610c55565b90519081529081906020820190565b50346101435761015e61020a366106cf565b610d3b565b50346101435761021e36610453565b61015e610cdc565b5090346101b6575061023736610453565b518061013f7f000000000000000000000000000000000000000000000000000000000000000082610461565b505034610287575061027436610790565b50505050610280610aad565b388061010f565b80fd5b50346101435761013f9161029d36610453565b54905191829160101c6001600160a01b031682610461565b5034610143576102c436610453565b61015e610e75565b50346101435761013f91506102e036610453565b600080516020611b028339815191525490519182916001600160a01b031682610461565b50346101435761013f915061031836610453565b6101e9610f81565b5061015e61032d36610711565b906114f0565b50346101435761015e610345366106cf565b6110cb565b50346101435761015e61035c36610608565b91611684565b50346101435761015e610374366104a5565b9061188e565b50346101435761013f91506103b46103ad61039d610397366104a5565b90611a66565b6000526001602052604060002090565b5460ff1690565b905190151581529081906020820190565b50346101435761015e6103d736610486565b90610b7c565b5090346101b657506103ee36610453565b518061013f7f000000000000000000000000000000000000000000000000000000000000000082610461565b5061015e6104273661042c565b610be9565b602090600319011261000f5760043563ffffffff811681141561044c5790565b5050600080fd5b600090600319011261000f57565b6001600160a01b03909116815260200190565b6001600160a01b038116141561000f57565b604090600319011261000f5760043561049e81610474565b9060243590565b604090600319011261000f576004356104bd81610474565b906024356001600160e01b031981168114156104d65790565b505050600080fd5b50634e487b7160e01b600052604160045260246000fd5b602081019081106001600160401b0382111761051057604052565b6105186104de565b604052565b606081019081106001600160401b0382111761051057604052565b601f909101601f19168101906001600160401b0382119082101761051057604052565b6020906001600160401b038111610574575b60051b0190565b61057c6104de565b61056d565b81601f820112156104d6578035916105988361055b565b926105a66040519485610538565b808452602092838086019260051b8201019283116105fd578301905b8282106105d0575050505090565b81356001600160e01b031981168114156105f15781529083019083016105c2565b50505050505050600080fd5b505050505050600080fd5b606060031982011261044c5760043561062081610474565b916001600160401b0360243581811161069e578360238201121561069e57806004013561064c8161055b565b9161065a6040519384610538565b81835260209160248385019160051b830101918783116106c157602401905b8282106106a857505050509260443591821161069e5761069b91600401610581565b90565b5050505050600080fd5b83809183356106b681610474565b815201910190610679565b505050505050505050600080fd5b602090600319011261000f5760043561069b81610474565b6020906001600160401b038111610704575b601f01601f19160190565b61070c6104de565b6106f9565b90604060031983011261044c5760043561072a81610474565b916024356001600160401b038111610787578160238201121561078757806004013590610756826106e7565b926107646040519485610538565b8284526024838301011161069e5781600092602460209301838601378301015290565b50505050600080fd5b606060031982011261044c5760043560038110156104d657916001600160401b03916024359083821161069e578060238301121561069e57816004013593841161069e576024848301011161078757602401919060443590565b600319906060818301126104d657600435916001600160401b03831161078757826101609203011261044c57600401906024359060443590565b91908251928382526000905b84821061085d575092806020939411610850575b601f01601f1916010190565b6000838284010152610844565b90602090818082850101519082860101520190610830565b92919061088c602091604086526040860190610824565b930152565b610899610da4565b61012081016108c36108bd6108b76108b18486611963565b90611995565b906119e7565b60601c90565b6001600160a01b0391908083167f000000000000000000000000000000000000000000000000000000000000000084168114159081610a80575b50610a6a5761092161091b61091561097a9487611963565b906119a6565b90611a13565b90604390605592604051918060388401526f5af43d82803e903d91602b57fd5bf3ff60248401526014830152733d602d80600a3d3981f3363d3d373d3d3d363d73825260588201526037600c8201206078820152012090565b908061098584611a30565b921691161415610a5657606081016109bf6109b26109ac6109a68486611963565b906119b7565b90611a3a565b6001600160e01b03191690565b635b0e93fb60e11b1415610a415781610a126109ac610a0c84610a066109fa6109fa61091b6109f4610a189a610a1c9c611963565b906119c5565b6001600160a01b031690565b94611963565b906119d6565b90611945565b1590565b610a2e57610a286111e6565b90600090565b506040516369646e8960e01b8152600490fd5b5050604051630720bcc760e11b815260049150fd5b50506040516320ee31cd60e21b8152600490fd5b505050505060046040516320ee31cd60e21b8152fd5b9050837f0000000000000000000000000000000000000000000000000000000000000000161415386108fd565b50610ab6610da4565b60405162461bcd60e51b815260206004820152600d60248201526c6d757374206f7665727269646560981b6044820152606490fd5b506040513d6000823e3d90fd5b7f00000000000000000000000000000000000000000000000000000000000000006001600160a01b0316803b1561044c5760006024916040519283809263b760faf960e01b825230600483015234905af18015610b6f575b610b575750565b600090610b643d82610538565b3d8101031261000f57565b610b77610aeb565b610b50565b610b84610e15565b6001600160a01b037f00000000000000000000000000000000000000000000000000000000000000008116803b1561069e5760009283604492604051968795869463040b850f60e31b865216600485015260248401525af18015610b6f57610b575750565b610bf1610e15565b7f00000000000000000000000000000000000000000000000000000000000000006001600160a01b031690813b156104d65763ffffffff60246000926040519485938492621cb65b60e51b845216600483015234905af18015610b6f57610b575750565b6040516370a0823160e01b81523060048201526020816024817f00000000000000000000000000000000000000000000000000000000000000006001600160a01b03165afa908115610ccf575b600091610cad575090565b90610cb83d83610538565b6020823d81010312610cc957505190565b91505080fd5b610cd7610aeb565b610ca2565b610ce4610e15565b7f00000000000000000000000000000000000000000000000000000000000000006001600160a01b0316803b1561044c576000809160046040518094819363bb9fe6bf60e01b83525af18015610b6f57610b575750565b610d43610e15565b6001600160a01b037f000000000000000000000000000000000000000000000000000000000000000081169190823b1561078757602460009283604051958694859363611d2e7560e11b85521660048401525af18015610b6f57610b575750565b337f00000000000000000000000000000000000000000000000000000000000000006001600160a01b03161415610dd757565b5060405162461bcd60e51b815260206004820152601560248201527414d95b99195c881b9bdd08115b9d1c9e541bda5b9d605a1b6044820152606490fd5b6000543360109190911c6001600160a01b03161415610e3057565b50606460405162461bcd60e51b815260206004820152602060248201527f4f776e61626c653a2063616c6c6572206973206e6f7420746865206f776e65726044820152fd5b610e7d610e15565b6000805462010000600160b01b03198116825560405160109190911c6001600160a01b031690600080516020611b22833981519152908390a3565b610ec0610e15565b6001600160a01b03811615610eda57610ed890610f30565b565b505060405162461bcd60e51b815260206004820152602660248201527f4f776e61626c653a206e6577206f776e657220697320746865207a65726f206160448201526564647265737360d01b6064820152608490fd5b6000805462010000600160b01b03198116601084811b62010000600160b01b03169190911783556040516001600160a01b03948516949290911c90911691600080516020611b2283398151915291a3565b307f00000000000000000000000000000000000000000000000000000000000000006001600160a01b03161415610fc457600080516020611b0283398151915290565b5060405162461bcd60e51b815260206004820152603860248201527f555550535570677261646561626c653a206d757374206e6f742062652063616c6044820152771b1959081d1a1c9bdd59da0819195b1959d85d1958d85b1b60421b6064820152608490fd5b1561103257565b5060405162461bcd60e51b815260206004820152602c6024820152600080516020611ae283398151915260448201526b19195b1959d85d1958d85b1b60a21b6064820152608490fd5b1561108257565b5060405162461bcd60e51b815260206004820152602c6024820152600080516020611ae283398151915260448201526b6163746976652070726f787960a01b6064820152608490fd5b6001600160a01b037f0000000000000000000000000000000000000000000000000000000000000000811691906111043084141561102b565b611121600080516020611b0283398151915293828554161461107b565b611129610e15565b60405190611136826104f5565b600082526000366020840137600080516020611ac28339815191525460ff1615611166575050610ed891506112d4565b6020600491604094939451928380926352d1902d60e01b825286165afa600091816111c6575b506111b357505050505060405162461bcd60e51b8152806111af60048201611285565b0390fd5b610ed8936111c19114611226565b611366565b6111df9192506111d63d82610538565b3d810190611217565b903861118c565b60405190602082016001600160401b0381118382101761120a575b60405260008252565b6112126104de565b611201565b9081602091031261044c575190565b1561122d57565b5060405162461bcd60e51b815260206004820152602960248201527f45524331393637557067726164653a20756e737570706f727465642070726f786044820152681a58589b195555525160ba1b6064820152608490fd5b60809060208152602e60208201527f45524331393637557067726164653a206e657720696d706c656d656e7461746960408201526d6f6e206973206e6f74205555505360901b60608201520190565b803b1561130957600080516020611b0283398151915280546001600160a01b0319166001600160a01b03909216919091179055565b505060405162461bcd60e51b815260206004820152602d60248201527f455243313936373a206e657720696d706c656d656e746174696f6e206973206e60448201526c1bdd08184818dbdb9d1c9858dd609a1b6064820152608490fd5b61136f816112d4565b604051906000906001600160a01b038116600080516020611b428339815191528385a2835115801590611429575b6113a8575b50505050565b8180611416956113b78661051d565b60278652600080516020611b828339815191526020870152660819985a5b195960ca1b6040870152602081519101845af4903d15611420573d6113f9816106e7565b906114076040519283610538565b8152809360203d92013e6115e5565b50388080806113a2565b606092506115e5565b508161139d565b611439816112d4565b604051906001600160a01b038116600080516020611b42833981519152600084a28251158015906114e8575b61146e57505050565b6000806114dd9461147e8561051d565b60278552600080516020611b828339815191526020860152660819985a5b195960ca1b6040860152602081519101845af43d156114e0573d916114c0836106e7565b926114ce6040519485610538565b83523d6000602085013e6115e5565b50565b6060916115e5565b506001611465565b6001600160a01b037f0000000000000000000000000000000000000000000000000000000000000000811692906115293085141561102b565b611546600080516020611b0283398151915294828654161461107b565b61154e610e15565b600080516020611ac28339815191525460ff1615611572575050610ed891506112d4565b6020600491604094939451928380926352d1902d60e01b825286165afa600091816115ce575b506115bb57505050505060405162461bcd60e51b8152806111af60048201611285565b610ed8936115c99114611226565b611430565b6115de9192506111d63d82610538565b9038611598565b9192901561164957508151156115f9575090565b3b156116025790565b505060405162461bcd60e51b815260206004820152601d60248201527f416464726573733a2063616c6c20746f206e6f6e2d636f6e74726163740000006044820152606490fd5b82519293509115905061165f5750805190602001fd5b60405162461bcd60e51b815260206004820152915081906111af906024830190610824565b90916000549260ff8460081c1615809481956117a6575b8115611786575b5015611726576116c892846116bf600160ff196000541617600055565b61170d576117e1565b6116ce57565b6116de61ff001960005416600055565b604051600181527f7f26b83ff96e1f2b6a682f133852f6798a09c465da95921460cefb384740249890602090a1565b61172161010061ff00196000541617600055565b6117e1565b5050505050608460405162461bcd60e51b815260206004820152602e60248201527f496e697469616c697a61626c653a20636f6e747261637420697320616c72656160448201526d191e481a5b9a5d1a585b1a5e995960921b6064820152fd5b303b15915081611798575b50386116a2565b6001915060ff161438611791565b600160ff821610915061169b565b80518210156117c85760209160051b010190565b505050634e487b7160e01b600052603260045260246000fd5b6117ea90610f30565b60005b8151811015611889576001600160a01b0361180882846117b4565b51166001600160e01b031961181d83866117b4565b511690611828610e15565b6118328282611a66565b600052600080516020611b6283398151915260006001806020526040908183209060ff1982541617905551a3600019811461186f576001016117ed565b50505050634e487b7160e01b600052601160045260246000fd5b505050565b90611897610e15565b6118a18183611a66565b60005260016020526040600020600160ff1982541617905563ffffffff60e01b169060018060a01b0316600080516020611b628339815191526000604051a3565b906118eb610e15565b6118f58183611a66565b6000526001602052604060002060ff19815416905563ffffffff60e01b169060018060a01b03167feb750aefa01e962d89063d99ebed300d9e53632acc97967aa2c29a2b7dcf22556000604051a3565b9061194f91611a66565b600052600160205260ff6040600020541690565b903590601e19813603018212156104d657018035906001600160401b0382116104d6576020019181360383136104d657565b9060281161044c5760140190601490565b9060481161044c5760280190602090565b9060041161044c5790600490565b9060241161044c5760040190602090565b9060881161044c5760840190600490565b6001600160601b03199035818116939260148110611a0457505050565b60140360031b82901b16169150565b359060208110611a21575090565b6000199060200360031b1b1690565b3561069b81610474565b6001600160e01b03199035818116939260048110611a5757505050565b60040360031b82901b16169150565b6040805160609290921b6001600160601b031916602083019081526001600160e01b031990931660348301526018825281016001600160401b03811182821017611ab4575b60405251902090565b611abc6104de565b611aab56fe4910fdfa16fed3260ed0e7147f7cc6da11a60208b5b9406d12a635614ffd914346756e6374696f6e206d7573742062652063616c6c6564207468726f75676820360894a13ba1a3210667c828492db98dca3e2076cc3735a920a3ca505d382bbc8be0079c531659141344cd1fd0a4f28419497f9722a3daafe3b4186f6b6457e0bc7cd75a20ee27fd9adebab32041f755214dbc6bffa90cc0225b39da2e5c2d3b37c1b09da70b82d39cbf8227f8a40980d7509fb8b1506f76b17f0b45e9405943416464726573733a206c6f772d6c6576656c2064656c65676174652063616c6ca364697066735822122009cf0adf45987a1539f660addb6c5a5f804f5fe6fcfb09fad1a8ba2d5765c1c06c6578706572696d656e74616cf564736f6c634300080c0041",
  "devdoc": {
    "kind": "dev",
    "methods": {
      "addStake(uint32)": {
        "params": {
          "unstakeDelaySec": "- the unstake delay for this paymaster. Can only be increased."
        }
      },
      "owner()": {
        "details": "Returns the address of the current owner."
      },
      "postOp(uint8,bytes,uint256)": {
        "params": {
          "actualGasCost": "- actual gas used so far (without this postOp call).",
          "context": "- the context value returned by validatePaymasterUserOp",
          "mode": "enum with the following options:      opSucceeded - user operation succeeded.      opReverted  - user op reverted. still has to pay for gas.      postOpReverted - user op succeeded, but caused postOp (in mode=opSucceeded) to revert.                       Now this is the 2nd call, after user's op was deliberately reverted."
        }
      },
      "proxiableUUID()": {
        "details": "Implementation of the ERC1822 {proxiableUUID} function. This returns the storage slot used by the implementation. It is used to validate the implementation's compatibility when performing an upgrade. IMPORTANT: A proxy pointing at a proxiable contract should not be considered proxiable itself, because this risks bricking a proxy that upgrades to it, by delegating to itself until out of gas. Thus it is critical that this function revert if invoked through a proxy. This is guaranteed by the `notDelegated` modifier."
      },
      "renounceOwnership()": {
        "details": "Leaves the contract without owner. It will not be possible to call `onlyOwner` functions. Can only be called by the current owner. NOTE: Renouncing ownership will leave the contract without an owner, thereby disabling any functionality that is only available to the owner."
      },
      "transferOwnership(address)": {
        "details": "Transfers ownership of the contract to a new account (`newOwner`). Can only be called by the current owner."
      },
      "upgradeTo(address)": {
        "custom:oz-upgrades-unsafe-allow-reachable": "delegatecall",
        "details": "Upgrade the implementation of the proxy to `newImplementation`. Calls {_authorizeUpgrade}. Emits an {Upgraded} event."
      },
      "upgradeToAndCall(address,bytes)": {
        "custom:oz-upgrades-unsafe-allow-reachable": "delegatecall",
        "details": "Upgrade the implementation of the proxy to `newImplementation`, and subsequently execute the function call encoded in `data`. Calls {_authorizeUpgrade}. Emits an {Upgraded} event."
      },
      "validatePaymasterUserOp((address,uint256,bytes,bytes,uint256,uint256,uint256,uint256,uint256,bytes,bytes),bytes32,uint256)": {
        "params": {
          "maxCost": "the maximum cost of this transaction (based on maximum gas and gas price from userOp)",
          "userOp": "the user operation",
          "userOpHash": "hash of the user's request data."
        },
        "returns": {
          "context": "value to send to a postOp      zero length to signify postOp is not required.",
          "validationData": "signature and time-range of this operation, encoded the same as the return value of validateUserOperation      <20-byte> sigAuthorizer - 0 for valid signature, 1 to mark signature failure,         otherwise, an address of an \"authorizer\" contract.      <6-byte> validUntil - last timestamp this operation is valid. 0 for \"indefinite\"      <6-byte> validAfter - first timestamp this operation is valid      Note that the validation code cannot use block.timestamp (or block.number) directly."
        }
      },
      "withdrawStake(address)": {
        "params": {
          "withdrawAddress": "the address to send withdrawn value."
        }
      },
      "withdrawTo(address,uint256)": {
        "params": {
          "amount": "to withdraw",
          "withdrawAddress": "target to send to"
        }
      }
    },
    "version": 1
  },
  "userdoc": {
    "kind": "user",
    "methods": {
      "addStake(uint32)": {
        "notice": "add stake for this paymaster. This method can also carry eth value to add to the current stake."
      },
      "deposit()": {
        "notice": "add a deposit for this paymaster, used for paying for transaction fees"
      },
      "getDeposit()": {
        "notice": "return current paymaster's deposit on the entryPoint."
      },
      "implementation()": {
        "notice": "UUPSUpgradeable "
      },
      "postOp(uint8,bytes,uint256)": {
        "notice": "post-operation handler. Must verify sender is the entryPoint"
      },
      "unlockStake()": {
        "notice": "unlock the stake, in order to withdraw it. The paymaster can't serve requests once unlocked, until it calls addStake again"
      },
      "validatePaymasterUserOp((address,uint256,bytes,bytes,uint256,uint256,uint256,uint256,uint256,bytes,bytes),bytes32,uint256)": {
        "notice": "payment validation: check if paymaster agrees to pay. Must verify sender is the entryPoint. Revert to reject this request. Note that bundlers will reject this method if it changes the state, unless the paymaster is trusted (whitelisted) The paymaster pre-pays using its deposit, and receive back a refund after the postOp method returns."
      },
      "withdrawStake(address)": {
        "notice": "withdraw the entire paymaster's stake. stake must be unlocked first (and then wait for the unstakeDelay to be over)"
      },
      "withdrawTo(address,uint256)": {
        "notice": "withdraw value from the deposit"
      }
    },
    "version": 1
  },
  "storageLayout": {
    "storage": [
      {
        "astId": 2123,
        "contract": "contracts/hexlink/HexlinkPaymaster.sol:HexlinkPaymaster",
        "label": "_initialized",
        "offset": 0,
        "slot": "0",
        "type": "t_uint8"
      },
      {
        "astId": 2126,
        "contract": "contracts/hexlink/HexlinkPaymaster.sol:HexlinkPaymaster",
        "label": "_initializing",
        "offset": 1,
        "slot": "0",
        "type": "t_bool"
      },
      {
        "astId": 1666,
        "contract": "contracts/hexlink/HexlinkPaymaster.sol:HexlinkPaymaster",
        "label": "_owner",
        "offset": 2,
        "slot": "0",
        "type": "t_address"
      },
      {
        "astId": 4564,
        "contract": "contracts/hexlink/HexlinkPaymaster.sol:HexlinkPaymaster",
        "label": "allowed",
        "offset": 0,
        "slot": "1",
        "type": "t_mapping(t_bytes32,t_bool)"
      }
    ],
    "types": {
      "t_address": {
        "encoding": "inplace",
        "label": "address",
        "numberOfBytes": "20"
      },
      "t_bool": {
        "encoding": "inplace",
        "label": "bool",
        "numberOfBytes": "1"
      },
      "t_bytes32": {
        "encoding": "inplace",
        "label": "bytes32",
        "numberOfBytes": "32"
      },
      "t_mapping(t_bytes32,t_bool)": {
        "encoding": "mapping",
        "key": "t_bytes32",
        "label": "mapping(bytes32 => bool)",
        "numberOfBytes": "32",
        "value": "t_bool"
      },
      "t_uint8": {
        "encoding": "inplace",
        "label": "uint8",
        "numberOfBytes": "1"
      }
    }
  }
}