{
  "address": "0xc7C7C774aAFAbCd67498DA94Bf5EAAcb5536Bf54",
  "abi": [
    {
      "inputs": [
        {
          "internalType": "address",
          "name": "entryPoint",
          "type": "address"
        },
        {
          "internalType": "address",
          "name": "hexlink",
          "type": "address"
        }
      ],
      "stateMutability": "nonpayable",
      "type": "constructor"
    },
    {
      "anonymous": false,
      "inputs": [
        {
          "indexed": false,
          "internalType": "address",
          "name": "previousAdmin",
          "type": "address"
        },
        {
          "indexed": false,
          "internalType": "address",
          "name": "newAdmin",
          "type": "address"
        }
      ],
      "name": "AdminChanged",
      "type": "event"
    },
    {
      "anonymous": false,
      "inputs": [
        {
          "indexed": true,
          "internalType": "address",
          "name": "beacon",
          "type": "address"
        }
      ],
      "name": "BeaconUpgraded",
      "type": "event"
    },
    {
      "anonymous": false,
      "inputs": [
        {
          "indexed": true,
          "internalType": "uint256",
          "name": "",
          "type": "uint256"
        },
        {
          "indexed": true,
          "internalType": "address",
          "name": "",
          "type": "address"
        },
        {
          "indexed": true,
          "internalType": "address",
          "name": "",
          "type": "address"
        }
      ],
      "name": "FactorUpdated",
      "type": "event"
    },
    {
      "anonymous": false,
      "inputs": [
        {
          "indexed": false,
          "internalType": "uint8",
          "name": "version",
          "type": "uint8"
        }
      ],
      "name": "Initialized",
      "type": "event"
    },
    {
      "anonymous": false,
      "inputs": [
        {
          "indexed": true,
          "internalType": "address",
          "name": "implementation",
          "type": "address"
        }
      ],
      "name": "Upgraded",
      "type": "event"
    },
    {
      "stateMutability": "nonpayable",
      "type": "fallback"
    },
    {
      "inputs": [],
      "name": "addDeposit",
      "outputs": [],
      "stateMutability": "payable",
      "type": "function"
    },
    {
      "inputs": [],
      "name": "entryPoint",
      "outputs": [
        {
          "internalType": "contract IEntryPoint",
          "name": "",
          "type": "address"
        }
      ],
      "stateMutability": "view",
      "type": "function"
    },
    {
      "inputs": [
        {
          "components": [
            {
              "internalType": "address",
              "name": "target",
              "type": "address"
            },
            {
              "internalType": "uint256",
              "name": "value",
              "type": "uint256"
            },
            {
              "internalType": "bytes",
              "name": "data",
              "type": "bytes"
            }
          ],
          "internalType": "struct UserRequest",
          "name": "request",
          "type": "tuple"
        }
      ],
      "name": "execute",
      "outputs": [],
      "stateMutability": "payable",
      "type": "function"
    },
    {
      "inputs": [
        {
          "components": [
            {
              "internalType": "address",
              "name": "target",
              "type": "address"
            },
            {
              "internalType": "uint256",
              "name": "value",
              "type": "uint256"
            },
            {
              "internalType": "bytes",
              "name": "data",
              "type": "bytes"
            }
          ],
          "internalType": "struct UserRequest[]",
          "name": "requests",
          "type": "tuple[]"
        }
      ],
      "name": "executeBatch",
      "outputs": [],
      "stateMutability": "payable",
      "type": "function"
    },
    {
      "inputs": [],
      "name": "getAuthFactors",
      "outputs": [
        {
          "components": [
            {
              "internalType": "address",
              "name": "provider",
              "type": "address"
            },
            {
              "internalType": "address",
              "name": "validator",
              "type": "address"
            }
          ],
          "internalType": "struct AuthFactor[2]",
          "name": "",
          "type": "tuple[2]"
        }
      ],
      "stateMutability": "view",
      "type": "function"
    },
    {
      "inputs": [],
      "name": "getDeposit",
      "outputs": [
        {
          "internalType": "uint256",
          "name": "",
          "type": "uint256"
        }
      ],
      "stateMutability": "view",
      "type": "function"
    },
    {
      "inputs": [],
      "name": "getName",
      "outputs": [
        {
          "internalType": "bytes32",
          "name": "",
          "type": "bytes32"
        }
      ],
      "stateMutability": "view",
      "type": "function"
    },
    {
      "inputs": [],
      "name": "getNameRegistry",
      "outputs": [
        {
          "internalType": "address",
          "name": "",
          "type": "address"
        }
      ],
      "stateMutability": "view",
      "type": "function"
    },
    {
      "inputs": [],
      "name": "getNameType",
      "outputs": [
        {
          "internalType": "bytes32",
          "name": "",
          "type": "bytes32"
        }
      ],
      "stateMutability": "view",
      "type": "function"
    },
    {
      "inputs": [],
      "name": "getNonce",
      "outputs": [
        {
          "internalType": "uint256",
          "name": "",
          "type": "uint256"
        }
      ],
      "stateMutability": "view",
      "type": "function"
    },
    {
      "inputs": [],
      "name": "hexlink",
      "outputs": [
        {
          "internalType": "contract IAccountFactory",
          "name": "",
          "type": "address"
        }
      ],
      "stateMutability": "view",
      "type": "function"
    },
    {
      "inputs": [],
      "name": "implementation",
      "outputs": [
        {
          "internalType": "address",
          "name": "",
          "type": "address"
        }
      ],
      "stateMutability": "view",
      "type": "function"
    },
    {
      "inputs": [
        {
          "internalType": "bytes32",
          "name": "nameType",
          "type": "bytes32"
        },
        {
          "internalType": "bytes32",
          "name": "name",
          "type": "bytes32"
        },
        {
          "internalType": "address",
          "name": "provider",
          "type": "address"
        }
      ],
      "name": "initialize",
      "outputs": [],
      "stateMutability": "nonpayable",
      "type": "function"
    },
    {
      "inputs": [],
      "name": "isSecondFactorEnabled",
      "outputs": [
        {
          "internalType": "bool",
          "name": "",
          "type": "bool"
        }
      ],
      "stateMutability": "view",
      "type": "function"
    },
    {
      "inputs": [],
      "name": "proxiableUUID",
      "outputs": [
        {
          "internalType": "bytes32",
          "name": "",
          "type": "bytes32"
        }
      ],
      "stateMutability": "view",
      "type": "function"
    },
    {
      "inputs": [
        {
          "internalType": "uint256",
          "name": "index",
          "type": "uint256"
        }
      ],
      "name": "resetValidatorFromProvider",
      "outputs": [],
      "stateMutability": "nonpayable",
      "type": "function"
    },
    {
      "inputs": [
        {
          "internalType": "uint256",
          "name": "index",
          "type": "uint256"
        },
        {
          "internalType": "address",
          "name": "provider",
          "type": "address"
        },
        {
          "internalType": "address",
          "name": "validator",
          "type": "address"
        }
      ],
      "name": "updateAuthFactor",
      "outputs": [],
      "stateMutability": "nonpayable",
      "type": "function"
    },
    {
      "inputs": [
        {
          "internalType": "address",
          "name": "newImplementation",
          "type": "address"
        }
      ],
      "name": "upgradeTo",
      "outputs": [],
      "stateMutability": "nonpayable",
      "type": "function"
    },
    {
      "inputs": [
        {
          "internalType": "address",
          "name": "newImplementation",
          "type": "address"
        },
        {
          "internalType": "bytes",
          "name": "data",
          "type": "bytes"
        }
      ],
      "name": "upgradeToAndCall",
      "outputs": [],
      "stateMutability": "payable",
      "type": "function"
    },
    {
      "inputs": [
        {
          "components": [
            {
              "internalType": "address",
              "name": "sender",
              "type": "address"
            },
            {
              "internalType": "uint256",
              "name": "nonce",
              "type": "uint256"
            },
            {
              "internalType": "bytes",
              "name": "initCode",
              "type": "bytes"
            },
            {
              "internalType": "bytes",
              "name": "callData",
              "type": "bytes"
            },
            {
              "internalType": "uint256",
              "name": "callGasLimit",
              "type": "uint256"
            },
            {
              "internalType": "uint256",
              "name": "verificationGasLimit",
              "type": "uint256"
            },
            {
              "internalType": "uint256",
              "name": "preVerificationGas",
              "type": "uint256"
            },
            {
              "internalType": "uint256",
              "name": "maxFeePerGas",
              "type": "uint256"
            },
            {
              "internalType": "uint256",
              "name": "maxPriorityFeePerGas",
              "type": "uint256"
            },
            {
              "internalType": "bytes",
              "name": "paymasterAndData",
              "type": "bytes"
            },
            {
              "internalType": "bytes",
              "name": "signature",
              "type": "bytes"
            }
          ],
          "internalType": "struct UserOperation",
          "name": "userOp",
          "type": "tuple"
        },
        {
          "internalType": "bytes32",
          "name": "userOpHash",
          "type": "bytes32"
        },
        {
          "internalType": "uint256",
          "name": "missingAccountFunds",
          "type": "uint256"
        }
      ],
      "name": "validateUserOp",
      "outputs": [
        {
          "internalType": "uint256",
          "name": "validationData",
          "type": "uint256"
        }
      ],
      "stateMutability": "nonpayable",
      "type": "function"
    },
    {
      "inputs": [
        {
          "internalType": "address payable",
          "name": "withdrawAddress",
          "type": "address"
        },
        {
          "internalType": "uint256",
          "name": "amount",
          "type": "uint256"
        }
      ],
      "name": "withdrawDepositTo",
      "outputs": [],
      "stateMutability": "nonpayable",
      "type": "function"
    },
    {
      "stateMutability": "payable",
      "type": "receive"
    }
  ],
  "transactionHash": "0xd875d0ffc1d18b0b996ca2e2ec09d7a7db89737acb5f411f6b299e5ceeac4a0c",
  "args": [
    "0x5FF137D4b0FDCD49DcA30c7CF57E578a026d2789",
    "0xaA08491F80C780A96Cb42bE84dbBFc3f6287BF38"
  ],
  "numDeployments": 1,
  "solcInputHash": "142a129ccbdf4cffac6b51e3be2bbd79",
  "bytecode": "0x60e08060405234620000fa57601f620026ea38819003918201601f19168301916001600160401b0383118484101762000100578084926040948552833981010312620000fa57806200006360206200005b6200007b946200011a565b92016200011a565b6001600160a01b039081166080523060a0521660c052565b6040516125b29081620001388239608051818181610351015281816103e101528181610bae01526110a8015260a0518181816109f301528181610b470152611059015260c0518181816101cb015281816107960152818161080701528181611451015281816114b1015281816122de0152818161231c01526123b30152f35b50600080fd5b50505050634e487b7160e01b600052604160045260246000fd5b51906001600160a01b0382168214156200013057565b5050600080fdfe6040608081526004361015610032575b503615610030573461002b576100236122a2565b602081519101f35b600080fd5b005b600090813560e01c806317d7de7c146104065780631908fea8146103c95780631c86922d146103b25780632e80508c1461037f578063342e08d01461033957806334fcd5be146103265780633659cfe61461030f5780633a871cdd146102f25780634a58db19146102e05780634d44560d146102c85780634f1ef286146102b557806352d1902d146102995780635c1c6dcd146102875780635c60da1b1461024f57806375bd984f14610237578063791722221461021c5780638834257d146101f5578063b0d691fe146101b3578063c399ec8814610197578063d087d2881461016c5763d651654d14610126575061000f565b3461016857610164915061013936610437565b6000805160206124cf8339815191525490516001600160a01b03909116151581529081906020820190565b0390f35b5080fd5b503461016857610164915061018036610437565b610188610774565b90519081529081906020820190565b50346101685761016491506101ab36610437565b6101886122c3565b5090346101f057506101c436610437565b51806101647f000000000000000000000000000000000000000000000000000000000000000082610457565b809150fd5b503461016857610164915061020936610437565b6102116118f8565b905191829182610712565b50346101685761023461022e366106f2565b9161124b565b51f35b503461016857610234610249366106c9565b91611982565b503461016857610164915061026336610437565b6000805160206124af8339815191525490519182916001600160a01b031682610457565b5061023461029436610698565b61144b565b50346101685761016491506102ad36610437565b6101886109f0565b506102346102c23661064f565b9061104b565b5034610168576102346102da36610548565b9061239e565b506102ea36610437565b61023461231a565b50346101685761016491506101886103093661050e565b916107f8565b503461016857610234610321366104f3565b610b3a565b506102346103333661047c565b906114ab565b5090346101f0575061034a36610437565b51806101647f00000000000000000000000000000000000000000000000000000000000000006001600160a01b031682610457565b503461016857610164915061039336610437565b60008051602061240f8339815191525490519081529081906020820190565b5034610168576102346103c43661046a565b611b82565b5090346101f057506103da36610437565b51806101647f000000000000000000000000000000000000000000000000000000000000000082610457565b505034610434575061041736610437565b60008051602061254f83398151915254608052607f1960a0016080f35b80fd5b600090600319011261044557565b50600080fd5b6001600160a01b031690565b6001600160a01b03909116815260200190565b60209060031901126104455760043590565b9060206003198301126104da576001600160401b0391600435908382116104d157806023830112156104d15781600401359384116104d15760248460051b830101116104c9576024019190565b505050600080fd5b50505050600080fd5b5050600080fd5b6001600160a01b038116141561044557565b60209060031901126104455760043561050b816104e1565b90565b600319906060818301126104c957600435916001600160401b0383116104d15782610160920301126104da57600401906024359060443590565b604090600319011261044557600435610560816104e1565b9060243590565b50634e487b7160e01b600052604160045260246000fd5b604081019081106001600160401b0382111761059957604052565b6105a1610567565b604052565b606081019081106001600160401b0382111761059957604052565b601f909101601f19168101906001600160401b0382119082101761059957604052565b6020906001600160401b038111610601575b601f01601f19160190565b610609610567565b6105f6565b92919261061a826105e4565b9161062860405193846105c1565b829481845281830111610645578281602093846000960137010152565b5050505050600080fd5b9060406003198301126104da57600435610668816104e1565b91602435906001600160401b0382116104d157806023830112156104d15781602461050b9360040135910161060e565b600319906020818301126104c957600435916001600160401b0383116104d157826060920301126104da5760040190565b606090600319011261044557600435906024356106e5816104e1565b9060443561050b816104e1565b606090600319011261044557600435906024359060443561050b816104e1565b6080810192916000915b6002831061072957505050565b815180516001600160a01b0390811683526020918201511681830152600193909301929091019060400161071c565b908160209103126104da575190565b506040513d6000823e3d90fd5b604051631aab3f0d60e11b8152306004820152600060248201526020816044817f00000000000000000000000000000000000000000000000000000000000000006001600160a01b03165afa9081156107eb575b6000916107d3575090565b61050b91506107e23d826105c1565b3d810190610758565b6107f3610767565b6107c8565b9192916001600160a01b0390337f000000000000000000000000000000000000000000000000000000000000000083161415610957576108408161014061084793019061155d565b369161060e565b6000805160206124cf833981519152546000908316156108fa5750916108798360208061089896518301019101611d04565b91906108858183611e70565b9384161561089a575b5050505b926109cf565b565b6108f293506108af6108eb9151845190611d66565b8051604082015160209092015160d01b6001600160d01b03191660a09290921b65ffffffffffff60a01b166001600160a01b0391909116171790565b8252612013565b38808061088e565b9080925051820160208382031261094e576020830151916001600160401b038311610944575061093f9260206108989593816109399401920101611c68565b90611e70565b610892565b9550505050505080fd5b50935050505080fd5b5050505050606460405162461bcd60e51b815260206004820152601c60248201527b1858d8dbdd5b9d0e881b9bdd08199c9bdb48115b9d1c9e541bda5b9d60221b6044820152fd5b3d156109ca573d906109b0826105e4565b916109be60405193846105c1565b82523d6000602084013e565b606090565b806109d75750565b600080809260405190338319f1506109ed61099f565b50565b307f00000000000000000000000000000000000000000000000000000000000000006001600160a01b03161415610a33576000805160206124af83398151915290565b5060405162461bcd60e51b815260206004820152603860248201527f555550535570677261646561626c653a206d757374206e6f742062652063616c6044820152771b1959081d1a1c9bdd59da0819195b1959d85d1958d85b1b60421b6064820152608490fd5b15610aa157565b5060405162461bcd60e51b815260206004820152602c602482015260008051602061248f83398151915260448201526b19195b1959d85d1958d85b1b60a21b6064820152608490fd5b15610af157565b5060405162461bcd60e51b815260206004820152602c602482015260008051602061248f83398151915260448201526b6163746976652070726f787960a01b6064820152608490fd5b6001600160a01b03610b8c7f00000000000000000000000000000000000000000000000000000000000000008216610b7430821415610a9a565b826000805160206124af833981519152541614610aea565b610b9730331461140d565b604051639d825bc560e01b815281906020816004817f000000000000000000000000000000000000000000000000000000000000000086165afa908115610c5c575b600091610c3e575b50169082161415610bfe5761089890610bf8610c69565b90610d50565b505060405162461bcd60e51b815260206004820152601660248201527534b73b30b634b21034b6b83632b6b2b73a30ba34b7b760511b6044820152606490fd5b610c569150610c4d3d826105c1565b3d81019061165f565b38610be1565b610c64610767565b610bd9565b6040516020810191906000906001600160401b03841181851017610c95575b8360405281815292369037565b610c9d610567565b610c88565b15610ca957565b5060405162461bcd60e51b815260206004820152602960248201527f45524331393637557067726164653a20756e737570706f727465642070726f786044820152681a58589b195555525160ba1b6064820152608490fd5b60809060208152602e60208201527f45524331393637557067726164653a206e657720696d706c656d656e7461746960408201526d6f6e206973206e6f74205555505360901b60608201520190565b60008051602061242f8339815191525460ff1615610d72576108989150610fb9565b6040516352d1902d60e01b81526001600160a01b0382169190602081600481865afa60009181610e7a575b50610dc457505050505060405162461bcd60e51b815280610dc060048201610d01565b0390fd5b6000805160206124af833981519152610ddd9114610ca2565b610de681610fb9565b604051916000805160206124ef833981519152600084a2825115801590610e72575b610e1157505050565b6000806109ed94610e21856105a6565b602785527f416464726573733a206c6f772d6c6576656c2064656c65676174652063616c6c6020860152660819985a5b195960ca1b6040860152602081519101845af4610e6c61099f565b91611152565b506000610e08565b610e8a9192506107e23d826105c1565b9038610d9d565b60008051602061242f8339815191525460ff1615610eb3576108989150610fb9565b6040516352d1902d60e01b81526001600160a01b0382169190602081600481865afa60009181610f55575b50610f0157505050505060405162461bcd60e51b815280610dc060048201610d01565b6000805160206124af833981519152610f1a9114610ca2565b610f2381610fb9565b604051916000805160206124ef833981519152600084a2825115801590610f4d57610e1157505050565b506001610e08565b610f659192506107e23d826105c1565b9038610ede565b60008051602061246f83398151915280546001600160a01b0319166001600160a01b03909216919091179055565b80546001600160a01b0319166001600160a01b03909216919091179055565b803b15610fee576000805160206124af83398151915280546001600160a01b0319166001600160a01b03909216919091179055565b505060405162461bcd60e51b815260206004820152602d60248201527f455243313936373a206e657720696d706c656d656e746174696f6e206973206e60448201526c1bdd08184818dbdb9d1c9858dd609a1b6064820152608490fd5b906001600160a01b036110867f00000000000000000000000000000000000000000000000000000000000000008216610b7430821415610a9a565b61109130331461140d565b604051639d825bc560e01b815281906020816004817f000000000000000000000000000000000000000000000000000000000000000086165afa908115611145575b600091611130575b501690831614156110ef5761089891610e91565b505060405162461bcd60e51b815260206004820152601660248201527534b73b30b634b21034b6b83632b6b2b73a30ba34b7b760511b604482015260649150fd5b61113f9150610c4d3d826105c1565b386110db565b61114d610767565b6110d3565b919290156111b65750815115611166575090565b3b1561116f5790565b505060405162461bcd60e51b815260206004820152601d60248201527f416464726573733a2063616c6c20746f206e6f6e2d636f6e74726163740000006044820152606490fd5b8251929350911590506111cc5750805190602001fd5b60405162461bcd60e51b81526020600482015291508190610dc0906024830190611226565b918091926000905b82821061121157501161120a575050565b6000910152565b915080602091830151818601520182916111f9565b9060209161123f815180928185528580860191016111f1565b601f01601f1916010190565b90916000549260ff8460081c1615809481956113ff575b81156113df575b501561137f576112d89284611286600160ff196000541617600055565b61131d5760008051602061240f8339815191525560008051602061254f8339815191525560008051602061244f83398151915280546001600160a01b0319166001600160a01b03909216919091179055565b6112de57565b6112ee61ff001960005416600055565b604051600181527f7f26b83ff96e1f2b6a682f133852f6798a09c465da95921460cefb384740249890602090a1565b61133161010061ff00196000541617600055565b60008051602061240f8339815191525560008051602061254f8339815191525560008051602061244f83398151915280546001600160a01b0319166001600160a01b03909216919091179055565b5050505050608460405162461bcd60e51b815260206004820152602e60248201527f496e697469616c697a61626c653a20636f6e747261637420697320616c72656160448201526d191e481a5b9a5d1a585b1a5e995960921b6064820152fd5b303b159150816113f1575b5038611269565b6001915060ff1614386113ea565b600160ff8216109150611262565b1561141457565b5060405162461bcd60e51b815260206004820152600e60248201526d34b73b30b634b21031b0b63632b960911b6044820152606490fd5b61147f337f00000000000000000000000000000000000000000000000000000000000000006001600160a01b03161461140d565b611487611674565b8061149d575b6114945750565b6108989061158f565b506114a661176a565b61148d565b6114df337f00000000000000000000000000000000000000000000000000000000000000006001600160a01b03161461140d565b6114e7611674565b8061154f575b6114f5575050565b60005b82811061150457505050565b8060051b820135605e19833603018112156106455761152490830161158f565b6000198114611535576001016114f8565b50505050634e487b7160e01b600052601160045260246000fd5b5061155861176a565b6114ed565b903590601e19813603018212156104c957018035906001600160401b0382116104c9576020019181360383136104c957565b60008091602081356115a0816104e1565b6115ad604084018461155d565b9290836040519485928337810186815203930135905af16115cc61099f565b90156115d55750565b8051909150156115e757805190602001fd5b5060405162461bcd60e51b81526020600482015260156024820152741b1bddc81b195d995b0818d85b1b0819985a5b1959605a1b6044820152606490fd5b60028110156116475760011b60008051602061244f8339815191520190600090565b5050634e487b7160e01b600052603260045260246000fd5b908160209103126104da575161050b816104e1565b60008051602061244f833981519152546001600160a01b039081906116989061044b565b169081156117635760206040518093630c825d9760e11b825281806116c03060048301610457565b03915afa918215611756575b60009261173f575b506116ed60008051602061246f8339815191525461044b565b8116908216146117055761170090610f6c565b600090565b5060008051602061250f8339815191525460ff161561173a5760008051602061250f833981519152805460ff19169055600190565b600190565b61174f919250610c4d3d826105c1565b90386116d4565b61175e610767565b6116cc565b5050600190565b60008051602061252f833981519152546001600160a01b0390819061178e9061044b565b169081156117635760206040518093630c825d9760e11b825281806117b63060048301610457565b03915afa91821561183b575b600092611824575b506117e36000805160206124cf8339815191525461044b565b81169082161461181e576000805160206124cf83398151915280546001600160a01b0319166001600160a01b03909216919091179055600090565b50600190565b611834919250610c4d3d826105c1565b90386117ca565b611843610767565b6117c2565b604051906118558261057e565b60008051602061244f833981519152546001600160a01b03908116835260008051602061246f83398151915254166020830152565b604051906118978261057e565b60008051602061252f833981519152546001600160a01b0390811683526000805160206124cf83398151915254166020830152565b906040516118d98161057e565b82546001600160a01b0390811682526001909301549092166020830152565b604080516119058161057e565b60005b828110611960575050519061191c8261057e565b60008051602061244f833981519152916000815b600290818310156119585790602060019261194a886118cc565b815201950191019093611930565b509193505050565b602090835161196e8161057e565b600081526000838201528184015201611908565b919061198f30331461140d565b6002831080611a71575b6119a290611a83565b6119b5816119af85611625565b50610f9a565b6119cb8260016119c486611625565b5001610f9a565b6001600160a01b039081169182611a08575b16917ff2cfb96ee1a91ce513c66b1cf0ea3b4c6623384bd855269272d10c0bfb8658206000604051a4565b611a4a82604051630c825d9760e11b815260208180611a2a3060048301610457565b0381895afa908115611a64575b600091611a4f575b501683831614611ac0565b6119dd565b611a5e9150610c4d3d826105c1565b38611a3f565b611a6c610767565b611a37565b506001600160a01b0382161515611999565b15611a8a57565b5060405162461bcd60e51b815260206004820152600d60248201526c1a5b9d985b1a59081a5b9c1d5d609a1b6044820152606490fd5b15611ac757565b5060405162461bcd60e51b81526020600482015260126024820152710ecc2d8d2c8c2e8dee440dad2e6dac2e8c6d60731b6044820152606490fd5b15611b0957565b5060405162461bcd60e51b815260206004820152601060248201526f34b73b30b634b210383937bb34b232b960811b6044820152606490fd5b15611b4957565b5060405162461bcd60e51b815260206004820152601060248201526f1b9bc81b995959081d1bc81c995cd95d60821b6044820152606490fd5b61089890611b98611b9282611625565b506118cc565b9060018060a01b03611bb681611bae855161044b565b161515611b02565b611bcb611bc6611bc6855161044b565b61044b565b9260206040518095630c825d9760e11b82528180611bec3060048301610457565b03915afa938415611c5b575b600094611c2a575b5091611c256119c492611c1b611bc66020600197015161044b565b9086161415611b42565b611625565b6001939194506119c492611c1b611bc66020611c4d611c2595610c4d3d826105c1565b989597505050509250611c00565b611c63610767565b611bf8565b91906060838203126104c957604051611c80816105a6565b8093805182526020810151611c94816104e1565b60208301526040810151906001600160401b038211611cf957019082601f8301121561064557815191611cc6836105e4565b93611cd460405195866105c1565b83855260208483010111611cf957604092611cf591602080870191016111f1565b0152565b505050505050600080fd5b9190916040818403126104c95780516001600160401b0393908481116106455781611d30918401611c68565b9360208301519081116106455761050b9201611c68565b60405190611d54826105a6565b60006040838281528260208201520152565b611d7b611d8191611d75611d47565b50611e0c565b91611e0c565b81516001600160a01b039081169291908315611e01575b65ffffffffffff928391826040816020850151169301511693836040816020840151169201511690808410611df9575b50808511611df1575b5060405195611ddf876105a6565b16855216602084015216604082015290565b935038611dd1565b925038611dc8565b815181169350611d98565b611e14611d47565b5065ffffffffffff808260a01c168015611e53575b60405192611e36846105a6565b6001600160a01b038116845260d01c602084015216604082015290565b5080611e29565b6040919493926060820195825260208201520152565b90611e79611848565b80516001600160a01b0393611ec0918590611e939061044b565b16151580611ffd575b611fb5575b8351604080516020810192835290810192909252909182906060820190565b0391611ed4601f19938481018352826105c1565b519020611f1b60008051602061240f833981519152549260008051602061254f83398151915254611f0f604051948592602084019788611e5a565b039081018352826105c1565b51902092611f6e6020840194611f63611f34875161044b565b917b0ca2ba3432b932bab69029b4b3b732b21026b2b9b9b0b3b29d05199960211b600052601c52603c60002090565b6040860151916120f7565b9384611f8a575b5050505190600014611f845790565b60011790565b611fa991929394506020611fa1611bc6925161044b565b94015161044b565b91161490388080611f75565b611ff8611fc5602086015161044b565b611fce81610f6c565b60008051602061250f833981519152805460ff191660011790556001600160a01b03166020850152565b611ea1565b508461200c602085015161044b565b1615611e9c565b9061203f61201f61188a565b825160408051602081019283529081019590955290939182906060820190565b0391612053601f19938481018352826105c1565b51902061208e60008051602061240f833981519152549260008051602061254f83398151915254611f0f604051948592602084019788611e5a565b519020916120b260208301936120a7611f34865161044b565b6040850151916120f7565b92836120c5575b5050519015611f845790565b6120e39192935060206120db611bc6925161044b565b93015161044b565b6001600160a01b03909116149038806120b9565b61210183836121ea565b60058195929510156121ce571593846121b8575b508315612123575b50505090565b600092935090829160405161216a8161215c6020820194630b135d3f60e11b998a87526024840152604060448401526064830190611226565b03601f1981018352826105c1565b51915afa9061217761099f565b826121aa575b8261218d575b505038808061211d565b6121a291925060208082518301019101610758565b143880612183565b91506020825110159161217d565b6001600160a01b03838116911614935038612115565b505050505050634e487b7160e01b600052602160045260246000fd5b90604181511460001461221857612214916020820151906060604084015193015160001a90612222565b9091565b5050600090600290565b9291906fa2a8918ca85bafe22016d0b997e4df60600160ff1b0383116122965791608094939160ff602094604051948552168484015260408301526060820152600093849182805260015afa15612289575b81516001600160a01b0381161561181e579190565b612291610767565b612274565b50505050600090600390565b60405163ffffffff60e01b6000351660208201526020815261050b8161057e565b6040516370a0823160e01b81523060048201526020816024817f00000000000000000000000000000000000000000000000000000000000000006001600160a01b03165afa9081156107eb576000916107d3575090565b7f00000000000000000000000000000000000000000000000000000000000000006001600160a01b0316803b156104da5760006024916040519283809263b760faf960e01b825230600483015234905af18015612391575b6123795750565b6000906123863d826105c1565b3d8101031261044557565b612399610767565b612372565b6123a930331461140d565b6001600160a01b037f00000000000000000000000000000000000000000000000000000000000000008116803b156106455760009283604492604051968795869463040b850f60e31b865216600485015260248401525af1801561239157612379575056fe5369c026cf11a52d1702790247c99d6473513f9d73c8fc685cb047d94b9acb584910fdfa16fed3260ed0e7147f7cc6da11a60208b5b9406d12a635614ffd9143d426cdbd3e35f570909c91780d46ad213fdc6f1dcd76b8c6f693eba2d281e62ed426cdbd3e35f570909c91780d46ad213fdc6f1dcd76b8c6f693eba2d281e62f46756e6374696f6e206d7573742062652063616c6c6564207468726f75676820360894a13ba1a3210667c828492db98dca3e2076cc3735a920a3ca505d382bbcd426cdbd3e35f570909c91780d46ad213fdc6f1dcd76b8c6f693eba2d281e631bc7cd75a20ee27fd9adebab32041f755214dbc6bffa90cc0225b39da2e5c2d3bd426cdbd3e35f570909c91780d46ad213fdc6f1dcd76b8c6f693eba2d281e632d426cdbd3e35f570909c91780d46ad213fdc6f1dcd76b8c6f693eba2d281e6305369c026cf11a52d1702790247c99d6473513f9d73c8fc685cb047d94b9acb59a3646970667358221220ef8143d2bd4727cc319b8315415ec3797477b13f026cf43a75e584a58a53c6746c6578706572696d656e74616cf564736f6c634300080c0041",
  "devdoc": {
    "kind": "dev",
    "methods": {
      "proxiableUUID()": {
        "details": "Implementation of the ERC1822 {proxiableUUID} function. This returns the storage slot used by the implementation. It is used to validate the implementation's compatibility when performing an upgrade. IMPORTANT: A proxy pointing at a proxiable contract should not be considered proxiable itself, because this risks bricking a proxy that upgrades to it, by delegating to itself until out of gas. Thus it is critical that this function revert if invoked through a proxy. This is guaranteed by the `notDelegated` modifier."
      },
      "upgradeTo(address)": {
        "custom:oz-upgrades-unsafe-allow-reachable": "delegatecall",
        "details": "Upgrade the implementation of the proxy to `newImplementation`. Calls {_authorizeUpgrade}. Emits an {Upgraded} event."
      },
      "upgradeToAndCall(address,bytes)": {
        "custom:oz-upgrades-unsafe-allow-reachable": "delegatecall",
        "details": "Upgrade the implementation of the proxy to `newImplementation`, and subsequently execute the function call encoded in `data`. Calls {_authorizeUpgrade}. Emits an {Upgraded} event."
      }
    },
    "version": 1
  },
  "userdoc": {
    "kind": "user",
    "methods": {
      "entryPoint()": {
        "notice": "ERC4337 BaseAccount "
      },
      "execute((address,uint256,bytes))": {
        "notice": "IExectuable "
      },
      "getDeposit()": {
        "notice": "Paymaster "
      },
      "getNonce()": {
        "notice": "Return the account nonce. This method returns the next sequential nonce. For a nonce of a specific key, use `entrypoint.getNonce(account, key)`"
      },
      "implementation()": {
        "notice": "UUPSUpgradeable "
      },
      "validateUserOp((address,uint256,bytes,bytes,uint256,uint256,uint256,uint256,uint256,bytes,bytes),bytes32,uint256)": {
        "notice": "Validate user's signature and nonce. subclass doesn't need to override this method. Instead, it should override the specific internal validation methods."
      }
    },
    "version": 1
  },
  "storageLayout": {
    "storage": [
      {
        "astId": 1826,
        "contract": "contracts/account/Account.sol:Account",
        "label": "_initialized",
        "offset": 0,
        "slot": "0",
        "type": "t_uint8"
      },
      {
        "astId": 1829,
        "contract": "contracts/account/Account.sol:Account",
        "label": "_initializing",
        "offset": 1,
        "slot": "0",
        "type": "t_bool"
      }
    ],
    "types": {
      "t_bool": {
        "encoding": "inplace",
        "label": "bool",
        "numberOfBytes": "1"
      },
      "t_uint8": {
        "encoding": "inplace",
        "label": "uint8",
        "numberOfBytes": "1"
      }
    }
  }
}