{
  "address": "0x6e00f1309d1d72eCcD61Bb394c3cF7E5496F9693",
  "abi": [
    {
      "inputs": [
        {
          "internalType": "address",
          "name": "entryPoint",
          "type": "address"
        },
        {
          "internalType": "address",
          "name": "erc4972Registry",
          "type": "address"
        }
      ],
      "stateMutability": "nonpayable",
      "type": "constructor"
    },
    {
      "inputs": [],
      "name": "InvalidAccountImplementation",
      "type": "error"
    },
    {
      "inputs": [
        {
          "internalType": "address",
          "name": "owner",
          "type": "address"
        }
      ],
      "name": "InvalidNameOwner",
      "type": "error"
    },
    {
      "inputs": [
        {
          "internalType": "bytes32",
          "name": "name",
          "type": "bytes32"
        }
      ],
      "name": "InvalidNameToSet",
      "type": "error"
    },
    {
      "inputs": [
        {
          "internalType": "uint8",
          "name": "",
          "type": "uint8"
        }
      ],
      "name": "InvalidSignType",
      "type": "error"
    },
    {
      "inputs": [],
      "name": "OnlySelfCallAllowed",
      "type": "error"
    },
    {
      "inputs": [],
      "name": "onlyEntryPointCallAllowed",
      "type": "error"
    },
    {
      "anonymous": false,
      "inputs": [
        {
          "indexed": false,
          "internalType": "address",
          "name": "previousAdmin",
          "type": "address"
        },
        {
          "indexed": false,
          "internalType": "address",
          "name": "newAdmin",
          "type": "address"
        }
      ],
      "name": "AdminChanged",
      "type": "event"
    },
    {
      "anonymous": false,
      "inputs": [
        {
          "indexed": true,
          "internalType": "address",
          "name": "beacon",
          "type": "address"
        }
      ],
      "name": "BeaconUpgraded",
      "type": "event"
    },
    {
      "anonymous": false,
      "inputs": [
        {
          "indexed": false,
          "internalType": "uint8",
          "name": "version",
          "type": "uint8"
        }
      ],
      "name": "Initialized",
      "type": "event"
    },
    {
      "anonymous": false,
      "inputs": [
        {
          "indexed": true,
          "internalType": "address",
          "name": "",
          "type": "address"
        }
      ],
      "name": "NameOwnerUpdated",
      "type": "event"
    },
    {
      "anonymous": false,
      "inputs": [
        {
          "indexed": true,
          "internalType": "bytes32",
          "name": "name",
          "type": "bytes32"
        }
      ],
      "name": "NameUpdated",
      "type": "event"
    },
    {
      "anonymous": false,
      "inputs": [
        {
          "indexed": true,
          "internalType": "address",
          "name": "",
          "type": "address"
        }
      ],
      "name": "SecondFactorAdded",
      "type": "event"
    },
    {
      "anonymous": false,
      "inputs": [
        {
          "indexed": true,
          "internalType": "address",
          "name": "",
          "type": "address"
        }
      ],
      "name": "SecondFactorRemoved",
      "type": "event"
    },
    {
      "anonymous": false,
      "inputs": [
        {
          "indexed": true,
          "internalType": "address",
          "name": "implementation",
          "type": "address"
        }
      ],
      "name": "Upgraded",
      "type": "event"
    },
    {
      "stateMutability": "nonpayable",
      "type": "fallback"
    },
    {
      "inputs": [],
      "name": "addDeposit",
      "outputs": [],
      "stateMutability": "payable",
      "type": "function"
    },
    {
      "inputs": [
        {
          "internalType": "address",
          "name": "factor",
          "type": "address"
        }
      ],
      "name": "addSecondFactor",
      "outputs": [],
      "stateMutability": "nonpayable",
      "type": "function"
    },
    {
      "inputs": [],
      "name": "entryPoint",
      "outputs": [
        {
          "internalType": "contract IEntryPoint",
          "name": "",
          "type": "address"
        }
      ],
      "stateMutability": "view",
      "type": "function"
    },
    {
      "inputs": [
        {
          "internalType": "address",
          "name": "dest",
          "type": "address"
        },
        {
          "internalType": "uint256",
          "name": "value",
          "type": "uint256"
        },
        {
          "internalType": "bytes",
          "name": "func",
          "type": "bytes"
        }
      ],
      "name": "execute",
      "outputs": [],
      "stateMutability": "nonpayable",
      "type": "function"
    },
    {
      "inputs": [
        {
          "internalType": "address[]",
          "name": "dest",
          "type": "address[]"
        },
        {
          "internalType": "bytes[]",
          "name": "func",
          "type": "bytes[]"
        }
      ],
      "name": "executeBatch",
      "outputs": [],
      "stateMutability": "nonpayable",
      "type": "function"
    },
    {
      "inputs": [
        {
          "internalType": "address[]",
          "name": "dest",
          "type": "address[]"
        },
        {
          "internalType": "uint256[]",
          "name": "value",
          "type": "uint256[]"
        },
        {
          "internalType": "bytes[]",
          "name": "func",
          "type": "bytes[]"
        }
      ],
      "name": "executeBatch",
      "outputs": [],
      "stateMutability": "nonpayable",
      "type": "function"
    },
    {
      "inputs": [],
      "name": "getDeposit",
      "outputs": [
        {
          "internalType": "uint256",
          "name": "",
          "type": "uint256"
        }
      ],
      "stateMutability": "view",
      "type": "function"
    },
    {
      "inputs": [],
      "name": "getERC4972Registry",
      "outputs": [
        {
          "internalType": "contract IERC4972Registry",
          "name": "",
          "type": "address"
        }
      ],
      "stateMutability": "view",
      "type": "function"
    },
    {
      "inputs": [],
      "name": "getName",
      "outputs": [
        {
          "internalType": "bytes32",
          "name": "",
          "type": "bytes32"
        }
      ],
      "stateMutability": "view",
      "type": "function"
    },
    {
      "inputs": [],
      "name": "getNameOwner",
      "outputs": [
        {
          "internalType": "address",
          "name": "",
          "type": "address"
        }
      ],
      "stateMutability": "view",
      "type": "function"
    },
    {
      "inputs": [],
      "name": "getNonce",
      "outputs": [
        {
          "internalType": "uint256",
          "name": "",
          "type": "uint256"
        }
      ],
      "stateMutability": "view",
      "type": "function"
    },
    {
      "inputs": [],
      "name": "getSecondFactor",
      "outputs": [
        {
          "internalType": "address",
          "name": "",
          "type": "address"
        }
      ],
      "stateMutability": "view",
      "type": "function"
    },
    {
      "inputs": [],
      "name": "implementation",
      "outputs": [
        {
          "internalType": "address",
          "name": "",
          "type": "address"
        }
      ],
      "stateMutability": "view",
      "type": "function"
    },
    {
      "inputs": [
        {
          "internalType": "bytes32",
          "name": "name",
          "type": "bytes32"
        },
        {
          "internalType": "address",
          "name": "owner",
          "type": "address"
        }
      ],
      "name": "initialize",
      "outputs": [],
      "stateMutability": "nonpayable",
      "type": "function"
    },
    {
      "inputs": [],
      "name": "proxiableUUID",
      "outputs": [
        {
          "internalType": "bytes32",
          "name": "",
          "type": "bytes32"
        }
      ],
      "stateMutability": "view",
      "type": "function"
    },
    {
      "inputs": [
        {
          "internalType": "address",
          "name": "factor",
          "type": "address"
        }
      ],
      "name": "removeSecondFactor",
      "outputs": [],
      "stateMutability": "nonpayable",
      "type": "function"
    },
    {
      "inputs": [
        {
          "internalType": "bytes32",
          "name": "name",
          "type": "bytes32"
        }
      ],
      "name": "setName",
      "outputs": [],
      "stateMutability": "nonpayable",
      "type": "function"
    },
    {
      "inputs": [],
      "name": "setNameOwner",
      "outputs": [
        {
          "internalType": "bool",
          "name": "updated",
          "type": "bool"
        }
      ],
      "stateMutability": "nonpayable",
      "type": "function"
    },
    {
      "inputs": [
        {
          "internalType": "address",
          "name": "newImplementation",
          "type": "address"
        }
      ],
      "name": "upgradeTo",
      "outputs": [],
      "stateMutability": "nonpayable",
      "type": "function"
    },
    {
      "inputs": [
        {
          "internalType": "address",
          "name": "newImplementation",
          "type": "address"
        },
        {
          "internalType": "bytes",
          "name": "data",
          "type": "bytes"
        }
      ],
      "name": "upgradeToAndCall",
      "outputs": [],
      "stateMutability": "payable",
      "type": "function"
    },
    {
      "inputs": [
        {
          "components": [
            {
              "internalType": "address",
              "name": "sender",
              "type": "address"
            },
            {
              "internalType": "uint256",
              "name": "nonce",
              "type": "uint256"
            },
            {
              "internalType": "bytes",
              "name": "initCode",
              "type": "bytes"
            },
            {
              "internalType": "bytes",
              "name": "callData",
              "type": "bytes"
            },
            {
              "internalType": "uint256",
              "name": "callGasLimit",
              "type": "uint256"
            },
            {
              "internalType": "uint256",
              "name": "verificationGasLimit",
              "type": "uint256"
            },
            {
              "internalType": "uint256",
              "name": "preVerificationGas",
              "type": "uint256"
            },
            {
              "internalType": "uint256",
              "name": "maxFeePerGas",
              "type": "uint256"
            },
            {
              "internalType": "uint256",
              "name": "maxPriorityFeePerGas",
              "type": "uint256"
            },
            {
              "internalType": "bytes",
              "name": "paymasterAndData",
              "type": "bytes"
            },
            {
              "internalType": "bytes",
              "name": "signature",
              "type": "bytes"
            }
          ],
          "internalType": "struct UserOperation",
          "name": "userOp",
          "type": "tuple"
        },
        {
          "internalType": "bytes32",
          "name": "userOpHash",
          "type": "bytes32"
        },
        {
          "internalType": "uint256",
          "name": "missingAccountFunds",
          "type": "uint256"
        }
      ],
      "name": "validateUserOp",
      "outputs": [
        {
          "internalType": "uint256",
          "name": "validationData",
          "type": "uint256"
        }
      ],
      "stateMutability": "nonpayable",
      "type": "function"
    },
    {
      "inputs": [],
      "name": "version",
      "outputs": [
        {
          "internalType": "uint256",
          "name": "",
          "type": "uint256"
        }
      ],
      "stateMutability": "pure",
      "type": "function"
    },
    {
      "inputs": [
        {
          "internalType": "address payable",
          "name": "withdrawAddress",
          "type": "address"
        },
        {
          "internalType": "uint256",
          "name": "amount",
          "type": "uint256"
        }
      ],
      "name": "withdrawDepositTo",
      "outputs": [],
      "stateMutability": "nonpayable",
      "type": "function"
    },
    {
      "stateMutability": "payable",
      "type": "receive"
    }
  ],
  "transactionHash": "0x0c980a2199f9387fbe4fd9e33fbaef05dd94b2112ac701ccfc7cd0870915fde4",
  "args": [
    "0x5FF137D4b0FDCD49DcA30c7CF57E578a026d2789",
    "0xFE6Ff79B588CF2D97c4f7F6d1A52bBe0A5ECd71E"
  ],
  "numDeployments": 9,
  "solcInputHash": "6755e9c738383265d6ee71789173cec9",
  "bytecode": "0x60e08060405234620000fa57601f6200202338819003918201601f19168301916001600160401b0383118484101762000100578084926040948552833981010312620000fa57806200006360206200005b6200007b946200011a565b92016200011a565b6001600160a01b039182166080521660a0523060c052565b604051611eeb90816200013882396080518181816101d70152818161081e0152818161088d01528181611365015281816113e101528181611519015281816116a6015281816116e40152611778015260a0518181816102680152818161183c015261198f015260c051818181610b3b01528181610c8c01526110250152f35b50600080fd5b50505050634e487b7160e01b600052604160045260246000fd5b51906001600160a01b0382168214156200013057565b5050600080fdfe6040608081526004361015610032575b503615610030573461002b57610023611646565b602081519101f35b600080fd5b005b600090813560e01c80631023179e1461043557806317d7de7c1461040257806318dfb3c7146103e75780633659cfe6146103d05780633a871cdd146103b357806347e1da2a146103955780634a58db19146103835780634d44560d1461036b5780634f1ef2861461035857806352d1902d1461033c57806354fd4d501461032157806357af06fe146102f45780635ac801fe146102dd5780635c60da1b146102a55780636910e3341461028d5780637c226cb01461025057806386a342eb14610218578063b081adeb14610201578063b0d691fe146101bf578063b61d27f6146101a4578063c399ec8814610188578063d087d288146101595763e76b05f91461013c575061000f565b346101555761015261014d36610544565b611cda565b51f35b5080fd5b503461015557610184915061016d3661046f565b6101756107fc565b90519081529081906020820190565b0390f35b503461015557610184915061019c3661046f565b61017561168b565b5034610155576101526101b636610785565b92919091611360565b5090346101fc57506101d03661046f565b51806101847f000000000000000000000000000000000000000000000000000000000000000082610483565b809150fd5b50346101555761015261021336610544565b611d39565b503461015557610184915061022c3661046f565b600080516020611e088339815191525490519182916001600160a01b031682610483565b5090346101fc57506102613661046f565b51806101847f000000000000000000000000000000000000000000000000000000000000000082610483565b50346101555761015261029f36610769565b90611233565b50346101555761018491506102b93661046f565b600080516020611e488339815191525490519182916001600160a01b031682610483565b5034610155576101526102ef36610757565b611963565b50346101555761018491506103083661046f565b610310611816565b905190151581529081906020820190565b5090346101fc57506103323661046f565b5160018152602090f35b50346101555761018491506103503661046f565b610175610b38565b506101526103653661070e565b9061101b565b50346101555761015261037d36610611565b90611766565b5061038d3661046f565b6101526116e2565b5034610155576101526103a736610599565b94939093929192611511565b50346101555761018491506101756103ca3661055f565b91610880565b5034610155576101526103e236610544565b610c82565b5034610155576101526103f9366104d7565b929190916113db565b50346101555761018491506104163661046f565b600080516020611dc88339815191525490519081529081906020820190565b50503461046c57506104463661046f565b600080516020611e88833981519152546001600160a01b0316608052607f1960a0016080f35b80fd5b600090600319011261047d57565b50600080fd5b6001600160a01b03909116815260200190565b9181601f840112156104c6578235916001600160401b0383116104ce576020808501948460051b0101116104c657565b505050600080fd5b50505050600080fd5b604060031982011261052b576001600160401b03916004358381116104ce578261050391600401610496565b939093926024359182116105215761051d91600401610496565b9091565b5050505050600080fd5b5050600080fd5b6001600160a01b038116141561047d57565b602090600319011261047d5760043561055c81610532565b90565b600319906060818301126104c657600435916001600160401b0383116104ce57826101609203011261052b57600401906024359060443590565b90606060031983011261052b576001600160401b036004358181116104ce57836105c591600401610496565b9390939260243583811161060657826105e091600401610496565b939093926044359182116105fa5761051d91600401610496565b50505050505050600080fd5b505050505050600080fd5b604090600319011261047d5760043561062981610532565b9060243590565b50634e487b7160e01b600052604160045260246000fd5b602081019081106001600160401b0382111761066257604052565b61066a610630565b604052565b606081019081106001600160401b0382111761066257604052565b601f909101601f19168101906001600160401b0382119082101761066257604052565b6020906001600160401b0381116106ca575b601f01601f19160190565b6106d2610630565b6106bf565b9291926106e3826106ad565b916106f1604051938461068a565b829481845281830111610521578281602093846000960137010152565b90604060031983011261052b5760043561072781610532565b91602435906001600160401b0382116104ce57806023830112156104ce5781602461055c936004013591016106d7565b602090600319011261047d5760043590565b604090600319011261047d576004359060243561055c81610532565b90606060031983011261052b5760043561079e81610532565b91602435916001600160401b03916044359083821161060657806023830112156106065781600401359384116106065760248483010111610521576024019190565b9081602091031261052b575190565b506040513d6000823e3d90fd5b604051631aab3f0d60e11b8152306004820152600060248201526020816044817f00000000000000000000000000000000000000000000000000000000000000006001600160a01b03165afa908115610873575b60009161085b575090565b61055c915061086a3d8261068a565b3d8101906107e0565b61087b6107ef565b610850565b92906001600160a01b03337f000000000000000000000000000000000000000000000000000000000000000082161415610a9f576101408501946108e76108e16108d36108cd89856114b9565b906115d6565b356001600160f81b03191690565b60f81c90565b9560ff8716610a77576109666109ab6109b7610a1797989961092461091e610918610912888a6114b9565b906115e7565b9061161a565b60a01c90565b60405160f89290921b6001600160f81b0319166020830190815260a082901b6001600160a01b0319166021840152602d8301999099529790938490604d820190565b039361097a601f199586810183528261068a565b51902092600080516020611dc883398151915254936040519384916020830196879091604092825260208201520190565b0390810183528261068a565b519020916109e16109db6109d46109ce85856114b9565b906115f8565b36916106d7565b84611a5d565b809481610a5c575b50610a22575b505050600014610a195760ff60005b60a09290921b6001600160a01b03191691161792610b17565b565b60ff60016109fe565b83610a33575b5050503880806109ef565b610a549350610a48610a4e926109d4926114b9565b90611609565b90611d96565b388080610a28565b9050600080516020611e0883398151915254161515386109e9565b505060405163cde6e16360e01b815260ff9590951660048601525060249392505050fd5b0390fd5b5050505050606460405162461bcd60e51b815260206004820152601c60248201527b1858d8dbdd5b9d0e881b9bdd08199c9bdb48115b9d1c9e541bda5b9d60221b6044820152fd5b3d15610b12573d90610af8826106ad565b91610b06604051938461068a565b82523d6000602084013e565b606090565b80610b1f5750565b600080809260405190338319f150610b35610ae7565b50565b307f00000000000000000000000000000000000000000000000000000000000000006001600160a01b03161415610b7b57600080516020611e4883398151915290565b5060405162461bcd60e51b815260206004820152603860248201527f555550535570677261646561626c653a206d757374206e6f742062652063616c6044820152771b1959081d1a1c9bdd59da0819195b1959d85d1958d85b1b60421b6064820152608490fd5b15610be957565b5060405162461bcd60e51b815260206004820152602c6024820152600080516020611e2883398151915260448201526b19195b1959d85d1958d85b1b60a21b6064820152608490fd5b15610c3957565b5060405162461bcd60e51b815260206004820152602c6024820152600080516020611e2883398151915260448201526b6163746976652070726f787960a01b6064820152608490fd5b6001600160a01b037f000000000000000000000000000000000000000000000000000000000000000081169190610cbb30841415610be2565b610cd8600080516020611e48833981519152938285541614610c32565b30331415610dac57813b15610d975760405190610cf482610647565b600082526000366020840137600080516020611de88339815191525460ff1615610d24575050610a179150610e9d565b6020600491604094939451928380926352d1902d60e01b825286165afa60009181610d80575b50610d6d57505050505060405162461bcd60e51b815280610a9b60048201610e20565b610a1793610d7b9114610dc1565b610f2f565b610d9091925061086a3d8261068a565b9038610d4a565b505050506004604051637598649360e11b8152fd5b5050505060046040516373d903e760e01b8152fd5b15610dc857565b5060405162461bcd60e51b815260206004820152602960248201527f45524331393637557067726164653a20756e737570706f727465642070726f786044820152681a58589b195555525160ba1b6064820152608490fd5b60809060208152602e60208201527f45524331393637557067726164653a206e657720696d706c656d656e7461746960408201526d6f6e206973206e6f74205555505360901b60608201520190565b600080516020611e8883398151915280546001600160a01b0319166001600160a01b03909216919091179055565b803b15610ed257600080516020611e4883398151915280546001600160a01b0319166001600160a01b03909216919091179055565b505060405162461bcd60e51b815260206004820152602d60248201527f455243313936373a206e657720696d706c656d656e746174696f6e206973206e60448201526c1bdd08184818dbdb9d1c9858dd609a1b6064820152608490fd5b610f3881610e9d565b604051906001600160a01b038116600080516020611e68833981519152600084a2825115801590610fce575b610f6d57505050565b600080610b3594610f7d8561066f565b602785527f416464726573733a206c6f772d6c6576656c2064656c65676174652063616c6c6020860152660819985a5b195960ca1b6040860152602081519101845af4610fc8610ae7565b91611190565b506000610f64565b610fdf81610e9d565b604051906001600160a01b038116600080516020611e68833981519152600084a282511580159061101357610f6d57505050565b506001610f64565b6001600160a01b037f00000000000000000000000000000000000000000000000000000000000000008116929061105430851415610be2565b611071600080516020611e48833981519152948286541614610c32565b3033141561112d57823b1561111757600080516020611de88339815191525460ff16156110a4575050610a179150610e9d565b6020600491604094939451928380926352d1902d60e01b825286165afa60009181611100575b506110ed57505050505060405162461bcd60e51b815280610a9b60048201610e20565b610a17936110fb9114610dc1565b610fd6565b61111091925061086a3d8261068a565b90386110ca565b50505050506004604051637598649360e11b8152fd5b505050505060046040516373d903e760e01b8152fd5b1561114a57565b5060405162461bcd60e51b815260206004820152601d60248201527f416464726573733a2063616c6c20746f206e6f6e2d636f6e74726163740000006044820152606490fd5b919290156111b057508151156111a4575090565b61055c903b1515611143565b8251929350911590506111c65750805190602001fd5b90506040519062461bcd60e51b82528160208060048301528251928360248401526000915b84831061121a57505091806044931161120d575b601f01601f19168101030190fd5b60008382840101526111ff565b81830181015186840160440152859350918201916111eb565b6000549160ff8360081c161580938194611352575b8115611332575b50156112d357611275918361126c600160ff196000541617600055565b6112ba576117e8565b61127b57565b61128b61ff001960005416600055565b604051600181527f7f26b83ff96e1f2b6a682f133852f6798a09c465da95921460cefb384740249890602090a1565b6112ce61010061ff00196000541617600055565b6117e8565b50505050608460405162461bcd60e51b815260206004820152602e60248201527f496e697469616c697a61626c653a20636f6e747261637420697320616c72656160448201526d191e481a5b9a5d1a585b1a5e995960921b6064820152fd5b303b15915081611344575b503861124f565b6001915060ff16143861133d565b600160ff8216109150611248565b9192337f00000000000000000000000000000000000000000000000000000000000000006001600160a01b031614156113c55761139b611816565b156113a7575b50505050565b6113bc936113b69136916106d7565b916115c0565b388080806113a1565b5050505050600460405163240990e360e21b8152fd5b939290337f00000000000000000000000000000000000000000000000000000000000000006001600160a01b031614156113c557611417611816565b15611424575b5050509050565b60005b818110611434575061141d565b60008061144283858a61149b565b3561144c81610532565b61145a6109d485888a6114eb565b9082602083519301915af11561147257600101611427565b5050505050506040513d6000823e3d90fd5b50634e487b7160e01b600052603260045260246000fd5b91908110156114ac575b60051b0190565b6114b4611484565b6114a5565b903590601e19813603018212156104c657018035906001600160401b0382116104c6576020019181360383136104c657565b909161051d92811015611504575b60051b8101906114b9565b61150c611484565b6114f9565b9491939290337f00000000000000000000000000000000000000000000000000000000000000006001600160a01b031614156115a85761154f611816565b1561155d575b505050505050565b60005b81811061156d5750611555565b806115a261157e600193858b61149b565b3561158881610532565b61159383878b61149b565b356113b66109d4858a8c6114eb565b01611560565b50505050505050600460405163240990e360e21b8152fd5b916000928392602083519301915af1156107ef57565b90156115df5790565b61055c611484565b90600d1161052b5760010190600c90565b90604e1161052b57600d0190604190565b90608f1161052b57604e0190604190565b6001600160a01b031990358181169392600c811061163757505050565b600c0360031b82901b16169150565b604080516000356001600160e01b03191660208083019190915281529081016001600160401b0381118282101761167e575b60405290565b611686610630565b611678565b6040516370a0823160e01b81523060048201526020816024817f00000000000000000000000000000000000000000000000000000000000000006001600160a01b03165afa9081156108735760009161085b575090565b7f00000000000000000000000000000000000000000000000000000000000000006001600160a01b0316803b1561052b5760006024916040519283809263b760faf960e01b825230600483015234905af18015611759575b6117415750565b60009061174e3d8261068a565b3d8101031261047d57565b6117616107ef565b61173a565b303314156117d3576001600160a01b037f00000000000000000000000000000000000000000000000000000000000000008116803b156105215760009283604492604051968795869463040b850f60e31b865216600485015260248401525af18015611759576117415750565b50506040516373d903e760e01b815260049150fd5b600080516020611dc883398151915255610a1790610e6f565b9081602091031261052b575161055c81610532565b60405163ced73bf360e01b81526001600160a01b039081906020906118a19082816004817f000000000000000000000000000000000000000000000000000000000000000088165afa908115611956575b600091611941575b50600080516020611dc8833981519152546040519485809481936302571be360e01b8352600483019190602083019252565b0392165afa908115611934575b600091611916575b50600080516020611e88833981519152546001600160a01b031691811691821461190f576118e390610e6f565b7f67ce6d6cc04f1f7e5329ae3cbf82839804a8bd84668bd95a043530abef1d5c5f6000604051a2600190565b5050600090565b61192e91506119253d8261068a565b3d810190611801565b386118b6565b61193c6107ef565b6118ae565b61195091506119253d8261068a565b3861186f565b61195e6107ef565b611867565b30331415611a495760405163334a8eab60e21b8152600481018290526001600160a01b036020826024817f000000000000000000000000000000000000000000000000000000000000000085165afa918215611a3c575b600092611a25575b5016301415611a0a576119e181600080516020611dc883398151915255565b7fe6dcf27cbc01d3f59e108b5fec71c28badb8b4bff2572dfcc675530ebdf7e8db6000604051a2565b604051630b77903b60e01b8152600481019190915260249150fd5b611a359192506119253d8261068a565b90386119c2565b611a446107ef565b6119ba565b50506040516373d903e760e01b8152600490fd5b611a7a91611a6d611a7292611cac565b611bf2565b919091611ad0565b600080516020611e88833981519152546001600160a01b03908116918215611aa157161490565b611aaa81610e6f565b161490565b60051115611ab957565b50634e487b7160e01b600052602160045260246000fd5b611ad981611aaf565b80611ae15750565b611aea81611aaf565b6001811415611b3557505060405162461bcd60e51b815260206004820152601860248201527745434453413a20696e76616c6964207369676e617475726560401b6044820152606490fd5b611b3e81611aaf565b6002811415611b8e57505060405162461bcd60e51b815260206004820152601f60248201527f45434453413a20696e76616c6964207369676e6174757265206c656e677468006044820152606490fd5b80611b9a600392611aaf565b14611ba157565b5060405162461bcd60e51b815260206004820152602260248201527f45434453413a20696e76616c6964207369676e6174757265202773272076616c604482015261756560f01b6064820152608490fd5b906041815114600014611c1c5761051d916020820151906060604084015193015160001a90611c26565b5050600090600290565b9291906fa2a8918ca85bafe22016d0b997e4df60600160ff1b038311611ca05791608094939160ff602094604051948552168484015260408301526060820152600093849182805260015afa15611c93575b81516001600160a01b03811615611c8d579190565b50600190565b611c9b6107ef565b611c78565b50505050600090600390565b7b0ca2ba3432b932bab69029b4b3b732b21026b2b9b9b0b3b29d05199960211b600052601c52603c60002090565b30331415611a4957600080516020611e0883398151915280546001600160a01b0319166001600160a01b039290921691821790556040517f3fdae93f157af6b36f7fb7029bbbc82eff75c389f0981fa9fe6c744bf37aabdb90600090a2565b30331415611a4957600080516020611e0883398151915280546001600160a01b03191690556040516001600160a01b0391909116907f16f7001d5919839a01875239ae283efa6b5abf89ef232b10db696d358b8b85b490600090a2565b611da691611a6d611a7292611cac565b600080516020611e08833981519152546001600160a01b039182169116149056fe5369c026cf11a52d1702790247c99d6473513f9d73c8fc685cb047d94b9acb584910fdfa16fed3260ed0e7147f7cc6da11a60208b5b9406d12a635614ffd91438b559ae1c42aa1480cea66c1bbafe3ae41b76c5b3f8532e417f0f76699fffdd946756e6374696f6e206d7573742062652063616c6c6564207468726f75676820360894a13ba1a3210667c828492db98dca3e2076cc3735a920a3ca505d382bbcbc7cd75a20ee27fd9adebab32041f755214dbc6bffa90cc0225b39da2e5c2d3b5369c026cf11a52d1702790247c99d6473513f9d73c8fc685cb047d94b9acb59a364697066735822122059b5193ce1c09957f062306846938142c1f8f5901dbc9abcf45a224df819c4886c6578706572696d656e74616cf564736f6c634300080c0041",
  "devdoc": {
    "kind": "dev",
    "methods": {
      "proxiableUUID()": {
        "details": "Implementation of the ERC1822 {proxiableUUID} function. This returns the storage slot used by the implementation. It is used to validate the implementation's compatibility when performing an upgrade. IMPORTANT: A proxy pointing at a proxiable contract should not be considered proxiable itself, because this risks bricking a proxy that upgrades to it, by delegating to itself until out of gas. Thus it is critical that this function revert if invoked through a proxy. This is guaranteed by the `notDelegated` modifier."
      },
      "upgradeTo(address)": {
        "custom:oz-upgrades-unsafe-allow-reachable": "delegatecall",
        "details": "Upgrade the implementation of the proxy to `newImplementation`. Calls {_authorizeUpgrade}. Emits an {Upgraded} event."
      },
      "upgradeToAndCall(address,bytes)": {
        "custom:oz-upgrades-unsafe-allow-reachable": "delegatecall",
        "details": "Upgrade the implementation of the proxy to `newImplementation`, and subsequently execute the function call encoded in `data`. Calls {_authorizeUpgrade}. Emits an {Upgraded} event."
      }
    },
    "version": 1
  },
  "userdoc": {
    "kind": "user",
    "methods": {
      "entryPoint()": {
        "notice": "ERC4337 BaseAccount "
      },
      "execute(address,uint256,bytes)": {
        "notice": "IExecutionManager "
      },
      "executeBatch(address[],bytes[])": {
        "notice": "execute a sequence of transactions"
      },
      "executeBatch(address[],uint256[],bytes[])": {
        "notice": "execute a sequence of transactions"
      },
      "getDeposit()": {
        "notice": "Paymaster "
      },
      "getNonce()": {
        "notice": "Return the account nonce. This method returns the next sequential nonce. For a nonce of a specific key, use `entrypoint.getNonce(account, key)`"
      },
      "implementation()": {
        "notice": "UUPSUpgradeable "
      },
      "validateUserOp((address,uint256,bytes,bytes,uint256,uint256,uint256,uint256,uint256,bytes,bytes),bytes32,uint256)": {
        "notice": "Validate user's signature and nonce. subclass doesn't need to override this method. Instead, it should override the specific internal validation methods."
      }
    },
    "version": 1
  },
  "storageLayout": {
    "storage": [
      {
        "astId": 1878,
        "contract": "contracts/account/Account.sol:Account",
        "label": "_initialized",
        "offset": 0,
        "slot": "0",
        "type": "t_uint8"
      },
      {
        "astId": 1881,
        "contract": "contracts/account/Account.sol:Account",
        "label": "_initializing",
        "offset": 1,
        "slot": "0",
        "type": "t_bool"
      }
    ],
    "types": {
      "t_bool": {
        "encoding": "inplace",
        "label": "bool",
        "numberOfBytes": "1"
      },
      "t_uint8": {
        "encoding": "inplace",
        "label": "uint8",
        "numberOfBytes": "1"
      }
    }
  }
}