{
  "address": "0x8b31B004f2E1b077Bd3b87Fea71E71416279169b",
  "abi": [
    {
      "inputs": [],
      "name": "Ownable__NotOwner",
      "type": "error"
    },
    {
      "inputs": [],
      "name": "Ownable__NotTransitiveOwner",
      "type": "error"
    },
    {
      "anonymous": false,
      "inputs": [
        {
          "indexed": false,
          "internalType": "address",
          "name": "previousAdmin",
          "type": "address"
        },
        {
          "indexed": false,
          "internalType": "address",
          "name": "newAdmin",
          "type": "address"
        }
      ],
      "name": "AdminChanged",
      "type": "event"
    },
    {
      "anonymous": false,
      "inputs": [
        {
          "indexed": true,
          "internalType": "address",
          "name": "beacon",
          "type": "address"
        }
      ],
      "name": "BeaconUpgraded",
      "type": "event"
    },
    {
      "anonymous": false,
      "inputs": [
        {
          "indexed": true,
          "internalType": "address",
          "name": "creator",
          "type": "address"
        },
        {
          "indexed": false,
          "internalType": "bytes32",
          "name": "salt",
          "type": "bytes32"
        },
        {
          "indexed": false,
          "internalType": "address",
          "name": "deployed",
          "type": "address"
        }
      ],
      "name": "Deployed",
      "type": "event"
    },
    {
      "anonymous": false,
      "inputs": [
        {
          "indexed": true,
          "internalType": "address",
          "name": "previousOwner",
          "type": "address"
        },
        {
          "indexed": true,
          "internalType": "address",
          "name": "newOwner",
          "type": "address"
        }
      ],
      "name": "OwnershipTransferred",
      "type": "event"
    },
    {
      "anonymous": false,
      "inputs": [
        {
          "indexed": true,
          "internalType": "address",
          "name": "implementation",
          "type": "address"
        }
      ],
      "name": "Upgraded",
      "type": "event"
    },
    {
      "inputs": [
        {
          "internalType": "bytes32",
          "name": "salt",
          "type": "bytes32"
        },
        {
          "internalType": "bytes",
          "name": "initData",
          "type": "bytes"
        }
      ],
      "name": "deployErc721",
      "outputs": [],
      "stateMutability": "nonpayable",
      "type": "function"
    },
    {
      "inputs": [],
      "name": "erc721Impl",
      "outputs": [
        {
          "internalType": "address",
          "name": "",
          "type": "address"
        }
      ],
      "stateMutability": "view",
      "type": "function"
    },
    {
      "inputs": [],
      "name": "implementation",
      "outputs": [
        {
          "internalType": "address",
          "name": "",
          "type": "address"
        }
      ],
      "stateMutability": "view",
      "type": "function"
    },
    {
      "inputs": [
        {
          "internalType": "address",
          "name": "owner",
          "type": "address"
        },
        {
          "internalType": "address",
          "name": "erc721Impl_",
          "type": "address"
        }
      ],
      "name": "init",
      "outputs": [],
      "stateMutability": "nonpayable",
      "type": "function"
    },
    {
      "inputs": [],
      "name": "owner",
      "outputs": [
        {
          "internalType": "address",
          "name": "",
          "type": "address"
        }
      ],
      "stateMutability": "view",
      "type": "function"
    },
    {
      "inputs": [
        {
          "internalType": "bytes32",
          "name": "salt",
          "type": "bytes32"
        }
      ],
      "name": "predictErc721Address",
      "outputs": [
        {
          "internalType": "address",
          "name": "",
          "type": "address"
        }
      ],
      "stateMutability": "view",
      "type": "function"
    },
    {
      "inputs": [],
      "name": "proxiableUUID",
      "outputs": [
        {
          "internalType": "bytes32",
          "name": "",
          "type": "bytes32"
        }
      ],
      "stateMutability": "view",
      "type": "function"
    },
    {
      "inputs": [
        {
          "internalType": "address",
          "name": "erc721Impl_",
          "type": "address"
        }
      ],
      "name": "setErc721Impl",
      "outputs": [],
      "stateMutability": "nonpayable",
      "type": "function"
    },
    {
      "inputs": [
        {
          "internalType": "address",
          "name": "account",
          "type": "address"
        }
      ],
      "name": "transferOwnership",
      "outputs": [],
      "stateMutability": "nonpayable",
      "type": "function"
    },
    {
      "inputs": [
        {
          "internalType": "address",
          "name": "newImplementation",
          "type": "address"
        }
      ],
      "name": "upgradeTo",
      "outputs": [],
      "stateMutability": "nonpayable",
      "type": "function"
    },
    {
      "inputs": [
        {
          "internalType": "address",
          "name": "newImplementation",
          "type": "address"
        },
        {
          "internalType": "bytes",
          "name": "data",
          "type": "bytes"
        }
      ],
      "name": "upgradeToAndCall",
      "outputs": [],
      "stateMutability": "payable",
      "type": "function"
    }
  ],
  "transactionHash": "0x5f71e08521ab583004182d434edf162a821c99f6c60814e2fecec5bf8ed81d1a",
  "args": [],
  "numDeployments": 1,
  "solcInputHash": "6b87300838d0a153f914ceaacfecdea9",
  "bytecode": "0x60a080604052346100315730608052610fea908161003882396080518181816104a3015281816105f401526109b00152f35b50600080fdfe6040608081526004361015610015575b50600080fd5b600090813560e01c80631ce6e4441461026a57806324eb5d66146102365780633659cfe61461021f5780633e930f0b146102075780634f1ef286146101f457806352d1902d146101c95780635c60da1b14610191578063766ea89d1461010c5780638da5cb5b146100d0578063f09a4016146100b85763f2fde38b1461009b575061000f565b346100b4576100b16100ac366102c0565b610be2565b51f35b5080fd5b50346100b4576100b16100ca3661046d565b90610c27565b50346100b45761010891506100e436610294565b600080516020610f878339815191525490519182916001600160a01b0316826102ad565b0390f35b50346100b45761010891506101866101233661045b565b604360559160018060a01b036000541690604051913060388401526f5af43d82803e903d91602b57fd5bf3ff60248401526014830152733d602d80600a3d3981f3363d3d373d3d3d363d73825260588201526037600c8201206078820152012090565b9051918291826102ad565b50346100b45761010891506101a536610294565b600080516020610f278339815191525490519182916001600160a01b0316826102ad565b50346100b45761010891506101dd36610294565b6101e56104a0565b90519081529081906020820190565b506100b16102013661041b565b906109a6565b50346100b4576100b1610219366103e9565b90610d0d565b50346100b4576100b1610231366102c0565b6105ea565b50346100b4576100b1610248366102c0565b600080546001600160a01b0319166001600160a01b0392909216919091179055565b5050346102915761027a36610294565b546001600160a01b0316608052607f1960a0016080f35b80fd5b600090600319011261000f57565b600091031261000f57565b6001600160a01b03909116815260200190565b602090600319011261000f576004356001600160a01b0381168114156102e35790565b5050600080fd5b50634e487b7160e01b600052604160045260246000fd5b602081019081106001600160401b0382111761031c57604052565b6103246102ea565b604052565b606081019081106001600160401b0382111761031c57604052565b601f909101601f19168101906001600160401b0382119082101761031c57604052565b6020906001600160401b038111610384575b601f01601f19160190565b61038c6102ea565b610379565b81601f820112156103e1578035906103a882610367565b926103b66040519485610344565b828452602083830101116103d857816000926020809301838601378301015290565b50505050600080fd5b505050600080fd5b9060406003198301126102e35760043591602435906001600160401b0382116103d85761041891600401610391565b90565b9060406003198301126102e3576004356001600160a01b0381168114156103e15791602435906001600160401b0382116103d85761041891600401610391565b602090600319011261000f5760043590565b604090600319011261000f576001600160a01b03906004358281168114156103e157916024359081168114156103e15790565b307f00000000000000000000000000000000000000000000000000000000000000006001600160a01b031614156104e357600080516020610f2783398151915290565b5060405162461bcd60e51b815260206004820152603860248201527f555550535570677261646561626c653a206d757374206e6f742062652063616c6044820152771b1959081d1a1c9bdd59da0819195b1959d85d1958d85b1b60421b6064820152608490fd5b1561055157565b5060405162461bcd60e51b815260206004820152602c6024820152600080516020610f0783398151915260448201526b19195b1959d85d1958d85b1b60a21b6064820152608490fd5b156105a157565b5060405162461bcd60e51b815260206004820152602c6024820152600080516020610f0783398151915260448201526b6163746976652070726f787960a01b6064820152608490fd5b6001600160a01b037f0000000000000000000000000000000000000000000000000000000000000000811691906106233084141561054a565b610640600080516020610f2783398151915293828554161461059a565b80600080516020610f878339815191525416331415610718576040519061066682610301565b600082526000366020840137600080516020610ee78339815191525460ff16156106985750506106969150610825565b565b6020600491604094939451928380926352d1902d60e01b825286165afa600091816106f8575b506106e557505050505060405162461bcd60e51b8152806106e1600482016107a8565b0390fd5b610696936106f39114610749565b6108b7565b6107119192506107083d82610344565b3d81019061072d565b90386106be565b505050506004604051632f7a8ee160e01b8152fd5b908160209103126102e3575190565b506040513d6000823e3d90fd5b1561075057565b5060405162461bcd60e51b815260206004820152602960248201527f45524331393637557067726164653a20756e737570706f727465642070726f786044820152681a58589b195555525160ba1b6064820152608490fd5b60809060208152602e60208201527f45524331393637557067726164653a206e657720696d706c656d656e7461746960408201526d6f6e206973206e6f74205555505360901b60608201520190565b600080516020610f8783398151915280546001600160a01b0319166001600160a01b03909216919091179055565b803b1561085a57600080516020610f2783398151915280546001600160a01b0319166001600160a01b03909216919091179055565b505060405162461bcd60e51b815260206004820152602d60248201527f455243313936373a206e657720696d706c656d656e746174696f6e206973206e60448201526c1bdd08184818dbdb9d1c9858dd609a1b6064820152608490fd5b6108c081610825565b604051906001600160a01b038116600080516020610f67833981519152600084a2825115801590610959575b6108f557505050565b6000806109569461090585610329565b602785527f416464726573733a206c6f772d6c6576656c2064656c65676174652063616c6c6020860152660819985a5b195960ca1b6040860152602081519101845af4610950610ac2565b91610af2565b50565b5060006108ec565b61096a81610825565b604051906001600160a01b038116600080516020610f67833981519152600084a282511580159061099e576108f557505050565b5060016108ec565b6001600160a01b037f0000000000000000000000000000000000000000000000000000000000000000811692906109df3085141561054a565b6109fc600080516020610f2783398151915294828654161461059a565b80600080516020610f878339815191525416331415610aac57600080516020610ee78339815191525460ff1615610a395750506106969150610825565b6020600491604094939451928380926352d1902d60e01b825286165afa60009181610a95575b50610a8257505050505060405162461bcd60e51b8152806106e1600482016107a8565b61069693610a909114610749565b610961565b610aa59192506107083d82610344565b9038610a5f565b50505050506004604051632f7a8ee160e01b8152fd5b3d15610aed573d90610ad382610367565b91610ae16040519384610344565b82523d6000602084013e565b606090565b919260609115610b59575050815115610b09575090565b3b15610b125790565b505060405162461bcd60e51b815260206004820152601d60248201527f416464726573733a2063616c6c20746f206e6f6e2d636f6e74726163740000006044820152606490fd5b90939261069692505b805190925015610b755750805190602001fd5b90506040519062461bcd60e51b82528160208060048301528251928360248401526000915b848310610bc9575050918060449311610bbc575b601f01601f19168101030190fd5b6000838284010152610bae565b8183018101518684016044015285935091820191610b9a565b600080516020610f87833981519152546001600160a01b0391908216338114156107185761069692821690600080516020610f478339815191526000604051a36107f7565b600080516020610f87833981519152546001600160a01b0392919083169081610c7f57610c6c9184821690600080516020610f478339815191526000604051a36107f7565b1660018060a01b03196000541617600055565b5050505050606460405162461bcd60e51b8152602060048201526011602482015270105b1c9958591e481a5b9a5d1a585d1959607a1b6044820152fd5b60408051919082016001600160401b03811183821017610d00575b604052601782527611985a5b1959081d1bc81a5b9a5d0818dbdb9d1c9858dd604a1b6020830152565b610d086102ea565b610cd7565b60408051336020820190815281830193909352908152610d2e606082610344565b519020906000610d738180610d5286610d4d835460018060a01b031690565b610e35565b9460208151910182875af1610d65610ac2565b610d6d610cbc565b91610ecc565b506001600160a01b03821690813b15610e2d5791610dfe917ffa86dcef4390d6a0f7edde563410fc44e4c2d382b4c6699cce5ebc4071abcc9593604051809263f2fde38b60e01b8252818381610dcc33600483016102ad565b03925af18015610e20575b610e03575b50604080519485526001600160a01b0390911660208501523393918291820190565b0390a2565b610e1a90610e113d82610344565b3d8101906102a2565b38610ddc565b610e2861073c565b610dd7565b935050505080fd5b6e5af43d82803e903d91602b57fd5bf390763d602d80600a3d3981f3363d3d373d3d3d363d7300000062ffffff8260881c161760005260781b17602052603760096000f5906001600160a01b03821615610e8b57565b505060405162461bcd60e51b8152602060048201526017602482015276115490cc4c4d8dce8818dc99585d194c8819985a5b1959604a1b6044820152606490fd5b909160609115610edb57505090565b610696919392610b6256fe4910fdfa16fed3260ed0e7147f7cc6da11a60208b5b9406d12a635614ffd914346756e6374696f6e206d7573742062652063616c6c6564207468726f75676820360894a13ba1a3210667c828492db98dca3e2076cc3735a920a3ca505d382bbc8be0079c531659141344cd1fd0a4f28419497f9722a3daafe3b4186f6b6457e0bc7cd75a20ee27fd9adebab32041f755214dbc6bffa90cc0225b39da2e5c2d3b8a22373512790c48b83a1fe2efdd2888d4a917bcdc24d0adf63e60f671680460a3646970667358221220213e1730b4323817956d77a8f842951c0aa6a5103460f3f19a7a8a224942346c6c6578706572696d656e74616cf564736f6c634300080c0041",
  "devdoc": {
    "kind": "dev",
    "methods": {
      "owner()": {
        "returns": {
          "_0": "conrtact owner"
        }
      },
      "proxiableUUID()": {
        "details": "Implementation of the ERC1822 {proxiableUUID} function. This returns the storage slot used by the implementation. It is used to validate the implementation's compatibility when performing an upgrade. IMPORTANT: A proxy pointing at a proxiable contract should not be considered proxiable itself, because this risks bricking a proxy that upgrades to it, by delegating to itself until out of gas. Thus it is critical that this function revert if invoked through a proxy. This is guaranteed by the `notDelegated` modifier."
      },
      "transferOwnership(address)": {
        "params": {
          "account": "address of new owner"
        }
      },
      "upgradeTo(address)": {
        "custom:oz-upgrades-unsafe-allow-reachable": "delegatecall",
        "details": "Upgrade the implementation of the proxy to `newImplementation`. Calls {_authorizeUpgrade}. Emits an {Upgraded} event."
      },
      "upgradeToAndCall(address,bytes)": {
        "custom:oz-upgrades-unsafe-allow-reachable": "delegatecall",
        "details": "Upgrade the implementation of the proxy to `newImplementation`, and subsequently execute the function call encoded in `data`. Calls {_authorizeUpgrade}. Emits an {Upgraded} event."
      }
    },
    "version": 1
  },
  "userdoc": {
    "kind": "user",
    "methods": {
      "owner()": {
        "notice": "get the ERC173 contract owner"
      },
      "transferOwnership(address)": {
        "notice": "transfer contract ownership to new account"
      }
    },
    "version": 1
  },
  "storageLayout": {
    "storage": [
      {
        "astId": 19086,
        "contract": "contracts/apps/tokens/HexlinkTokenFactory.sol:HexlinkTokenFactoryImpl",
        "label": "erc721Impl",
        "offset": 0,
        "slot": "0",
        "type": "t_address"
      }
    ],
    "types": {
      "t_address": {
        "encoding": "inplace",
        "label": "address",
        "numberOfBytes": "20"
      }
    }
  }
}