{
  "address": "0xF4CCB60BeAb96E801A2c3598e15b4d1Ed72ECa53",
  "abi": [
    {
      "inputs": [
        {
          "internalType": "address",
          "name": "owner",
          "type": "address"
        }
      ],
      "stateMutability": "nonpayable",
      "type": "constructor"
    },
    {
      "inputs": [],
      "name": "Ownable__NotOwner",
      "type": "error"
    },
    {
      "inputs": [],
      "name": "Ownable__NotTransitiveOwner",
      "type": "error"
    },
    {
      "anonymous": false,
      "inputs": [
        {
          "indexed": true,
          "internalType": "address",
          "name": "previousOwner",
          "type": "address"
        },
        {
          "indexed": true,
          "internalType": "address",
          "name": "newOwner",
          "type": "address"
        }
      ],
      "name": "OwnershipTransferred",
      "type": "event"
    },
    {
      "inputs": [
        {
          "internalType": "bytes",
          "name": "bytecode",
          "type": "bytes"
        },
        {
          "internalType": "bytes32",
          "name": "salt",
          "type": "bytes32"
        }
      ],
      "name": "deploy",
      "outputs": [],
      "stateMutability": "payable",
      "type": "function"
    },
    {
      "inputs": [
        {
          "internalType": "bytes",
          "name": "bytecode",
          "type": "bytes"
        },
        {
          "internalType": "uint256",
          "name": "salt",
          "type": "uint256"
        }
      ],
      "name": "getAddress",
      "outputs": [
        {
          "internalType": "address",
          "name": "",
          "type": "address"
        }
      ],
      "stateMutability": "view",
      "type": "function"
    },
    {
      "inputs": [],
      "name": "owner",
      "outputs": [
        {
          "internalType": "address",
          "name": "",
          "type": "address"
        }
      ],
      "stateMutability": "view",
      "type": "function"
    },
    {
      "inputs": [
        {
          "internalType": "address",
          "name": "account",
          "type": "address"
        }
      ],
      "name": "transferOwnership",
      "outputs": [],
      "stateMutability": "nonpayable",
      "type": "function"
    }
  ],
  "transactionHash": "0x69d6e13686c320ea7c1a228647590288bc26e5b4f357aff94f825c7eb69c3d03",
  "args": [
    "0xa4b368e3a9D49Ff15b58f70Fb976724A98B6D149"
  ],
  "numDeployments": 1,
  "solcInputHash": "1720bbbeba8381ff9dafa47136344a03",
  "bytecode": "0x60806040523461007157610473388190036080601f8201601f19168101906001600160401b0382119082101761007657602092829160405260803912610071576080516001600160a01b03811681141561006b5761005c9061008f565b60405161037b90816100f88239f35b50600080fd5b600080fd5b505050634e487b7160e01b600052604160045260246000fd5b7f8a22373512790c48b83a1fe2efdd2888d4a917bcdc24d0adf63e60f67168046090815460018060a01b03809216809282167f8be0079c531659141344cd1fd0a4f28419497f9722a3daafe3b4186f6b6457e06000604051a36001600160a01b03191617905556fe6080604052600436101561001257600080fd5b6000803560e01c80634af63f02146100cd5780638da5cb5b1461009457806394ca2cb5146100685763f2fde38b1461004a5750600080fd5b346100655761006061005b366101ca565b6101ed565b604051f35b80fd5b5034610065575061009061008461007e366100f7565b906102aa565b604051918291826101b7565b0390f35b503461006557506100a4366101a3565b60008051602061031883398151915254604051908190610090906001600160a01b0316826101b7565b506100606100da366100f7565b90610265565b50634e487b7160e01b600052604160045260246000fd5b604060031982011261019c576001600160401b039060043582811161017957816023820112156101795780600401359183831161018f575b60405193601f8401601f19908116603f0116850190811185821017610182575b60405282845260248383010111610179578160009260246020930183860137830101529060243590565b50505050600080fd5b61018a6100e0565b61014f565b6101976100e0565b61012f565b5050600080fd5b60009060031901126101b157565b50600080fd5b6001600160a01b03909116815260200190565b60209060031901126101b1576004356001600160a01b03811681141561019c5790565b600080516020610318833981519152805490916001600160a01b0380831692913384141561024e571680927f8be0079c531659141344cd1fd0a4f28419497f9722a3daafe3b4186f6b6457e06000604051a36001600160a01b031916179055565b5050505050506004604051632f7a8ee160e01b8152fd5b600080516020610318833981519152546001600160a01b03163314156102955760208151910134f53b156101b157565b5050604051632f7a8ee160e01b815260049150fd5b80516020918201206040516001600160f81b03199281019283523060601b602182015260358101939093526055808401919091528252608082016001600160401b0381118382101761030a575b604052905190206001600160a01b031690565b6103126100e0565b6102f756fe8a22373512790c48b83a1fe2efdd2888d4a917bcdc24d0adf63e60f671680460a3646970667358221220057ec27740f16f6f8e57d3496b4ea97b1858654d6b85e48eccfe9c8ee31ee6206c6578706572696d656e74616cf564736f6c634300080c0041",
  "devdoc": {
    "kind": "dev",
    "methods": {
      "owner()": {
        "returns": {
          "_0": "conrtact owner"
        }
      },
      "transferOwnership(address)": {
        "params": {
          "account": "address of new owner"
        }
      }
    },
    "version": 1
  },
  "userdoc": {
    "kind": "user",
    "methods": {
      "owner()": {
        "notice": "get the ERC173 contract owner"
      },
      "transferOwnership(address)": {
        "notice": "transfer contract ownership to new account"
      }
    },
    "version": 1
  },
  "storageLayout": {
    "storage": [],
    "types": null
  }
}