{
  "address": "0xC9F0cC80C48Ae03E9f2859ceDB20d3fd78725dcE",
  "abi": [
    {
      "inputs": [],
      "name": "Ownable__NotOwner",
      "type": "error"
    },
    {
      "inputs": [],
      "name": "Ownable__NotTransitiveOwner",
      "type": "error"
    },
    {
      "anonymous": false,
      "inputs": [
        {
          "indexed": false,
          "internalType": "address",
          "name": "previousAdmin",
          "type": "address"
        },
        {
          "indexed": false,
          "internalType": "address",
          "name": "newAdmin",
          "type": "address"
        }
      ],
      "name": "AdminChanged",
      "type": "event"
    },
    {
      "anonymous": false,
      "inputs": [
        {
          "indexed": true,
          "internalType": "address",
          "name": "beacon",
          "type": "address"
        }
      ],
      "name": "BeaconUpgraded",
      "type": "event"
    },
    {
      "anonymous": false,
      "inputs": [
        {
          "indexed": false,
          "internalType": "address",
          "name": "sender",
          "type": "address"
        },
        {
          "indexed": false,
          "internalType": "uint256",
          "name": "amount",
          "type": "uint256"
        }
      ],
      "name": "Deposit",
      "type": "event"
    },
    {
      "anonymous": false,
      "inputs": [
        {
          "indexed": true,
          "internalType": "address",
          "name": "previousOwner",
          "type": "address"
        },
        {
          "indexed": true,
          "internalType": "address",
          "name": "newOwner",
          "type": "address"
        }
      ],
      "name": "OwnershipTransferred",
      "type": "event"
    },
    {
      "anonymous": false,
      "inputs": [
        {
          "indexed": true,
          "internalType": "address",
          "name": "from",
          "type": "address"
        },
        {
          "indexed": true,
          "internalType": "address",
          "name": "token",
          "type": "address"
        },
        {
          "indexed": false,
          "internalType": "uint256",
          "name": "amountIn",
          "type": "uint256"
        },
        {
          "indexed": false,
          "internalType": "uint256",
          "name": "amountOut",
          "type": "uint256"
        }
      ],
      "name": "Swap",
      "type": "event"
    },
    {
      "anonymous": false,
      "inputs": [
        {
          "indexed": true,
          "internalType": "address",
          "name": "implementation",
          "type": "address"
        }
      ],
      "name": "Upgraded",
      "type": "event"
    },
    {
      "anonymous": false,
      "inputs": [
        {
          "indexed": false,
          "internalType": "address",
          "name": "receiver",
          "type": "address"
        },
        {
          "indexed": false,
          "internalType": "uint256",
          "name": "amount",
          "type": "uint256"
        }
      ],
      "name": "Withdraw",
      "type": "event"
    },
    {
      "inputs": [],
      "name": "deposit",
      "outputs": [],
      "stateMutability": "payable",
      "type": "function"
    },
    {
      "inputs": [],
      "name": "implementation",
      "outputs": [
        {
          "internalType": "address",
          "name": "",
          "type": "address"
        }
      ],
      "stateMutability": "view",
      "type": "function"
    },
    {
      "inputs": [
        {
          "internalType": "address",
          "name": "newOwner",
          "type": "address"
        }
      ],
      "name": "init",
      "outputs": [],
      "stateMutability": "nonpayable",
      "type": "function"
    },
    {
      "inputs": [],
      "name": "owner",
      "outputs": [
        {
          "internalType": "address",
          "name": "",
          "type": "address"
        }
      ],
      "stateMutability": "view",
      "type": "function"
    },
    {
      "inputs": [
        {
          "internalType": "address",
          "name": "token",
          "type": "address"
        }
      ],
      "name": "priceOf",
      "outputs": [
        {
          "internalType": "uint256",
          "name": "",
          "type": "uint256"
        }
      ],
      "stateMutability": "view",
      "type": "function"
    },
    {
      "inputs": [],
      "name": "proxiableUUID",
      "outputs": [
        {
          "internalType": "bytes32",
          "name": "",
          "type": "bytes32"
        }
      ],
      "stateMutability": "view",
      "type": "function"
    },
    {
      "inputs": [
        {
          "internalType": "address",
          "name": "token",
          "type": "address"
        },
        {
          "internalType": "uint256",
          "name": "price",
          "type": "uint256"
        }
      ],
      "name": "setPrice",
      "outputs": [],
      "stateMutability": "nonpayable",
      "type": "function"
    },
    {
      "inputs": [
        {
          "internalType": "address[]",
          "name": "tokens",
          "type": "address[]"
        },
        {
          "internalType": "uint256[]",
          "name": "prices",
          "type": "uint256[]"
        }
      ],
      "name": "setPrices",
      "outputs": [],
      "stateMutability": "nonpayable",
      "type": "function"
    },
    {
      "inputs": [
        {
          "internalType": "address",
          "name": "token",
          "type": "address"
        },
        {
          "internalType": "uint256",
          "name": "amountIn",
          "type": "uint256"
        }
      ],
      "name": "swap",
      "outputs": [
        {
          "internalType": "uint256",
          "name": "amountOut",
          "type": "uint256"
        }
      ],
      "stateMutability": "nonpayable",
      "type": "function"
    },
    {
      "inputs": [
        {
          "internalType": "address",
          "name": "token",
          "type": "address"
        },
        {
          "internalType": "uint256",
          "name": "amountIn",
          "type": "uint256"
        },
        {
          "internalType": "address",
          "name": "to",
          "type": "address"
        },
        {
          "internalType": "bytes",
          "name": "data",
          "type": "bytes"
        }
      ],
      "name": "swapAndCall",
      "outputs": [
        {
          "internalType": "uint256",
          "name": "amountOut",
          "type": "uint256"
        }
      ],
      "stateMutability": "nonpayable",
      "type": "function"
    },
    {
      "inputs": [
        {
          "internalType": "address",
          "name": "token",
          "type": "address"
        },
        {
          "internalType": "uint256",
          "name": "amountOut",
          "type": "uint256"
        }
      ],
      "name": "swapExactOutput",
      "outputs": [
        {
          "internalType": "uint256",
          "name": "amountIn",
          "type": "uint256"
        }
      ],
      "stateMutability": "nonpayable",
      "type": "function"
    },
    {
      "inputs": [
        {
          "internalType": "address",
          "name": "token",
          "type": "address"
        },
        {
          "internalType": "uint256",
          "name": "amountOut",
          "type": "uint256"
        },
        {
          "internalType": "address",
          "name": "to",
          "type": "address"
        },
        {
          "internalType": "bytes",
          "name": "data",
          "type": "bytes"
        }
      ],
      "name": "swapExactOutputAndCall",
      "outputs": [
        {
          "internalType": "uint256",
          "name": "amountIn",
          "type": "uint256"
        }
      ],
      "stateMutability": "nonpayable",
      "type": "function"
    },
    {
      "inputs": [
        {
          "internalType": "address",
          "name": "account",
          "type": "address"
        }
      ],
      "name": "transferOwnership",
      "outputs": [],
      "stateMutability": "nonpayable",
      "type": "function"
    },
    {
      "inputs": [
        {
          "internalType": "address",
          "name": "newImplementation",
          "type": "address"
        }
      ],
      "name": "upgradeTo",
      "outputs": [],
      "stateMutability": "nonpayable",
      "type": "function"
    },
    {
      "inputs": [
        {
          "internalType": "address",
          "name": "newImplementation",
          "type": "address"
        },
        {
          "internalType": "bytes",
          "name": "data",
          "type": "bytes"
        }
      ],
      "name": "upgradeToAndCall",
      "outputs": [],
      "stateMutability": "payable",
      "type": "function"
    },
    {
      "inputs": [
        {
          "internalType": "uint256",
          "name": "amount",
          "type": "uint256"
        }
      ],
      "name": "withdraw",
      "outputs": [],
      "stateMutability": "nonpayable",
      "type": "function"
    }
  ],
  "transactionHash": "0x06683e0ccd0a0caee277db51cb3c8ab382a0e63d54aa7e71e641eac1d6a491c8",
  "args": [],
  "numDeployments": 1,
  "solcInputHash": "1720bbbeba8381ff9dafa47136344a03",
  "bytecode": "0x60a0806040523461003157306080526115fe90816100388239608051818181610648015281816107990152610b550152f35b50600080fdfe6040608081526004361015610015575b50600080fd5b600090813560e01c8062e4768b146102bb57806319ab453c146102a45780632b23c4d0146102845780632cb1e39a146102645780632e1a7d4d1461024d5780633659cfe6146102365780634352fa9f1461021e5780634f1ef2861461020b57806352d1902d146101ef5780635c60da1b146101b75780638da5cb5b1461017f578063ae40bb5614610162578063b95ed06f14610130578063d004f0f714610100578063d0e30db0146100ee5763f2fde38b146100d1575061000f565b346100ea576100e76100e236610316565b610d87565b51f35b5080fd5b506100f836610624565b6100e761111c565b50346100ea5761012c915061011d610117366102ef565b90611151565b90519081529081906020820190565b0390f35b50346100ea5761012c915061011d61014736610316565b6001600160a01b031660009081526020819052604090205490565b50346100ea5761012c915061011d610179366102ef565b906111f3565b50346100ea5761012c915061019336610624565b60008051602061157b8339815191525490519182916001600160a01b031682610632565b50346100ea5761012c91506101cb36610624565b60008051602061151b8339815191525490519182916001600160a01b031682610632565b50346100ea5761012c915061020336610624565b61011d610645565b506100e7610218366105e4565b90610b4b565b50346100ea576100e761023036610539565b90610e9a565b50346100ea576100e761024836610316565b61078f565b50346100ea576100e761025f366104a3565b610fc4565b50346100ea5761012c915061011d61027b36610438565b929190916111aa565b50346100ea5761012c915061011d61029b36610438565b9291909161120a565b50346100ea576100e76102b636610316565b610dcc565b50346100ea576100e76102cd366102ef565b90610e4c565b35906001600160a01b0382168214156102e857565b5050600080fd5b604090600319011261000f576004356001600160a01b0381168114156102e8579060243590565b602090600319011261000f576004356001600160a01b0381168114156102e85790565b50634e487b7160e01b600052604160045260246000fd5b602081019081106001600160401b0382111761036b57604052565b610373610339565b604052565b606081019081106001600160401b0382111761036b57604052565b601f909101601f19168101906001600160401b0382119082101761036b57604052565b6020906001600160401b0381116103d3575b601f01601f19160190565b6103db610339565b6103c8565b81601f82011215610430578035906103f7826103b6565b926104056040519485610393565b8284526020838301011161042757816000926020809301838601378301015290565b50505050600080fd5b505050600080fd5b60806003198201126102e8576001600160a01b03906004358281168114156104275792602435926044359081168114156104995791606435906001600160401b03821161048e5761048b916004016103e0565b90565b505050505050600080fd5b5050505050600080fd5b602090600319011261000f5760043590565b6020906001600160401b0381116104ce575b60051b0190565b6104d6610339565b6104c7565b81601f82011215610430578035916104f2836104b5565b926105006040519485610393565b808452602092838086019260051b82010192831161048e578301905b82821061052a575050505090565b8135815290830190830161051c565b9060406003198301126102e8576001600160401b036004358181116104275783602382011215610427578060040135610571816104b5565b9161057f6040519384610393565b81835260209160248385019160051b830101918783116105d757602401905b8282106105c05750505050926024359182116104275761048b916004016104db565b8380916105cc846102d3565b81520191019061059e565b5050505050505050600080fd5b9060406003198301126102e8576004356001600160a01b0381168114156104305791602435906001600160401b0382116104275761048b916004016103e0565b600090600319011261000f57565b6001600160a01b03909116815260200190565b307f00000000000000000000000000000000000000000000000000000000000000006001600160a01b031614156106885760008051602061151b83398151915290565b5060405162461bcd60e51b815260206004820152603860248201527f555550535570677261646561626c653a206d757374206e6f742062652063616c6044820152771b1959081d1a1c9bdd59da0819195b1959d85d1958d85b1b60421b6064820152608490fd5b156106f657565b5060405162461bcd60e51b815260206004820152602c60248201526000805160206114fb83398151915260448201526b19195b1959d85d1958d85b1b60a21b6064820152608490fd5b1561074657565b5060405162461bcd60e51b815260206004820152602c60248201526000805160206114fb83398151915260448201526b6163746976652070726f787960a01b6064820152608490fd5b6001600160a01b037f0000000000000000000000000000000000000000000000000000000000000000811691906107c8308414156106ef565b6107e560008051602061151b83398151915293828554161461073f565b8060008051602061157b83398151915254163314156108bd576040519061080b82610350565b6000825260003660208401376000805160206114db8339815191525460ff161561083d57505061083b91506109ca565b565b6020600491604094939451928380926352d1902d60e01b825286165afa6000918161089d575b5061088a57505050505060405162461bcd60e51b8152806108866004820161094d565b0390fd5b61083b9361089891146108ee565b610a5c565b6108b69192506108ad3d82610393565b3d8101906108d2565b9038610863565b505050506004604051632f7a8ee160e01b8152fd5b908160209103126102e8575190565b506040513d6000823e3d90fd5b156108f557565b5060405162461bcd60e51b815260206004820152602960248201527f45524331393637557067726164653a20756e737570706f727465642070726f786044820152681a58589b195555525160ba1b6064820152608490fd5b60809060208152602e60208201527f45524331393637557067726164653a206e657720696d706c656d656e7461746960408201526d6f6e206973206e6f74205555505360901b60608201520190565b60008051602061157b83398151915280546001600160a01b0319166001600160a01b03909216919091179055565b803b156109ff5760008051602061151b83398151915280546001600160a01b0319166001600160a01b03909216919091179055565b505060405162461bcd60e51b815260206004820152602d60248201527f455243313936373a206e657720696d706c656d656e746174696f6e206973206e60448201526c1bdd08184818dbdb9d1c9858dd609a1b6064820152608490fd5b610a65816109ca565b604051906001600160a01b03811660008051602061155b833981519152600084a2825115801590610afe575b610a9a57505050565b600080610afb94610aaa85610378565b602785527f416464726573733a206c6f772d6c6576656c2064656c65676174652063616c6c6020860152660819985a5b195960ca1b6040860152602081519101845af4610af5610c67565b91610c97565b50565b506000610a91565b610b0f816109ca565b604051906001600160a01b03811660008051602061155b833981519152600084a2825115801590610b4357610a9a57505050565b506001610a91565b6001600160a01b037f000000000000000000000000000000000000000000000000000000000000000081169290610b84308514156106ef565b610ba160008051602061151b83398151915294828654161461073f565b8060008051602061157b8339815191525416331415610c51576000805160206114db8339815191525460ff1615610bde57505061083b91506109ca565b6020600491604094939451928380926352d1902d60e01b825286165afa60009181610c3a575b50610c2757505050505060405162461bcd60e51b8152806108866004820161094d565b61083b93610c3591146108ee565b610b06565b610c4a9192506108ad3d82610393565b9038610c04565b50505050506004604051632f7a8ee160e01b8152fd5b3d15610c92573d90610c78826103b6565b91610c866040519384610393565b82523d6000602084013e565b606090565b919260609115610cfe575050815115610cae575090565b3b15610cb75790565b505060405162461bcd60e51b815260206004820152601d60248201527f416464726573733a2063616c6c20746f206e6f6e2d636f6e74726163740000006044820152606490fd5b90939261083b92505b805190925015610d1a5750805190602001fd5b90506040519062461bcd60e51b82528160208060048301528251928360248401526000915b848310610d6e575050918060449311610d61575b601f01601f19168101030190fd5b6000838284010152610d53565b8183018101518684016044015285935091820191610d3f565b60008051602061157b833981519152546001600160a01b0391908216338114156108bd5761083b9282169060008051602061153b8339815191526000604051a361099c565b60008051602061157b833981519152546001600160a01b039190821680610e0e5761083b9282169060008051602061153b8339815191526000604051a361099c565b50505050606460405162461bcd60e51b8152602060048201526013602482015272185b1c9958591e481a5b9a5d1a585b1a5e9959606a1b6044820152fd5b60008051602061157b833981519152546001600160a01b03919082163314156108bd57166000526000602052604060002055565b6001600160a01b0316600090815260208190526040902090565b60008051602061157b833981519152549192916001600160a01b0316331415610f4f57805183511415610f105760005b8151811015610f0a5780610ee1610f059286610f97565b51610eff610e80610ef28487610f97565b516001600160a01b031690565b55610f7b565b610eca565b50509050565b505060405162461bcd60e51b81526020600482015260146024820152730c2e4cee640d8cadccee8d040dad2e6dac2e8c6d60631b604482015260649150fd5b5050604051632f7a8ee160e01b815260049150fd5b50634e487b7160e01b600052601160045260246000fd5b6001906000198114610f8b570190565b610f93610f64565b0190565b8051821015610fab5760209160051b010190565b505050634e487b7160e01b600052603260045260246000fd5b60008051602061157b833981519152546001600160a01b03169033821415610f4f5761083b917f884edad9ce6fa2440d8a54cc123490eb96d2768479d49ff9c7366125a94243646040518061101a858583611022565b0390a161103d565b6001600160a01b039091168152602081019190915260400190565b8147106110d4576040516000928392839291906001600160a01b03165af1611063610c67565b501561106b57565b5060405162461bcd60e51b815260206004820152603a60248201527f416464726573733a20756e61626c6520746f2073656e642076616c75652c20726044820152791958da5c1a595b9d081b585e481a185d99481c995d995c9d195960321b6064820152608490fd5b505060405162461bcd60e51b815260206004820152601d60248201527f416464726573733a20696e73756666696369656e742062616c616e6365000000604482015260649150fd5b7fe1fffcc4923d04b559f4d29a8bfc6cda04eb5b0d3c460751c2402c5c5cc9109c6040518061114c343383611022565b0390a1565b9061115b916112af565b9061083b823361103d565b60408051919082016001600160401b0381118382101761119d575b604052600a82526931b0b6361032b93937b960b11b6020830152565b6111a5610339565b611181565b610afb9294936111bd60009384936112af565b9586602083519301915af16111d0610c67565b6111d8611166565b919091606091156111e857505090565b61083b919392610d07565b6112038261083b929493946113b1565b923361103d565b819493610afb9361121e60009485946113b1565b96602083519301915af16111d0610c67565b8060001904821181151516611243570290565b61124b610f64565b0290565b8115611259570490565b505050634e487b7160e01b600052601260045260246000fd5b1561127957565b5060405162461bcd60e51b815260206004820152600d60248201526c4c6f77206c697175696469747960981b6044820152606490fd5b60008051602061157b833981519152546040516323b872dd60e01b81523360048201526001600160a01b03918216602482015260448101849052929392908216916113429161131691906020816064816000895af180156113a4575b611386575b50610e80565b54611322811515611499565b670de0b6b3a76400008560001904811186151516611379575b850261124f565b9261134f84471015611272565b6040805191825260208201859052339160008051602061159b83398151915291819081015b0390a3565b611381610f64565b61133b565b61139d906113943d82610393565b3d810190611480565b5038611310565b6113ac6108e1565b61130b565b9190916113c083471015611272565b6001670de0b6b3a764000061143b611429838060a01b03948560008051602061157b833981519152541695811695604051906323b872dd60e01b825233600483015260248201526000604482015260208160648160008b5af180156113a4576113865750610e80565b54611435811515611499565b86611230565b0481198111611473575b019260008051602061159b833981519152604051806113743394888360209093929193604081019481520152565b61147b610f64565b611445565b908160209103126102e857518015158114156102e85790565b156114a057565b5060405162461bcd60e51b81526020600482015260116024820152703ab739bab83837b93a32b2103a37b5b2b760791b6044820152606490fdfe4910fdfa16fed3260ed0e7147f7cc6da11a60208b5b9406d12a635614ffd914346756e6374696f6e206d7573742062652063616c6c6564207468726f75676820360894a13ba1a3210667c828492db98dca3e2076cc3735a920a3ca505d382bbc8be0079c531659141344cd1fd0a4f28419497f9722a3daafe3b4186f6b6457e0bc7cd75a20ee27fd9adebab32041f755214dbc6bffa90cc0225b39da2e5c2d3b8a22373512790c48b83a1fe2efdd2888d4a917bcdc24d0adf63e60f671680460fa2dda1cc1b86e41239702756b13effbc1a092b5c57e3ad320fbe4f3b13fe235a364697066735822122041c8d06dd4299292d711fda5b39e62725a2f0f6b6c4a3b619161450efed717626c6578706572696d656e74616cf564736f6c634300080c0041",
  "devdoc": {
    "kind": "dev",
    "methods": {
      "owner()": {
        "returns": {
          "_0": "conrtact owner"
        }
      },
      "proxiableUUID()": {
        "details": "Implementation of the ERC1822 {proxiableUUID} function. This returns the storage slot used by the implementation. It is used to validate the implementation's compatibility when performing an upgrade. IMPORTANT: A proxy pointing at a proxiable contract should not be considered proxiable itself, because this risks bricking a proxy that upgrades to it, by delegating to itself until out of gas. Thus it is critical that this function revert if invoked through a proxy. This is guaranteed by the `notDelegated` modifier."
      },
      "transferOwnership(address)": {
        "params": {
          "account": "address of new owner"
        }
      },
      "upgradeTo(address)": {
        "custom:oz-upgrades-unsafe-allow-reachable": "delegatecall",
        "details": "Upgrade the implementation of the proxy to `newImplementation`. Calls {_authorizeUpgrade}. Emits an {Upgraded} event."
      },
      "upgradeToAndCall(address,bytes)": {
        "custom:oz-upgrades-unsafe-allow-reachable": "delegatecall",
        "details": "Upgrade the implementation of the proxy to `newImplementation`, and subsequently execute the function call encoded in `data`. Calls {_authorizeUpgrade}. Emits an {Upgraded} event."
      }
    },
    "version": 1
  },
  "userdoc": {
    "kind": "user",
    "methods": {
      "owner()": {
        "notice": "get the ERC173 contract owner"
      },
      "transferOwnership(address)": {
        "notice": "transfer contract ownership to new account"
      }
    },
    "version": 1
  },
  "storageLayout": {
    "storage": [
      {
        "astId": 18029,
        "contract": "contracts/apps/HexlinkSwap.sol:HexlinkSwapImpl",
        "label": "prices_",
        "offset": 0,
        "slot": "0",
        "type": "t_mapping(t_address,t_uint256)"
      }
    ],
    "types": {
      "t_address": {
        "encoding": "inplace",
        "label": "address",
        "numberOfBytes": "20"
      },
      "t_mapping(t_address,t_uint256)": {
        "encoding": "mapping",
        "key": "t_address",
        "label": "mapping(address => uint256)",
        "numberOfBytes": "32",
        "value": "t_uint256"
      },
      "t_uint256": {
        "encoding": "inplace",
        "label": "uint256",
        "numberOfBytes": "32"
      }
    }
  }
}