{
  "address": "0xc01F07dEf39E90C37D7765376E0A28F371266B23",
  "abi": [
    {
      "anonymous": false,
      "inputs": [
        {
          "indexed": true,
          "internalType": "address",
          "name": "owner",
          "type": "address"
        },
        {
          "indexed": true,
          "internalType": "address",
          "name": "approved",
          "type": "address"
        },
        {
          "indexed": true,
          "internalType": "uint256",
          "name": "tokenId",
          "type": "uint256"
        }
      ],
      "name": "Approval",
      "type": "event"
    },
    {
      "anonymous": false,
      "inputs": [
        {
          "indexed": true,
          "internalType": "address",
          "name": "owner",
          "type": "address"
        },
        {
          "indexed": true,
          "internalType": "address",
          "name": "operator",
          "type": "address"
        },
        {
          "indexed": false,
          "internalType": "bool",
          "name": "approved",
          "type": "bool"
        }
      ],
      "name": "ApprovalForAll",
      "type": "event"
    },
    {
      "anonymous": false,
      "inputs": [
        {
          "indexed": false,
          "internalType": "uint8",
          "name": "version",
          "type": "uint8"
        }
      ],
      "name": "Initialized",
      "type": "event"
    },
    {
      "anonymous": false,
      "inputs": [
        {
          "indexed": true,
          "internalType": "address",
          "name": "previousOwner",
          "type": "address"
        },
        {
          "indexed": true,
          "internalType": "address",
          "name": "newOwner",
          "type": "address"
        }
      ],
      "name": "OwnershipTransferred",
      "type": "event"
    },
    {
      "anonymous": false,
      "inputs": [
        {
          "indexed": true,
          "internalType": "address",
          "name": "from",
          "type": "address"
        },
        {
          "indexed": true,
          "internalType": "address",
          "name": "to",
          "type": "address"
        },
        {
          "indexed": true,
          "internalType": "uint256",
          "name": "tokenId",
          "type": "uint256"
        }
      ],
      "name": "Transfer",
      "type": "event"
    },
    {
      "inputs": [
        {
          "internalType": "address",
          "name": "to",
          "type": "address"
        },
        {
          "internalType": "uint256",
          "name": "tokenId",
          "type": "uint256"
        }
      ],
      "name": "approve",
      "outputs": [],
      "stateMutability": "nonpayable",
      "type": "function"
    },
    {
      "inputs": [
        {
          "internalType": "address",
          "name": "owner",
          "type": "address"
        }
      ],
      "name": "balanceOf",
      "outputs": [
        {
          "internalType": "uint256",
          "name": "",
          "type": "uint256"
        }
      ],
      "stateMutability": "view",
      "type": "function"
    },
    {
      "inputs": [],
      "name": "baseTokenURI",
      "outputs": [
        {
          "internalType": "string",
          "name": "",
          "type": "string"
        }
      ],
      "stateMutability": "view",
      "type": "function"
    },
    {
      "inputs": [
        {
          "internalType": "uint256",
          "name": "tokenId",
          "type": "uint256"
        }
      ],
      "name": "getApproved",
      "outputs": [
        {
          "internalType": "address",
          "name": "",
          "type": "address"
        }
      ],
      "stateMutability": "view",
      "type": "function"
    },
    {
      "inputs": [
        {
          "internalType": "address",
          "name": "user",
          "type": "address"
        }
      ],
      "name": "getMintedCount",
      "outputs": [
        {
          "internalType": "uint256",
          "name": "",
          "type": "uint256"
        }
      ],
      "stateMutability": "view",
      "type": "function"
    },
    {
      "inputs": [
        {
          "internalType": "uint256",
          "name": "amount",
          "type": "uint256"
        }
      ],
      "name": "increaseSupply",
      "outputs": [],
      "stateMutability": "nonpayable",
      "type": "function"
    },
    {
      "inputs": [
        {
          "internalType": "string",
          "name": "name_",
          "type": "string"
        },
        {
          "internalType": "string",
          "name": "symbol_",
          "type": "string"
        },
        {
          "internalType": "string",
          "name": "baseTokenURI_",
          "type": "string"
        },
        {
          "internalType": "uint256",
          "name": "maxSupply_",
          "type": "uint256"
        },
        {
          "internalType": "address",
          "name": "validator_",
          "type": "address"
        },
        {
          "internalType": "bool",
          "name": "transferrable_",
          "type": "bool"
        }
      ],
      "name": "init",
      "outputs": [],
      "stateMutability": "nonpayable",
      "type": "function"
    },
    {
      "inputs": [
        {
          "internalType": "address",
          "name": "owner",
          "type": "address"
        },
        {
          "internalType": "address",
          "name": "operator",
          "type": "address"
        }
      ],
      "name": "isApprovedForAll",
      "outputs": [
        {
          "internalType": "bool",
          "name": "",
          "type": "bool"
        }
      ],
      "stateMutability": "view",
      "type": "function"
    },
    {
      "inputs": [],
      "name": "maxSupply",
      "outputs": [
        {
          "internalType": "uint256",
          "name": "",
          "type": "uint256"
        }
      ],
      "stateMutability": "view",
      "type": "function"
    },
    {
      "inputs": [
        {
          "internalType": "address",
          "name": "recipient",
          "type": "address"
        },
        {
          "internalType": "address",
          "name": "refundReceiver",
          "type": "address"
        },
        {
          "internalType": "bytes",
          "name": "signature",
          "type": "bytes"
        }
      ],
      "name": "mint",
      "outputs": [],
      "stateMutability": "nonpayable",
      "type": "function"
    },
    {
      "inputs": [],
      "name": "name",
      "outputs": [
        {
          "internalType": "string",
          "name": "",
          "type": "string"
        }
      ],
      "stateMutability": "view",
      "type": "function"
    },
    {
      "inputs": [],
      "name": "owner",
      "outputs": [
        {
          "internalType": "address",
          "name": "",
          "type": "address"
        }
      ],
      "stateMutability": "view",
      "type": "function"
    },
    {
      "inputs": [
        {
          "internalType": "uint256",
          "name": "tokenId",
          "type": "uint256"
        }
      ],
      "name": "ownerOf",
      "outputs": [
        {
          "internalType": "address",
          "name": "",
          "type": "address"
        }
      ],
      "stateMutability": "view",
      "type": "function"
    },
    {
      "inputs": [],
      "name": "renounceOwnership",
      "outputs": [],
      "stateMutability": "nonpayable",
      "type": "function"
    },
    {
      "inputs": [
        {
          "internalType": "address",
          "name": "from",
          "type": "address"
        },
        {
          "internalType": "address",
          "name": "to",
          "type": "address"
        },
        {
          "internalType": "uint256",
          "name": "tokenId",
          "type": "uint256"
        }
      ],
      "name": "safeTransferFrom",
      "outputs": [],
      "stateMutability": "nonpayable",
      "type": "function"
    },
    {
      "inputs": [
        {
          "internalType": "address",
          "name": "from",
          "type": "address"
        },
        {
          "internalType": "address",
          "name": "to",
          "type": "address"
        },
        {
          "internalType": "uint256",
          "name": "tokenId",
          "type": "uint256"
        },
        {
          "internalType": "bytes",
          "name": "data",
          "type": "bytes"
        }
      ],
      "name": "safeTransferFrom",
      "outputs": [],
      "stateMutability": "nonpayable",
      "type": "function"
    },
    {
      "inputs": [
        {
          "internalType": "address",
          "name": "operator",
          "type": "address"
        },
        {
          "internalType": "bool",
          "name": "approved",
          "type": "bool"
        }
      ],
      "name": "setApprovalForAll",
      "outputs": [],
      "stateMutability": "nonpayable",
      "type": "function"
    },
    {
      "inputs": [
        {
          "internalType": "address",
          "name": "_validator",
          "type": "address"
        }
      ],
      "name": "setValidator",
      "outputs": [],
      "stateMutability": "nonpayable",
      "type": "function"
    },
    {
      "inputs": [
        {
          "internalType": "bytes4",
          "name": "interfaceId",
          "type": "bytes4"
        }
      ],
      "name": "supportsInterface",
      "outputs": [
        {
          "internalType": "bool",
          "name": "",
          "type": "bool"
        }
      ],
      "stateMutability": "view",
      "type": "function"
    },
    {
      "inputs": [],
      "name": "symbol",
      "outputs": [
        {
          "internalType": "string",
          "name": "",
          "type": "string"
        }
      ],
      "stateMutability": "view",
      "type": "function"
    },
    {
      "inputs": [],
      "name": "tokenId",
      "outputs": [
        {
          "internalType": "uint256",
          "name": "",
          "type": "uint256"
        }
      ],
      "stateMutability": "view",
      "type": "function"
    },
    {
      "inputs": [
        {
          "internalType": "uint256",
          "name": "",
          "type": "uint256"
        }
      ],
      "name": "tokenURI",
      "outputs": [
        {
          "internalType": "string",
          "name": "",
          "type": "string"
        }
      ],
      "stateMutability": "view",
      "type": "function"
    },
    {
      "inputs": [
        {
          "internalType": "address",
          "name": "from",
          "type": "address"
        },
        {
          "internalType": "address",
          "name": "to",
          "type": "address"
        },
        {
          "internalType": "uint256",
          "name": "tokenId",
          "type": "uint256"
        }
      ],
      "name": "transferFrom",
      "outputs": [],
      "stateMutability": "nonpayable",
      "type": "function"
    },
    {
      "inputs": [
        {
          "internalType": "address",
          "name": "newOwner",
          "type": "address"
        }
      ],
      "name": "transferOwnership",
      "outputs": [],
      "stateMutability": "nonpayable",
      "type": "function"
    },
    {
      "inputs": [],
      "name": "transferrable",
      "outputs": [
        {
          "internalType": "bool",
          "name": "",
          "type": "bool"
        }
      ],
      "stateMutability": "view",
      "type": "function"
    },
    {
      "inputs": [],
      "name": "validator",
      "outputs": [
        {
          "internalType": "address",
          "name": "",
          "type": "address"
        }
      ],
      "stateMutability": "view",
      "type": "function"
    }
  ],
  "transactionHash": "0x5c0e7c92870b720f4266bde0bfc8eaaffb980b78e2b2261abd4e9de194f158f7",
  "args": [],
  "numDeployments": 1,
  "solcInputHash": "6b87300838d0a153f914ceaacfecdea9",
  "bytecode": "0x6080806040523461001b57600060cc556121a590816100228239f35b50600080fdfe6040608081526004361015610015575b50600080fd5b600090813560e01c806301ffc9a714610486578063047a7ef11461045657806306fdde031461043a578063081812fc1461041e578063095ea7b3146104065780631327d3d8146103ef57806317d70f7c146103c957806323b872dd146103b1578063248ec42e146103935780633a5381b51461036857806342842e0e146103505780636352211e1461032957806370a082311461030d578063715018a6146102f65780638da5cb5b146102cb57806395d89b41146102af57806397d6696b1461026e578063a22cb46514610256578063b88d4fde1461023b578063b921e16314610224578063c87b56dd14610207578063d547cfb7146101e0578063d5abeb01146101ba578063e985e9c514610175578063f1ddecf91461015d5763f2fde38b14610140575061000f565b3461015957610156610151366105a8565b610bbf565b51f35b5080fd5b50346101595761015661016f36610ad7565b91611b43565b5034610159576101b691506101a561019e61019961019236610aa4565b9190610cd4565b610d08565b5460ff1690565b905190151581529081906020820190565b0390f35b5034610159576101b691506101ce366104e5565b60cb5490519081529081906020820190565b5034610159576101b691506101f4366104e5565b6101fc610a1d565b905191829182610544565b5034610159576101b6915061021b36610555565b506101fc610996565b50346101595761015661023636610555565b611d66565b50346101595761015661024d366107d8565b92919091611086565b503461015957610156610268366107a7565b90610f41565b5034610159576101b691506102a0610285366105a8565b6001600160a01b0316600090815260c9602052604090205490565b90519081529081906020820190565b5034610159576101b691506102c3366104e5565b6101fc61090f565b5034610159576101b691506102df366104e5565b60335490519182916001600160a01b031682610567565b503461015957610305366104e5565b610156610b26565b5034610159576101b691506102a0610324366105a8565b610d1f565b5034610159576101b6915061034561034036610555565b610de0565b905191829182610567565b503461015957610156610362366105cb565b9161106e565b5034610159576101b6915061037c366104e5565b60cd5490519182916001600160a01b031682610567565b5034610159576101566103a536610701565b94939093929192611521565b5034610159576101566103c3366105cb565b91611051565b5034610159576101b691506103dd366104e5565b60cc5490519081529081906020820190565b503461015957610156610401366105a8565b611d5e565b5034610159576101566104183661057a565b90610e03565b5034610159576101b6915061034561043536610555565b610f15565b5034610159576101b6915061044e366104e5565b6101fc610868565b5034610159576101b6915061046a366104e5565b60cd54905160a09190911c60ff16151581529081906020820190565b5050346104b45750607f196104af6104a56104a0366104ca565b610c90565b151560805260a090565b016080f35b80fd5b6001600160e01b03198116141561000f57565b602090600319011261000f576004356104e2816104b7565b90565b600090600319011261000f57565b91908251928382526000905b84821061052c57509280602093941161051f575b601f01601f1916010190565b6000838284010152610513565b906020908180828501015190828601015201906104ff565b9060206104e29281815201906104f3565b602090600319011261000f5760043590565b6001600160a01b03909116815260200190565b604090600319011261000f576004356001600160a01b0381168114156105a1579060243590565b5050600080fd5b602090600319011261000f576004356001600160a01b0381168114156105a15790565b606090600319011261000f576001600160a01b03906004358281168114156106025791602435908116811415610602579060443590565b505050600080fd5b50634e487b7160e01b600052604160045260246000fd5b602081019081106001600160401b0382111761063c57604052565b61064461060a565b604052565b60a081019081106001600160401b0382111761063c57604052565b601f909101601f19168101906001600160401b0382119082101761063c57604052565b6020906001600160401b0381116106a4575b601f01601f19160190565b6106ac61060a565b610699565b81601f82011215610602578035906106c882610687565b926106d66040519485610664565b828452602083830101116106f857816000926020809301838601378301015290565b50505050600080fd5b60c06003198201126105a1576001600160401b03916004358381116106f8578261072d916004016106b1565b9260243581811161079d5783610745916004016106b1565b9260443591821161079d5761075c916004016106b1565b90606435906084356001600160a01b038116811415610792579060a4358015158114156107865790565b50505050505050600080fd5b505050505050600080fd5b5050505050600080fd5b604090600319011261000f576004356001600160a01b0381168114156105a157906024358015158114156106025790565b9060806003198301126105a1576001600160a01b03916004358381168114156106f857926024359081168114156106f8579160443591606435906001600160401b038211610792576104e2916004016106b1565b90600182811c9216801561085e575b602083101461084657565b5050634e487b7160e01b600052602260045260246000fd5b91607f169161083b565b604051906000826097549161087c8361082c565b8083526001938085169081156108f257506001146108a4575b506108a292500383610664565b565b609760009081526000805160206120c283398151915294602093509091905b8183106108da5750506108a2935082010138610895565b855488840185015294850194879450918301916108c3565b94505050505060ff191660208301526108a2826040810138610895565b60405190600082609854916109238361082c565b8083526001938085169081156108f2575060011461094857506108a292500383610664565b6098600090815260008051602061214283398151915294602093509091905b81831061097e5750506108a2935082010138610895565b85548884018501529485019487945091830191610967565b6040519060008260ca54916109aa8361082c565b8083526001938085169081156108f257506001146109cf57506108a292500383610664565b60ca60009081526000805160206120e283398151915294602093509091905b818310610a055750506108a2935082010138610895565b855488840185015294850194879450918301916109ee565b6040519060008260ca5491610a318361082c565b8083526001938085169081156108f25750600114610a5657506108a292500383610664565b60ca60009081526000805160206120e283398151915294602093509091905b818310610a8c5750506108a2935082010138610895565b85548884018501529485019487945091830191610a75565b604090600319011261000f576001600160a01b039060043582811681141561060257916024359081168114156106025790565b60606003198201126105a1576001600160a01b03916004358381168114156106f857926024359081168114156106f85791604435906001600160401b03821161079d576104e2916004016106b1565b610b2e610b65565b603380546001600160a01b031981169091556040516000916001600160a01b031690600080516020612102833981519152908390a3565b6033546001600160a01b0316331415610b7a57565b50606460405162461bcd60e51b815260206004820152602060248201527f4f776e61626c653a2063616c6c6572206973206e6f7420746865206f776e65726044820152fd5b610bc7610b65565b6001600160a01b03811615610bdf576108a290610c54565b505060405162461bcd60e51b815260206004820152602660248201527f4f776e61626c653a206e6577206f776e657220697320746865207a65726f206160448201526564647265737360d01b6064820152608490fd5b80546001600160a01b0319166001600160a01b03909216919091179055565b603380546001600160a01b039283166001600160a01b0319821681179092556040519192169060008051602061210283398151915290600090a3565b63ffffffff60e01b166380ac58cd60e01b8114908115610cc3575b8115610cb5575090565b6301ffc9a760e01b14919050565b635b5e139f60e01b81149150610cab565b6001600160a01b03166000908152609c6020526040902090565b6001600160a01b03166000908152609a6020526040902090565b9060018060a01b0316600052602052604060002090565b6001600160a01b03168015610d3f57600052609a60205260406000205490565b505060405162461bcd60e51b815260206004820152602960248201527f4552433732313a2061646472657373207a65726f206973206e6f7420612076616044820152683634b21037bbb732b960b91b6064820152608490fd5b15610d9f57565b5060405162461bcd60e51b8152602060048201526018602482015277115490cdcc8c4e881a5b9d985b1a59081d1bdad95b88125160421b6044820152606490fd5b6000908152609960205260409020546001600160a01b03166104e2811515610d98565b90610e0d81610de0565b6001600160a01b038181169084168114610ec2573314908115610ea8575b5015610e3a576108a29161131b565b505060405162461bcd60e51b815260206004820152603d60248201527f4552433732313a20617070726f76652063616c6c6572206973206e6f7420746f60448201527f6b656e206f776e6572206f7220617070726f76656420666f7220616c6c000000606482015260849150fd5b60ff9150610eba906101993391610cd4565b541638610e2b565b5050505050608460405162461bcd60e51b815260206004820152602160248201527f4552433732313a20617070726f76616c20746f2063757272656e74206f776e656044820152603960f91b6064820152fd5b610f26610f2182611371565b610d98565b6000908152609b60205260409020546001600160a01b031690565b6001600160a01b0381169190338314610faa57610f6b9033600052609c6020526040600020610d08565b9015159060ff1981541660ff83161790556040519081527f17307eab39ab6107e8899845ad3d59bd9653f200f220920489ca2b5937696c3160203392a3565b50505050606460405162461bcd60e51b815260206004820152601960248201527822a9219b99189d1030b8383937bb32903a379031b0b63632b960391b6044820152fd5b15610ff557565b5060405162461bcd60e51b815260206004820152602d60248201527f4552433732313a2063616c6c6572206973206e6f7420746f6b656e206f776e6560448201526c1c881bdc88185c1c1c9bdd9959609a1b6064820152608490fd5b906108a29291611069611064843361112a565b610fee565b6111f3565b90916108a2926040519261108184610621565b600084525b916108a293916110ad9361109d611064843361112a565b6110a88383836111f3565b6114e5565b611105565b60809060208152603260208201527f4552433732313a207472616e7366657220746f206e6f6e20455243373231526560408201527131b2b4bb32b91034b6b83632b6b2b73a32b960711b60608201520190565b1561110c57565b5060405162461bcd60e51b815280611126600482016110b2565b0390fd5b6001600160a01b038061113c84610de0565b169281831692848414948515611172575b5050831561115c575b50505090565b61116891929350610f15565b1614388080611156565b60ff9295509061118e91600052609c6020526040600020610d08565b541692388061114d565b1561119f57565b5060405162461bcd60e51b815260206004820152602560248201527f4552433732313a207472616e736665722066726f6d20696e636f72726563742060448201526437bbb732b960d91b6064820152608490fd5b909161121861120182610de0565b6001600160a01b0384811692909182168314611198565b84169081156112c5576112ab6108a29561124a8361124461123888610de0565b6001600160a01b031690565b14611198565b61127161126186600052609b602052604060002090565b80546001600160a01b0319169055565b61127a86610cee565b805460001901905561128b81610cee565b600181540190556112a6856000526099602052604060002090565b610c35565b6000805160206121228339815191526000604051a461205d565b505050505050608460405162461bcd60e51b8152602060048201526024808201527f4552433732313a207472616e7366657220746f20746865207a65726f206164646044820152637265737360e01b6064820152fd5b81600052609b602052611332816040600020610c35565b6001600160a01b038061134484610de0565b169116907f8c5be1e5ebec7d5bd14f71427d1e84f3dd0314c0f7b2291e5b200ac8c7c3b9256000604051a4565b6000908152609960205260409020546001600160a01b0316151590565b908160209103126105a157516104e2816104b7565b6104e2939260809260018060a01b0316825260006020830152604082015281606082015201906104f3565b6001600160a01b0391821681529116602082015260408101919091526080606082018190526104e2929101906104f3565b3d1561142a573d9061141082610687565b9161141e6040519384610664565b82523d6000602084013e565b606090565b909190803b156114dd57611461602091600093604051948580948193630a85bd0160e11b998a845233600485016113a3565b03926001600160a01b03165af1600091816114bd575b506114af575050506114876113ff565b805190816114aa57505060405162461bcd60e51b815280611126600482016110b2565b602001fd5b6001600160e01b0319161490565b6114d69192506114cd3d82610664565b3d81019061138e565b9038611477565b505050600190565b92909190823b1561151857611461926020926000604051809681958294630a85bd0160e11b9a8b855233600486016113ce565b50505050600190565b9391949290946000549560ff8760081c16158097819861164a575b811561162a575b50156115c7576115699587611560600160ff196000541617600055565b6115ae5761191a565b61156f57565b61157f61ff001960005416600055565b604051600181527f7f26b83ff96e1f2b6a682f133852f6798a09c465da95921460cefb384740249890602090a1565b6115c261010061ff00196000541617600055565b61191a565b5050505050505050608460405162461bcd60e51b815260206004820152602e60248201527f496e697469616c697a61626c653a20636f6e747261637420697320616c72656160448201526d191e481a5b9a5d1a585b1a5e995960921b6064820152fd5b303b1591508161163c575b5038611543565b6001915060ff161438611635565b600160ff821610915061153c565b601f8111611664575050565b6000906097825260208220906020601f850160051c830194106116a2575b601f0160051c01915b82811061169757505050565b81815560010161168b565b9092508290611682565b601f81116116b8575050565b6000906098825260208220906020601f850160051c830194106116f6575b601f0160051c01915b8281106116eb57505050565b8181556001016116df565b90925082906116d6565b601f811161170c575050565b60009060ca825260208220906020601f850160051c8301941061174a575b601f0160051c01915b82811061173f57505050565b818155600101611733565b909250829061172a565b80519091906001600160401b03811161182a575b61177c8161177760985461082c565b6116ac565b602080601f83116001146117b857508192936000926117ad575b50508160011b916000199060031b1c191617609855565b015190503880611796565b6098600052601f19831694909190600080516020612142833981519152926000905b8782106118125750508360019596106117f9575b505050811b01609855565b015160001960f88460031b161c191690553880806117ee565b806001859682949686015181550195019301906117da565b61183261060a565b611768565b80519091906001600160401b03811161190d575b61185f8161185a60ca5461082c565b611700565b602080601f831160011461189b5750819293600092611890575b50508160011b916000199060031b1c19161760ca55565b015190503880611879565b60ca600052601f198316949091906000805160206120e2833981519152926000905b8782106118f55750508360019596106118dc575b505050811b0160ca55565b015160001960f88460031b161c191690553880806118d1565b806001859682949686015181550195019301906118bd565b61191561060a565b61184b565b9392919361193860ff60005460081c1661193381611a9d565b611a9d565b8051906001600160401b038211611a90575b61195e8261195960975461082c565b611658565b60209081601f8411600114611a065750936119a86119d794846119dc98956119b5956108a29c9b996000926119fb575b50508160011b916000199060031b1c191617609755611754565b6119b0611afe565b60cb55565b60cd80546001600160a01b0319166001600160a01b0392909216919091179055565b611837565b60cd805460ff60a01b191691151560a01b60ff60a01b16919091179055565b01519050388061198e565b60976000529190601f1984166000805160206120c2833981519152936000905b828210611a78575050946001856119b5956108a29c9b99956119a8956119dc9c996119d79b10611a5f575b505050811b01609755611754565b015160001960f88460031b161c19169055388080611a51565b80600186978294978701518155019601940190611a26565b611a9861060a565b61194a565b15611aa457565b5060405162461bcd60e51b815260206004820152602b60248201527f496e697469616c697a61626c653a20636f6e7472616374206973206e6f74206960448201526a6e697469616c697a696e6760a81b6064820152608490fd5b611b1360ff60005460081c1661193381611a9d565b6108a233610c54565b6001198111611b2b5760010190565b5050634e487b7160e01b600052601160045260246000fd5b90611b4f60cc54611b1c565b8060cc5560cb5410611bfe576108a292611bec91604051602081019046825230604082015260018060a01b038093818816606084015216608082015260808152611b9881610649565b5190207b0ca2ba3432b932bab69029b4b3b732b21026b2b9b9b0b3b29d05199960211b600052601c52611be4611238603c60002093611bde60cd5460018060a01b031690565b94611dd9565b911614611d98565b611bf581611fee565b60cc5490611c3d565b50505050606460405162461bcd60e51b8152602060048201526014602482015273457863656564696e67206d617820737570706c7960601b6044820152fd5b90604051611c4a81610621565b600081526001600160a01b038316918215611cc9576108a293816110ad94611c7a611c7483611371565b15611d12565b611c86611c7483611371565b611c8f83610cee565b60018154019055611cae836112a6846000526099602052604060002090565b600060008051602061212283398151915281604051a461142f565b5050505050606460405162461bcd60e51b815260206004820152602060248201527f4552433732313a206d696e7420746f20746865207a65726f20616464726573736044820152fd5b15611d1957565b5060405162461bcd60e51b815260206004820152601c60248201527b115490cdcc8c4e881d1bdad95b88185b1c9958591e481b5a5b9d195960221b6044820152606490fd5b6119b5610b65565b611d6e610b65565b60cb5481198111611d7f570160cb55565b505050634e487b7160e01b600052601160045260246000fd5b15611d9f57565b5060405162461bcd60e51b8152602060048201526011602482015270696e76616c6964207369676e617475726560781b6044820152606490fd5b6104e291611de691611f31565b919091611e0f565b60051115611df857565b50634e487b7160e01b600052602160045260246000fd5b611e1881611dee565b80611e205750565b611e2981611dee565b6001811415611e7457505060405162461bcd60e51b815260206004820152601860248201527745434453413a20696e76616c6964207369676e617475726560401b6044820152606490fd5b611e7d81611dee565b6002811415611ecd57505060405162461bcd60e51b815260206004820152601f60248201527f45434453413a20696e76616c6964207369676e6174757265206c656e677468006044820152606490fd5b80611ed9600392611dee565b14611ee057565b5060405162461bcd60e51b815260206004820152602260248201527f45434453413a20696e76616c6964207369676e6174757265202773272076616c604482015261756560f01b6064820152608490fd5b906041815114600014611f5f57611f5b916020820151906060604084015193015160001a90611f69565b9091565b5050600090600290565b9291906fa2a8918ca85bafe22016d0b997e4df60600160ff1b038311611fe25791608094939160ff602094604051948552168484015260408301526060820152600093849182805260015afa15611fd55781516001600160a01b03811615611fcf579190565b50600190565b50604051903d90823e3d90fd5b50505050600090600390565b6001600160a01b0316600081815260c960205260409020546120255760005260c960205260406000206120218154611b1c565b9055565b505060405162461bcd60e51b815260206004820152600e60248201526d105b1c9958591e481b5a5b9d195960921b6044820152606490fd5b6001600160a01b03161580156120b2575b1561207557565b5060405162461bcd60e51b8152602060048201526014602482015273151c985b9cd9995c881b9bdd08185b1b1bddd95960621b6044820152606490fd5b5060ff60cd5460a01c1661206e56fe354a83ed9988f79f6038d4c7a7dadbad8af32f4ad6df893e0e5807a1b1944ff942d72674974f694b5f5159593243114d38a5c39c89d6b62fee061ff523240ee18be0079c531659141344cd1fd0a4f28419497f9722a3daafe3b4186f6b6457e0ddf252ad1be2c89b69c2b068fc378daa952ba7f163c4a11628f55a4df523b3ef2237a976fa961f5921fd19f2b03c925c725d77b20ce8f790c19709c03de4d814a3646970667358221220000ce3c760c5e127931354bbfdb2ff61355755f88e6932fd3a3b979f3bf841d76c6578706572696d656e74616cf564736f6c634300080c0041",
  "devdoc": {
    "kind": "dev",
    "methods": {
      "approve(address,uint256)": {
        "details": "See {IERC721-approve}."
      },
      "balanceOf(address)": {
        "details": "See {IERC721-balanceOf}."
      },
      "getApproved(uint256)": {
        "details": "See {IERC721-getApproved}."
      },
      "isApprovedForAll(address,address)": {
        "details": "See {IERC721-isApprovedForAll}."
      },
      "name()": {
        "details": "See {IERC721Metadata-name}."
      },
      "owner()": {
        "details": "Returns the address of the current owner."
      },
      "ownerOf(uint256)": {
        "details": "See {IERC721-ownerOf}."
      },
      "renounceOwnership()": {
        "details": "Leaves the contract without owner. It will not be possible to call `onlyOwner` functions. Can only be called by the current owner. NOTE: Renouncing ownership will leave the contract without an owner, thereby disabling any functionality that is only available to the owner."
      },
      "safeTransferFrom(address,address,uint256)": {
        "details": "See {IERC721-safeTransferFrom}."
      },
      "safeTransferFrom(address,address,uint256,bytes)": {
        "details": "See {IERC721-safeTransferFrom}."
      },
      "setApprovalForAll(address,bool)": {
        "details": "See {IERC721-setApprovalForAll}."
      },
      "supportsInterface(bytes4)": {
        "details": "See {IERC165-supportsInterface}."
      },
      "symbol()": {
        "details": "See {IERC721Metadata-symbol}."
      },
      "transferFrom(address,address,uint256)": {
        "details": "See {IERC721-transferFrom}."
      },
      "transferOwnership(address)": {
        "details": "Transfers ownership of the contract to a new account (`newOwner`). Can only be called by the current owner."
      }
    },
    "version": 1
  },
  "userdoc": {
    "kind": "user",
    "methods": {},
    "version": 1
  },
  "storageLayout": {
    "storage": [
      {
        "astId": 4143,
        "contract": "contracts/apps/tokens/HexlinkErc721Impl.sol:HexlinkErc721Impl",
        "label": "_initialized",
        "offset": 0,
        "slot": "0",
        "type": "t_uint8"
      },
      {
        "astId": 4146,
        "contract": "contracts/apps/tokens/HexlinkErc721Impl.sol:HexlinkErc721Impl",
        "label": "_initializing",
        "offset": 1,
        "slot": "0",
        "type": "t_bool"
      },
      {
        "astId": 5789,
        "contract": "contracts/apps/tokens/HexlinkErc721Impl.sol:HexlinkErc721Impl",
        "label": "__gap",
        "offset": 0,
        "slot": "1",
        "type": "t_array(t_uint256)50_storage"
      },
      {
        "astId": 4015,
        "contract": "contracts/apps/tokens/HexlinkErc721Impl.sol:HexlinkErc721Impl",
        "label": "_owner",
        "offset": 0,
        "slot": "51",
        "type": "t_address"
      },
      {
        "astId": 4135,
        "contract": "contracts/apps/tokens/HexlinkErc721Impl.sol:HexlinkErc721Impl",
        "label": "__gap",
        "offset": 0,
        "slot": "52",
        "type": "t_array(t_uint256)49_storage"
      },
      {
        "astId": 6062,
        "contract": "contracts/apps/tokens/HexlinkErc721Impl.sol:HexlinkErc721Impl",
        "label": "__gap",
        "offset": 0,
        "slot": "101",
        "type": "t_array(t_uint256)50_storage"
      },
      {
        "astId": 4334,
        "contract": "contracts/apps/tokens/HexlinkErc721Impl.sol:HexlinkErc721Impl",
        "label": "_name",
        "offset": 0,
        "slot": "151",
        "type": "t_string_storage"
      },
      {
        "astId": 4336,
        "contract": "contracts/apps/tokens/HexlinkErc721Impl.sol:HexlinkErc721Impl",
        "label": "_symbol",
        "offset": 0,
        "slot": "152",
        "type": "t_string_storage"
      },
      {
        "astId": 4340,
        "contract": "contracts/apps/tokens/HexlinkErc721Impl.sol:HexlinkErc721Impl",
        "label": "_owners",
        "offset": 0,
        "slot": "153",
        "type": "t_mapping(t_uint256,t_address)"
      },
      {
        "astId": 4344,
        "contract": "contracts/apps/tokens/HexlinkErc721Impl.sol:HexlinkErc721Impl",
        "label": "_balances",
        "offset": 0,
        "slot": "154",
        "type": "t_mapping(t_address,t_uint256)"
      },
      {
        "astId": 4348,
        "contract": "contracts/apps/tokens/HexlinkErc721Impl.sol:HexlinkErc721Impl",
        "label": "_tokenApprovals",
        "offset": 0,
        "slot": "155",
        "type": "t_mapping(t_uint256,t_address)"
      },
      {
        "astId": 4354,
        "contract": "contracts/apps/tokens/HexlinkErc721Impl.sol:HexlinkErc721Impl",
        "label": "_operatorApprovals",
        "offset": 0,
        "slot": "156",
        "type": "t_mapping(t_address,t_mapping(t_address,t_bool))"
      },
      {
        "astId": 5256,
        "contract": "contracts/apps/tokens/HexlinkErc721Impl.sol:HexlinkErc721Impl",
        "label": "__gap",
        "offset": 0,
        "slot": "157",
        "type": "t_array(t_uint256)44_storage"
      },
      {
        "astId": 18788,
        "contract": "contracts/apps/tokens/HexlinkErc721Impl.sol:HexlinkErc721Impl",
        "label": "minted_",
        "offset": 0,
        "slot": "201",
        "type": "t_mapping(t_address,t_uint256)"
      },
      {
        "astId": 18790,
        "contract": "contracts/apps/tokens/HexlinkErc721Impl.sol:HexlinkErc721Impl",
        "label": "baseTokenURI",
        "offset": 0,
        "slot": "202",
        "type": "t_string_storage"
      },
      {
        "astId": 18792,
        "contract": "contracts/apps/tokens/HexlinkErc721Impl.sol:HexlinkErc721Impl",
        "label": "maxSupply",
        "offset": 0,
        "slot": "203",
        "type": "t_uint256"
      },
      {
        "astId": 18795,
        "contract": "contracts/apps/tokens/HexlinkErc721Impl.sol:HexlinkErc721Impl",
        "label": "tokenId",
        "offset": 0,
        "slot": "204",
        "type": "t_uint256"
      },
      {
        "astId": 18797,
        "contract": "contracts/apps/tokens/HexlinkErc721Impl.sol:HexlinkErc721Impl",
        "label": "validator",
        "offset": 0,
        "slot": "205",
        "type": "t_address"
      },
      {
        "astId": 18799,
        "contract": "contracts/apps/tokens/HexlinkErc721Impl.sol:HexlinkErc721Impl",
        "label": "transferrable",
        "offset": 20,
        "slot": "205",
        "type": "t_bool"
      }
    ],
    "types": {
      "t_address": {
        "encoding": "inplace",
        "label": "address",
        "numberOfBytes": "20"
      },
      "t_array(t_uint256)44_storage": {
        "base": "t_uint256",
        "encoding": "inplace",
        "label": "uint256[44]",
        "numberOfBytes": "1408"
      },
      "t_array(t_uint256)49_storage": {
        "base": "t_uint256",
        "encoding": "inplace",
        "label": "uint256[49]",
        "numberOfBytes": "1568"
      },
      "t_array(t_uint256)50_storage": {
        "base": "t_uint256",
        "encoding": "inplace",
        "label": "uint256[50]",
        "numberOfBytes": "1600"
      },
      "t_bool": {
        "encoding": "inplace",
        "label": "bool",
        "numberOfBytes": "1"
      },
      "t_mapping(t_address,t_bool)": {
        "encoding": "mapping",
        "key": "t_address",
        "label": "mapping(address => bool)",
        "numberOfBytes": "32",
        "value": "t_bool"
      },
      "t_mapping(t_address,t_mapping(t_address,t_bool))": {
        "encoding": "mapping",
        "key": "t_address",
        "label": "mapping(address => mapping(address => bool))",
        "numberOfBytes": "32",
        "value": "t_mapping(t_address,t_bool)"
      },
      "t_mapping(t_address,t_uint256)": {
        "encoding": "mapping",
        "key": "t_address",
        "label": "mapping(address => uint256)",
        "numberOfBytes": "32",
        "value": "t_uint256"
      },
      "t_mapping(t_uint256,t_address)": {
        "encoding": "mapping",
        "key": "t_uint256",
        "label": "mapping(uint256 => address)",
        "numberOfBytes": "32",
        "value": "t_address"
      },
      "t_string_storage": {
        "encoding": "bytes",
        "label": "string",
        "numberOfBytes": "32"
      },
      "t_uint256": {
        "encoding": "inplace",
        "label": "uint256",
        "numberOfBytes": "32"
      },
      "t_uint8": {
        "encoding": "inplace",
        "label": "uint8",
        "numberOfBytes": "1"
      }
    }
  }
}