{
  "address": "0x86160022045477C72911185683613eeB1ae1A974",
  "abi": [
    {
      "inputs": [
        {
          "internalType": "address",
          "name": "_beacon",
          "type": "address"
        }
      ],
      "stateMutability": "nonpayable",
      "type": "constructor"
    },
    {
      "stateMutability": "payable",
      "type": "fallback"
    },
    {
      "inputs": [],
      "name": "beacon",
      "outputs": [
        {
          "internalType": "address",
          "name": "",
          "type": "address"
        }
      ],
      "stateMutability": "view",
      "type": "function"
    },
    {
      "stateMutability": "payable",
      "type": "receive"
    }
  ],
  "transactionHash": "0xbe46a9ab7cf138165988f026fba76b9807b603d10fa16ccf2f644d77e12d88c6",
  "args": [
    "0xe17ceA67Fdc824622D9544dE082e9B7b5AD1550F"
  ],
  "numDeployments": 1,
  "solcInputHash": "6b87300838d0a153f914ceaacfecdea9",
  "bytecode": "0x60a0806040523461007b57601f61033838819003918201601f19168301916001600160401b038311848410176100815780849260209460405283398101031261007b57516001600160a01b03811681141561007b5760805260405161029c908161009c823960805181818160330152818160ff01526101510152f35b50600080fd5b50505050634e487b7160e01b600052604160045260246000fdfe60808060405260043610156100d5575b3615610021575b5061001f610133565b005b635c60da1b60e01b81526020816004817f00000000000000000000000000000000000000000000000000000000000000006001600160a01b03165afa80156100c75760009061007b575b6100759150610207565b38610016565b3d601f01601f19168201906001600160401b038211838310176100b05750610075916100ab916040523d01610228565b61006b565b634e487b7160e01b81526041600452602492509050fd5b50506040513d6000823e3d90fd5b6000803560e01c6359659e90146100ec575061000f565b903461012f578160031936011261012f577f00000000000000000000000000000000000000000000000000000000000000006001600160a01b0316815260209150f35b5080fd5b604051635c60da1b60e01b81526001600160a01b03906020816004817f000000000000000000000000000000000000000000000000000000000000000086165afa9081156101f757600091610190575b5061018e9150610207565b565b3d601f01601f191681016001600160401b038111828210176101de576040526020813d810103126101d757519182168214156101d1575061018e9038610183565b91505080fd5b5091505080fd5b5050634e487b7160e01b81526041600452602492509050fd5b505050506040513d6000823e3d90fd5b90506000808092368280378136915af43d82803e15610224573d90f35b3d90fd5b602090607f190112610252576080516001600160a01b03811681141561024b5790565b5050600080fd5b50600080fdfea3646970667358221220e1615fc12ad81a1a2113c66c9e4f60d861158eaf876f70d6723347cac04c67756c6578706572696d656e74616cf564736f6c634300080c0041",
  "devdoc": {
    "kind": "dev",
    "methods": {},
    "version": 1
  },
  "userdoc": {
    "kind": "user",
    "methods": {},
    "version": 1
  },
  "storageLayout": {
    "storage": [],
    "types": null
  }
}