{
  "address": "0xd4Bc04938b2e02c6083342FE966851e0F6Bc4217",
  "abi": [
    {
      "inputs": [
        {
          "internalType": "address",
          "name": "validator",
          "type": "address"
        },
        {
          "internalType": "string",
          "name": "metadata",
          "type": "string"
        }
      ],
      "stateMutability": "nonpayable",
      "type": "constructor"
    },
    {
      "inputs": [],
      "name": "getDefaultValidator",
      "outputs": [
        {
          "internalType": "address",
          "name": "",
          "type": "address"
        }
      ],
      "stateMutability": "view",
      "type": "function"
    },
    {
      "inputs": [],
      "name": "getMetadata",
      "outputs": [
        {
          "internalType": "string",
          "name": "",
          "type": "string"
        }
      ],
      "stateMutability": "view",
      "type": "function"
    },
    {
      "inputs": [
        {
          "internalType": "address",
          "name": "",
          "type": "address"
        }
      ],
      "name": "getValidator",
      "outputs": [
        {
          "internalType": "address",
          "name": "",
          "type": "address"
        }
      ],
      "stateMutability": "view",
      "type": "function"
    }
  ],
  "transactionHash": "0x53824c6596dc199d1674aa316ff3f6aa65161d81282fba0458b48f60d86a5216",
  "args": [
    "0xf3b4e49Fd77A959B704f6a045eeA92bd55b3b571",
    ""
  ],
  "numDeployments": 2,
  "solcInputHash": "57eac6789dc487c3df04548a1d85c7eb",
  "bytecode": "0x60a06040523461011a576105f48038038061001981610136565b92833981016040828203126101135781516001600160a01b03811681141561010b5760208381015190936001600160401b039190828211610100570183601f820112156100e95780519182116100f3575b61007c601f8301601f19168601610136565b938285528583830101116100e957936000945b8286106100d45750816100a995116100c6575b50506101f7565b60405161030790816102ed8239608051818181608a015260d00152f35b6000918401015238806100a2565b8581018201518587018301529481019461008f565b5050505050600080fd5b6100fb61011f565b61006a565b505050505050600080fd5b505050600080fd5b5050600080fd5b600080fd5b50634e487b7160e01b600052604160045260246000fd5b6040519190601f01601f191682016001600160401b0381118382101761015b57604052565b61016361011f565b604052565b90600182811c9216801561019a575b602083101461018257565b5050634e487b7160e01b600052602260045260246000fd5b91607f1691610177565b601f81116101b0575050565b60009081805260208220906020601f850160051c830194106101ed575b601f0160051c01915b8281106101e257505050565b8181556001016101d6565b90925082906101cd565b60805280519091906001600160401b0381116102df575b6000906102248161021f8454610168565b6101a4565b602080601f831160011461025f5750829394829392610254575b50508160011b916000199060031b1c1916179055565b01519050388061023e565b60008052601f198316957f290decd9548b62a8d60345a988386fc84ba6bc95484008f6362f93160ef3e563929185905b8882106102c7575050836001959697106102ae575b505050811b019055565b015160001960f88460031b161c191690553880806102a4565b8060018596829496860151815501950193019061028f565b6102e761011f565b61020e56fe6080806040526004361015610015575b50600080fd5b600090813560e01c9081630b3dc354146100b8575080631904bb2e1461007157637a5b4f59146100445761000f565b3461006e5750610053366100fa565b61006a61005e6101d7565b60405191829182610145565b0390f35b80fd5b503461006e575061006a6100ac6100873661011b565b507f000000000000000000000000000000000000000000000000000000000000000090565b60405191829182610108565b919050346100f557506100ca366100fa565b8061006a7f000000000000000000000000000000000000000000000000000000000000000082610108565b809150fd5b600090600319011261000f57565b6001600160a01b03909116815260200190565b602090600319011261000f576004356001600160a01b03811681141561013e5790565b5050600080fd5b919091602080825283519081818401526000945b828610610186575050806040939411610179575b601f01601f1916010190565b600083828401015261016d565b8581018201518487016040015294810194610159565b601f909101601f19168101906001600160401b038211908210176101bf57604052565b5050634e487b7160e01b600052604160045260246000fd5b604051906000805490600182811c928181169182156102b9575b602091828610841461029d57858852879493602086019392918115610285575060011461022a575b5050506102289250038361019c565b565b60008080527f290decd9548b62a8d60345a988386fc84ba6bc95484008f6362f93160ef3e5639690945091905b82851061026f57505050610228935001388080610219565b8654858501529586019588955093810193610257565b60ff1916845250610228955050019050388080610219565b5050634e487b7160e01b83525050602260045260249350915050fd5b93607f16936101f156fea3646970667358221220cc643c3b9a65f0fd844a5212b3d397f8ce400729455645b91c444f470aa37d2c6c6578706572696d656e74616cf564736f6c634300080c0041",
  "devdoc": {
    "kind": "dev",
    "methods": {},
    "version": 1
  },
  "userdoc": {
    "kind": "user",
    "methods": {},
    "version": 1
  },
  "storageLayout": {
    "storage": [
      {
        "astId": 6659,
        "contract": "contracts/account/auth/provider/SimpleAuthProvider.sol:SimpleAuthProvider",
        "label": "_metadata",
        "offset": 0,
        "slot": "0",
        "type": "t_string_storage"
      }
    ],
    "types": {
      "t_string_storage": {
        "encoding": "bytes",
        "label": "string",
        "numberOfBytes": "32"
      }
    }
  }
}