{
  "address": "0xA28735D105B22270AaAB686Cec6D443a088ba0D3",
  "abi": [
    {
      "inputs": [
        {
          "internalType": "address",
          "name": "validator",
          "type": "address"
        }
      ],
      "stateMutability": "nonpayable",
      "type": "constructor"
    },
    {
      "inputs": [
        {
          "internalType": "address",
          "name": "",
          "type": "address"
        }
      ],
      "name": "getValidator",
      "outputs": [
        {
          "internalType": "address",
          "name": "",
          "type": "address"
        }
      ],
      "stateMutability": "view",
      "type": "function"
    }
  ],
  "transactionHash": "0x75387088c8f5401f5ce01b15c473ff0da4de2ba3e83c6d0208c2c1d3f1527055",
  "args": [
    "0x943fAbe0D1ae7130fc48Cf2ABc85F01fC987Ec81"
  ],
  "numDeployments": 1,
  "solcInputHash": "1720bbbeba8381ff9dafa47136344a03",
  "bytecode": "0x60a0806040523461006d57601f61015138819003918201601f19168301916001600160401b038311848410176100735780849260209460405283398101031261006d57516001600160a01b03811681141561006d5760805260405160c3908161008e82396080518160520152f35b50600080fd5b50505050634e487b7160e01b600052604160045260246000fdfe60808060405260043610156014575b50600080fd5b600090813560e01c631904bb2e14602a5750600e565b34607b576020366003190112607b576001600160a01b036004358181161415607657602092507f0000000000000000000000000000000000000000000000000000000000000000168152f35b505080fd5b5080fdfea36469706673582212202decea073a9755214463b73e387a41eef3fa85bca144bea6025d03061e3c5a416c6578706572696d656e74616cf564736f6c634300080c0041",
  "devdoc": {
    "kind": "dev",
    "methods": {},
    "version": 1
  },
  "userdoc": {
    "kind": "user",
    "methods": {},
    "version": 1
  },
  "storageLayout": {
    "storage": [],
    "types": null
  }
}