{
  "address": "0xaadC24D9c023BD283A28850c8837625e89e38c94",
  "abi": [
    {
      "inputs": [
        {
          "internalType": "uint256",
          "name": "campaign",
          "type": "uint256"
        },
        {
          "internalType": "address",
          "name": "to",
          "type": "address"
        }
      ],
      "name": "AlreadyClaimed",
      "type": "error"
    },
    {
      "inputs": [
        {
          "internalType": "uint256",
          "name": "campaign",
          "type": "uint256"
        }
      ],
      "name": "CampaignAlreadyEnded",
      "type": "error"
    },
    {
      "inputs": [
        {
          "internalType": "uint256",
          "name": "campaign",
          "type": "uint256"
        }
      ],
      "name": "CampaignNotEnded",
      "type": "error"
    },
    {
      "inputs": [
        {
          "internalType": "uint256",
          "name": "campaign",
          "type": "uint256"
        }
      ],
      "name": "CampaignNotExist",
      "type": "error"
    },
    {
      "inputs": [
        {
          "internalType": "uint256",
          "name": "campaign",
          "type": "uint256"
        }
      ],
      "name": "CampaignNotStarted",
      "type": "error"
    },
    {
      "inputs": [
        {
          "internalType": "uint256",
          "name": "campaign",
          "type": "uint256"
        },
        {
          "internalType": "uint256",
          "name": "balance",
          "type": "uint256"
        },
        {
          "internalType": "uint256",
          "name": "expected",
          "type": "uint256"
        }
      ],
      "name": "InSufficientBalance",
      "type": "error"
    },
    {
      "inputs": [
        {
          "components": [
            {
              "internalType": "address",
              "name": "token",
              "type": "address"
            },
            {
              "internalType": "uint48",
              "name": "startAt",
              "type": "uint48"
            },
            {
              "internalType": "uint48",
              "name": "endAt",
              "type": "uint48"
            },
            {
              "internalType": "uint256",
              "name": "amount",
              "type": "uint256"
            },
            {
              "internalType": "address",
              "name": "owner",
              "type": "address"
            }
          ],
          "internalType": "struct Airdrop.Campaign",
          "name": "c",
          "type": "tuple"
        }
      ],
      "name": "InvalidCampaignInput",
      "type": "error"
    },
    {
      "inputs": [],
      "name": "NotAuthorized",
      "type": "error"
    },
    {
      "anonymous": false,
      "inputs": [
        {
          "indexed": false,
          "internalType": "uint256",
          "name": "batch",
          "type": "uint256"
        },
        {
          "indexed": true,
          "internalType": "address",
          "name": "to",
          "type": "address"
        }
      ],
      "name": "Claim",
      "type": "event"
    },
    {
      "anonymous": false,
      "inputs": [
        {
          "indexed": false,
          "internalType": "uint256",
          "name": "batch",
          "type": "uint256"
        },
        {
          "indexed": true,
          "internalType": "address[]",
          "name": "to",
          "type": "address[]"
        }
      ],
      "name": "ClaimBatch",
      "type": "event"
    },
    {
      "anonymous": false,
      "inputs": [
        {
          "indexed": true,
          "internalType": "uint256",
          "name": "batch",
          "type": "uint256"
        },
        {
          "components": [
            {
              "internalType": "address",
              "name": "token",
              "type": "address"
            },
            {
              "internalType": "uint48",
              "name": "startAt",
              "type": "uint48"
            },
            {
              "internalType": "uint48",
              "name": "endAt",
              "type": "uint48"
            },
            {
              "internalType": "uint256",
              "name": "amount",
              "type": "uint256"
            },
            {
              "internalType": "address",
              "name": "owner",
              "type": "address"
            }
          ],
          "indexed": false,
          "internalType": "struct Airdrop.Campaign",
          "name": "info",
          "type": "tuple"
        }
      ],
      "name": "NewCampaign",
      "type": "event"
    },
    {
      "inputs": [
        {
          "internalType": "uint256",
          "name": "campaign",
          "type": "uint256"
        },
        {
          "internalType": "address[]",
          "name": "receipts",
          "type": "address[]"
        }
      ],
      "name": "claimBatch",
      "outputs": [],
      "stateMutability": "nonpayable",
      "type": "function"
    },
    {
      "inputs": [
        {
          "internalType": "uint256",
          "name": "campaign",
          "type": "uint256"
        },
        {
          "internalType": "address",
          "name": "to",
          "type": "address"
        }
      ],
      "name": "claimOne",
      "outputs": [],
      "stateMutability": "nonpayable",
      "type": "function"
    },
    {
      "inputs": [
        {
          "components": [
            {
              "internalType": "address",
              "name": "token",
              "type": "address"
            },
            {
              "internalType": "uint48",
              "name": "startAt",
              "type": "uint48"
            },
            {
              "internalType": "uint48",
              "name": "endAt",
              "type": "uint48"
            },
            {
              "internalType": "uint256",
              "name": "amount",
              "type": "uint256"
            },
            {
              "internalType": "address",
              "name": "owner",
              "type": "address"
            }
          ],
          "internalType": "struct Airdrop.Campaign",
          "name": "c",
          "type": "tuple"
        }
      ],
      "name": "createCampaign",
      "outputs": [],
      "stateMutability": "nonpayable",
      "type": "function"
    },
    {
      "inputs": [
        {
          "internalType": "uint256",
          "name": "campaign",
          "type": "uint256"
        }
      ],
      "name": "getCampaign",
      "outputs": [
        {
          "components": [
            {
              "internalType": "address",
              "name": "token",
              "type": "address"
            },
            {
              "internalType": "uint48",
              "name": "startAt",
              "type": "uint48"
            },
            {
              "internalType": "uint48",
              "name": "endAt",
              "type": "uint48"
            },
            {
              "internalType": "uint256",
              "name": "amount",
              "type": "uint256"
            },
            {
              "internalType": "address",
              "name": "owner",
              "type": "address"
            }
          ],
          "internalType": "struct Airdrop.Campaign",
          "name": "",
          "type": "tuple"
        }
      ],
      "stateMutability": "view",
      "type": "function"
    },
    {
      "inputs": [],
      "name": "getNextCampaign",
      "outputs": [
        {
          "internalType": "uint256",
          "name": "",
          "type": "uint256"
        }
      ],
      "stateMutability": "view",
      "type": "function"
    },
    {
      "inputs": [
        {
          "internalType": "uint256",
          "name": "campaign",
          "type": "uint256"
        },
        {
          "internalType": "address",
          "name": "to",
          "type": "address"
        }
      ],
      "name": "hasClaimed",
      "outputs": [
        {
          "internalType": "bool",
          "name": "",
          "type": "bool"
        }
      ],
      "stateMutability": "view",
      "type": "function"
    },
    {
      "inputs": [
        {
          "internalType": "uint256",
          "name": "campaign",
          "type": "uint256"
        },
        {
          "internalType": "address",
          "name": "to",
          "type": "address"
        },
        {
          "internalType": "bytes",
          "name": "proof",
          "type": "bytes"
        }
      ],
      "name": "selfClaim",
      "outputs": [],
      "stateMutability": "nonpayable",
      "type": "function"
    },
    {
      "inputs": [
        {
          "internalType": "uint256",
          "name": "campaign",
          "type": "uint256"
        },
        {
          "internalType": "uint256",
          "name": "amount",
          "type": "uint256"
        }
      ],
      "name": "withdraw",
      "outputs": [],
      "stateMutability": "nonpayable",
      "type": "function"
    }
  ],
  "transactionHash": "0xb88fdb213cc0cc654ee35fe4f6611fb6080395b85c69580e0a29ada3b087204e",
  "args": [],
  "numDeployments": 1,
  "solcInputHash": "dfa0007b9fb6844c58f718479c2b7dda",
  "bytecode": "0x6080806040523461001a576000805561116f90816100218239f35b50600080fdfe6040608081526004361015610015575b50600080fd5b600090813560e01c80633cc6db7314610180578063441a3e70146101685780635598f8cc1461014157806372d596e61461012a5780637f6ac9de14610112578063873f6f9e146100bf57806398aafb6f146100a457639a1e8c481461007a575061000f565b346100a05761009c9161008c366104bc565b5490519081529081906020820190565b0390f35b5080fd5b50346100a0576100bc6100b636610495565b90610b22565b51f35b50346100a05761009c91506101016100fa6100e36100dc36610495565b91906104f5565b9060018060a01b0316600052602052604060002090565b5460ff1690565b905190151581529081906020820190565b50346100a0576100bc61012436610409565b91610848565b50346100a0576100bc61013c3661035d565b610608565b50346100a05761009c915061015d61015836610302565b610553565b905191829182610314565b50346100a0576100bc61017a366102ec565b90610738565b50346100a0576100bc61019236610239565b90610c2a565b50634e487b7160e01b600052604160045260246000fd5b60a081019081106001600160401b038211176101ca57604052565b6101d2610198565b604052565b601f909101601f19168101906001600160401b038211908210176101ca57604052565b6001600160a01b031690565b608435906001600160a01b03821682141561021d57565b5050600080fd5b35906001600160a01b03821682141561021d57565b90604060031983011261021d5760043591602435906001600160401b03908183116102e257806023840112156102e25782600401359182116102d5575b8160051b6040519360209361028d858401876101d7565b85526024848601928201019283116102c957602401905b8282106102b2575050505090565b8380916102be84610224565b8152019101906102a4565b50505050505050600080fd5b6102dd610198565b610276565b5050505050600080fd5b604090600319011261000f576004359060243590565b602090600319011261000f5760043590565b919091608060a08201938160018060a01b039182815116855265ffffffffffff806020830151166020870152604082015116604086015260608101516060860152015116910152565b60a090600319011261000f57604051610375816101af565b6004356001600160a01b0381168114156103ce57815265ffffffffffff6024358181168114156103d65760208301526044359081168114156103ce57604082015260643560608201526103c6610206565b608082015290565b505050600080fd5b50505050600080fd5b6020906001600160401b0381116103fc575b601f01601f19160190565b610404610198565b6103f1565b606060031982011261021d57600435916024356001600160a01b0381168114156103d657916044356001600160401b0381116102e257816023820112156102e257806004013590610459826103df565b9261046760405194856101d7565b8284526024838301011161048a5781600092602460209301838601378301015290565b505050505050600080fd5b604090600319011261000f57600435906024356001600160a01b0381168114156103ce5790565b600090600319011261000f57565b604051906104d7826101af565b60006080838281528260208201528260408201528260608201520152565b6000526002602052604060002090565b90604051610512816101af565b60808193600281549160018060a01b0392838116865265ffffffffffff8160a01c16602087015260d01c604086015260018101546060860152015416910152565b61055b6104ca565b506000526001602052604060002060405190610576826101af565b600281549160018060a01b0392838116855265ffffffffffff8160a01c16602086015260d01c604085015260018101546060850152015416608082015290565b80546001600160a01b0319166001600160a01b03909216919091179055565b50634e487b7160e01b600052601160045260246000fd5b60019060001981146105fc570190565b6106046105d5565b0190565b606081018051156106d4576106cf916106946106c792600054600052600160205260406000209060018060a01b0361064381865116846105b6565b602085015183546040870151921660a09190911b65ffffffffffff60a01b161760d09190911b6001600160d01b031916178255516001820155608083015160029061068d906101fa565b91016105b6565b7fc48c4a939437fbe29ece177ccd8ac10f28a9bb008600a235864c0a70de5f714f60005492839260405191829182610314565b0390a26105ec565b600055565b5060405163283f9b0560e01b8152915081906106f39060048301610314565b0390fd5b9081602091031261021d575180151581141561021d5790565b6001600160a01b039091168152602081019190915260400190565b506040513d6000823e3d90fd5b61075461074f826000526001602052604060002090565b610505565b608081019161076b61076684516101fa565b6101fa565b33141561083257610793610788604084015165ffffffffffff1690565b65ffffffffffff1690565b4211156108135750916020916107bc6107b56107666107666107da97516101fa565b91516101fa565b600060405180968195829463a9059cbb60e01b845260048401610710565b03925af18015610806575b6107ec5750565b610803906107fa3d826101d7565b3d8101906106f7565b50565b61080e61072b565b6107e5565b604051631e6f867160e21b815260048101919091526024945092505050fd5b5050505050600460405163ea8e4eb560e01b8152fd5b6108d36108cb61085783610f23565b6040805160208101868152606088811b6001600160601b03191693830193909352603482529297929181016001600160401b03811182821017610914575b6040525190207b0ca2ba3432b932bab69029b4b3b732b21026b2b9b9b0b3b29d05199960211b600052601c52603c600020610a64565b919091610942565b60808401516001600160a01b03906108ec9082166101fa565b911614156108ff576108fd92610de8565b565b50505050600460405163ea8e4eb560e01b8152fd5b61091c610198565b610895565b6005111561092b57565b50634e487b7160e01b600052602160045260246000fd5b61094b81610921565b806109535750565b61095c81610921565b60018114156109a757505060405162461bcd60e51b815260206004820152601860248201527745434453413a20696e76616c6964207369676e617475726560401b6044820152606490fd5b6109b081610921565b6002811415610a0057505060405162461bcd60e51b815260206004820152601f60248201527f45434453413a20696e76616c6964207369676e6174757265206c656e677468006044820152606490fd5b80610a0c600392610921565b14610a1357565b5060405162461bcd60e51b815260206004820152602260248201527f45434453413a20696e76616c6964207369676e6174757265202773272076616c604482015261756560f01b6064820152608490fd5b906041815114600014610a9257610a8e916020820151906060604084015193015160001a90610a9c565b9091565b5050600090600290565b9291906fa2a8918ca85bafe22016d0b997e4df60600160ff1b038311610b165791608094939160ff602094604051948552168484015260408301526060820152600093849182805260015afa15610b09575b81516001600160a01b03811615610b03579190565b50600190565b610b1161072b565b610aee565b50505050600090600390565b90610b2c82610f23565b9160018060a01b036080840151163314156108ff576108fd92610de8565b9081602091031261021d575190565b6001600160a01b03909116815260200190565b8060001904821181151516610b7f570290565b610b876105d5565b0290565b6040919493926060820195825260208201520152565b8051821015610bb55760209160051b010190565b505050634e487b7160e01b600052603260045260246000fd5b9081526001600160a01b03909116602082015260400190565b60405190818183925160208092019160005b828110610c0a575050505003902090565b83516001600160a01b031685528695509381019392810192600101610bf9565b9190610c3583610f23565b610c4561076660808301516101fa565b3314156108ff57610c5c61076661076683516101fa565b906040918251936370a0823160e01b85526020856004938180610c8130888301610b59565b03915afa948515610ddb575b600095610dbb575b506060830194610ca88651835190610b6c565b90818110610d9a57505060005b8151811015610d5057610cd8610ccb8284610ba1565b516001600160a01b031690565b88610ce96100fa836100e3846104f5565b610d2f5781610d12610d05610d2a95946100e3610d25956104f5565b805460ff19166001179055565b610d1c87516101fa565b90895191610ff1565b6105ec565b610cb5565b5094516302a4851560e61b8152978897506106f39650935050508401610bce565b507f14cce8a960ad6b7b25e10bd831c4bb4ceef56298f2080531892585c188260adc9450610d959395969250610d869150610be7565b93519081529081906020820190565b0390a2565b935093919550506106f3935051948594636a3b7c5760e11b86528501610b8b565b610dd4919550610dcb3d826101d7565b3d810190610b4a565b9338610c95565b610de361072b565b610c8d565b919091610dfb61076661076683516101fa565b90602060405180936370a0823160e01b82528180610e1c3060048301610b59565b03915afa918215610f16575b600092610eff575b5060608101918251808210610edc575050610e516100fa846100e3876104f5565b610ebb5791610ea1610d959282610e997f35538759d80c1fd7bb450a0d05601db5a99fa8b5d073a07c847a9fd61029b10796610e93610d05846100e38c6104f5565b516101fa565b915191610ff1565b6040519384526001600160a01b0316929081906020820190565b50506040516302a4851560e61b8152925082916106f3919060048401610bce565b92509450506106f39150604051938493636a3b7c5760e11b855260048501610b8b565b610f0f919250610dcb3d826101d7565b9038610e30565b610f1e61072b565b610e28565b610f2b6104ca565b50610f4361074f826000526001602052604060002090565b9060018060a01b03610f5860808401516101fa565b1615610fd457610f74610788602084015165ffffffffffff1690565b4210610fb757610f90610788604084015165ffffffffffff1690565b4211610f9a575090565b604051631f25749b60e21b81526004810191909152602492509050fd5b604051630a11d4f360e31b81526004810191909152602492509050fd5b604051637063fd0b60e11b81526004810191909152602492509050fd5b6001600160a01b039290831680611095575080471061104d576000809281926108fd9560405192165af13d15611048573d61102b816103df565b9061103960405192836101d7565b8152600060203d92013e6110bb565b6110bb565b50505050606460405162461bcd60e51b815260206004820152601d60248201527f416464726573733a20696e73756666696369656e742062616c616e63650000006044820152fd5b6107da9350602092600060405180968195829463a9059cbb60e01b845260048401610710565b156110c257565b5060405162461bcd60e51b815260206004820152603a60248201527f416464726573733a20756e61626c6520746f2073656e642076616c75652c20726044820152791958da5c1a595b9d081b585e481a185d99481c995d995c9d195960321b6064820152608490fdfea3646970667358221220c251ad885ab2342850cfc50f42b807304f6adb96ece60ac4f7f2126a478377a76c6578706572696d656e74616cf564736f6c634300080c0041",
  "devdoc": {
    "kind": "dev",
    "methods": {},
    "version": 1
  },
  "userdoc": {
    "kind": "user",
    "methods": {},
    "version": 1
  },
  "storageLayout": {
    "storage": [
      {
        "astId": 13564,
        "contract": "contracts/airdrop/Airdrop.sol:Airdrop",
        "label": "nextCampaign",
        "offset": 0,
        "slot": "0",
        "type": "t_uint256"
      },
      {
        "astId": 13569,
        "contract": "contracts/airdrop/Airdrop.sol:Airdrop",
        "label": "campaigns",
        "offset": 0,
        "slot": "1",
        "type": "t_mapping(t_uint256,t_struct(Campaign)13541_storage)"
      },
      {
        "astId": 13575,
        "contract": "contracts/airdrop/Airdrop.sol:Airdrop",
        "label": "claimed",
        "offset": 0,
        "slot": "2",
        "type": "t_mapping(t_uint256,t_mapping(t_address,t_bool))"
      }
    ],
    "types": {
      "t_address": {
        "encoding": "inplace",
        "label": "address",
        "numberOfBytes": "20"
      },
      "t_bool": {
        "encoding": "inplace",
        "label": "bool",
        "numberOfBytes": "1"
      },
      "t_mapping(t_address,t_bool)": {
        "encoding": "mapping",
        "key": "t_address",
        "label": "mapping(address => bool)",
        "numberOfBytes": "32",
        "value": "t_bool"
      },
      "t_mapping(t_uint256,t_mapping(t_address,t_bool))": {
        "encoding": "mapping",
        "key": "t_uint256",
        "label": "mapping(uint256 => mapping(address => bool))",
        "numberOfBytes": "32",
        "value": "t_mapping(t_address,t_bool)"
      },
      "t_mapping(t_uint256,t_struct(Campaign)13541_storage)": {
        "encoding": "mapping",
        "key": "t_uint256",
        "label": "mapping(uint256 => struct Airdrop.Campaign)",
        "numberOfBytes": "32",
        "value": "t_struct(Campaign)13541_storage"
      },
      "t_struct(Campaign)13541_storage": {
        "encoding": "inplace",
        "label": "struct Airdrop.Campaign",
        "members": [
          {
            "astId": 13532,
            "contract": "contracts/airdrop/Airdrop.sol:Airdrop",
            "label": "token",
            "offset": 0,
            "slot": "0",
            "type": "t_address"
          },
          {
            "astId": 13534,
            "contract": "contracts/airdrop/Airdrop.sol:Airdrop",
            "label": "startAt",
            "offset": 20,
            "slot": "0",
            "type": "t_uint48"
          },
          {
            "astId": 13536,
            "contract": "contracts/airdrop/Airdrop.sol:Airdrop",
            "label": "endAt",
            "offset": 26,
            "slot": "0",
            "type": "t_uint48"
          },
          {
            "astId": 13538,
            "contract": "contracts/airdrop/Airdrop.sol:Airdrop",
            "label": "amount",
            "offset": 0,
            "slot": "1",
            "type": "t_uint256"
          },
          {
            "astId": 13540,
            "contract": "contracts/airdrop/Airdrop.sol:Airdrop",
            "label": "owner",
            "offset": 0,
            "slot": "2",
            "type": "t_address"
          }
        ],
        "numberOfBytes": "96"
      },
      "t_uint256": {
        "encoding": "inplace",
        "label": "uint256",
        "numberOfBytes": "32"
      },
      "t_uint48": {
        "encoding": "inplace",
        "label": "uint48",
        "numberOfBytes": "6"
      }
    }
  }
}