{
  "address": "0x6f95132cEEFBD59BBD7e8ab0051f952397D2D32a",
  "abi": [
    {
      "inputs": [],
      "name": "AlreadyClaimed",
      "type": "error"
    },
    {
      "inputs": [],
      "name": "CampaignAlreadyEnded",
      "type": "error"
    },
    {
      "inputs": [],
      "name": "CampaignNotEnded",
      "type": "error"
    },
    {
      "inputs": [],
      "name": "CampaignNotExist",
      "type": "error"
    },
    {
      "inputs": [],
      "name": "CampaignNotStarted",
      "type": "error"
    },
    {
      "inputs": [
        {
          "internalType": "uint256",
          "name": "actual",
          "type": "uint256"
        },
        {
          "internalType": "uint256",
          "name": "expected",
          "type": "uint256"
        }
      ],
      "name": "InsufficientDeposit",
      "type": "error"
    },
    {
      "inputs": [],
      "name": "InvalidCampaignInput",
      "type": "error"
    },
    {
      "inputs": [],
      "name": "NotAuthorized",
      "type": "error"
    },
    {
      "inputs": [],
      "name": "NotCalledFromClaimer",
      "type": "error"
    },
    {
      "anonymous": false,
      "inputs": [
        {
          "indexed": true,
          "internalType": "uint256",
          "name": "campaignId",
          "type": "uint256"
        },
        {
          "indexed": true,
          "internalType": "address",
          "name": "to",
          "type": "address"
        },
        {
          "indexed": false,
          "internalType": "uint256",
          "name": "amount",
          "type": "uint256"
        }
      ],
      "name": "Claim",
      "type": "event"
    },
    {
      "anonymous": false,
      "inputs": [
        {
          "indexed": true,
          "internalType": "uint256",
          "name": "campaignId",
          "type": "uint256"
        },
        {
          "components": [
            {
              "internalType": "address",
              "name": "token",
              "type": "address"
            },
            {
              "internalType": "uint48",
              "name": "startAt",
              "type": "uint48"
            },
            {
              "internalType": "uint48",
              "name": "endAt",
              "type": "uint48"
            },
            {
              "internalType": "uint256",
              "name": "deposit",
              "type": "uint256"
            },
            {
              "internalType": "address",
              "name": "owner",
              "type": "address"
            }
          ],
          "indexed": false,
          "internalType": "struct Airdrop.Campaign",
          "name": "campaign",
          "type": "tuple"
        }
      ],
      "name": "NewCampaign",
      "type": "event"
    },
    {
      "inputs": [
        {
          "internalType": "uint256",
          "name": "campaign",
          "type": "uint256"
        },
        {
          "internalType": "address",
          "name": "claimer",
          "type": "address"
        },
        {
          "internalType": "address",
          "name": "beneficiary",
          "type": "address"
        },
        {
          "internalType": "uint256",
          "name": "amount",
          "type": "uint256"
        },
        {
          "internalType": "bytes",
          "name": "proof",
          "type": "bytes"
        }
      ],
      "name": "claim",
      "outputs": [],
      "stateMutability": "nonpayable",
      "type": "function"
    },
    {
      "inputs": [
        {
          "components": [
            {
              "internalType": "address",
              "name": "token",
              "type": "address"
            },
            {
              "internalType": "uint48",
              "name": "startAt",
              "type": "uint48"
            },
            {
              "internalType": "uint48",
              "name": "endAt",
              "type": "uint48"
            },
            {
              "internalType": "uint256",
              "name": "deposit",
              "type": "uint256"
            },
            {
              "internalType": "address",
              "name": "owner",
              "type": "address"
            }
          ],
          "internalType": "struct Airdrop.Campaign",
          "name": "c",
          "type": "tuple"
        }
      ],
      "name": "createCampaign",
      "outputs": [],
      "stateMutability": "nonpayable",
      "type": "function"
    },
    {
      "inputs": [
        {
          "internalType": "uint256",
          "name": "campaign",
          "type": "uint256"
        },
        {
          "internalType": "uint256",
          "name": "amount",
          "type": "uint256"
        }
      ],
      "name": "deposit",
      "outputs": [],
      "stateMutability": "nonpayable",
      "type": "function"
    },
    {
      "inputs": [
        {
          "internalType": "uint256",
          "name": "campaign",
          "type": "uint256"
        }
      ],
      "name": "getCampaign",
      "outputs": [
        {
          "components": [
            {
              "internalType": "address",
              "name": "token",
              "type": "address"
            },
            {
              "internalType": "uint48",
              "name": "startAt",
              "type": "uint48"
            },
            {
              "internalType": "uint48",
              "name": "endAt",
              "type": "uint48"
            },
            {
              "internalType": "uint256",
              "name": "deposit",
              "type": "uint256"
            },
            {
              "internalType": "address",
              "name": "owner",
              "type": "address"
            }
          ],
          "internalType": "struct Airdrop.Campaign",
          "name": "",
          "type": "tuple"
        }
      ],
      "stateMutability": "view",
      "type": "function"
    },
    {
      "inputs": [],
      "name": "getNextCampaign",
      "outputs": [
        {
          "internalType": "uint256",
          "name": "",
          "type": "uint256"
        }
      ],
      "stateMutability": "view",
      "type": "function"
    },
    {
      "inputs": [
        {
          "internalType": "uint256",
          "name": "campaign",
          "type": "uint256"
        },
        {
          "internalType": "address",
          "name": "to",
          "type": "address"
        }
      ],
      "name": "hasClaimed",
      "outputs": [
        {
          "internalType": "bool",
          "name": "",
          "type": "bool"
        }
      ],
      "stateMutability": "view",
      "type": "function"
    },
    {
      "inputs": [
        {
          "internalType": "uint256",
          "name": "campaign",
          "type": "uint256"
        }
      ],
      "name": "withdraw",
      "outputs": [],
      "stateMutability": "nonpayable",
      "type": "function"
    }
  ],
  "transactionHash": "0x13c1e46dee0b66b66bb07087b31ee437079a5aedcd7d33812ac05b5c28fe3ee0",
  "args": [],
  "numDeployments": 2,
  "solcInputHash": "7ae3b4d5cd055153fdb411b649cd4f3c",
  "bytecode": "0x6080806040523461001a5760008055610f0690816100218239f35b50600080fdfe6040608081526004361015610015575b50600080fd5b600090813560e01c80632e1a7d4d146101605780635598f8cc1461013957806372d596e614610122578063873f6f9e146100cf5780639a1e8c48146100a8578063b3ef31ea1461008d5763e2bbb1581461006f575061000f565b346100895761008661008036610408565b9061067a565b51f35b5080fd5b50346100895761008661009f3661036d565b93929092610806565b5034610089576100cb916100bb36610335565b5490519081529081906020820190565b0390f35b5034610089576100cb915061011161010a6100f36100ec3661030e565b9190610449565b9060018060a01b0316600052602052604060002090565b5460ff1690565b905190151581529081906020820190565b5034610089576100866101343661028c565b61056c565b5034610089576100cb915061015561015036610177565b6104b7565b905191829182610195565b50346100895761008661017236610177565b610737565b602090600319011261000f5760043590565b6001600160a01b031690565b919091608060a08201938160018060a01b039182815116855265ffffffffffff806020830151166020870152604082015116604086015260608101516060860152015116910152565b50634e487b7160e01b600052604160045260246000fd5b60a081019081106001600160401b0382111761021057604052565b6102186101de565b604052565b601f909101601f19168101906001600160401b0382119082101761021057604052565b608435906001600160a01b03821682141561025757565b5050600080fd5b602435906001600160a01b03821682141561025757565b604435906001600160a01b03821682141561025757565b60a090600319011261000f576040516102a4816101f5565b6004356001600160a01b0381168114156102fd57815265ffffffffffff6024358181168114156103055760208301526044359081168114156102fd57604082015260643560608201526102f5610240565b608082015290565b505050600080fd5b50505050600080fd5b604090600319011261000f57600435906024356001600160a01b0381168114156102fd5790565b600090600319011261000f57565b6020906001600160401b038111610360575b601f01601f19160190565b6103686101de565b610355565b60a0600319820112610257576004359161038561025e565b9161038e610275565b91606435916084356001600160401b0381116103fc57816023820112156103fc578060040135906103be82610343565b926103cc604051948561021d565b828452602483830101116103ef5781600092602460209301838601378301015290565b5050505050505050600080fd5b50505050505050600080fd5b604090600319011261000f576004359060243590565b6040519061042b826101f5565b60006080838281528260208201528260408201528260608201520152565b6000526002602052604060002090565b6000526001602052604060002090565b90604051610476816101f5565b60808193600281549160018060a01b0392838116865265ffffffffffff8160a01c16602087015260d01c604086015260018101546060860152015416910152565b6104bf61041e565b5060005260016020526040600020604051906104da826101f5565b600281549160018060a01b0392838116855265ffffffffffff8160a01c16602086015260d01c604085015260018101546060850152015416608082015290565b80546001600160a01b0319166001600160a01b03909216919091179055565b50634e487b7160e01b600052601160045260246000fd5b6001906000198114610560570190565b610568610539565b0190565b606081018051158015610659575b6106445761063f9161060461063792600260018060a01b036105a181865116845190610cdf565b6105ac600054610459565b926105ba828751168561051a565b60208601518454604088015190841660a09290921b65ffffffffffff60a01b169190911760d09190911b6001600160d01b031916178455516001840155608085015116910161051a565b7fc48c4a939437fbe29ece177ccd8ac10f28a9bb008600a235864c0a70de5f714f60005492839260405191829182610195565b0390a2610550565b600055565b5050604051639ff0aeb160e01b815260049150fd5b5060808201516001600160a01b03161561057a565b81198111610560570190565b908160005260016020526040600020604051610695816101f5565b815460018060a01b0390818116835265ffffffffffff8160a01c16602084015260d01c60408301526106ee6106d96002600186015495606086019687520154610189565b6001600160a01b031660808401819052610189565b1615610721578261071d9261071160019561070c6107179551610189565b610cdf565b5161066e565b92610459565b0155565b50505050506004604051635fed7b5d60e11b8152fd5b61074861074382610459565b610469565b608081018051909190610763906001600160a01b0316610189565b3314156107da5761078b610780604083015165ffffffffffff1690565b65ffffffffffff1690565b4211156107c557600060016107a26107c395610459565b015560606107ba6107b38351610189565b9351610189565b91015191610d7e565b565b50505050600460405163cc76115360e01b8152fd5b50505050600460405163ea8e4eb560e01b8152fd5b8181106107fa570390565b610802610539565b0390565b929390916001600160a01b03913383851614156109df5761082d61010a336100f388610449565b6109c75761083a85610c1d565b906060820194855188811061098f57506040805146602082019081526001600160601b031930606090811b821694840194909452605483018b905293831b841660748301529186901b9092166088830152609c8083018a905282526108e092916108db91906108aa60bc8261021d565b5190207b0ca2ba3432b932bab69029b4b3b732b21026b2b9b9b0b3b29d05199960211b600052601c52603c60002090565b6109f7565b836108f66108f16080850151610189565b610189565b9116141561097757858261096461096993610951847f3ed1528b0fdc7c5207c1bf935e34a667e13656b9ed165260c522be0bc544f3039961094b61093e8d6100f33391610449565b805460ff19166001179055565b516107ef565b600161095c8b610459565b015551610189565b610d7e565b6040519485521692602090a3565b50505050505050600460405163ea8e4eb560e01b8152fd5b6040516312e1fa3760e11b81526004810191909152602481019890985250959650869550506044850193506109c392505050565b0390fd5b505050505050506004604051630c8d9eab60e31b8152fd5b5050505050505060046040516312a5e93b60e21b8152fd5b610a0c91610a0491610b52565b919091610a30565b90565b60051115610a1957565b50634e487b7160e01b600052602160045260246000fd5b610a3981610a0f565b80610a415750565b610a4a81610a0f565b6001811415610a9557505060405162461bcd60e51b815260206004820152601860248201527745434453413a20696e76616c6964207369676e617475726560401b6044820152606490fd5b610a9e81610a0f565b6002811415610aee57505060405162461bcd60e51b815260206004820152601f60248201527f45434453413a20696e76616c6964207369676e6174757265206c656e677468006044820152606490fd5b80610afa600392610a0f565b14610b0157565b5060405162461bcd60e51b815260206004820152602260248201527f45434453413a20696e76616c6964207369676e6174757265202773272076616c604482015261756560f01b6064820152608490fd5b906041815114600014610b8057610b7c916020820151906060604084015193015160001a90610b97565b9091565b5050600090600290565b506040513d6000823e3d90fd5b9291906fa2a8918ca85bafe22016d0b997e4df60600160ff1b038311610c115791608094939160ff602094604051948552168484015260408301526060820152600093849182805260015afa15610c04575b81516001600160a01b03811615610bfe579190565b50600190565b610c0c610b8a565b610be9565b50505050600090600390565b610743610c3291610c2c61041e565b50610459565b60808101516001600160a01b0390610c4990610189565b1615610cb257610c65610780602083015165ffffffffffff1690565b4210610c9e57610c81610780604083015165ffffffffffff1690565b4211610c8a5790565b505060405163287e67e760e01b8152600490fd5b50506040516333f44d6160e01b8152600490fd5b5050604051635fed7b5d60e11b8152600490fd5b9081602091031261025757518015158114156102575790565b6001600160a01b031680610d195750803410610cf85750565b6040516312e1fa3760e11b8152346004820152602481019190915260449150fd5b6040516323b872dd60e01b81523360048201523060248201526044810192909252602090829060649082906000905af18015610d71575b610d575750565b610d6e90610d653d8261021d565b3d810190610cc6565b50565b610d79610b8a565b610d50565b9091906001600160a01b0390811680610e8d5750814710610e45576000928392839260405192165af13d15610e40573d610db781610343565b90610dc5604051928361021d565b8152600060203d92013e5b15610dd757565b5060405162461bcd60e51b815260206004820152603a60248201527f416464726573733a20756e61626c6520746f2073656e642076616c75652c20726044820152791958da5c1a595b9d081b585e481a185d99481c995d995c9d195960321b6064820152608490fd5b610dd0565b50505050606460405162461bcd60e51b815260206004820152601d60248201527f416464726573733a20696e73756666696369656e742062616c616e63650000006044820152fd5b602092936000604492604051968795869463a9059cbb60e01b865216600485015260248401525af18015610d7157610d57575056fea3646970667358221220d1a994826f4bfc055687825d6f3a3597b50f8ca2812bae7f8cea8d26ef5770476c6578706572696d656e74616cf564736f6c634300080c0041",
  "devdoc": {
    "kind": "dev",
    "methods": {},
    "version": 1
  },
  "userdoc": {
    "kind": "user",
    "methods": {},
    "version": 1
  },
  "storageLayout": {
    "storage": [
      {
        "astId": 13652,
        "contract": "contracts/airdrop/Airdrop.sol:Airdrop",
        "label": "nextCampaign",
        "offset": 0,
        "slot": "0",
        "type": "t_uint256"
      },
      {
        "astId": 13657,
        "contract": "contracts/airdrop/Airdrop.sol:Airdrop",
        "label": "campaigns",
        "offset": 0,
        "slot": "1",
        "type": "t_mapping(t_uint256,t_struct(Campaign)13634_storage)"
      },
      {
        "astId": 13663,
        "contract": "contracts/airdrop/Airdrop.sol:Airdrop",
        "label": "claimed",
        "offset": 0,
        "slot": "2",
        "type": "t_mapping(t_uint256,t_mapping(t_address,t_bool))"
      }
    ],
    "types": {
      "t_address": {
        "encoding": "inplace",
        "label": "address",
        "numberOfBytes": "20"
      },
      "t_bool": {
        "encoding": "inplace",
        "label": "bool",
        "numberOfBytes": "1"
      },
      "t_mapping(t_address,t_bool)": {
        "encoding": "mapping",
        "key": "t_address",
        "label": "mapping(address => bool)",
        "numberOfBytes": "32",
        "value": "t_bool"
      },
      "t_mapping(t_uint256,t_mapping(t_address,t_bool))": {
        "encoding": "mapping",
        "key": "t_uint256",
        "label": "mapping(uint256 => mapping(address => bool))",
        "numberOfBytes": "32",
        "value": "t_mapping(t_address,t_bool)"
      },
      "t_mapping(t_uint256,t_struct(Campaign)13634_storage)": {
        "encoding": "mapping",
        "key": "t_uint256",
        "label": "mapping(uint256 => struct Airdrop.Campaign)",
        "numberOfBytes": "32",
        "value": "t_struct(Campaign)13634_storage"
      },
      "t_struct(Campaign)13634_storage": {
        "encoding": "inplace",
        "label": "struct Airdrop.Campaign",
        "members": [
          {
            "astId": 13625,
            "contract": "contracts/airdrop/Airdrop.sol:Airdrop",
            "label": "token",
            "offset": 0,
            "slot": "0",
            "type": "t_address"
          },
          {
            "astId": 13627,
            "contract": "contracts/airdrop/Airdrop.sol:Airdrop",
            "label": "startAt",
            "offset": 20,
            "slot": "0",
            "type": "t_uint48"
          },
          {
            "astId": 13629,
            "contract": "contracts/airdrop/Airdrop.sol:Airdrop",
            "label": "endAt",
            "offset": 26,
            "slot": "0",
            "type": "t_uint48"
          },
          {
            "astId": 13631,
            "contract": "contracts/airdrop/Airdrop.sol:Airdrop",
            "label": "deposit",
            "offset": 0,
            "slot": "1",
            "type": "t_uint256"
          },
          {
            "astId": 13633,
            "contract": "contracts/airdrop/Airdrop.sol:Airdrop",
            "label": "owner",
            "offset": 0,
            "slot": "2",
            "type": "t_address"
          }
        ],
        "numberOfBytes": "96"
      },
      "t_uint256": {
        "encoding": "inplace",
        "label": "uint256",
        "numberOfBytes": "32"
      },
      "t_uint48": {
        "encoding": "inplace",
        "label": "uint48",
        "numberOfBytes": "6"
      }
    }
  }
}