{
  "address": "0x38C619Cd21F6d4D70d68a0909F347dA18fB1E536",
  "abi": [
    {
      "inputs": [
        {
          "internalType": "address",
          "name": "entryPoint",
          "type": "address"
        },
        {
          "internalType": "address",
          "name": "hexlink",
          "type": "address"
        }
      ],
      "stateMutability": "nonpayable",
      "type": "constructor"
    },
    {
      "inputs": [],
      "name": "EmptySecondFactorList",
      "type": "error"
    },
    {
      "inputs": [],
      "name": "InvalidAccountImplementation",
      "type": "error"
    },
    {
      "inputs": [
        {
          "internalType": "uint8",
          "name": "",
          "type": "uint8"
        }
      ],
      "name": "InvalidSignType",
      "type": "error"
    },
    {
      "inputs": [],
      "name": "OnlySelfCallAllowed",
      "type": "error"
    },
    {
      "anonymous": false,
      "inputs": [
        {
          "indexed": false,
          "internalType": "address",
          "name": "previousAdmin",
          "type": "address"
        },
        {
          "indexed": false,
          "internalType": "address",
          "name": "newAdmin",
          "type": "address"
        }
      ],
      "name": "AdminChanged",
      "type": "event"
    },
    {
      "anonymous": false,
      "inputs": [
        {
          "indexed": true,
          "internalType": "address",
          "name": "beacon",
          "type": "address"
        }
      ],
      "name": "BeaconUpgraded",
      "type": "event"
    },
    {
      "anonymous": false,
      "inputs": [],
      "name": "DisableSecondFactor",
      "type": "event"
    },
    {
      "anonymous": false,
      "inputs": [],
      "name": "EnableSecondFactor",
      "type": "event"
    },
    {
      "anonymous": false,
      "inputs": [
        {
          "indexed": true,
          "internalType": "address",
          "name": "",
          "type": "address"
        }
      ],
      "name": "FactorAdded",
      "type": "event"
    },
    {
      "anonymous": false,
      "inputs": [
        {
          "indexed": true,
          "internalType": "address",
          "name": "",
          "type": "address"
        }
      ],
      "name": "FactorRemoved",
      "type": "event"
    },
    {
      "anonymous": false,
      "inputs": [
        {
          "indexed": false,
          "internalType": "uint8",
          "name": "version",
          "type": "uint8"
        }
      ],
      "name": "Initialized",
      "type": "event"
    },
    {
      "anonymous": false,
      "inputs": [
        {
          "indexed": true,
          "internalType": "contract IEntryPoint",
          "name": "entryPoint",
          "type": "address"
        },
        {
          "indexed": true,
          "internalType": "address",
          "name": "owner",
          "type": "address"
        }
      ],
      "name": "SimpleAccountInitialized",
      "type": "event"
    },
    {
      "anonymous": false,
      "inputs": [
        {
          "indexed": true,
          "internalType": "address",
          "name": "implementation",
          "type": "address"
        }
      ],
      "name": "Upgraded",
      "type": "event"
    },
    {
      "inputs": [],
      "name": "addDeposit",
      "outputs": [],
      "stateMutability": "payable",
      "type": "function"
    },
    {
      "inputs": [
        {
          "internalType": "address",
          "name": "factor",
          "type": "address"
        }
      ],
      "name": "addSecondFactor",
      "outputs": [],
      "stateMutability": "nonpayable",
      "type": "function"
    },
    {
      "inputs": [],
      "name": "disableSecondFactor",
      "outputs": [],
      "stateMutability": "nonpayable",
      "type": "function"
    },
    {
      "inputs": [],
      "name": "enableSecondFactor",
      "outputs": [],
      "stateMutability": "nonpayable",
      "type": "function"
    },
    {
      "inputs": [],
      "name": "entryPoint",
      "outputs": [
        {
          "internalType": "contract IEntryPoint",
          "name": "",
          "type": "address"
        }
      ],
      "stateMutability": "view",
      "type": "function"
    },
    {
      "inputs": [
        {
          "internalType": "address",
          "name": "dest",
          "type": "address"
        },
        {
          "internalType": "uint256",
          "name": "value",
          "type": "uint256"
        },
        {
          "internalType": "bytes",
          "name": "func",
          "type": "bytes"
        }
      ],
      "name": "execute",
      "outputs": [],
      "stateMutability": "nonpayable",
      "type": "function"
    },
    {
      "inputs": [
        {
          "internalType": "address[]",
          "name": "dest",
          "type": "address[]"
        },
        {
          "internalType": "bytes[]",
          "name": "func",
          "type": "bytes[]"
        }
      ],
      "name": "executeBatch",
      "outputs": [],
      "stateMutability": "nonpayable",
      "type": "function"
    },
    {
      "inputs": [],
      "name": "getAllSecondFactors",
      "outputs": [
        {
          "internalType": "address[]",
          "name": "",
          "type": "address[]"
        }
      ],
      "stateMutability": "view",
      "type": "function"
    },
    {
      "inputs": [],
      "name": "getDeposit",
      "outputs": [
        {
          "internalType": "uint256",
          "name": "",
          "type": "uint256"
        }
      ],
      "stateMutability": "view",
      "type": "function"
    },
    {
      "inputs": [],
      "name": "getNonce",
      "outputs": [
        {
          "internalType": "uint256",
          "name": "",
          "type": "uint256"
        }
      ],
      "stateMutability": "view",
      "type": "function"
    },
    {
      "inputs": [],
      "name": "implementation",
      "outputs": [
        {
          "internalType": "address",
          "name": "",
          "type": "address"
        }
      ],
      "stateMutability": "view",
      "type": "function"
    },
    {
      "inputs": [
        {
          "internalType": "address",
          "name": "anOwner",
          "type": "address"
        }
      ],
      "name": "initialize",
      "outputs": [],
      "stateMutability": "nonpayable",
      "type": "function"
    },
    {
      "inputs": [],
      "name": "isSecondFactorEnabled",
      "outputs": [
        {
          "internalType": "bool",
          "name": "",
          "type": "bool"
        }
      ],
      "stateMutability": "view",
      "type": "function"
    },
    {
      "inputs": [
        {
          "internalType": "address",
          "name": "factor",
          "type": "address"
        }
      ],
      "name": "isValidSecondFactor",
      "outputs": [
        {
          "internalType": "bool",
          "name": "",
          "type": "bool"
        }
      ],
      "stateMutability": "view",
      "type": "function"
    },
    {
      "inputs": [
        {
          "internalType": "address",
          "name": "",
          "type": "address"
        },
        {
          "internalType": "address",
          "name": "",
          "type": "address"
        },
        {
          "internalType": "uint256[]",
          "name": "",
          "type": "uint256[]"
        },
        {
          "internalType": "uint256[]",
          "name": "",
          "type": "uint256[]"
        },
        {
          "internalType": "bytes",
          "name": "",
          "type": "bytes"
        }
      ],
      "name": "onERC1155BatchReceived",
      "outputs": [
        {
          "internalType": "bytes4",
          "name": "",
          "type": "bytes4"
        }
      ],
      "stateMutability": "pure",
      "type": "function"
    },
    {
      "inputs": [
        {
          "internalType": "address",
          "name": "",
          "type": "address"
        },
        {
          "internalType": "address",
          "name": "",
          "type": "address"
        },
        {
          "internalType": "uint256",
          "name": "",
          "type": "uint256"
        },
        {
          "internalType": "uint256",
          "name": "",
          "type": "uint256"
        },
        {
          "internalType": "bytes",
          "name": "",
          "type": "bytes"
        }
      ],
      "name": "onERC1155Received",
      "outputs": [
        {
          "internalType": "bytes4",
          "name": "",
          "type": "bytes4"
        }
      ],
      "stateMutability": "pure",
      "type": "function"
    },
    {
      "inputs": [
        {
          "internalType": "address",
          "name": "",
          "type": "address"
        },
        {
          "internalType": "address",
          "name": "",
          "type": "address"
        },
        {
          "internalType": "uint256",
          "name": "",
          "type": "uint256"
        },
        {
          "internalType": "bytes",
          "name": "",
          "type": "bytes"
        }
      ],
      "name": "onERC721Received",
      "outputs": [
        {
          "internalType": "bytes4",
          "name": "",
          "type": "bytes4"
        }
      ],
      "stateMutability": "pure",
      "type": "function"
    },
    {
      "inputs": [],
      "name": "owner",
      "outputs": [
        {
          "internalType": "address",
          "name": "",
          "type": "address"
        }
      ],
      "stateMutability": "view",
      "type": "function"
    },
    {
      "inputs": [],
      "name": "proxiableUUID",
      "outputs": [
        {
          "internalType": "bytes32",
          "name": "",
          "type": "bytes32"
        }
      ],
      "stateMutability": "view",
      "type": "function"
    },
    {
      "inputs": [
        {
          "internalType": "address",
          "name": "factor",
          "type": "address"
        }
      ],
      "name": "removeSecondFactor",
      "outputs": [],
      "stateMutability": "nonpayable",
      "type": "function"
    },
    {
      "inputs": [
        {
          "internalType": "bytes4",
          "name": "interfaceId",
          "type": "bytes4"
        }
      ],
      "name": "supportsInterface",
      "outputs": [
        {
          "internalType": "bool",
          "name": "",
          "type": "bool"
        }
      ],
      "stateMutability": "view",
      "type": "function"
    },
    {
      "inputs": [
        {
          "internalType": "address",
          "name": "",
          "type": "address"
        },
        {
          "internalType": "address",
          "name": "",
          "type": "address"
        },
        {
          "internalType": "address",
          "name": "",
          "type": "address"
        },
        {
          "internalType": "uint256",
          "name": "",
          "type": "uint256"
        },
        {
          "internalType": "bytes",
          "name": "",
          "type": "bytes"
        },
        {
          "internalType": "bytes",
          "name": "",
          "type": "bytes"
        }
      ],
      "name": "tokensReceived",
      "outputs": [],
      "stateMutability": "pure",
      "type": "function"
    },
    {
      "inputs": [
        {
          "internalType": "address",
          "name": "newImplementation",
          "type": "address"
        }
      ],
      "name": "upgradeTo",
      "outputs": [],
      "stateMutability": "nonpayable",
      "type": "function"
    },
    {
      "inputs": [
        {
          "internalType": "address",
          "name": "newImplementation",
          "type": "address"
        },
        {
          "internalType": "bytes",
          "name": "data",
          "type": "bytes"
        }
      ],
      "name": "upgradeToAndCall",
      "outputs": [],
      "stateMutability": "payable",
      "type": "function"
    },
    {
      "inputs": [
        {
          "components": [
            {
              "internalType": "address",
              "name": "sender",
              "type": "address"
            },
            {
              "internalType": "uint256",
              "name": "nonce",
              "type": "uint256"
            },
            {
              "internalType": "bytes",
              "name": "initCode",
              "type": "bytes"
            },
            {
              "internalType": "bytes",
              "name": "callData",
              "type": "bytes"
            },
            {
              "internalType": "uint256",
              "name": "callGasLimit",
              "type": "uint256"
            },
            {
              "internalType": "uint256",
              "name": "verificationGasLimit",
              "type": "uint256"
            },
            {
              "internalType": "uint256",
              "name": "preVerificationGas",
              "type": "uint256"
            },
            {
              "internalType": "uint256",
              "name": "maxFeePerGas",
              "type": "uint256"
            },
            {
              "internalType": "uint256",
              "name": "maxPriorityFeePerGas",
              "type": "uint256"
            },
            {
              "internalType": "bytes",
              "name": "paymasterAndData",
              "type": "bytes"
            },
            {
              "internalType": "bytes",
              "name": "signature",
              "type": "bytes"
            }
          ],
          "internalType": "struct UserOperation",
          "name": "userOp",
          "type": "tuple"
        },
        {
          "internalType": "bytes32",
          "name": "userOpHash",
          "type": "bytes32"
        },
        {
          "internalType": "uint256",
          "name": "missingAccountFunds",
          "type": "uint256"
        }
      ],
      "name": "validateUserOp",
      "outputs": [
        {
          "internalType": "uint256",
          "name": "validationData",
          "type": "uint256"
        }
      ],
      "stateMutability": "nonpayable",
      "type": "function"
    },
    {
      "inputs": [
        {
          "internalType": "address payable",
          "name": "withdrawAddress",
          "type": "address"
        },
        {
          "internalType": "uint256",
          "name": "amount",
          "type": "uint256"
        }
      ],
      "name": "withdrawDepositTo",
      "outputs": [],
      "stateMutability": "nonpayable",
      "type": "function"
    },
    {
      "stateMutability": "payable",
      "type": "receive"
    }
  ],
  "transactionHash": "0x125d3ad90ff1e6b5b606f41e504c3aaecb004ee94646f62d52a886e8d9c0fd4c",
  "args": [
    "0x5FF137D4b0FDCD49DcA30c7CF57E578a026d2789",
    "0x50B91eA5647079F7c3234EBEF5E4D14217105e6c"
  ],
  "numDeployments": 1,
  "solcInputHash": "c28492813ec097ea485a51a0d55d6daa",
  "bytecode": "0x60e08060405234620000d157601f6200235a38819003918201601f19168301916001600160401b03831184841017620000d7578084926040948552833981010312620000d157806200006360206200005b6200006a94620000f1565b9201620000f1565b906200010e565b60405161217e9081620001dc82396080518181816112b001528181611401015261173b015260a0518181816102f101528181610a1101528181610a7801528181610fd201528181611024015281816110de0152818161111c01526111b0015260c051815050f35b50600080fd5b50505050634e487b7160e01b600052604160045260246000fd5b51906001600160a01b0382168214156200010757565b5050600080fd5b306080526001600160a01b031660a052600054600881901c60ff16620001835760ff80911614156200013f5760c052565b6200015160ff80196000541617600055565b60405160ff81527f7f26b83ff96e1f2b6a682f133852f6798a09c465da95921460cefb384740249890602090a160c052565b505060405162461bcd60e51b815260206004820152602760248201527f496e697469616c697a61626c653a20636f6e747261637420697320696e697469604482015266616c697a696e6760c81b606482015260849150fdfe604060808152600436101561001d575b50361561001b57600080fd5b005b6000803560e01c806223de29146104c357806301ffc9a714610491578063150b7a021461046a57806318dfb3c71461044e5780633659cfe6146104365780633a871cdd146104185780633b2413d6146103f05780634a58db19146103dd5780634d44560d146103c45780634f1ef286146103b057806352d1902d146103935780635c60da1b1461035a5780638da5cb5b1461032e578063b081adeb14610316578063b0d691fe146102da578063b61d27f6146102be578063bc197c811461028e578063c399ec8814610271578063c4d66de814610259578063ce6aa06114610241578063d087d28814610215578063d651654d146101db578063e76b05f9146101c3578063e870c6be146101a8578063ecdebc76146101765763f23a6e6114610146575061000f565b3461017157506101553661097b565b5050935163f23a6e6160e01b81526020945092505050f35b0390f35b809150fd5b5090346101a45761016d915061019361018e366106c5565b612027565b905190151581529081906020820190565b5080fd5b5090346101a4576101b83661071a565b6101c0611c69565b51f35b5090346101a4576101c06101d6366106c5565b611cb1565b5090346101a45761016d91506101f03661071a565b60008051602061209b83398151915254905160ff909116151581529081906020820190565b5090346101a45761016d915061022a3661071a565b6102326109ef565b90519081529081906020820190565b5090346101a4576102513661071a565b6101c0611be3565b5090346101a4576101c061026c366106c5565b610e6e565b5090346101a45761016d91506102863661071a565b6102326110c3565b5034610171575061029e36610900565b5050505050505050518061016d8190602082019163bc197c8160e01b9052565b5090346101a4576101c06102d1366108c5565b92919091610cdf565b503461017157506102ea3661071a565b518061016d7f0000000000000000000000000000000000000000000000000000000000000000826108b2565b5090346101a4576101c0610329366106c5565b611deb565b5090346101a45761016d916103423661071a565b54905191829160101c6001600160a01b0316826108b2565b5090346101a45761016d915061036f3661071a565b6000805160206120fb8339815191525490519182916001600160a01b0316826108b2565b5090346101a45761016d91506103a83661071a565b6102326112ad565b50906101c06103be36610869565b90611731565b5090346101a4576101c06103d73661076c565b9061119e565b50906103e83661071a565b6101c061111a565b5090346101a45761016d91506104053661071a565b61040d611fca565b905191829182610728565b5090346101a45761016d9150610232610430366106e0565b91610a73565b5090346101a4576101c0610449366106c5565b6113f7565b5090346101a4576101c061046136610675565b92919091610dc2565b5034610171575061047a366105f1565b50509251630a85bd0160e11b815260209350915050f35b509050346104c05750607f196104bb6104b16104ac366105cd565b611269565b151560805260a090565b016080f35b80fd5b509050346104c0576104d436610536565b50505050505050506080f35b6001600160a01b03811614156104f257565b50600080fd5b9181601f84011215610525578235916001600160401b03831161052d576020838186019501011161052557565b505050600080fd5b50505050600080fd5b60c06003198201126105c65760043561054e816104e0565b9160243561055b816104e0565b91604435610568816104e0565b91606435916001600160401b03916084358381116105b9578261058d916004016104f8565b9390939260a4359182116105ab576105a7916004016104f8565b9091565b505050505050505050600080fd5b5050505050505050600080fd5b5050600080fd5b60209060031901126104f2576004356001600160e01b031981168114156105c65790565b9060806003198301126105c65760043561060a816104e0565b91602435610617816104e0565b9160443591606435906001600160401b03821161063a576105a7916004016104f8565b505050505050600080fd5b9181601f84011215610525578235916001600160401b03831161052d576020808501948460051b01011161052557565b60406003198201126105c6576001600160401b039160043583811161052d57826106a191600401610645565b939093926024359182116106bb576105a791600401610645565b5050505050600080fd5b60209060031901126104f2576004356106dd816104e0565b90565b6003199060608183011261052557600435916001600160401b03831161052d5782610160920301126105c657600401906024359060443590565b60009060031901126104f257565b6020908160408183019282815285518094520193019160005b82811061074f575050505090565b83516001600160a01b031685529381019392810192600101610741565b60409060031901126104f257600435610784816104e0565b9060243590565b50634e487b7160e01b600052604160045260246000fd5b602081019081106001600160401b038211176107bd57604052565b6107c561078b565b604052565b606081019081106001600160401b038211176107bd57604052565b601f909101601f19168101906001600160401b038211908210176107bd57604052565b6020906001600160401b038111610825575b601f01601f19160190565b61082d61078b565b61081a565b92919261083e82610808565b9161084c60405193846107e5565b8294818452818301116106bb578281602093846000960137010152565b9060406003198301126105c657600435610882816104e0565b91602435906001600160401b03821161052d578060238301121561052d578160246106dd93600401359101610832565b6001600160a01b03909116815260200190565b60606003198201126105c6576004356108dd816104e0565b9160243591604435906001600160401b0382116106bb576105a7916004016104f8565b9060a06003198301126105c657600435610919816104e0565b91602435610926816104e0565b916001600160401b0360443581811161063a578361094691600401610645565b939093926064358381116105b9578261096191600401610645565b939093926084359182116105ab576105a7916004016104f8565b60a06003198201126105c657600435610993816104e0565b916024356109a0816104e0565b916044359160643591608435906001600160401b0382116109c7576105a7916004016104f8565b50505050505050600080fd5b908160209103126105c6575190565b506040513d6000823e3d90fd5b604051631aab3f0d60e11b8152306004820152600060248201526020816044817f00000000000000000000000000000000000000000000000000000000000000006001600160a01b03165afa908115610a66575b600091610a4e575090565b6106dd9150610a5d3d826107e5565b3d8101906109d3565b610a6e6109e2565b610a43565b9290337f00000000000000000000000000000000000000000000000000000000000000006001600160a01b03161415610c4757610140840193610ad9610ad3610ac5610abf8885610d6a565b90611916565b356001600160f81b03191690565b60f81c90565b9460ff8616610c2057610bc2939495610b55610b63610b13610b0d610b07610b018789610d6a565b90611927565b9061195a565b60a01c90565b60405160f89490941b6001600160f81b0319166020850190815260a082901b6001600160a01b0319166021860152602d8501979097529592918290604d820190565b03601f1981018352826107e5565b51902090610b8d610b87610b80610b7a8487610d6a565b90611938565b3691610832565b83611986565b928380610c07575b610bcd575b505050600014610bc45760ff60005b60a09290921b6001600160a01b03191691161792610cbe565b565b60ff6001610ba9565b83610bde575b505050388080610b9a565b610bff9350610bf3610bf992610b8092610d6a565b90611949565b90612039565b388080610bd3565b5060ff60008051602061209b8339815191525416610b95565b505060405163cde6e16360e01b815260ff94909416600485015250602492915050fd5b0390fd5b50505050606460405162461bcd60e51b815260206004820152601c60248201527b1858d8dbdd5b9d0e881b9bdd08199c9bdb48115b9d1c9e541bda5b9d60221b6044820152fd5b3d15610cb9573d90610c9f82610808565b91610cad60405193846107e5565b82523d6000602084013e565b606090565b80610cc65750565b600080809260405190338319f150610cdc610c8e565b50565b610cf0600094938594610b8061101a565b91602083519301915af1610d02610c8e565b9015610d0b5750565b80519150602001fd5b50634e487b7160e01b600052601160045260246000fd5b50634e487b7160e01b600052603260045260246000fd5b9190811015610d53575b60051b0190565b610d5b610d2b565b610d4c565b356106dd816104e0565b903590601e198136030182121561052557018035906001600160401b0382116105255760200191813603831361052557565b90916105a792811015610db5575b60051b810190610d6a565b610dbd610d2b565b610daa565b9290610dcc61101a565b81811415610e2f5760005b818110610de5575050505050565b80610e12610dfe610df9600194868a610d42565b610d60565b610e0c610b8084888a610d9c565b906110ac565b6000198114610e22575b01610dd7565b610e2a610d14565b610e1c565b5050505050606460405162461bcd60e51b815260206004820152601360248201527277726f6e67206172726179206c656e6774687360681b6044820152fd5b6000549060ff8260081c161580928193610f8d575b8115610f6d575b5015610f0e57610eb09082610ea7600160ff196000541617600055565b610ef557610f9b565b610eb657565b610ec661ff001960005416600055565b604051600181527f7f26b83ff96e1f2b6a682f133852f6798a09c465da95921460cefb384740249890602090a1565b610f0961010061ff00196000541617600055565b610f9b565b505060405162461bcd60e51b815260206004820152602e60248201527f496e697469616c697a61626c653a20636f6e747261637420697320616c72656160448201526d191e481a5b9a5d1a585b1a5e995960921b606482015260849150fd5b303b15915081610f7f575b5038610e8a565b6001915060ff161438610f78565b600160ff8216109150610e83565b6000805462010000600160b01b031916601092831b62010000600160b01b031617808255604051921c6001600160a01b03908116927f0000000000000000000000000000000000000000000000000000000000000000909116917f47e55c76e7a6f1fd8996a1da8008c1ea29699cca35e7bcd057f2dec313b6e5de91a3565b60018060a01b03807f000000000000000000000000000000000000000000000000000000000000000016331490811561109b575b501561105657565b50606460405162461bcd60e51b815260206004820152602060248201527f6163636f756e743a206e6f74204f776e6572206f7220456e747279506f696e746044820152fd5b905060005460101c1633143861104e565b600091829182602083519301915af1610d02610c8e565b6040516370a0823160e01b81523060048201526020816024817f00000000000000000000000000000000000000000000000000000000000000006001600160a01b03165afa908115610a6657600091610a4e575090565b7f00000000000000000000000000000000000000000000000000000000000000006001600160a01b0316803b156105c65760006024916040519283809263b760faf960e01b825230600483015234905af18015611191575b6111795750565b6000906111863d826107e5565b3d810103126104f257565b6111996109e2565b611172565b6111a661120b565b6001600160a01b037f00000000000000000000000000000000000000000000000000000000000000008116803b156106bb5760009283604492604051968795869463040b850f60e31b865216600485015260248401525af18015611191576111795750565b6000543360109190911c6001600160a01b0316148015611260575b1561122d57565b5060405162461bcd60e51b815260206004820152600a60248201526937b7363c9037bbb732b960b11b6044820152606490fd5b50303314611226565b63ffffffff60e01b16630a85bd0160e11b811490811561129c575b811561128e575090565b6301ffc9a760e01b14919050565b630271189760e51b81149150611284565b307f00000000000000000000000000000000000000000000000000000000000000006001600160a01b031614156112f0576000805160206120fb83398151915290565b5060405162461bcd60e51b815260206004820152603860248201527f555550535570677261646561626c653a206d757374206e6f742062652063616c6044820152771b1959081d1a1c9bdd59da0819195b1959d85d1958d85b1b60421b6064820152608490fd5b1561135e57565b5060405162461bcd60e51b815260206004820152602c60248201526000805160206120db83398151915260448201526b19195b1959d85d1958d85b1b60a21b6064820152608490fd5b156113ae57565b5060405162461bcd60e51b815260206004820152602c60248201526000805160206120db83398151915260448201526b6163746976652070726f787960a01b6064820152608490fd5b6001600160a01b037f00000000000000000000000000000000000000000000000000000000000000008116919061143030841415611357565b61144d6000805160206120fb8339815191529382855416146113a7565b61145561120b565b60405190611462826107a2565b60008252600036602084013760008051602061205b8339815191525460ff1615611492575050610bc291506115b3565b6020600491604094939451928380926352d1902d60e01b825286165afa600091816114ee575b506114db57505050505060405162461bcd60e51b815280610c4360048201611564565b610bc2936114e99114611505565b611645565b6114fe919250610a5d3d826107e5565b90386114b8565b1561150c57565b5060405162461bcd60e51b815260206004820152602960248201527f45524331393637557067726164653a20756e737570706f727465642070726f786044820152681a58589b195555525160ba1b6064820152608490fd5b60809060208152602e60208201527f45524331393637557067726164653a206e657720696d706c656d656e7461746960408201526d6f6e206973206e6f74205555505360901b60608201520190565b803b156115e8576000805160206120fb83398151915280546001600160a01b0319166001600160a01b03909216919091179055565b505060405162461bcd60e51b815260206004820152602d60248201527f455243313936373a206e657720696d706c656d656e746174696f6e206973206e60448201526c1bdd08184818dbdb9d1c9858dd609a1b6064820152608490fd5b61164e816115b3565b604051906001600160a01b03811660008051602061211b833981519152600084a28251158015906116e4575b61168357505050565b600080610cdc94611693856107ca565b602785527f416464726573733a206c6f772d6c6576656c2064656c65676174652063616c6c6020860152660819985a5b195960ca1b6040860152602081519101845af46116de610c8e565b91611873565b50600061167a565b6116f5816115b3565b604051906001600160a01b03811660008051602061211b833981519152600084a28251158015906117295761168357505050565b50600161167a565b6001600160a01b037f00000000000000000000000000000000000000000000000000000000000000008116929061176a30851415611357565b6117876000805160206120fb8339815191529482865416146113a7565b61178f61120b565b60008051602061205b8339815191525460ff16156117b3575050610bc291506115b3565b6020600491604094939451928380926352d1902d60e01b825286165afa6000918161180f575b506117fc57505050505060405162461bcd60e51b815280610c4360048201611564565b610bc29361180a9114611505565b6116ec565b61181f919250610a5d3d826107e5565b90386117d9565b1561182d57565b5060405162461bcd60e51b815260206004820152601d60248201527f416464726573733a2063616c6c20746f206e6f6e2d636f6e74726163740000006044820152606490fd5b919290156118935750815115611887575090565b6106dd903b1515611826565b8251929350911590506118a95750805190602001fd5b90506040519062461bcd60e51b82528160208060048301528251928360248401526000915b8483106118fd5750509180604493116118f0575b601f01601f19168101030190fd5b60008382840101526118e2565b81830181015186840160440152859350918201916118ce565b901561191f5790565b6106dd610d2b565b90600d116105c65760010190600c90565b90604e116105c657600d0190604190565b90608f116105c657604e0190604190565b6001600160a01b031990358181169392600c811061197757505050565b600c0360031b82901b16169150565b906119b36119ab60018060a01b03926119a68460005460101c1695611bb5565b611afb565b9190916119d9565b161490565b600511156119c257565b50634e487b7160e01b600052602160045260246000fd5b6119e2816119b8565b806119ea5750565b6119f3816119b8565b6001811415611a3e57505060405162461bcd60e51b815260206004820152601860248201527745434453413a20696e76616c6964207369676e617475726560401b6044820152606490fd5b611a47816119b8565b6002811415611a9757505060405162461bcd60e51b815260206004820152601f60248201527f45434453413a20696e76616c6964207369676e6174757265206c656e677468006044820152606490fd5b80611aa36003926119b8565b14611aaa57565b5060405162461bcd60e51b815260206004820152602260248201527f45434453413a20696e76616c6964207369676e6174757265202773272076616c604482015261756560f01b6064820152608490fd5b906041815114600014611b25576105a7916020820151906060604084015193015160001a90611b2f565b5050600090600290565b9291906fa2a8918ca85bafe22016d0b997e4df60600160ff1b038311611ba95791608094939160ff602094604051948552168484015260408301526060820152600093849182805260015afa15611b9c575b81516001600160a01b03811615611b96579190565b50600190565b611ba46109e2565b611b81565b50505050600090600390565b7b0ca2ba3432b932bab69029b4b3b732b21026b2b9b9b0b3b29d05199960211b600052601c52603c60002090565b30331415611c565760008051602061207b8339815191525415611c435760008051602061209b833981519152600160ff198254161790557f910ae188209304583097e2b49f62785c4fab7b69cc38498682628e9be50259bb6000604051a1565b5060405163167f0fb360e01b8152600490fd5b506040516373d903e760e01b8152600490fd5b30331415611c565760008051602061209b83398151915260ff1981541690557f84f89424e4e7af12d85de94167831e6cfe3527b70d69c56062a9b3736cb5e3236000604051a1565b30331415611cf5576001600160a01b0316611ccb81611d3e565b507f5c02d1ed5630e01697ed82c3fc91cb2e5b6a2467d469fa670dfaeb5604aabe096000604051a2565b50506040516373d903e760e01b8152600490fd5b60008051602061207b8339815191528054821015611d31575b60005260206000200190600090565b611d39610d2b565b611d22565b60008181526000805160206120bb83398151915280602052604082205415600014611dc5579060409160008051602061207b8339815191528481546001861b811015611db8575b60018101808455811015611dab575b828552602085200155549382526020522055600190565b611db3610d2b565b611d94565b611dc061078b565b611d85565b50905090565b6000526000805160206120bb833981519152602052604060002054151590565b30331415611cf5576001600160a01b0316611e0581611ed3565b5060008051602061207b833981519152541580611e5e575b611e4a577f9298a93e948c11fd467f2b3c0ded144ada171305c2578e1a7a50d93a8399f5e36000604051a2565b505060405163167f0fb360e01b8152600490fd5b5060ff60008051602061209b8339815191525416611e1d565b60008051602061207b8339815191528054908115611eba57600080198084019380851015611ead575b8383526020832001015555565b611eb5610d2b565b611ea0565b505050634e487b7160e01b600052603160045260246000fd5b60008181526000805160206120bb83398151915260205260409020548015611fc357600091816001611f579310611fb6575b83198082019060008051602061207b8339815191525460018110611fa9575b019080821415611f5d575b505050611f3a611e77565b6000526000805160206120bb833981519152602052604060002090565b55600190565b611f3a611f8591611f7d611f73611fa095611d09565b90549060031b1c90565b928391611d09565b90919082549060031b600019811b9283911b16911916179055565b55388080611f2f565b611fb1610d14565b611f24565b611fbe610d14565b611f05565b5050600090565b6040519060008051602061207b833981519152828154918282526020928383019160005283600020936000905b82821061200d57505050610bc2925003836107e5565b855484526001958601958895509381019390910190611ff7565b6106dd906001600160a01b0316611dcb565b6119ab6106dd926119a661204c93611bb5565b6001600160a01b0316611dcb56fe4910fdfa16fed3260ed0e7147f7cc6da11a60208b5b9406d12a635614ffd91438b559ae1c42aa1480cea66c1bbafe3ae41b76c5b3f8532e417f0f76699fffdda8b559ae1c42aa1480cea66c1bbafe3ae41b76c5b3f8532e417f0f76699fffdd98b559ae1c42aa1480cea66c1bbafe3ae41b76c5b3f8532e417f0f76699fffddb46756e6374696f6e206d7573742062652063616c6c6564207468726f75676820360894a13ba1a3210667c828492db98dca3e2076cc3735a920a3ca505d382bbcbc7cd75a20ee27fd9adebab32041f755214dbc6bffa90cc0225b39da2e5c2d3ba364697066735822122058dbfc9e6ade6685e78ef3efa65b08bed59899f1eddbdeca27f2b68b1164228a6c6578706572696d656e74616cf564736f6c634300080c0041",
  "devdoc": {
    "kind": "dev",
    "methods": {
      "initialize(address)": {
        "details": "The _entryPoint member is immutable, to reduce gas consumption.  To upgrade EntryPoint, a new implementation of SimpleAccount must be deployed with the new EntryPoint address, then upgrading the implementation by calling `upgradeTo()`"
      },
      "proxiableUUID()": {
        "details": "Implementation of the ERC1822 {proxiableUUID} function. This returns the storage slot used by the implementation. It is used to validate the implementation's compatibility when performing an upgrade. IMPORTANT: A proxy pointing at a proxiable contract should not be considered proxiable itself, because this risks bricking a proxy that upgrades to it, by delegating to itself until out of gas. Thus it is critical that this function revert if invoked through a proxy. This is guaranteed by the `notDelegated` modifier."
      },
      "supportsInterface(bytes4)": {
        "details": "Returns true if this contract implements the interface defined by `interfaceId`. See the corresponding https://eips.ethereum.org/EIPS/eip-165#how-interfaces-are-identified[EIP section] to learn more about how these ids are created. This function call must use less than 30 000 gas."
      },
      "upgradeTo(address)": {
        "custom:oz-upgrades-unsafe-allow-reachable": "delegatecall",
        "details": "Upgrade the implementation of the proxy to `newImplementation`. Calls {_authorizeUpgrade}. Emits an {Upgraded} event."
      },
      "upgradeToAndCall(address,bytes)": {
        "custom:oz-upgrades-unsafe-allow-reachable": "delegatecall",
        "details": "Upgrade the implementation of the proxy to `newImplementation`, and subsequently execute the function call encoded in `data`. Calls {_authorizeUpgrade}. Emits an {Upgraded} event."
      },
      "withdrawDepositTo(address,uint256)": {
        "params": {
          "amount": "to withdraw",
          "withdrawAddress": "target to send to"
        }
      }
    },
    "version": 1
  },
  "userdoc": {
    "kind": "user",
    "methods": {
      "addDeposit()": {
        "notice": "deposit more funds for this account in the entryPoint"
      },
      "entryPoint()": {
        "notice": "return the entryPoint used by this account. subclass should return the current entryPoint used by this account."
      },
      "execute(address,uint256,bytes)": {
        "notice": "execute a transaction (called directly from owner, or by entryPoint)"
      },
      "executeBatch(address[],bytes[])": {
        "notice": "execute a sequence of transactions"
      },
      "getDeposit()": {
        "notice": "check current account deposit in the entryPoint"
      },
      "getNonce()": {
        "notice": "Return the account nonce. This method returns the next sequential nonce. For a nonce of a specific key, use `entrypoint.getNonce(account, key)`"
      },
      "implementation()": {
        "notice": "UUPSUpgradeable "
      },
      "validateUserOp((address,uint256,bytes,bytes,uint256,uint256,uint256,uint256,uint256,bytes,bytes),bytes32,uint256)": {
        "notice": "Validate user's signature and nonce. subclass doesn't need to override this method. Instead, it should override the specific internal validation methods."
      },
      "withdrawDepositTo(address,uint256)": {
        "notice": "withdraw value from the account's deposit"
      }
    },
    "version": 1
  },
  "storageLayout": {
    "storage": [
      {
        "astId": 6398,
        "contract": "contracts/account/HexlinkAccount.sol:HexlinkAccount",
        "label": "_initialized",
        "offset": 0,
        "slot": "0",
        "type": "t_uint8"
      },
      {
        "astId": 6401,
        "contract": "contracts/account/HexlinkAccount.sol:HexlinkAccount",
        "label": "_initializing",
        "offset": 1,
        "slot": "0",
        "type": "t_bool"
      },
      {
        "astId": 3797,
        "contract": "contracts/account/HexlinkAccount.sol:HexlinkAccount",
        "label": "owner",
        "offset": 2,
        "slot": "0",
        "type": "t_address"
      }
    ],
    "types": {
      "t_address": {
        "encoding": "inplace",
        "label": "address",
        "numberOfBytes": "20"
      },
      "t_bool": {
        "encoding": "inplace",
        "label": "bool",
        "numberOfBytes": "1"
      },
      "t_uint8": {
        "encoding": "inplace",
        "label": "uint8",
        "numberOfBytes": "1"
      }
    }
  }
}