{
  "address": "0xcfe0498918687c991a6365BA3C9ca7fc4961CE68",
  "abi": [
    {
      "inputs": [
        {
          "internalType": "address",
          "name": "validator",
          "type": "address"
        }
      ],
      "stateMutability": "nonpayable",
      "type": "constructor"
    },
    {
      "inputs": [],
      "name": "defaultOwner",
      "outputs": [
        {
          "internalType": "address",
          "name": "",
          "type": "address"
        }
      ],
      "stateMutability": "view",
      "type": "function"
    },
    {
      "inputs": [
        {
          "internalType": "bytes32",
          "name": "",
          "type": "bytes32"
        }
      ],
      "name": "owner",
      "outputs": [
        {
          "internalType": "address",
          "name": "",
          "type": "address"
        }
      ],
      "stateMutability": "view",
      "type": "function"
    }
  ],
  "transactionHash": "0x1b55860caa2ec8d0f30d0ac3eba511e104e992635438ff209c687c9fbf5ee586",
  "args": [
    "0xf3b4e49Fd77A959B704f6a045eeA92bd55b3b571"
  ],
  "numDeployments": 1,
  "solcInputHash": "488e3d6b13e7595d28a5e7457562c9c6",
  "bytecode": "0x60a0806040523461007457601f6101ae38819003918201601f19168301916001600160401b0383118484101761007a5780849260209460405283398101031261007457516001600160a01b038116811415610074576080526040516101199081610095823960805181818160490152608c0152f35b50600080fd5b50505050634e487b7160e01b600052604160045260246000fdfe60808060405260043610156014575b50600080fd5b600090813560e01c90816302571be314607457506317de2f1f14603557600e565b346071575060413660c8565b60405180606d7f00000000000000000000000000000000000000000000000000000000000000008260b5565b0390f35b80fd5b9190503460b057602036600319011260b0575080606d7f00000000000000000000000000000000000000000000000000000000000000008260b5565b809150fd5b6001600160a01b03909116815260200190565b6000906003190112600e5756fea364697066735822122059a96f39389bad5d1f94aa5c8780f94d5b4b9a6d74219778b518acec1dc5c3f76c6578706572696d656e74616cf564736f6c634300080c0041",
  "devdoc": {
    "kind": "dev",
    "methods": {},
    "version": 1
  },
  "userdoc": {
    "kind": "user",
    "methods": {},
    "version": 1
  },
  "storageLayout": {
    "storage": [],
    "types": null
  }
}