{
  "address": "0xe51ee202fC351c289cca1f647a986cDa6F4fEaFF",
  "abi": [
    {
      "inputs": [
        {
          "internalType": "address",
          "name": "entrypoint",
          "type": "address"
        }
      ],
      "stateMutability": "nonpayable",
      "type": "constructor"
    },
    {
      "anonymous": false,
      "inputs": [
        {
          "indexed": false,
          "internalType": "address",
          "name": "previousAdmin",
          "type": "address"
        },
        {
          "indexed": false,
          "internalType": "address",
          "name": "newAdmin",
          "type": "address"
        }
      ],
      "name": "AdminChanged",
      "type": "event"
    },
    {
      "anonymous": false,
      "inputs": [
        {
          "indexed": true,
          "internalType": "address",
          "name": "beacon",
          "type": "address"
        }
      ],
      "name": "BeaconUpgraded",
      "type": "event"
    },
    {
      "anonymous": false,
      "inputs": [
        {
          "indexed": false,
          "internalType": "uint8",
          "name": "version",
          "type": "uint8"
        }
      ],
      "name": "Initialized",
      "type": "event"
    },
    {
      "anonymous": false,
      "inputs": [
        {
          "indexed": false,
          "internalType": "bytes32",
          "name": "key",
          "type": "bytes32"
        },
        {
          "indexed": false,
          "internalType": "address",
          "name": "module",
          "type": "address"
        }
      ],
      "name": "ModuleSet",
      "type": "event"
    },
    {
      "anonymous": false,
      "inputs": [
        {
          "indexed": true,
          "internalType": "address",
          "name": "implementation",
          "type": "address"
        }
      ],
      "name": "Upgraded",
      "type": "event"
    },
    {
      "stateMutability": "nonpayable",
      "type": "fallback"
    },
    {
      "inputs": [],
      "name": "AUTH_MODULE",
      "outputs": [
        {
          "internalType": "bytes32",
          "name": "",
          "type": "bytes32"
        }
      ],
      "stateMutability": "view",
      "type": "function"
    },
    {
      "inputs": [],
      "name": "addDeposit",
      "outputs": [],
      "stateMutability": "payable",
      "type": "function"
    },
    {
      "inputs": [],
      "name": "entryPoint",
      "outputs": [
        {
          "internalType": "contract IEntryPoint",
          "name": "",
          "type": "address"
        }
      ],
      "stateMutability": "view",
      "type": "function"
    },
    {
      "inputs": [
        {
          "internalType": "address",
          "name": "dest",
          "type": "address"
        },
        {
          "internalType": "uint256",
          "name": "value",
          "type": "uint256"
        },
        {
          "internalType": "bytes",
          "name": "func",
          "type": "bytes"
        }
      ],
      "name": "exec",
      "outputs": [],
      "stateMutability": "payable",
      "type": "function"
    },
    {
      "inputs": [
        {
          "internalType": "address[]",
          "name": "dest",
          "type": "address[]"
        },
        {
          "internalType": "uint256[]",
          "name": "values",
          "type": "uint256[]"
        },
        {
          "internalType": "bytes[]",
          "name": "func",
          "type": "bytes[]"
        }
      ],
      "name": "execBatch",
      "outputs": [],
      "stateMutability": "payable",
      "type": "function"
    },
    {
      "inputs": [],
      "name": "getDeposit",
      "outputs": [
        {
          "internalType": "uint256",
          "name": "",
          "type": "uint256"
        }
      ],
      "stateMutability": "view",
      "type": "function"
    },
    {
      "inputs": [
        {
          "internalType": "bytes32",
          "name": "key",
          "type": "bytes32"
        }
      ],
      "name": "getModule",
      "outputs": [
        {
          "internalType": "address",
          "name": "",
          "type": "address"
        }
      ],
      "stateMutability": "view",
      "type": "function"
    },
    {
      "inputs": [],
      "name": "getNonce",
      "outputs": [
        {
          "internalType": "uint256",
          "name": "",
          "type": "uint256"
        }
      ],
      "stateMutability": "view",
      "type": "function"
    },
    {
      "inputs": [],
      "name": "implementation",
      "outputs": [
        {
          "internalType": "address",
          "name": "",
          "type": "address"
        }
      ],
      "stateMutability": "view",
      "type": "function"
    },
    {
      "inputs": [
        {
          "internalType": "address",
          "name": "authModule",
          "type": "address"
        },
        {
          "internalType": "bytes",
          "name": "data",
          "type": "bytes"
        }
      ],
      "name": "initialize",
      "outputs": [],
      "stateMutability": "nonpayable",
      "type": "function"
    },
    {
      "inputs": [],
      "name": "proxiableUUID",
      "outputs": [
        {
          "internalType": "bytes32",
          "name": "",
          "type": "bytes32"
        }
      ],
      "stateMutability": "view",
      "type": "function"
    },
    {
      "inputs": [
        {
          "internalType": "bytes32",
          "name": "key",
          "type": "bytes32"
        },
        {
          "internalType": "address",
          "name": "module",
          "type": "address"
        }
      ],
      "name": "setModule",
      "outputs": [],
      "stateMutability": "nonpayable",
      "type": "function"
    },
    {
      "inputs": [
        {
          "internalType": "address",
          "name": "newImplementation",
          "type": "address"
        }
      ],
      "name": "upgradeTo",
      "outputs": [],
      "stateMutability": "nonpayable",
      "type": "function"
    },
    {
      "inputs": [
        {
          "internalType": "address",
          "name": "newImplementation",
          "type": "address"
        },
        {
          "internalType": "bytes",
          "name": "data",
          "type": "bytes"
        }
      ],
      "name": "upgradeToAndCall",
      "outputs": [],
      "stateMutability": "payable",
      "type": "function"
    },
    {
      "inputs": [
        {
          "components": [
            {
              "internalType": "address",
              "name": "sender",
              "type": "address"
            },
            {
              "internalType": "uint256",
              "name": "nonce",
              "type": "uint256"
            },
            {
              "internalType": "bytes",
              "name": "initCode",
              "type": "bytes"
            },
            {
              "internalType": "bytes",
              "name": "callData",
              "type": "bytes"
            },
            {
              "internalType": "uint256",
              "name": "callGasLimit",
              "type": "uint256"
            },
            {
              "internalType": "uint256",
              "name": "verificationGasLimit",
              "type": "uint256"
            },
            {
              "internalType": "uint256",
              "name": "preVerificationGas",
              "type": "uint256"
            },
            {
              "internalType": "uint256",
              "name": "maxFeePerGas",
              "type": "uint256"
            },
            {
              "internalType": "uint256",
              "name": "maxPriorityFeePerGas",
              "type": "uint256"
            },
            {
              "internalType": "bytes",
              "name": "paymasterAndData",
              "type": "bytes"
            },
            {
              "internalType": "bytes",
              "name": "signature",
              "type": "bytes"
            }
          ],
          "internalType": "struct UserOperation",
          "name": "userOp",
          "type": "tuple"
        },
        {
          "internalType": "bytes32",
          "name": "userOpHash",
          "type": "bytes32"
        },
        {
          "internalType": "uint256",
          "name": "missingAccountFunds",
          "type": "uint256"
        }
      ],
      "name": "validateUserOp",
      "outputs": [
        {
          "internalType": "uint256",
          "name": "validationData",
          "type": "uint256"
        }
      ],
      "stateMutability": "nonpayable",
      "type": "function"
    },
    {
      "inputs": [
        {
          "internalType": "address payable",
          "name": "withdrawAddress",
          "type": "address"
        },
        {
          "internalType": "uint256",
          "name": "amount",
          "type": "uint256"
        }
      ],
      "name": "withdrawDepositTo",
      "outputs": [],
      "stateMutability": "nonpayable",
      "type": "function"
    },
    {
      "stateMutability": "payable",
      "type": "receive"
    }
  ],
  "transactionHash": "0xb6d2cafccd5b844377d1e23d47ba78a116b88d60045b0208e4b037c8563a03c3",
  "args": [
    "0x5FF137D4b0FDCD49DcA30c7CF57E578a026d2789"
  ],
  "numDeployments": 4,
  "solcInputHash": "8cb949976958376c44a9d4005456b8a2",
  "bytecode": "0x60c080604052346100b457601f61171138819003918201601f19168301916001600160401b038311848410176100ba578084926020946040528339810103126100b457516001600160a01b0381168114156100b4573060805260a05260405161163c90816100d5823960805181818161088d015281816109de0152610d3b015260a05181818161019d01528181610695015281816107050152818161129f015281816112dd0152818161137101526114a10152f35b50600080fd5b50505050634e487b7160e01b600052604160045260246000fdfe6040608081526004361015610032575b503615610030573461002b57610023610f16565b602081519101f35b600080fd5b005b6000803560e01c80630565bb67146103155780633659cfe6146102fd5780633a871cdd146102df5780634a58db19146102cc5780634d44560d146102b35780634f1ef2861461029f57806352d1902d14610282578063541cd468146102695780635c60da1b1461023057806385acd641146101e5578063a4d89251146101cb578063b0d691fe14610186578063c399ec8814610169578063d087d2881461013d578063d1f578941461011d5763d95d110f146100ee575061000f565b3461011857506100fd36610421565b516000805160206115d98339815191528152602090f35b0390f35b809150fd5b509034610139576101366101303661052c565b90610f5b565b51f35b5080fd5b50903461013957610114915061015236610421565b61015a610673565b90519081529081906020820190565b50903461013957610114915061017e36610421565b61015a611284565b5034610118575061019636610421565b51806101147f00000000000000000000000000000000000000000000000000000000000000006001600160a01b031682610591565b50906101366101d9366105e6565b949390939291926111a2565b5090346101395761011491506102256101fd366105a4565b600090815260008051602061153983398151915260205260409020546001600160a01b031690565b905191829182610591565b50903461013957610114915061024536610421565b6000805160206115798339815191525490519182916001600160a01b031682610591565b5090346101395761013661027c36610575565b90611438565b50903461013957610114915061029736610421565b61015a61088a565b50906101366102ad3661052c565b90610d31565b509034610139576101366102c63661042f565b9061135f565b50906102d736610421565b6101366112db565b50903461013957610114915061015a6102f7366103d6565b916106f7565b50903461013957610136610310366103bb565b6109d4565b509061013661032336610344565b929190916110ed565b6001600160a01b038116141561033e57565b50600080fd5b9060606003198301126103b45760043561035d8161032c565b91602435916001600160401b0391604435908382116103a957806023830112156103a95781600401359384116103a9576024848301011161039f576024019190565b5050505050600080fd5b505050505050600080fd5b5050600080fd5b602090600319011261033e576004356103d38161032c565b90565b6003199060608183011261041957600435916001600160401b0383116104105782610160920301126103b457600401906024359060443590565b50505050600080fd5b505050600080fd5b600090600319011261033e57565b604090600319011261033e576004356104478161032c565b9060243590565b50634e487b7160e01b600052604160045260246000fd5b602081019081106001600160401b0382111761048057604052565b61048861044e565b604052565b606081019081106001600160401b0382111761048057604052565b601f909101601f19168101906001600160401b0382119082101761048057604052565b6020906001600160401b0381116104e8575b601f01601f19160190565b6104f061044e565b6104dd565b929192610501826104cb565b9161050f60405193846104a8565b82948184528183011161039f578281602093846000960137010152565b9060406003198301126103b4576004356105458161032c565b91602435906001600160401b0382116104105780602383011215610410578160246103d3936004013591016104f5565b604090600319011261033e57600435906024356103d38161032c565b6001600160a01b03909116815260200190565b602090600319011261033e5760043590565b9181601f84011215610419578235916001600160401b038311610410576020808501948460051b01011161041957565b9060606003198301126103b4576001600160401b036004358181116104105783610612916004016105b6565b939093926024358381116103a9578261062d916004016105b6565b9390939260443591821161064b57610647916004016105b6565b9091565b50505050505050600080fd5b908160209103126103b4575190565b506040513d6000823e3d90fd5b604051631aab3f0d60e11b8152306004820152600060248201526020816044817f00000000000000000000000000000000000000000000000000000000000000006001600160a01b03165afa9081156106ea575b6000916106d2575090565b6103d391506106e13d826104a8565b3d810190610657565b6106f2610666565b6106c7565b9192916001600160a01b03337f0000000000000000000000000000000000000000000000000000000000000000821614156107f1576000805160206115d983398151915260005260008051602061153983398151915260209081526000805160206115b9833981519152546107cd946107b2949293909291166001600160a01b031690610794906107898315156113cc565b61014081019061114a565b60405163196a184f60e21b815295869485938493916004850161140a565b03915afa9081156107e4575b6000916107cf575b5092610869565b565b6107de91506106e13d826104a8565b386107c6565b6107ec610666565b6107be565b5050505050606460405162461bcd60e51b815260206004820152601c60248201527b1858d8dbdd5b9d0e881b9bdd08199c9bdb48115b9d1c9e541bda5b9d60221b6044820152fd5b3d15610864573d9061084a826104cb565b9161085860405193846104a8565b82523d6000602084013e565b606090565b806108715750565b600080809260405190338319f150610887610839565b50565b307f00000000000000000000000000000000000000000000000000000000000000006001600160a01b031614156108cd5760008051602061157983398151915290565b5060405162461bcd60e51b815260206004820152603860248201527f555550535570677261646561626c653a206d757374206e6f742062652063616c6044820152771b1959081d1a1c9bdd59da0819195b1959d85d1958d85b1b60421b6064820152608490fd5b1561093b57565b5060405162461bcd60e51b815260206004820152602c602482015260008051602061155983398151915260448201526b19195b1959d85d1958d85b1b60a21b6064820152608490fd5b1561098b57565b5060405162461bcd60e51b815260206004820152602c602482015260008051602061155983398151915260448201526b6163746976652070726f787960a01b6064820152608490fd5b6001600160a01b037f000000000000000000000000000000000000000000000000000000000000000081169190610a0d30841415610934565b610a2a600080516020611579833981519152938285541614610984565b610a3261149e565b60405190610a3f82610465565b6000825260003660208401376000805160206115198339815191525460ff1615610a6f5750506107cd9150610bb3565b6020600491604094939451928380926352d1902d60e01b825286165afa60009181610acf575b50610abc57505050505060405162461bcd60e51b815280610ab860048201610b45565b0390fd5b6107cd93610aca9114610ae6565b610c45565b610adf9192506106e13d826104a8565b9038610a95565b15610aed57565b5060405162461bcd60e51b815260206004820152602960248201527f45524331393637557067726164653a20756e737570706f727465642070726f786044820152681a58589b195555525160ba1b6064820152608490fd5b60809060208152602e60208201527f45524331393637557067726164653a206e657720696d706c656d656e7461746960408201526d6f6e206973206e6f74205555505360901b60608201520190565b80546001600160a01b0319166001600160a01b03909216919091179055565b803b15610be85760008051602061157983398151915280546001600160a01b0319166001600160a01b03909216919091179055565b505060405162461bcd60e51b815260206004820152602d60248201527f455243313936373a206e657720696d706c656d656e746174696f6e206973206e60448201526c1bdd08184818dbdb9d1c9858dd609a1b6064820152608490fd5b610c4e81610bb3565b604051906001600160a01b038116600080516020611599833981519152600084a2825115801590610ce4575b610c8357505050565b60008061088794610c938561048d565b602785527f416464726573733a206c6f772d6c6576656c2064656c65676174652063616c6c6020860152660819985a5b195960ca1b6040860152602081519101845af4610cde610839565b91610e73565b506000610c7a565b610cf581610bb3565b604051906001600160a01b038116600080516020611599833981519152600084a2825115801590610d2957610c8357505050565b506001610c7a565b6001600160a01b037f000000000000000000000000000000000000000000000000000000000000000081169290610d6a30851415610934565b610d87600080516020611579833981519152948286541614610984565b610d8f61149e565b6000805160206115198339815191525460ff1615610db35750506107cd9150610bb3565b6020600491604094939451928380926352d1902d60e01b825286165afa60009181610e0f575b50610dfc57505050505060405162461bcd60e51b815280610ab860048201610b45565b6107cd93610e0a9114610ae6565b610cec565b610e1f9192506106e13d826104a8565b9038610dd9565b15610e2d57565b5060405162461bcd60e51b815260206004820152601d60248201527f416464726573733a2063616c6c20746f206e6f6e2d636f6e74726163740000006044820152606490fd5b91929015610e935750815115610e87575090565b6103d3903b1515610e26565b825192935091159050610ea95750805190602001fd5b90506040519062461bcd60e51b82528160208060048301528251928360248401526000915b848310610efd575050918060449311610ef0575b601f01601f19168101030190fd5b6000838284010152610ee2565b8183018101518684016044015285935091820191610ece565b604080516000356001600160e01b03191660208083019190915281529081016001600160401b03811182821017610f4e575b60405290565b610f5661044e565b610f48565b6000549160ff8360081c16158093819461107a575b811561105a575b5015610ffb57610f9d9183610f94600160ff196000541617600055565b610fe257611088565b610fa357565b610fb361ff001960005416600055565b604051600181527f7f26b83ff96e1f2b6a682f133852f6798a09c465da95921460cefb384740249890602090a1565b610ff661010061ff00196000541617600055565b611088565b50505050608460405162461bcd60e51b815260206004820152602e60248201527f496e697469616c697a61626c653a20636f6e747261637420697320616c72656160448201526d191e481a5b9a5d1a585b1a5e995960921b6064820152fd5b303b1591508161106c575b5038610f77565b6001915060ff161438611065565b600160ff8216109150610f70565b6000805160206115d983398151915260009081526000805160206115398339815191526020529182916110c9816000805160206115b9833981519152610b94565b82602083519301915af16110db610839565b90156110e45750565b80519150602001fd5b91611105906107cd946110fe61149e565b36916104f5565b9161126d565b50634e487b7160e01b600052603260045260246000fd5b9190811015611133575b60051b0190565b61113b61110b565b61112c565b356103d38161032c565b903590601e198136030182121561041957018035906001600160401b0382116104195760200191813603831361041957565b909161064792811015611195575b60051b81019061114a565b61119d61110b565b61118a565b94909391926111af61149e565b8185141561122c57600094855b8181106111cd575050505050505050565b6111fd6111e36111de83858c611122565b611140565b6111ee83868a611122565b356111056110fe85898b61117c565b600019811461120e576001016111bc565b5050634e487b7160e01b855250506011600452506024935090915050fd5b50505050505050606460405162461bcd60e51b815260206004820152601360248201527277726f6e67206172726179206c656e6774687360681b6044820152fd5b916000928392602083519301915af16110db610839565b6040516370a0823160e01b81523060048201526020816024817f00000000000000000000000000000000000000000000000000000000000000006001600160a01b03165afa9081156106ea576000916106d2575090565b7f00000000000000000000000000000000000000000000000000000000000000006001600160a01b0316803b156103b45760006024916040519283809263b760faf960e01b825230600483015234905af18015611352575b61133a5750565b6000906113473d826104a8565b3d8101031261033e57565b61135a610666565b611333565b61136761149e565b6001600160a01b037f00000000000000000000000000000000000000000000000000000000000000008116803b1561039f5760009283604492604051968795869463040b850f60e31b865216600485015260248401525af180156113525761133a5750565b156113d357565b5060405162461bcd60e51b815260206004820152600e60248201526d1b5bd91d5b19481b9bdd081cd95d60921b6044820152606490fd5b91926060938192845260406020850152816040850152848401376000828201840152601f01601f1916010190565b6040907f0669329f751b07de4aa82f60514a409d0dfaef266e791a4a65a95b07b1c4c3249261146561149e565b816000526000805160206115398339815191526020526114888184600020610b94565b82519182526001600160a01b03166020820152a1565b337f00000000000000000000000000000000000000000000000000000000000000006001600160a01b031614801561150f575b156114d857565b5060405162461bcd60e51b815260206004820152600e60248201526d34b73b30b634b21031b0b63632b960911b6044820152606490fd5b503033146114d156fe4910fdfa16fed3260ed0e7147f7cc6da11a60208b5b9406d12a635614ffd914374ed8dff7d940f2f89cc64075c9549fd5b87954ccebd548be7747fc926a7ef9f46756e6374696f6e206d7573742062652063616c6c6564207468726f75676820360894a13ba1a3210667c828492db98dca3e2076cc3735a920a3ca505d382bbcbc7cd75a20ee27fd9adebab32041f755214dbc6bffa90cc0225b39da2e5c2d3bda7a1cbb62ec5393b76dedcfa99b22e43efb53df3849f260af0d7f4abfa17414a8c0599be6f6588338b5081825970753181ab28be5563b61840e1d0e3306254aa3646970667358221220a1cefe24b02fd4a832a7e94749647b7ef967daccf716c3f27d5ca212354aa91a6c6578706572696d656e74616cf564736f6c634300080c0041",
  "devdoc": {
    "kind": "dev",
    "methods": {
      "proxiableUUID()": {
        "details": "Implementation of the ERC1822 {proxiableUUID} function. This returns the storage slot used by the implementation. It is used to validate the implementation's compatibility when performing an upgrade. IMPORTANT: A proxy pointing at a proxiable contract should not be considered proxiable itself, because this risks bricking a proxy that upgrades to it, by delegating to itself until out of gas. Thus it is critical that this function revert if invoked through a proxy. This is guaranteed by the `notDelegated` modifier."
      },
      "upgradeTo(address)": {
        "details": "Upgrade the implementation of the proxy to `newImplementation`. Calls {_authorizeUpgrade}. Emits an {Upgraded} event."
      },
      "upgradeToAndCall(address,bytes)": {
        "details": "Upgrade the implementation of the proxy to `newImplementation`, and subsequently execute the function call encoded in `data`. Calls {_authorizeUpgrade}. Emits an {Upgraded} event."
      }
    },
    "version": 1
  },
  "userdoc": {
    "kind": "user",
    "methods": {
      "entryPoint()": {
        "notice": "ERC4337 BaseAccount "
      },
      "exec(address,uint256,bytes)": {
        "notice": "IExectuable "
      },
      "getDeposit()": {
        "notice": "Paymaster "
      },
      "getNonce()": {
        "notice": "Return the account nonce. This method returns the next sequential nonce. For a nonce of a specific key, use `entrypoint.getNonce(account, key)`"
      },
      "implementation()": {
        "notice": "UUPSUpgradeable "
      },
      "setModule(bytes32,address)": {
        "notice": "ModuleManager "
      },
      "validateUserOp((address,uint256,bytes,bytes,uint256,uint256,uint256,uint256,uint256,bytes,bytes),bytes32,uint256)": {
        "notice": "Validate user's signature and nonce. subclass doesn't need to override this method. Instead, it should override the specific internal validation methods."
      }
    },
    "version": 1
  },
  "storageLayout": {
    "storage": [
      {
        "astId": 8718,
        "contract": "contracts/account/Account.sol:Account",
        "label": "_initialized",
        "offset": 0,
        "slot": "0",
        "type": "t_uint8"
      },
      {
        "astId": 8721,
        "contract": "contracts/account/Account.sol:Account",
        "label": "_initializing",
        "offset": 1,
        "slot": "0",
        "type": "t_bool"
      }
    ],
    "types": {
      "t_bool": {
        "encoding": "inplace",
        "label": "bool",
        "numberOfBytes": "1"
      },
      "t_uint8": {
        "encoding": "inplace",
        "label": "uint8",
        "numberOfBytes": "1"
      }
    }
  }
}