{
  "address": "0x9428A919AC381b0B00BD6b4AcB9841c0F56eCe43",
  "abi": [
    {
      "inputs": [
        {
          "internalType": "address",
          "name": "entrypoint",
          "type": "address"
        }
      ],
      "stateMutability": "nonpayable",
      "type": "constructor"
    },
    {
      "inputs": [],
      "name": "Ownable__NotOwner",
      "type": "error"
    },
    {
      "inputs": [],
      "name": "Ownable__NotTransitiveOwner",
      "type": "error"
    },
    {
      "anonymous": false,
      "inputs": [
        {
          "indexed": false,
          "internalType": "address",
          "name": "previousAdmin",
          "type": "address"
        },
        {
          "indexed": false,
          "internalType": "address",
          "name": "newAdmin",
          "type": "address"
        }
      ],
      "name": "AdminChanged",
      "type": "event"
    },
    {
      "anonymous": false,
      "inputs": [
        {
          "indexed": true,
          "internalType": "address",
          "name": "beacon",
          "type": "address"
        }
      ],
      "name": "BeaconUpgraded",
      "type": "event"
    },
    {
      "anonymous": false,
      "inputs": [
        {
          "indexed": true,
          "internalType": "address",
          "name": "previousOwner",
          "type": "address"
        },
        {
          "indexed": true,
          "internalType": "address",
          "name": "newOwner",
          "type": "address"
        }
      ],
      "name": "OwnershipTransferred",
      "type": "event"
    },
    {
      "anonymous": false,
      "inputs": [
        {
          "indexed": true,
          "internalType": "address",
          "name": "implementation",
          "type": "address"
        }
      ],
      "name": "Upgraded",
      "type": "event"
    },
    {
      "stateMutability": "nonpayable",
      "type": "fallback"
    },
    {
      "inputs": [],
      "name": "addDeposit",
      "outputs": [],
      "stateMutability": "payable",
      "type": "function"
    },
    {
      "inputs": [],
      "name": "entryPoint",
      "outputs": [
        {
          "internalType": "contract IEntryPoint",
          "name": "",
          "type": "address"
        }
      ],
      "stateMutability": "view",
      "type": "function"
    },
    {
      "inputs": [
        {
          "internalType": "address",
          "name": "dest",
          "type": "address"
        },
        {
          "internalType": "uint256",
          "name": "value",
          "type": "uint256"
        },
        {
          "internalType": "bytes",
          "name": "func",
          "type": "bytes"
        }
      ],
      "name": "exec",
      "outputs": [],
      "stateMutability": "payable",
      "type": "function"
    },
    {
      "inputs": [
        {
          "internalType": "address[]",
          "name": "dest",
          "type": "address[]"
        },
        {
          "internalType": "uint256[]",
          "name": "values",
          "type": "uint256[]"
        },
        {
          "internalType": "bytes[]",
          "name": "func",
          "type": "bytes[]"
        }
      ],
      "name": "execBatch",
      "outputs": [],
      "stateMutability": "payable",
      "type": "function"
    },
    {
      "inputs": [],
      "name": "getDeposit",
      "outputs": [
        {
          "internalType": "uint256",
          "name": "",
          "type": "uint256"
        }
      ],
      "stateMutability": "view",
      "type": "function"
    },
    {
      "inputs": [],
      "name": "getName",
      "outputs": [
        {
          "internalType": "bytes32",
          "name": "",
          "type": "bytes32"
        },
        {
          "internalType": "address",
          "name": "",
          "type": "address"
        }
      ],
      "stateMutability": "view",
      "type": "function"
    },
    {
      "inputs": [],
      "name": "getNonce",
      "outputs": [
        {
          "internalType": "uint256",
          "name": "",
          "type": "uint256"
        }
      ],
      "stateMutability": "view",
      "type": "function"
    },
    {
      "inputs": [],
      "name": "implementation",
      "outputs": [
        {
          "internalType": "address",
          "name": "",
          "type": "address"
        }
      ],
      "stateMutability": "view",
      "type": "function"
    },
    {
      "inputs": [
        {
          "internalType": "address",
          "name": "owner",
          "type": "address"
        }
      ],
      "name": "init",
      "outputs": [],
      "stateMutability": "nonpayable",
      "type": "function"
    },
    {
      "inputs": [],
      "name": "owner",
      "outputs": [
        {
          "internalType": "address",
          "name": "",
          "type": "address"
        }
      ],
      "stateMutability": "view",
      "type": "function"
    },
    {
      "inputs": [],
      "name": "proxiableUUID",
      "outputs": [
        {
          "internalType": "bytes32",
          "name": "",
          "type": "bytes32"
        }
      ],
      "stateMutability": "view",
      "type": "function"
    },
    {
      "inputs": [
        {
          "internalType": "bytes32",
          "name": "name",
          "type": "bytes32"
        },
        {
          "internalType": "address",
          "name": "nameRegistry",
          "type": "address"
        }
      ],
      "name": "setName",
      "outputs": [],
      "stateMutability": "nonpayable",
      "type": "function"
    },
    {
      "inputs": [
        {
          "internalType": "address",
          "name": "account",
          "type": "address"
        }
      ],
      "name": "transferOwnership",
      "outputs": [],
      "stateMutability": "nonpayable",
      "type": "function"
    },
    {
      "inputs": [
        {
          "internalType": "address",
          "name": "newImplementation",
          "type": "address"
        }
      ],
      "name": "upgradeTo",
      "outputs": [],
      "stateMutability": "nonpayable",
      "type": "function"
    },
    {
      "inputs": [
        {
          "internalType": "address",
          "name": "newImplementation",
          "type": "address"
        },
        {
          "internalType": "bytes",
          "name": "data",
          "type": "bytes"
        }
      ],
      "name": "upgradeToAndCall",
      "outputs": [],
      "stateMutability": "payable",
      "type": "function"
    },
    {
      "inputs": [
        {
          "components": [
            {
              "internalType": "address",
              "name": "sender",
              "type": "address"
            },
            {
              "internalType": "uint256",
              "name": "nonce",
              "type": "uint256"
            },
            {
              "internalType": "bytes",
              "name": "initCode",
              "type": "bytes"
            },
            {
              "internalType": "bytes",
              "name": "callData",
              "type": "bytes"
            },
            {
              "internalType": "uint256",
              "name": "callGasLimit",
              "type": "uint256"
            },
            {
              "internalType": "uint256",
              "name": "verificationGasLimit",
              "type": "uint256"
            },
            {
              "internalType": "uint256",
              "name": "preVerificationGas",
              "type": "uint256"
            },
            {
              "internalType": "uint256",
              "name": "maxFeePerGas",
              "type": "uint256"
            },
            {
              "internalType": "uint256",
              "name": "maxPriorityFeePerGas",
              "type": "uint256"
            },
            {
              "internalType": "bytes",
              "name": "paymasterAndData",
              "type": "bytes"
            },
            {
              "internalType": "bytes",
              "name": "signature",
              "type": "bytes"
            }
          ],
          "internalType": "struct UserOperation",
          "name": "userOp",
          "type": "tuple"
        },
        {
          "internalType": "bytes32",
          "name": "userOpHash",
          "type": "bytes32"
        },
        {
          "internalType": "uint256",
          "name": "missingAccountFunds",
          "type": "uint256"
        }
      ],
      "name": "validateUserOp",
      "outputs": [
        {
          "internalType": "uint256",
          "name": "validationData",
          "type": "uint256"
        }
      ],
      "stateMutability": "nonpayable",
      "type": "function"
    },
    {
      "inputs": [
        {
          "internalType": "address payable",
          "name": "withdrawAddress",
          "type": "address"
        },
        {
          "internalType": "uint256",
          "name": "amount",
          "type": "uint256"
        }
      ],
      "name": "withdrawDepositTo",
      "outputs": [],
      "stateMutability": "nonpayable",
      "type": "function"
    },
    {
      "stateMutability": "payable",
      "type": "receive"
    }
  ],
  "transactionHash": "0x1edee02e4bd23aea1ed078ed4e19b69c1d3d65c735fcee281568546983156dd8",
  "args": [
    "0x5FF137D4b0FDCD49DcA30c7CF57E578a026d2789"
  ],
  "numDeployments": 1,
  "solcInputHash": "8a5217b58938378e9846089dfe7e6205",
  "bytecode": "0x60c080604052346100b457601f61186538819003918201601f19168301916001600160401b038311848410176100ba578084926020946040528339810103126100b457516001600160a01b0381168114156100b4573060805260a05260405161179090816100d582396080518181816107ee0152818161093f0152610cd3015260a051818181610192015281816106b20152818161071b015281816111fa01528181611238015281816112cc01526115be0152f35b50600080fd5b50505050634e487b7160e01b600052604160045260246000fdfe6040608081526004361015610032575b503615610030573461002b57610023610f1a565b602081519101f35b600080fd5b005b600090813560e01c80630565bb671461034557806317d7de7c146102f257806319ab453c146102db5780633659cfe6146102c45780633a871cdd146102a75780634a58db19146102955780634d44560d1461027d5780634f1ef2861461026a57806352d1902d1461024e5780635c60da1b146102165780638da5cb5b146101de578063a4d89251146101c5578063b0d691fe1461017a578063c399ec881461015e578063d087d2881461012f578063f2fde38b146101185763f3305ae2146100fa575061000f565b346101145761011161010b36610658565b90610ff0565b51f35b5080fd5b50346101145761011161012a366103f8565b610ed5565b50346101145761015a9150610143366103ea565b61014b610690565b90519081529081906020820190565b0390f35b50346101145761015a9150610172366103ea565b61014b6111df565b5090346101c0575061018b366103ea565b518061015a7f00000000000000000000000000000000000000000000000000000000000000006001600160a01b0316826105a4565b809150fd5b506101116101d2366105e7565b949390939291926110eb565b50346101145761015a91506101f2366103ea565b60008051602061172d8339815191525490519182916001600160a01b0316826105a4565b50346101145761015a915061022a366103ea565b6000805160206116ad8339815191525490519182916001600160a01b0316826105a4565b50346101145761015a9150610262366103ea565b61014b6107eb565b506101116102773661055b565b90610cc9565b50346101145761011161028f3661045e565b906112ba565b5061029f366103ea565b610111611236565b50346101145761015a915061014b6102be36610413565b91610714565b5034610114576101116102d6366103f8565b610935565b5034610114576101116102ed366103f8565b610f5f565b50346101145761015a9150610306366103ea565b60008051602061166d8339815191525460008051602061170d8339815191525491519081526001600160a01b0390911660208201529081906040820190565b5061011161035236610373565b92919091611036565b6001600160a01b038116141561036d57565b50600080fd5b9060606003198301126103e35760043561038c8161035b565b91602435916001600160401b0391604435908382116103d857806023830112156103d85781600401359384116103d857602484830101116103ce576024019190565b5050505050600080fd5b505050505050600080fd5b5050600080fd5b600090600319011261036d57565b602090600319011261036d576004356104108161035b565b90565b6003199060608183011261045657600435916001600160401b03831161044d5782610160920301126103e357600401906024359060443590565b50505050600080fd5b505050600080fd5b604090600319011261036d576004356104768161035b565b9060243590565b50634e487b7160e01b600052604160045260246000fd5b602081019081106001600160401b038211176104af57604052565b6104b761047d565b604052565b606081019081106001600160401b038211176104af57604052565b601f909101601f19168101906001600160401b038211908210176104af57604052565b6020906001600160401b038111610517575b601f01601f19160190565b61051f61047d565b61050c565b929192610530826104fa565b9161053e60405193846104d7565b8294818452818301116103ce578281602093846000960137010152565b9060406003198301126103e3576004356105748161035b565b91602435906001600160401b03821161044d578060238301121561044d5781602461041093600401359101610524565b6001600160a01b03909116815260200190565b9181601f84011215610456578235916001600160401b03831161044d576020808501948460051b01011161045657565b9060606003198301126103e3576001600160401b0360043581811161044d5783610613916004016105b7565b939093926024358381116103d8578261062e916004016105b7565b9390939260443591821161064c57610648916004016105b7565b9091565b50505050505050600080fd5b604090600319011261036d57600435906024356104108161035b565b908160209103126103e3575190565b506040513d6000823e3d90fd5b604051631aab3f0d60e11b8152306004820152600060248201526020816044817f00000000000000000000000000000000000000000000000000000000000000006001600160a01b03165afa908115610707575b6000916106ef575090565b61041091506106fe3d826104d7565b3d810190610674565b61070f610683565b6106e4565b91929190337f00000000000000000000000000000000000000000000000000000000000000006001600160a01b031614156107745761075291611327565b918061075b5750565b600080809260405190338319f1506107716107bb565b50565b50505050606460405162461bcd60e51b815260206004820152601c60248201527b1858d8dbdd5b9d0e881b9bdd08199c9bdb48115b9d1c9e541bda5b9d60221b6044820152fd5b3d156107e6573d906107cc826104fa565b916107da60405193846104d7565b82523d6000602084013e565b606090565b307f00000000000000000000000000000000000000000000000000000000000000006001600160a01b0316141561082e576000805160206116ad83398151915290565b5060405162461bcd60e51b815260206004820152603860248201527f555550535570677261646561626c653a206d757374206e6f742062652063616c6044820152771b1959081d1a1c9bdd59da0819195b1959d85d1958d85b1b60421b6064820152608490fd5b1561089c57565b5060405162461bcd60e51b815260206004820152602c602482015260008051602061168d83398151915260448201526b19195b1959d85d1958d85b1b60a21b6064820152608490fd5b156108ec57565b5060405162461bcd60e51b815260206004820152602c602482015260008051602061168d83398151915260448201526b6163746976652070726f787960a01b6064820152608490fd5b6001600160a01b037f00000000000000000000000000000000000000000000000000000000000000008116919061096e30841415610895565b61098b6000805160206116ad8339815191529382855416146108e5565b8060008051602061172d8339815191525416331415610a5a57604051906109b182610494565b60008252600036602084013760008051602061164d8339815191525460ff16156109e35750506109e19150610b4b565b565b6020600491604094939451928380926352d1902d60e01b825286165afa60009181610a43575b50610a3057505050505060405162461bcd60e51b815280610a2c60048201610ace565b0390fd5b6109e193610a3e9114610a6f565b610bdd565b610a539192506106fe3d826104d7565b9038610a09565b505050506004604051632f7a8ee160e01b8152fd5b15610a7657565b5060405162461bcd60e51b815260206004820152602960248201527f45524331393637557067726164653a20756e737570706f727465642070726f786044820152681a58589b195555525160ba1b6064820152608490fd5b60809060208152602e60208201527f45524331393637557067726164653a206e657720696d706c656d656e7461746960408201526d6f6e206973206e6f74205555505360901b60608201520190565b60008051602061172d83398151915280546001600160a01b0319166001600160a01b03909216919091179055565b803b15610b80576000805160206116ad83398151915280546001600160a01b0319166001600160a01b03909216919091179055565b505060405162461bcd60e51b815260206004820152602d60248201527f455243313936373a206e657720696d706c656d656e746174696f6e206973206e60448201526c1bdd08184818dbdb9d1c9858dd609a1b6064820152608490fd5b610be681610b4b565b604051906001600160a01b0381166000805160206116ed833981519152600084a2825115801590610c7c575b610c1b57505050565b60008061077194610c2b856104bc565b602785527f416464726573733a206c6f772d6c6576656c2064656c65676174652063616c6c6020860152660819985a5b195960ca1b6040860152602081519101845af4610c766107bb565b91610e32565b506000610c12565b610c8d81610b4b565b604051906001600160a01b0381166000805160206116ed833981519152600084a2825115801590610cc157610c1b57505050565b506001610c12565b6001600160a01b037f000000000000000000000000000000000000000000000000000000000000000081169290610d0230851415610895565b610d1f6000805160206116ad8339815191529482865416146108e5565b8060008051602061172d8339815191525416331415610dcf5760008051602061164d8339815191525460ff1615610d5c5750506109e19150610b4b565b6020600491604094939451928380926352d1902d60e01b825286165afa60009181610db8575b50610da557505050505060405162461bcd60e51b815280610a2c60048201610ace565b6109e193610db39114610a6f565b610c84565b610dc89192506106fe3d826104d7565b9038610d82565b50505050506004604051632f7a8ee160e01b8152fd5b15610dec57565b5060405162461bcd60e51b815260206004820152601d60248201527f416464726573733a2063616c6c20746f206e6f6e2d636f6e74726163740000006044820152606490fd5b91929015610e525750815115610e46575090565b610410903b1515610de5565b825192935091159050610e685750805190602001fd5b90506040519062461bcd60e51b82528160208060048301528251928360248401526000915b848310610ebc575050918060449311610eaf575b601f01601f19168101030190fd5b6000838284010152610ea1565b8183018101518684016044015285935091820191610e8d565b60008051602061172d833981519152546001600160a01b039190821633811415610a5a576109e1928216906000805160206116cd8339815191526000604051a3610b1d565b604080516000356001600160e01b03191660208083019190915281529081016001600160401b03811182821017610f52575b60405290565b610f5a61047d565b610f4c565b60008051602061172d833981519152546001600160a01b0391908216801580610fe5575b15610fa9576109e1928216906000805160206116cd8339815191526000604051a3610b1d565b50505050606460405162461bcd60e51b8152602060048201526011602482015270185b1c9958591e481a5b9a5d1a585d1959607a1b6044820152fd5b508282161515610f83565b610ff86115b4565b60008051602061166d8339815191525560008051602061170d83398151915280546001600160a01b0319166001600160a01b03909216919091179055565b9161104e906109e1946110476115b4565b3691610524565b916111b6565b50634e487b7160e01b600052603260045260246000fd5b919081101561107c575b60051b0190565b611084611054565b611075565b356104108161035b565b903590601e198136030182121561045657018035906001600160401b0382116104565760200191813603831361045657565b9091610648928110156110de575b60051b810190611093565b6110e6611054565b6110d3565b94909391926110f86115b4565b8185141561117557600094855b818110611116575050505050505050565b61114661112c61112783858c61106b565b611089565b61113783868a61106b565b3561104e61104785898b6110c5565b600019811461115757600101611105565b5050634e487b7160e01b855250506011600452506024935090915050fd5b50505050505050606460405162461bcd60e51b815260206004820152601360248201527277726f6e67206172726179206c656e6774687360681b6044820152fd5b916000928392602083519301915af16111cd6107bb565b90156111d65750565b80519150602001fd5b6040516370a0823160e01b81523060048201526020816024817f00000000000000000000000000000000000000000000000000000000000000006001600160a01b03165afa908115610707576000916106ef575090565b7f00000000000000000000000000000000000000000000000000000000000000006001600160a01b0316803b156103e35760006024916040519283809263b760faf960e01b825230600483015234905af180156112ad575b6112955750565b6000906112a23d826104d7565b3d8101031261036d57565b6112b5610683565b61128e565b6112c26115b4565b6001600160a01b037f00000000000000000000000000000000000000000000000000000000000000008116803b156103ce5760009283604492604051968795869463040b850f60e31b865216600485015260248401525af180156112ad576112955750565b9060405160208101917b0ca2ba3432b932bab69029b4b3b732b21026b2b9b9b0b3b29d05199960211b8352603c820152603c8152611364816104bc565b5190206113a761139f60018060a01b03926113996110478560008051602061172d833981519152541696610140810190611093565b906114fa565b9190916113d8565b16146113b257600190565b600090565b600511156113c157565b50634e487b7160e01b600052602160045260246000fd5b6113e1816113b7565b806113e95750565b6113f2816113b7565b600181141561143d57505060405162461bcd60e51b815260206004820152601860248201527745434453413a20696e76616c6964207369676e617475726560401b6044820152606490fd5b611446816113b7565b600281141561149657505060405162461bcd60e51b815260206004820152601f60248201527f45434453413a20696e76616c6964207369676e6174757265206c656e677468006044820152606490fd5b806114a26003926113b7565b146114a957565b5060405162461bcd60e51b815260206004820152602260248201527f45434453413a20696e76616c6964207369676e6174757265202773272076616c604482015261756560f01b6064820152608490fd5b90604181511460001461152457610648916020820151906060604084015193015160001a9061152e565b5050600090600290565b9291906fa2a8918ca85bafe22016d0b997e4df60600160ff1b0383116115a85791608094939160ff602094604051948552168484015260408301526060820152600093849182805260015afa1561159b575b81516001600160a01b03811615611595579190565b50600190565b6115a3610683565b611580565b50505050600090600390565b60018060a01b03807f0000000000000000000000000000000000000000000000000000000000000000163314908115611631575b508015611628575b156115f757565b5060405162461bcd60e51b81526020600482015260086024820152674845584c4130303560c01b6044820152606490fd5b503033146115f0565b905060008051602061172d83398151915254163314386115e856fe4910fdfa16fed3260ed0e7147f7cc6da11a60208b5b9406d12a635614ffd91433aa3ec8331457ad24544c62acd96859b5f2c5a468495a731d3eaf94505d667fb46756e6374696f6e206d7573742062652063616c6c6564207468726f75676820360894a13ba1a3210667c828492db98dca3e2076cc3735a920a3ca505d382bbc8be0079c531659141344cd1fd0a4f28419497f9722a3daafe3b4186f6b6457e0bc7cd75a20ee27fd9adebab32041f755214dbc6bffa90cc0225b39da2e5c2d3b3aa3ec8331457ad24544c62acd96859b5f2c5a468495a731d3eaf94505d667fc8a22373512790c48b83a1fe2efdd2888d4a917bcdc24d0adf63e60f671680460a36469706673582212203db0dd9d6e6d38e9fd9768ce8cc2934b633aeb54b96b43aaaecc2c9a97e0e49d6c6578706572696d656e74616cf564736f6c634300080c0041",
  "devdoc": {
    "kind": "dev",
    "methods": {
      "owner()": {
        "returns": {
          "_0": "conrtact owner"
        }
      },
      "proxiableUUID()": {
        "details": "Implementation of the ERC1822 {proxiableUUID} function. This returns the storage slot used by the implementation. It is used to validate the implementation's compatibility when performing an upgrade. IMPORTANT: A proxy pointing at a proxiable contract should not be considered proxiable itself, because this risks bricking a proxy that upgrades to it, by delegating to itself until out of gas. Thus it is critical that this function revert if invoked through a proxy. This is guaranteed by the `notDelegated` modifier."
      },
      "transferOwnership(address)": {
        "params": {
          "account": "address of new owner"
        }
      },
      "upgradeTo(address)": {
        "details": "Upgrade the implementation of the proxy to `newImplementation`. Calls {_authorizeUpgrade}. Emits an {Upgraded} event."
      },
      "upgradeToAndCall(address,bytes)": {
        "details": "Upgrade the implementation of the proxy to `newImplementation`, and subsequently execute the function call encoded in `data`. Calls {_authorizeUpgrade}. Emits an {Upgraded} event."
      }
    },
    "version": 1
  },
  "userdoc": {
    "kind": "user",
    "methods": {
      "entryPoint()": {
        "notice": "ERC4337 BaseAccount "
      },
      "exec(address,uint256,bytes)": {
        "notice": "IExectuable "
      },
      "getDeposit()": {
        "notice": "Paymaster "
      },
      "getName()": {
        "notice": "IERC4972Account "
      },
      "getNonce()": {
        "notice": "Return the account nonce. This method returns the next sequential nonce. For a nonce of a specific key, use `entrypoint.getNonce(account, key)`"
      },
      "implementation()": {
        "notice": "UUPSUpgradeable "
      },
      "owner()": {
        "notice": "get the ERC173 contract owner"
      },
      "transferOwnership(address)": {
        "notice": "transfer contract ownership to new account"
      },
      "validateUserOp((address,uint256,bytes,bytes,uint256,uint256,uint256,uint256,uint256,bytes,bytes),bytes32,uint256)": {
        "notice": "Validate user's signature and nonce. subclass doesn't need to override this method. Instead, it should override the specific internal validation methods."
      }
    },
    "version": 1
  },
  "storageLayout": {
    "storage": [],
    "types": null
  }
}