{
  "address": "0x425FA5152Fc6206b1f7F7C5f9061d0607F219382",
  "abi": [
    {
      "inputs": [
        {
          "internalType": "address",
          "name": "entryPoint",
          "type": "address"
        },
        {
          "internalType": "address",
          "name": "hexlink",
          "type": "address"
        }
      ],
      "stateMutability": "nonpayable",
      "type": "constructor"
    },
    {
      "anonymous": false,
      "inputs": [
        {
          "indexed": false,
          "internalType": "address",
          "name": "previousAdmin",
          "type": "address"
        },
        {
          "indexed": false,
          "internalType": "address",
          "name": "newAdmin",
          "type": "address"
        }
      ],
      "name": "AdminChanged",
      "type": "event"
    },
    {
      "anonymous": false,
      "inputs": [
        {
          "indexed": true,
          "internalType": "address",
          "name": "beacon",
          "type": "address"
        }
      ],
      "name": "BeaconUpgraded",
      "type": "event"
    },
    {
      "anonymous": false,
      "inputs": [
        {
          "indexed": true,
          "internalType": "uint256",
          "name": "",
          "type": "uint256"
        },
        {
          "indexed": true,
          "internalType": "address",
          "name": "",
          "type": "address"
        },
        {
          "indexed": true,
          "internalType": "address",
          "name": "",
          "type": "address"
        }
      ],
      "name": "FactorUpdated",
      "type": "event"
    },
    {
      "anonymous": false,
      "inputs": [
        {
          "indexed": false,
          "internalType": "uint8",
          "name": "version",
          "type": "uint8"
        }
      ],
      "name": "Initialized",
      "type": "event"
    },
    {
      "anonymous": false,
      "inputs": [
        {
          "indexed": true,
          "internalType": "address",
          "name": "implementation",
          "type": "address"
        }
      ],
      "name": "Upgraded",
      "type": "event"
    },
    {
      "stateMutability": "nonpayable",
      "type": "fallback"
    },
    {
      "inputs": [],
      "name": "addDeposit",
      "outputs": [],
      "stateMutability": "payable",
      "type": "function"
    },
    {
      "inputs": [],
      "name": "entryPoint",
      "outputs": [
        {
          "internalType": "contract IEntryPoint",
          "name": "",
          "type": "address"
        }
      ],
      "stateMutability": "view",
      "type": "function"
    },
    {
      "inputs": [
        {
          "components": [
            {
              "internalType": "address",
              "name": "target",
              "type": "address"
            },
            {
              "internalType": "uint256",
              "name": "value",
              "type": "uint256"
            },
            {
              "internalType": "bytes",
              "name": "data",
              "type": "bytes"
            }
          ],
          "internalType": "struct UserRequest",
          "name": "request",
          "type": "tuple"
        }
      ],
      "name": "execute",
      "outputs": [],
      "stateMutability": "payable",
      "type": "function"
    },
    {
      "inputs": [
        {
          "components": [
            {
              "internalType": "address",
              "name": "target",
              "type": "address"
            },
            {
              "internalType": "uint256",
              "name": "value",
              "type": "uint256"
            },
            {
              "internalType": "bytes",
              "name": "data",
              "type": "bytes"
            }
          ],
          "internalType": "struct UserRequest[]",
          "name": "requests",
          "type": "tuple[]"
        }
      ],
      "name": "executeBatch",
      "outputs": [],
      "stateMutability": "payable",
      "type": "function"
    },
    {
      "inputs": [],
      "name": "getAuthFactors",
      "outputs": [
        {
          "components": [
            {
              "internalType": "address",
              "name": "provider",
              "type": "address"
            },
            {
              "internalType": "address",
              "name": "validator",
              "type": "address"
            }
          ],
          "internalType": "struct AuthFactor[2]",
          "name": "",
          "type": "tuple[2]"
        }
      ],
      "stateMutability": "view",
      "type": "function"
    },
    {
      "inputs": [],
      "name": "getDeposit",
      "outputs": [
        {
          "internalType": "uint256",
          "name": "",
          "type": "uint256"
        }
      ],
      "stateMutability": "view",
      "type": "function"
    },
    {
      "inputs": [],
      "name": "getName",
      "outputs": [
        {
          "internalType": "bytes32",
          "name": "",
          "type": "bytes32"
        }
      ],
      "stateMutability": "view",
      "type": "function"
    },
    {
      "inputs": [],
      "name": "getNameRegistry",
      "outputs": [
        {
          "internalType": "address",
          "name": "",
          "type": "address"
        }
      ],
      "stateMutability": "view",
      "type": "function"
    },
    {
      "inputs": [],
      "name": "getNameType",
      "outputs": [
        {
          "internalType": "bytes32",
          "name": "",
          "type": "bytes32"
        }
      ],
      "stateMutability": "view",
      "type": "function"
    },
    {
      "inputs": [],
      "name": "getNonce",
      "outputs": [
        {
          "internalType": "uint256",
          "name": "",
          "type": "uint256"
        }
      ],
      "stateMutability": "view",
      "type": "function"
    },
    {
      "inputs": [],
      "name": "hexlink",
      "outputs": [
        {
          "internalType": "contract IAccountFactory",
          "name": "",
          "type": "address"
        }
      ],
      "stateMutability": "view",
      "type": "function"
    },
    {
      "inputs": [],
      "name": "implementation",
      "outputs": [
        {
          "internalType": "address",
          "name": "",
          "type": "address"
        }
      ],
      "stateMutability": "view",
      "type": "function"
    },
    {
      "inputs": [
        {
          "internalType": "bytes32",
          "name": "nameType",
          "type": "bytes32"
        },
        {
          "internalType": "bytes32",
          "name": "name",
          "type": "bytes32"
        },
        {
          "internalType": "address",
          "name": "provider",
          "type": "address"
        },
        {
          "internalType": "address",
          "name": "validator",
          "type": "address"
        }
      ],
      "name": "initialize",
      "outputs": [],
      "stateMutability": "nonpayable",
      "type": "function"
    },
    {
      "inputs": [],
      "name": "isSecondFactorEnabled",
      "outputs": [
        {
          "internalType": "bool",
          "name": "",
          "type": "bool"
        }
      ],
      "stateMutability": "view",
      "type": "function"
    },
    {
      "inputs": [],
      "name": "proxiableUUID",
      "outputs": [
        {
          "internalType": "bytes32",
          "name": "",
          "type": "bytes32"
        }
      ],
      "stateMutability": "view",
      "type": "function"
    },
    {
      "inputs": [
        {
          "internalType": "uint256",
          "name": "index",
          "type": "uint256"
        }
      ],
      "name": "resetValidatorFromProvider",
      "outputs": [],
      "stateMutability": "nonpayable",
      "type": "function"
    },
    {
      "inputs": [
        {
          "internalType": "uint256",
          "name": "index",
          "type": "uint256"
        },
        {
          "internalType": "address",
          "name": "provider",
          "type": "address"
        },
        {
          "internalType": "address",
          "name": "validator",
          "type": "address"
        }
      ],
      "name": "updateAuthFactor",
      "outputs": [],
      "stateMutability": "nonpayable",
      "type": "function"
    },
    {
      "inputs": [
        {
          "internalType": "address",
          "name": "newImplementation",
          "type": "address"
        }
      ],
      "name": "upgradeTo",
      "outputs": [],
      "stateMutability": "nonpayable",
      "type": "function"
    },
    {
      "inputs": [
        {
          "internalType": "address",
          "name": "newImplementation",
          "type": "address"
        },
        {
          "internalType": "bytes",
          "name": "data",
          "type": "bytes"
        }
      ],
      "name": "upgradeToAndCall",
      "outputs": [],
      "stateMutability": "payable",
      "type": "function"
    },
    {
      "inputs": [
        {
          "components": [
            {
              "internalType": "address",
              "name": "sender",
              "type": "address"
            },
            {
              "internalType": "uint256",
              "name": "nonce",
              "type": "uint256"
            },
            {
              "internalType": "bytes",
              "name": "initCode",
              "type": "bytes"
            },
            {
              "internalType": "bytes",
              "name": "callData",
              "type": "bytes"
            },
            {
              "internalType": "uint256",
              "name": "callGasLimit",
              "type": "uint256"
            },
            {
              "internalType": "uint256",
              "name": "verificationGasLimit",
              "type": "uint256"
            },
            {
              "internalType": "uint256",
              "name": "preVerificationGas",
              "type": "uint256"
            },
            {
              "internalType": "uint256",
              "name": "maxFeePerGas",
              "type": "uint256"
            },
            {
              "internalType": "uint256",
              "name": "maxPriorityFeePerGas",
              "type": "uint256"
            },
            {
              "internalType": "bytes",
              "name": "paymasterAndData",
              "type": "bytes"
            },
            {
              "internalType": "bytes",
              "name": "signature",
              "type": "bytes"
            }
          ],
          "internalType": "struct UserOperation",
          "name": "userOp",
          "type": "tuple"
        },
        {
          "internalType": "bytes32",
          "name": "userOpHash",
          "type": "bytes32"
        },
        {
          "internalType": "uint256",
          "name": "missingAccountFunds",
          "type": "uint256"
        }
      ],
      "name": "validateUserOp",
      "outputs": [
        {
          "internalType": "uint256",
          "name": "validationData",
          "type": "uint256"
        }
      ],
      "stateMutability": "nonpayable",
      "type": "function"
    },
    {
      "inputs": [
        {
          "internalType": "address payable",
          "name": "withdrawAddress",
          "type": "address"
        },
        {
          "internalType": "uint256",
          "name": "amount",
          "type": "uint256"
        }
      ],
      "name": "withdrawDepositTo",
      "outputs": [],
      "stateMutability": "nonpayable",
      "type": "function"
    },
    {
      "stateMutability": "payable",
      "type": "receive"
    }
  ],
  "transactionHash": "0xb325ea913abbe68cb4b84fe461e75a2a1768764bcd2c69961e0b0994913d7f60",
  "args": [
    "0x5FF137D4b0FDCD49DcA30c7CF57E578a026d2789",
    "0xaA08491F80C780A96Cb42bE84dbBFc3f6287BF38"
  ],
  "numDeployments": 9,
  "solcInputHash": "37bd313ca94dba139fd032180eefb4e4",
  "bytecode": "0x60e08060405234620000fa57601f6200273738819003918201601f19168301916001600160401b0383118484101762000100578084926040948552833981010312620000fa57806200006360206200005b6200007b946200011a565b92016200011a565b6001600160a01b039081166080523060a0521660c052565b6040516125ff9081620001388239608051818181610339015281816103e401528181610bbe01526110b8015260a051818181610a0301528181610b570152611069015260c0518181816101cb015281816107a6015281816108170152818161149e015281816114fe0152818161232b0152818161236901526124000152f35b50600080fd5b50505050634e487b7160e01b600052604160045260246000fd5b51906001600160a01b0382168214156200013057565b5050600080fdfe6040608081526004361015610032575b503615610030573461002b576100236122ef565b602081519101f35b600080fd5b005b600090813560e01c806317d7de7c146104095780631908fea8146103cc5780631c86922d146103b55780631f57365e1461039a5780632e80508c14610367578063342e08d01461032157806334fcd5be1461030e5780633659cfe6146102f75780633a871cdd146102da5780634a58db19146102c85780634d44560d146102b05780634f1ef2861461029d57806352d1902d146102815780635c1c6dcd1461026f5780635c60da1b1461023757806375bd984f1461021c5780638834257d146101f5578063b0d691fe146101b3578063c399ec8814610197578063d087d2881461016c5763d651654d14610126575061000f565b346101685761016491506101393661043a565b60008051602061251c8339815191525490516001600160a01b03909116151581529081906020820190565b0390f35b5080fd5b50346101685761016491506101803661043a565b610188610784565b90519081529081906020820190565b50346101685761016491506101ab3661043a565b610188612310565b5090346101f057506101c43661043a565b51806101647f00000000000000000000000000000000000000000000000000000000000000008261045a565b809150fd5b50346101685761016491506102093661043a565b610211611945565b905191829182610722565b50346101685761023461022e366106f9565b916119cf565b51f35b503461016857610164915061024b3661043a565b6000805160206124fc8339815191525490519182916001600160a01b03168261045a565b5061023461027c366106c8565b611498565b50346101685761016491506102953661043a565b610188610a00565b506102346102aa3661067f565b9061105b565b5034610168576102346102c236610578565b906123eb565b506102d23661043a565b610234612367565b50346101685761016491506101886102f13661053e565b91610808565b50346101685761023461030936610526565b610b4a565b5061023461031b366104c1565b906114f8565b5090346101f057506103323661043a565b51806101647f00000000000000000000000000000000000000000000000000000000000000006001600160a01b03168261045a565b503461016857610164915061037b3661043a565b60008051602061245c8339815191525490519081529081906020820190565b5034610168576102346103ac36610491565b9291909161125b565b5034610168576102346103c73661046d565b611bcf565b5090346101f057506103dd3661043a565b51806101647f00000000000000000000000000000000000000000000000000000000000000008261045a565b505034610437575061041a3661043a565b60008051602061259c83398151915254608052607f1960a0016080f35b80fd5b600090600319011261044857565b50600080fd5b6001600160a01b031690565b6001600160a01b03909116815260200190565b60209060031901126104485760043590565b6001600160a01b038116141561044857565b60809060031901126104485760043590602435906044356104b18161047f565b906064356104be8161047f565b90565b90602060031983011261051f576001600160401b03916004359083821161051657806023830112156105165781600401359384116105165760248460051b8301011161050e576024019190565b505050600080fd5b50505050600080fd5b5050600080fd5b6020906003190112610448576004356104be8161047f565b6003199060608183011261050e57600435916001600160401b03831161051657826101609203011261051f57600401906024359060443590565b6040906003190112610448576004356105908161047f565b9060243590565b50634e487b7160e01b600052604160045260246000fd5b604081019081106001600160401b038211176105c957604052565b6105d1610597565b604052565b606081019081106001600160401b038211176105c957604052565b601f909101601f19168101906001600160401b038211908210176105c957604052565b6020906001600160401b038111610631575b601f01601f19160190565b610639610597565b610626565b92919261064a82610614565b9161065860405193846105f1565b829481845281830111610675578281602093846000960137010152565b5050505050600080fd5b90604060031983011261051f576004356106988161047f565b91602435906001600160401b0382116105165780602383011215610516578160246104be9360040135910161063e565b6003199060208183011261050e57600435916001600160401b038311610516578260609203011261051f5760040190565b606090600319011261044857600435906024356107158161047f565b906044356104be8161047f565b6080810192916000915b6002831061073957505050565b815180516001600160a01b0390811683526020918201511681830152600193909301929091019060400161072c565b9081602091031261051f575190565b506040513d6000823e3d90fd5b604051631aab3f0d60e11b8152306004820152600060248201526020816044817f00000000000000000000000000000000000000000000000000000000000000006001600160a01b03165afa9081156107fb575b6000916107e3575090565b6104be91506107f23d826105f1565b3d810190610768565b610803610777565b6107d8565b9192916001600160a01b0390337f00000000000000000000000000000000000000000000000000000000000000008316141561096757610850816101406108579301906115aa565b369161063e565b60008051602061251c8339815191525460009083161561090a575091610889836020806108a896518301019101611d51565b91906108958183611ebd565b938416156108aa575b5050505b926109df565b565b61090293506108bf6108fb9151845190611db3565b8051604082015160209092015160d01b6001600160d01b03191660a09290921b65ffffffffffff60a01b166001600160a01b0391909116171790565b8252612060565b38808061089e565b9080925051820160208382031261095e576020830151916001600160401b038311610954575061094f9260206108a89593816109499401920101611cb5565b90611ebd565b6108a2565b9550505050505080fd5b50935050505080fd5b5050505050606460405162461bcd60e51b815260206004820152601c60248201527b1858d8dbdd5b9d0e881b9bdd08199c9bdb48115b9d1c9e541bda5b9d60221b6044820152fd5b3d156109da573d906109c082610614565b916109ce60405193846105f1565b82523d6000602084013e565b606090565b806109e75750565b600080809260405190338319f1506109fd6109af565b50565b307f00000000000000000000000000000000000000000000000000000000000000006001600160a01b03161415610a43576000805160206124fc83398151915290565b5060405162461bcd60e51b815260206004820152603860248201527f555550535570677261646561626c653a206d757374206e6f742062652063616c6044820152771b1959081d1a1c9bdd59da0819195b1959d85d1958d85b1b60421b6064820152608490fd5b15610ab157565b5060405162461bcd60e51b815260206004820152602c60248201526000805160206124dc83398151915260448201526b19195b1959d85d1958d85b1b60a21b6064820152608490fd5b15610b0157565b5060405162461bcd60e51b815260206004820152602c60248201526000805160206124dc83398151915260448201526b6163746976652070726f787960a01b6064820152608490fd5b6001600160a01b03610b9c7f00000000000000000000000000000000000000000000000000000000000000008216610b8430821415610aaa565b826000805160206124fc833981519152541614610afa565b610ba730331461145a565b604051639d825bc560e01b815281906020816004817f000000000000000000000000000000000000000000000000000000000000000086165afa908115610c6c575b600091610c4e575b50169082161415610c0e576108a890610c08610c79565b90610d60565b505060405162461bcd60e51b815260206004820152601660248201527534b73b30b634b21034b6b83632b6b2b73a30ba34b7b760511b6044820152606490fd5b610c669150610c5d3d826105f1565b3d8101906116ac565b38610bf1565b610c74610777565b610be9565b6040516020810191906000906001600160401b03841181851017610ca5575b8360405281815292369037565b610cad610597565b610c98565b15610cb957565b5060405162461bcd60e51b815260206004820152602960248201527f45524331393637557067726164653a20756e737570706f727465642070726f786044820152681a58589b195555525160ba1b6064820152608490fd5b60809060208152602e60208201527f45524331393637557067726164653a206e657720696d706c656d656e7461746960408201526d6f6e206973206e6f74205555505360901b60608201520190565b60008051602061247c8339815191525460ff1615610d82576108a89150610fc9565b6040516352d1902d60e01b81526001600160a01b0382169190602081600481865afa60009181610e8a575b50610dd457505050505060405162461bcd60e51b815280610dd060048201610d11565b0390fd5b6000805160206124fc833981519152610ded9114610cb2565b610df681610fc9565b6040519160008051602061253c833981519152600084a2825115801590610e82575b610e2157505050565b6000806109fd94610e31856105d6565b602785527f416464726573733a206c6f772d6c6576656c2064656c65676174652063616c6c6020860152660819985a5b195960ca1b6040860152602081519101845af4610e7c6109af565b91611162565b506000610e18565b610e9a9192506107f23d826105f1565b9038610dad565b60008051602061247c8339815191525460ff1615610ec3576108a89150610fc9565b6040516352d1902d60e01b81526001600160a01b0382169190602081600481865afa60009181610f65575b50610f1157505050505060405162461bcd60e51b815280610dd060048201610d11565b6000805160206124fc833981519152610f2a9114610cb2565b610f3381610fc9565b6040519160008051602061253c833981519152600084a2825115801590610f5d57610e2157505050565b506001610e18565b610f759192506107f23d826105f1565b9038610eee565b6000805160206124bc83398151915280546001600160a01b0319166001600160a01b03909216919091179055565b80546001600160a01b0319166001600160a01b03909216919091179055565b803b15610ffe576000805160206124fc83398151915280546001600160a01b0319166001600160a01b03909216919091179055565b505060405162461bcd60e51b815260206004820152602d60248201527f455243313936373a206e657720696d706c656d656e746174696f6e206973206e60448201526c1bdd08184818dbdb9d1c9858dd609a1b6064820152608490fd5b906001600160a01b036110967f00000000000000000000000000000000000000000000000000000000000000008216610b8430821415610aaa565b6110a130331461145a565b604051639d825bc560e01b815281906020816004817f000000000000000000000000000000000000000000000000000000000000000086165afa908115611155575b600091611140575b501690831614156110ff576108a891610ea1565b505060405162461bcd60e51b815260206004820152601660248201527534b73b30b634b21034b6b83632b6b2b73a30ba34b7b760511b604482015260649150fd5b61114f9150610c5d3d826105f1565b386110eb565b61115d610777565b6110e3565b919290156111c65750815115611176575090565b3b1561117f5790565b505060405162461bcd60e51b815260206004820152601d60248201527f416464726573733a2063616c6c20746f206e6f6e2d636f6e74726163740000006044820152606490fd5b8251929350911590506111dc5750805190602001fd5b60405162461bcd60e51b81526020600482015291508190610dd0906024830190611236565b918091926000905b82821061122157501161121a575050565b6000910152565b91508060209183015181860152018291611209565b9060209161124f81518092818552858086019101611201565b601f01601f1916010190565b919290926000549360ff8560081c16158095819661144c575b811561142c575b50156113cb576113079385611298600160ff196000541617600055565b61134c5760008051602061245c8339815191525560008051602061259c8339815191525560008051602061249c83398151915280546001600160a01b039283166001600160a01b0319918216179091556000805160206124bc8339815191528054939092169216919091179055565b61130d57565b61131d61ff001960005416600055565b604051600181527f7f26b83ff96e1f2b6a682f133852f6798a09c465da95921460cefb384740249890602090a1565b61136061010061ff00196000541617600055565b60008051602061245c8339815191525560008051602061259c8339815191525560008051602061249c83398151915280546001600160a01b039283166001600160a01b0319918216179091556000805160206124bc8339815191528054939092169216919091179055565b505050505050608460405162461bcd60e51b815260206004820152602e60248201527f496e697469616c697a61626c653a20636f6e747261637420697320616c72656160448201526d191e481a5b9a5d1a585b1a5e995960921b6064820152fd5b303b1591508161143e575b503861127b565b6001915060ff161438611437565b600160ff8216109150611274565b1561146157565b5060405162461bcd60e51b815260206004820152600e60248201526d34b73b30b634b21031b0b63632b960911b6044820152606490fd5b6114cc337f00000000000000000000000000000000000000000000000000000000000000006001600160a01b03161461145a565b6114d46116c1565b806114ea575b6114e15750565b6108a8906115dc565b506114f36117b7565b6114da565b61152c337f00000000000000000000000000000000000000000000000000000000000000006001600160a01b03161461145a565b6115346116c1565b8061159c575b611542575050565b60005b82811061155157505050565b8060051b820135605e1983360301811215610675576115719083016115dc565b600019811461158257600101611545565b50505050634e487b7160e01b600052601160045260246000fd5b506115a56117b7565b61153a565b903590601e198136030182121561050e57018035906001600160401b03821161050e5760200191813603831361050e57565b60008091602081356115ed8161047f565b6115fa60408401846115aa565b9290836040519485928337810186815203930135905af16116196109af565b90156116225750565b80519091501561163457805190602001fd5b5060405162461bcd60e51b81526020600482015260156024820152741b1bddc81b195d995b0818d85b1b0819985a5b1959605a1b6044820152606490fd5b60028110156116945760011b60008051602061249c8339815191520190600090565b5050634e487b7160e01b600052603260045260246000fd5b9081602091031261051f57516104be8161047f565b60008051602061249c833981519152546001600160a01b039081906116e59061044e565b169081156117b05760206040518093630c825d9760e11b8252818061170d306004830161045a565b03915afa9182156117a3575b60009261178c575b5061173a6000805160206124bc8339815191525461044e565b8116908216146117525761174d90610f7c565b600090565b5060008051602061255c8339815191525460ff16156117875760008051602061255c833981519152805460ff19169055600190565b600190565b61179c919250610c5d3d826105f1565b9038611721565b6117ab610777565b611719565b5050600190565b60008051602061257c833981519152546001600160a01b039081906117db9061044e565b169081156117b05760206040518093630c825d9760e11b82528180611803306004830161045a565b03915afa918215611888575b600092611871575b5061183060008051602061251c8339815191525461044e565b81169082161461186b5760008051602061251c83398151915280546001600160a01b0319166001600160a01b03909216919091179055600090565b50600190565b611881919250610c5d3d826105f1565b9038611817565b611890610777565b61180f565b604051906118a2826105ae565b60008051602061249c833981519152546001600160a01b0390811683526000805160206124bc83398151915254166020830152565b604051906118e4826105ae565b60008051602061257c833981519152546001600160a01b03908116835260008051602061251c83398151915254166020830152565b90604051611926816105ae565b82546001600160a01b0390811682526001909301549092166020830152565b60408051611952816105ae565b60005b8281106119ad5750505190611969826105ae565b60008051602061249c833981519152916000815b600290818310156119a55790602060019261199788611919565b81520195019101909361197d565b509193505050565b60209083516119bb816105ae565b600081526000838201528184015201611955565b91906119dc30331461145a565b6002831080611abe575b6119ef90611ad0565b611a02816119fc85611672565b50610faa565b611a18826001611a1186611672565b5001610faa565b6001600160a01b039081169182611a55575b16917ff2cfb96ee1a91ce513c66b1cf0ea3b4c6623384bd855269272d10c0bfb8658206000604051a4565b611a9782604051630c825d9760e11b815260208180611a77306004830161045a565b0381895afa908115611ab1575b600091611a9c575b501683831614611b0d565b611a2a565b611aab9150610c5d3d826105f1565b38611a8c565b611ab9610777565b611a84565b506001600160a01b03821615156119e6565b15611ad757565b5060405162461bcd60e51b815260206004820152600d60248201526c1a5b9d985b1a59081a5b9c1d5d609a1b6044820152606490fd5b15611b1457565b5060405162461bcd60e51b81526020600482015260126024820152710ecc2d8d2c8c2e8dee440dad2e6dac2e8c6d60731b6044820152606490fd5b15611b5657565b5060405162461bcd60e51b815260206004820152601060248201526f34b73b30b634b210383937bb34b232b960811b6044820152606490fd5b15611b9657565b5060405162461bcd60e51b815260206004820152601060248201526f1b9bc81b995959081d1bc81c995cd95d60821b6044820152606490fd5b6108a890611be5611bdf82611672565b50611919565b9060018060a01b03611c0381611bfb855161044e565b161515611b4f565b611c18611c13611c13855161044e565b61044e565b9260206040518095630c825d9760e11b82528180611c39306004830161045a565b03915afa938415611ca8575b600094611c77575b5091611c72611a1192611c68611c136020600197015161044e565b9086161415611b8f565b611672565b600193919450611a1192611c68611c136020611c9a611c7295610c5d3d826105f1565b989597505050509250611c4d565b611cb0610777565b611c45565b919060608382031261050e57604051611ccd816105d6565b8093805182526020810151611ce18161047f565b60208301526040810151906001600160401b038211611d4657019082601f8301121561067557815191611d1383610614565b93611d2160405195866105f1565b83855260208483010111611d4657604092611d429160208087019101611201565b0152565b505050505050600080fd5b91909160408184031261050e5780516001600160401b0393908481116106755781611d7d918401611cb5565b936020830151908111610675576104be9201611cb5565b60405190611da1826105d6565b60006040838281528260208201520152565b611dc8611dce91611dc2611d94565b50611e59565b91611e59565b81516001600160a01b039081169291908315611e4e575b65ffffffffffff928391826040816020850151169301511693836040816020840151169201511690808410611e46575b50808511611e3e575b5060405195611e2c876105d6565b16855216602084015216604082015290565b935038611e1e565b925038611e15565b815181169350611de5565b611e61611d94565b5065ffffffffffff808260a01c168015611ea0575b60405192611e83846105d6565b6001600160a01b038116845260d01c602084015216604082015290565b5080611e76565b6040919493926060820195825260208201520152565b90611ec6611895565b80516001600160a01b0393611f0d918590611ee09061044e565b1615158061204a575b612002575b8351604080516020810192835290810192909252909182906060820190565b0391611f21601f19938481018352826105f1565b519020611f6860008051602061245c833981519152549260008051602061259c83398151915254611f5c604051948592602084019788611ea7565b039081018352826105f1565b51902092611fbb6020840194611fb0611f81875161044e565b917b0ca2ba3432b932bab69029b4b3b732b21026b2b9b9b0b3b29d05199960211b600052601c52603c60002090565b604086015191612144565b9384611fd7575b5050505190600014611fd15790565b60011790565b611ff691929394506020611fee611c13925161044e565b94015161044e565b91161490388080611fc2565b612045612012602086015161044e565b61201b81610f7c565b60008051602061255c833981519152805460ff191660011790556001600160a01b03166020850152565b611eee565b5084612059602085015161044e565b1615611ee9565b9061208c61206c6118d7565b825160408051602081019283529081019590955290939182906060820190565b03916120a0601f19938481018352826105f1565b5190206120db60008051602061245c833981519152549260008051602061259c83398151915254611f5c604051948592602084019788611ea7565b519020916120ff60208301936120f4611f81865161044e565b604085015191612144565b9283612112575b5050519015611fd15790565b612130919293506020612128611c13925161044e565b93015161044e565b6001600160a01b0390911614903880612106565b61214e8383612237565b600581959295101561221b57159384612205575b508315612170575b50505090565b60009293509082916040516121b7816121a96020820194630b135d3f60e11b998a87526024840152604060448401526064830190611236565b03601f1981018352826105f1565b51915afa906121c46109af565b826121f7575b826121da575b505038808061216a565b6121ef91925060208082518301019101610768565b1438806121d0565b9150602082511015916121ca565b6001600160a01b03838116911614935038612162565b505050505050634e487b7160e01b600052602160045260246000fd5b90604181511460001461226557612261916020820151906060604084015193015160001a9061226f565b9091565b5050600090600290565b9291906fa2a8918ca85bafe22016d0b997e4df60600160ff1b0383116122e35791608094939160ff602094604051948552168484015260408301526060820152600093849182805260015afa156122d6575b81516001600160a01b0381161561186b579190565b6122de610777565b6122c1565b50505050600090600390565b60405163ffffffff60e01b600035166020820152602081526104be816105ae565b6040516370a0823160e01b81523060048201526020816024817f00000000000000000000000000000000000000000000000000000000000000006001600160a01b03165afa9081156107fb576000916107e3575090565b7f00000000000000000000000000000000000000000000000000000000000000006001600160a01b0316803b1561051f5760006024916040519283809263b760faf960e01b825230600483015234905af180156123de575b6123c65750565b6000906123d33d826105f1565b3d8101031261044857565b6123e6610777565b6123bf565b6123f630331461145a565b6001600160a01b037f00000000000000000000000000000000000000000000000000000000000000008116803b156106755760009283604492604051968795869463040b850f60e31b865216600485015260248401525af180156123de576123c6575056fe5369c026cf11a52d1702790247c99d6473513f9d73c8fc685cb047d94b9acb584910fdfa16fed3260ed0e7147f7cc6da11a60208b5b9406d12a635614ffd9143d426cdbd3e35f570909c91780d46ad213fdc6f1dcd76b8c6f693eba2d281e62ed426cdbd3e35f570909c91780d46ad213fdc6f1dcd76b8c6f693eba2d281e62f46756e6374696f6e206d7573742062652063616c6c6564207468726f75676820360894a13ba1a3210667c828492db98dca3e2076cc3735a920a3ca505d382bbcd426cdbd3e35f570909c91780d46ad213fdc6f1dcd76b8c6f693eba2d281e631bc7cd75a20ee27fd9adebab32041f755214dbc6bffa90cc0225b39da2e5c2d3bd426cdbd3e35f570909c91780d46ad213fdc6f1dcd76b8c6f693eba2d281e632d426cdbd3e35f570909c91780d46ad213fdc6f1dcd76b8c6f693eba2d281e6305369c026cf11a52d1702790247c99d6473513f9d73c8fc685cb047d94b9acb59a3646970667358221220997a4b644bf2686602ab6594f6278fd86e1ae07482f58a3e01085576a9ebe1576c6578706572696d656e74616cf564736f6c634300080c0041",
  "devdoc": {
    "kind": "dev",
    "methods": {
      "proxiableUUID()": {
        "details": "Implementation of the ERC1822 {proxiableUUID} function. This returns the storage slot used by the implementation. It is used to validate the implementation's compatibility when performing an upgrade. IMPORTANT: A proxy pointing at a proxiable contract should not be considered proxiable itself, because this risks bricking a proxy that upgrades to it, by delegating to itself until out of gas. Thus it is critical that this function revert if invoked through a proxy. This is guaranteed by the `notDelegated` modifier."
      },
      "upgradeTo(address)": {
        "custom:oz-upgrades-unsafe-allow-reachable": "delegatecall",
        "details": "Upgrade the implementation of the proxy to `newImplementation`. Calls {_authorizeUpgrade}. Emits an {Upgraded} event."
      },
      "upgradeToAndCall(address,bytes)": {
        "custom:oz-upgrades-unsafe-allow-reachable": "delegatecall",
        "details": "Upgrade the implementation of the proxy to `newImplementation`, and subsequently execute the function call encoded in `data`. Calls {_authorizeUpgrade}. Emits an {Upgraded} event."
      }
    },
    "version": 1
  },
  "userdoc": {
    "kind": "user",
    "methods": {
      "entryPoint()": {
        "notice": "ERC4337 BaseAccount "
      },
      "execute((address,uint256,bytes))": {
        "notice": "IExectuable "
      },
      "getDeposit()": {
        "notice": "Paymaster "
      },
      "getNonce()": {
        "notice": "Return the account nonce. This method returns the next sequential nonce. For a nonce of a specific key, use `entrypoint.getNonce(account, key)`"
      },
      "implementation()": {
        "notice": "UUPSUpgradeable "
      },
      "validateUserOp((address,uint256,bytes,bytes,uint256,uint256,uint256,uint256,uint256,bytes,bytes),bytes32,uint256)": {
        "notice": "Validate user's signature and nonce. subclass doesn't need to override this method. Instead, it should override the specific internal validation methods."
      }
    },
    "version": 1
  },
  "storageLayout": {
    "storage": [
      {
        "astId": 1826,
        "contract": "contracts/account/Account.sol:Account",
        "label": "_initialized",
        "offset": 0,
        "slot": "0",
        "type": "t_uint8"
      },
      {
        "astId": 1829,
        "contract": "contracts/account/Account.sol:Account",
        "label": "_initializing",
        "offset": 1,
        "slot": "0",
        "type": "t_bool"
      }
    ],
    "types": {
      "t_bool": {
        "encoding": "inplace",
        "label": "bool",
        "numberOfBytes": "1"
      },
      "t_uint8": {
        "encoding": "inplace",
        "label": "uint8",
        "numberOfBytes": "1"
      }
    }
  }
}