{
  "address": "0x7ba0A50AFA78f7d4A5542A8f279B0485cc2A17cd",
  "abi": [
    {
      "inputs": [
        {
          "internalType": "address",
          "name": "validator_",
          "type": "address"
        }
      ],
      "stateMutability": "nonpayable",
      "type": "constructor"
    },
    {
      "inputs": [],
      "name": "MAILTO",
      "outputs": [
        {
          "internalType": "bytes32",
          "name": "",
          "type": "bytes32"
        }
      ],
      "stateMutability": "view",
      "type": "function"
    },
    {
      "inputs": [],
      "name": "TEL",
      "outputs": [
        {
          "internalType": "bytes32",
          "name": "",
          "type": "bytes32"
        }
      ],
      "stateMutability": "view",
      "type": "function"
    },
    {
      "inputs": [],
      "name": "getName",
      "outputs": [
        {
          "internalType": "bytes32",
          "name": "",
          "type": "bytes32"
        },
        {
          "internalType": "bytes32",
          "name": "",
          "type": "bytes32"
        }
      ],
      "stateMutability": "pure",
      "type": "function"
    },
    {
      "inputs": [
        {
          "internalType": "bytes32",
          "name": "nameType",
          "type": "bytes32"
        },
        {
          "internalType": "bytes32",
          "name": "name",
          "type": "bytes32"
        }
      ],
      "name": "setName",
      "outputs": [],
      "stateMutability": "nonpayable",
      "type": "function"
    },
    {
      "inputs": [
        {
          "internalType": "bytes32",
          "name": "message",
          "type": "bytes32"
        },
        {
          "internalType": "bytes",
          "name": "signature",
          "type": "bytes"
        }
      ],
      "name": "validate",
      "outputs": [
        {
          "internalType": "uint256",
          "name": "",
          "type": "uint256"
        }
      ],
      "stateMutability": "view",
      "type": "function"
    },
    {
      "inputs": [],
      "name": "validator",
      "outputs": [
        {
          "internalType": "address",
          "name": "",
          "type": "address"
        }
      ],
      "stateMutability": "view",
      "type": "function"
    }
  ],
  "transactionHash": "0x4c1968f4b8f0f475bcc230b6543fc3f809a77a0a0e6724bd2b6d62e74ebfe64c",
  "args": [
    "0x943fAbe0D1ae7130fc48Cf2ABc85F01fC987Ec81"
  ],
  "numDeployments": 1,
  "solcInputHash": "001945e710c8c848c1af8a102c40224f",
  "bytecode": "0x60a0806040523461007657601f6107be38819003918201601f19168301916001600160401b0383118484101761007c5780849260209460405283398101031261007657516001600160a01b038116811415610076576080526040516107279081610097823960805181818161011b015261041a0152f35b50600080fd5b50505050634e487b7160e01b600052604160045260246000fdfe6040608081526004361015610015575b50600080fd5b600090813560e01c806317d7de7c1461014a5780633a5381b51461010757806365a8613c146100db578063681cb8d9146100b3578063ee93a545146100825763f95bb91e14610064575061000f565b3461007e5761007b61007536610281565b90610297565b51f35b5080fd5b5090346100ae57506100933661017d565b516000805160206106a48339815191528152602090f35b0390f35b809150fd5b5090346100ae57506100c43661017d565b516000805160206106848339815191528152602090f35b503461007e576100aa91506100f86100f2366101ed565b90610387565b90519081529081906020820190565b5090346100ae57506101183661017d565b517f00000000000000000000000000000000000000000000000000000000000000006001600160a01b03168152602090f35b503461007e576100aa915061015e3661017d565b61016661032d565b915190815260208101919091529081906040820190565b600090600319011261000f57565b50634e487b7160e01b600052604160045260246000fd5b606081019081106001600160401b038211176101bd57604052565b6101c561018b565b604052565b601f909101601f19168101906001600160401b038211908210176101bd57604052565b90604060031983011261027a57600435916001600160401b03602435818111610263578260238201121561026357806004013591821161026d575b60405192610240601f8401601f1916602001856101ca565b828452602483830101116102635781600092602460209301838601378301015290565b5050505050600080fd5b61027561018b565b610228565b5050600080fd5b604090600319011261000f576004359060243590565b60008051602061068483398151915281148015610316575b156102d657600080516020610664833981519152556000805160206106c483398151915255565b505060405162461bcd60e51b8152602060048201526015602482015274756e737570706f72746564206e616d65207479706560581b604482015260649150fd5b506000805160206106a483398151915281146102af565b604080516020929181016001600160401b0381118282101761037a575b60405260008051602061066483398151915254908181526000805160206106c48339815191525493849101529190565b61038261018b565b61034a565b610418916104109161039761032d565b9160405192602084019283526040840152606083015260608252608082019082821060018060401b03831117610456575b816040528251902060bc60a08401937b0ca2ba3432b932bab69029b4b3b732b21026b2b9b9b0b3b29d05199960211b85520152603c8152610408816101a2565b5190206105a6565b919091610484565b7f00000000000000000000000000000000000000000000000000000000000000006001600160a01b039081169116141561045157600090565b600190565b61045e61018b565b6103c8565b6005111561046d57565b50634e487b7160e01b600052602160045260246000fd5b61048d81610463565b806104955750565b61049e81610463565b60018114156104e957505060405162461bcd60e51b815260206004820152601860248201527745434453413a20696e76616c6964207369676e617475726560401b6044820152606490fd5b6104f281610463565b600281141561054257505060405162461bcd60e51b815260206004820152601f60248201527f45434453413a20696e76616c6964207369676e6174757265206c656e677468006044820152606490fd5b8061054e600392610463565b1461055557565b5060405162461bcd60e51b815260206004820152602260248201527f45434453413a20696e76616c6964207369676e6174757265202773272076616c604482015261756560f01b6064820152608490fd5b9060418151146000146105d4576105d0916020820151906060604084015193015160001a906105de565b9091565b5050600090600290565b9291906fa2a8918ca85bafe22016d0b997e4df60600160ff1b0383116106575791608094939160ff602094604051948552168484015260408301526060820152600093849182805260015afa1561064a5781516001600160a01b03811615610644579190565b50600190565b50604051903d90823e3d90fd5b5050505060009060039056fe0f4bab7a8861c7f1be18a7d1a27ef7a4ee90ff8c4d747d597af33cb192c2cf21a494cfc40d31c3891835fac394fbcdd0bf27978f8af488c9a97d9b406b1ad96eeeef3d88e44720eeae328f3cead00ac0a41c6a29bad00b2cdf1b4cdb919afe810f4bab7a8861c7f1be18a7d1a27ef7a4ee90ff8c4d747d597af33cb192c2cf22a36469706673582212207ae3a0d07c1510b5fce5bbba97526be08b05805d3c73c56664679bfddb00f3c46c6578706572696d656e74616cf564736f6c634300080c0041",
  "devdoc": {
    "kind": "dev",
    "methods": {},
    "version": 1
  },
  "userdoc": {
    "kind": "user",
    "methods": {
      "validate(bytes32,bytes)": {
        "notice": "INameValidator "
      }
    },
    "version": 1
  },
  "storageLayout": {
    "storage": [],
    "types": null
  }
}