{
  "address": "0x6c0fD0EF97999ee3E5Fc0C569A3DA948DEEd6ECe",
  "abi": [
    {
      "inputs": [
        {
          "internalType": "address",
          "name": "validator_",
          "type": "address"
        }
      ],
      "stateMutability": "nonpayable",
      "type": "constructor"
    },
    {
      "inputs": [],
      "name": "Ownable__NotOwner",
      "type": "error"
    },
    {
      "inputs": [],
      "name": "Ownable__NotTransitiveOwner",
      "type": "error"
    },
    {
      "anonymous": false,
      "inputs": [
        {
          "indexed": true,
          "internalType": "address",
          "name": "previousOwner",
          "type": "address"
        },
        {
          "indexed": true,
          "internalType": "address",
          "name": "newOwner",
          "type": "address"
        }
      ],
      "name": "OwnershipTransferred",
      "type": "event"
    },
    {
      "inputs": [
        {
          "internalType": "address",
          "name": "entrypoint",
          "type": "address"
        },
        {
          "internalType": "uint32",
          "name": "unstakeDelaySec",
          "type": "uint32"
        }
      ],
      "name": "addStake",
      "outputs": [],
      "stateMutability": "payable",
      "type": "function"
    },
    {
      "inputs": [],
      "name": "getName",
      "outputs": [
        {
          "components": [
            {
              "internalType": "bytes32",
              "name": "nameType",
              "type": "bytes32"
            },
            {
              "internalType": "bytes32",
              "name": "name",
              "type": "bytes32"
            }
          ],
          "internalType": "struct DefaultAuthModule.Name",
          "name": "",
          "type": "tuple"
        }
      ],
      "stateMutability": "view",
      "type": "function"
    },
    {
      "inputs": [],
      "name": "owner",
      "outputs": [
        {
          "internalType": "address",
          "name": "",
          "type": "address"
        }
      ],
      "stateMutability": "view",
      "type": "function"
    },
    {
      "inputs": [
        {
          "internalType": "bytes32",
          "name": "nameType",
          "type": "bytes32"
        },
        {
          "internalType": "bytes32",
          "name": "name",
          "type": "bytes32"
        }
      ],
      "name": "setName",
      "outputs": [],
      "stateMutability": "nonpayable",
      "type": "function"
    },
    {
      "inputs": [
        {
          "internalType": "address",
          "name": "account",
          "type": "address"
        }
      ],
      "name": "transferOwnership",
      "outputs": [],
      "stateMutability": "nonpayable",
      "type": "function"
    },
    {
      "inputs": [
        {
          "internalType": "address",
          "name": "entrypoint",
          "type": "address"
        }
      ],
      "name": "unlockStake",
      "outputs": [],
      "stateMutability": "nonpayable",
      "type": "function"
    },
    {
      "inputs": [
        {
          "internalType": "bytes32",
          "name": "message",
          "type": "bytes32"
        },
        {
          "internalType": "bytes",
          "name": "signature",
          "type": "bytes"
        }
      ],
      "name": "validate",
      "outputs": [
        {
          "internalType": "uint256",
          "name": "",
          "type": "uint256"
        }
      ],
      "stateMutability": "view",
      "type": "function"
    },
    {
      "inputs": [],
      "name": "validator",
      "outputs": [
        {
          "internalType": "address",
          "name": "",
          "type": "address"
        }
      ],
      "stateMutability": "view",
      "type": "function"
    },
    {
      "inputs": [
        {
          "internalType": "address",
          "name": "entrypoint",
          "type": "address"
        },
        {
          "internalType": "address payable",
          "name": "withdrawTo",
          "type": "address"
        }
      ],
      "name": "withdrawStake",
      "outputs": [],
      "stateMutability": "nonpayable",
      "type": "function"
    }
  ],
  "transactionHash": "0x283028fd73a7f0d5f747787e226bf00242e459a3c6cbbcabc6c4504608be4449",
  "args": [
    "0x943fAbe0D1ae7130fc48Cf2ABc85F01fC987Ec81"
  ],
  "numDeployments": 1,
  "solcInputHash": "8cb949976958376c44a9d4005456b8a2",
  "bytecode": "0x60a0806040523461007657601f6109b838819003918201601f19168301916001600160401b0383118484101761007c5780849260209460405283398101031261007657516001600160a01b038116811415610076576080526040516109219081610097823960805181818161019101526105090152f35b50600080fd5b50505050634e487b7160e01b600052604160045260246000fdfe6040608081526004361015610015575b50600080fd5b600090813560e01c806317d7de7c146101bb5780633a5381b51461017957806345171159146101665780634a1ce5991461014f57806365a8613c146101235780638da5cb5b146100e7578063b36f9705146100cf578063f2fde38b146100b85763f95bb91e14610085575061000f565b346100b4576100b1610096366103ac565b90336000526000602052604060002055600160406000200155565b51f35b5080fd5b50346100b4576100b16100ca3661025b565b6103c2565b50346100b4576100b16100e136610387565b906107de565b50346100b45761011f91506100fb366101f3565b6000805160206108be8339815191525490519182916001600160a01b031682610201565b0390f35b50346100b45761011f915061014061013a366102f3565b9061047a565b90519081529081906020820190565b50346100b4576100b16101613661025b565b610857565b506100b161017336610226565b90610775565b5090346101b6575061018a366101f3565b518061011f7f000000000000000000000000000000000000000000000000000000000000000082610201565b809150fd5b50346100b45761011f91506101cf366101f3565b6101d761043a565b9051918291829190916020806040830194805184520151910152565b600090600319011261000f57565b6001600160a01b03909116815260200190565b6001600160a01b038116141561000f57565b604090600319011261000f5760043561023e81610214565b9060243563ffffffff81168114156102535790565b505050600080fd5b602090600319011261000f5760043561027381610214565b90565b50634e487b7160e01b600052604160045260246000fd5b604081019081106001600160401b038211176102a857604052565b6102b0610276565b604052565b606081019081106001600160401b038211176102a857604052565b601f909101601f19168101906001600160401b038211908210176102a857604052565b90604060031983011261038057600435916001600160401b036024358181116103695782602382011215610369578060040135918211610373575b60405192610346601f8401601f1916602001856102d0565b828452602483830101116103695781600092602460209301838601378301015290565b5050505050600080fd5b61037b610276565b61032e565b5050600080fd5b604090600319011261000f5760043561039f81610214565b9060243561027381610214565b604090600319011261000f576004359060243590565b6000805160206108be833981519152805490916001600160a01b03808316929133841415610423571680927f8be0079c531659141344cd1fd0a4f28419497f9722a3daafe3b4186f6b6457e06000604051a36001600160a01b031916179055565b5050505050506004604051632f7a8ee160e01b8152fd5b6000602060405161044a8161028d565b8281520152336000526000602052604060002060016040519161046c8361028d565b805483520154602082015290565b906105079161048761043a565b602081519101519160405192602084019283526040840152606083015260608252608082019082821060018060401b03831117610545575b816040528251902060bc60a08401937b0ca2ba3432b932bab69029b4b3b732b21026b2b9b9b0b3b29d05199960211b85520152603c81526104ff816102b5565b519020610552565b7f00000000000000000000000000000000000000000000000000000000000000006001600160a01b039081169116141561054057600090565b600190565b61054d610276565b6104bf565b6102739161055f916106aa565b919091610588565b6005111561057157565b50634e487b7160e01b600052602160045260246000fd5b61059181610567565b806105995750565b6105a281610567565b60018114156105ed57505060405162461bcd60e51b815260206004820152601860248201527745434453413a20696e76616c6964207369676e617475726560401b6044820152606490fd5b6105f681610567565b600281141561064657505060405162461bcd60e51b815260206004820152601f60248201527f45434453413a20696e76616c6964207369676e6174757265206c656e677468006044820152606490fd5b80610652600392610567565b1461065957565b5060405162461bcd60e51b815260206004820152602260248201527f45434453413a20696e76616c6964207369676e6174757265202773272076616c604482015261756560f01b6064820152608490fd5b9060418151146000146106d8576106d4916020820151906060604084015193015160001a906106ef565b9091565b5050600090600290565b506040513d6000823e3d90fd5b9291906fa2a8918ca85bafe22016d0b997e4df60600160ff1b0383116107695791608094939160ff602094604051948552168484015260408301526060820152600093849182805260015afa1561075c575b81516001600160a01b03811615610756579190565b50600190565b6107646106e2565b610741565b50505050600090600390565b6001600160a01b031690813b156102535763ffffffff60246000926040519485938492621cb65b60e51b845216600483015234905af180156107d1575b6107b95750565b6000906107c63d826102d0565b3d8101031261000f57565b6107d96106e2565b6107b2565b6000805160206108be833981519152546001600160a01b03929190831633141561084257821691823b1561083957602460009283604051958694859363611d2e7560e11b85521660048401525af180156107d1576107b95750565b50505050600080fd5b505050506004604051632f7a8ee160e01b8152fd5b6000805160206108be833981519152546001600160a01b03919082163314156108a85716803b15610380576000809160046040518094819363bb9fe6bf60e01b83525af180156107d1576107b95750565b5050604051632f7a8ee160e01b815260049150fdfe8a22373512790c48b83a1fe2efdd2888d4a917bcdc24d0adf63e60f671680460a36469706673582212201854a37dbb00ac55ff2adff343ecba2e45ca38d165c275d188b2f355ee449b146c6578706572696d656e74616cf564736f6c634300080c0041",
  "devdoc": {
    "kind": "dev",
    "methods": {
      "owner()": {
        "returns": {
          "_0": "conrtact owner"
        }
      },
      "transferOwnership(address)": {
        "params": {
          "account": "address of new owner"
        }
      }
    },
    "version": 1
  },
  "userdoc": {
    "kind": "user",
    "methods": {
      "owner()": {
        "notice": "get the ERC173 contract owner"
      },
      "transferOwnership(address)": {
        "notice": "transfer contract ownership to new account"
      },
      "validate(bytes32,bytes)": {
        "notice": "INameValidator "
      }
    },
    "version": 1
  },
  "storageLayout": {
    "storage": [
      {
        "astId": 15255,
        "contract": "contracts/account/modules/DefaultAuthModule.sol:DefaultAuthModule",
        "label": "registry",
        "offset": 0,
        "slot": "0",
        "type": "t_mapping(t_address,t_struct(Name)15250_storage)"
      }
    ],
    "types": {
      "t_address": {
        "encoding": "inplace",
        "label": "address",
        "numberOfBytes": "20"
      },
      "t_bytes32": {
        "encoding": "inplace",
        "label": "bytes32",
        "numberOfBytes": "32"
      },
      "t_mapping(t_address,t_struct(Name)15250_storage)": {
        "encoding": "mapping",
        "key": "t_address",
        "label": "mapping(address => struct DefaultAuthModule.Name)",
        "numberOfBytes": "32",
        "value": "t_struct(Name)15250_storage"
      },
      "t_struct(Name)15250_storage": {
        "encoding": "inplace",
        "label": "struct DefaultAuthModule.Name",
        "members": [
          {
            "astId": 15247,
            "contract": "contracts/account/modules/DefaultAuthModule.sol:DefaultAuthModule",
            "label": "nameType",
            "offset": 0,
            "slot": "0",
            "type": "t_bytes32"
          },
          {
            "astId": 15249,
            "contract": "contracts/account/modules/DefaultAuthModule.sol:DefaultAuthModule",
            "label": "name",
            "offset": 0,
            "slot": "1",
            "type": "t_bytes32"
          }
        ],
        "numberOfBytes": "64"
      }
    }
  }
}