{
  "address": "0xA08F2D2D5D98939EAc66322643737b1D356C9DAf",
  "abi": [
    {
      "inputs": [],
      "name": "Ownable__NotOwner",
      "type": "error"
    },
    {
      "inputs": [],
      "name": "Ownable__NotTransitiveOwner",
      "type": "error"
    },
    {
      "anonymous": false,
      "inputs": [
        {
          "indexed": true,
          "internalType": "bytes32",
          "name": "nameType",
          "type": "bytes32"
        },
        {
          "indexed": true,
          "internalType": "bytes32",
          "name": "name",
          "type": "bytes32"
        },
        {
          "indexed": true,
          "internalType": "address",
          "name": "account",
          "type": "address"
        }
      ],
      "name": "AccountDeployed",
      "type": "event"
    },
    {
      "anonymous": false,
      "inputs": [
        {
          "indexed": false,
          "internalType": "address",
          "name": "previousAdmin",
          "type": "address"
        },
        {
          "indexed": false,
          "internalType": "address",
          "name": "newAdmin",
          "type": "address"
        }
      ],
      "name": "AdminChanged",
      "type": "event"
    },
    {
      "anonymous": false,
      "inputs": [
        {
          "indexed": true,
          "internalType": "address",
          "name": "beacon",
          "type": "address"
        }
      ],
      "name": "BeaconUpgraded",
      "type": "event"
    },
    {
      "anonymous": false,
      "inputs": [
        {
          "indexed": false,
          "internalType": "uint8",
          "name": "version",
          "type": "uint8"
        }
      ],
      "name": "Initialized",
      "type": "event"
    },
    {
      "anonymous": false,
      "inputs": [
        {
          "indexed": true,
          "internalType": "address",
          "name": "previousOwner",
          "type": "address"
        },
        {
          "indexed": true,
          "internalType": "address",
          "name": "newOwner",
          "type": "address"
        }
      ],
      "name": "OwnershipTransferred",
      "type": "event"
    },
    {
      "anonymous": false,
      "inputs": [
        {
          "indexed": true,
          "internalType": "address",
          "name": "implementation",
          "type": "address"
        }
      ],
      "name": "Upgraded",
      "type": "event"
    },
    {
      "inputs": [
        {
          "internalType": "address",
          "name": "entrypoint",
          "type": "address"
        },
        {
          "internalType": "uint256",
          "name": "toStake",
          "type": "uint256"
        },
        {
          "internalType": "uint32",
          "name": "unstakeDelaySec",
          "type": "uint32"
        }
      ],
      "name": "addStake",
      "outputs": [],
      "stateMutability": "payable",
      "type": "function"
    },
    {
      "inputs": [
        {
          "internalType": "bytes32",
          "name": "nameType",
          "type": "bytes32"
        },
        {
          "internalType": "bytes32",
          "name": "name",
          "type": "bytes32"
        }
      ],
      "name": "deploy",
      "outputs": [
        {
          "internalType": "address",
          "name": "account",
          "type": "address"
        }
      ],
      "stateMutability": "nonpayable",
      "type": "function"
    },
    {
      "inputs": [],
      "name": "getAccountImplementation",
      "outputs": [
        {
          "internalType": "address",
          "name": "",
          "type": "address"
        }
      ],
      "stateMutability": "view",
      "type": "function"
    },
    {
      "inputs": [
        {
          "internalType": "bytes32",
          "name": "nameType",
          "type": "bytes32"
        }
      ],
      "name": "getAuthProvider",
      "outputs": [
        {
          "internalType": "address",
          "name": "",
          "type": "address"
        }
      ],
      "stateMutability": "view",
      "type": "function"
    },
    {
      "inputs": [
        {
          "internalType": "bytes32",
          "name": "nameType",
          "type": "bytes32"
        }
      ],
      "name": "getDefaultValidator",
      "outputs": [
        {
          "internalType": "address",
          "name": "",
          "type": "address"
        }
      ],
      "stateMutability": "view",
      "type": "function"
    },
    {
      "inputs": [
        {
          "internalType": "bytes32",
          "name": "nameType",
          "type": "bytes32"
        },
        {
          "internalType": "bytes32",
          "name": "name",
          "type": "bytes32"
        }
      ],
      "name": "getOwnedAccount",
      "outputs": [
        {
          "internalType": "address",
          "name": "",
          "type": "address"
        }
      ],
      "stateMutability": "view",
      "type": "function"
    },
    {
      "inputs": [
        {
          "internalType": "address",
          "name": "owner",
          "type": "address"
        }
      ],
      "name": "initialize",
      "outputs": [],
      "stateMutability": "nonpayable",
      "type": "function"
    },
    {
      "inputs": [],
      "name": "owner",
      "outputs": [
        {
          "internalType": "address",
          "name": "",
          "type": "address"
        }
      ],
      "stateMutability": "view",
      "type": "function"
    },
    {
      "inputs": [],
      "name": "proxiableUUID",
      "outputs": [
        {
          "internalType": "bytes32",
          "name": "",
          "type": "bytes32"
        }
      ],
      "stateMutability": "view",
      "type": "function"
    },
    {
      "inputs": [
        {
          "internalType": "address",
          "name": "impl",
          "type": "address"
        }
      ],
      "name": "setAccountImplementation",
      "outputs": [],
      "stateMutability": "nonpayable",
      "type": "function"
    },
    {
      "inputs": [
        {
          "internalType": "bytes32[]",
          "name": "nameTypes",
          "type": "bytes32[]"
        },
        {
          "internalType": "address[]",
          "name": "providers",
          "type": "address[]"
        },
        {
          "internalType": "address[]",
          "name": "validators",
          "type": "address[]"
        }
      ],
      "name": "setAuthProviders",
      "outputs": [],
      "stateMutability": "nonpayable",
      "type": "function"
    },
    {
      "inputs": [
        {
          "internalType": "address",
          "name": "account",
          "type": "address"
        }
      ],
      "name": "transferOwnership",
      "outputs": [],
      "stateMutability": "nonpayable",
      "type": "function"
    },
    {
      "inputs": [
        {
          "internalType": "address",
          "name": "entrypoint",
          "type": "address"
        }
      ],
      "name": "unlockStake",
      "outputs": [],
      "stateMutability": "nonpayable",
      "type": "function"
    },
    {
      "inputs": [
        {
          "internalType": "address",
          "name": "newImplementation",
          "type": "address"
        }
      ],
      "name": "upgradeTo",
      "outputs": [],
      "stateMutability": "nonpayable",
      "type": "function"
    },
    {
      "inputs": [
        {
          "internalType": "address",
          "name": "newImplementation",
          "type": "address"
        },
        {
          "internalType": "bytes",
          "name": "data",
          "type": "bytes"
        }
      ],
      "name": "upgradeToAndCall",
      "outputs": [],
      "stateMutability": "payable",
      "type": "function"
    },
    {
      "inputs": [
        {
          "internalType": "address",
          "name": "entrypoint",
          "type": "address"
        },
        {
          "internalType": "address payable",
          "name": "withdrawTo",
          "type": "address"
        }
      ],
      "name": "withdrawStake",
      "outputs": [],
      "stateMutability": "nonpayable",
      "type": "function"
    },
    {
      "stateMutability": "payable",
      "type": "receive"
    }
  ],
  "transactionHash": "0x18d82e536a1d48181f195c0dfa5901f3e0603cdede1736e57ecbbe0afc85273b",
  "args": [],
  "numDeployments": 19,
  "solcInputHash": "37bd313ca94dba139fd032180eefb4e4",
  "bytecode": "0x60a0806040523461003157306080526117559081610038823960805181818161067d015281816107ce0152610c250152f35b50600080fdfe604060808152600436101561001d575b50361561001b57600080fd5b005b600090813560e01c80627e3e3d146102ed57806309766da2146102d6578063171223dd146102b957806319cfc95f1461027a5780632878fc38146102625780633659cfe61461024b5780634a1ce599146102345780634f1ef2861461022157806352d1902d146101f657806389177d2b146101ac5780638da5cb5b146101745780639d825bc514610138578063a843338014610125578063b36f97051461010d578063c4d66de8146100f65763f2fde38b146100d9575061000f565b346100f2576100ef6100ea3661034b565b610e23565b51f35b5080fd5b50346100f2576100ef6101083661034b565b610ea3565b50346100f2576100ef61011f36610655565b90611525565b506100ef61013236610624565b916114a2565b50346100f257610170915061014c3661060b565b6000805160206116b28339815191525490519182916001600160a01b031682610326565b0390f35b50346100f25761017091506101883661060b565b6000805160206116928339815191525490519182916001600160a01b031682610326565b50346100f25761017091506101eb6101c336610366565b60009081526000805160206115d283398151915260205260409020546001600160a01b031690565b905191829182610326565b50346100f257610170915061020a3661060b565b61021261067a565b90519081529081906020820190565b506100ef61022e36610595565b90610c1b565b50346100f2576100ef6102463661034b565b611580565b50346100f2576100ef61025d3661034b565b6107c4565b50346100f2576100ef61027436610496565b91610fd0565b50346100f25761017091506101eb61029136610366565b60009081526000805160206116f283398151915260205260409020546001600160a01b031690565b50346100f25761017091506101eb6102d03661030a565b90611294565b50346100f2576100ef6102e83661034b565b611171565b50346100f25761017091506101eb6103043661030a565b906111cc565b6040906003190112610320576004359060243590565b50600080fd5b6001600160a01b03909116815260200190565b6001600160a01b038116141561032057565b60209060031901126103205760043561036381610339565b90565b60209060031901126103205760043590565b50634e487b7160e01b600052604160045260246000fd5b602081019081106001600160401b038211176103aa57604052565b6103b2610378565b604052565b606081019081106001600160401b038211176103aa57604052565b601f909101601f19168101906001600160401b038211908210176103aa57604052565b6020906001600160401b03811161040e575b60051b0190565b610416610378565b610407565b81601f8201121561048e57803591610432836103f5565b9261044060405194856103d2565b808452602092838086019260051b820101928311610483578301905b82821061046a575050505090565b838091833561047881610339565b81520191019061045c565b505050505050600080fd5b505050600080fd5b6060600319820112610564576001600160401b039160043583811161055b578260238201121561055b5780600401356104ce816103f5565b916104dc60405193846103d2565b81835260209160248385019160051b8301019186831161054e57602401905b82821061053f575050505092602435818111610535578361051e9160040161041b565b92604435918211610535576103639160040161041b565b5050505050600080fd5b813581529083019083016104fb565b5050505050505050600080fd5b50505050600080fd5b5050600080fd5b6020906001600160401b038111610588575b601f01601f19160190565b610590610378565b61057d565b906040600319830112610564576004356105ae81610339565b916024356001600160401b03811161055b578160238201121561055b578060040135906105da8261056b565b926105e860405194856103d2565b828452602483830101116105355781600092602460209301838601378301015290565b600090600319011261032057565b600091031261032057565b60609060031901126103205760043561063c81610339565b906024359060443563ffffffff811681141561055b5790565b60409060031901126103205760043561066d81610339565b9060243561036381610339565b307f00000000000000000000000000000000000000000000000000000000000000006001600160a01b031614156106bd5760008051602061163283398151915290565b5060405162461bcd60e51b815260206004820152603860248201527f555550535570677261646561626c653a206d757374206e6f742062652063616c6044820152771b1959081d1a1c9bdd59da0819195b1959d85d1958d85b1b60421b6064820152608490fd5b1561072b57565b5060405162461bcd60e51b815260206004820152602c602482015260008051602061161283398151915260448201526b19195b1959d85d1958d85b1b60a21b6064820152608490fd5b1561077b57565b5060405162461bcd60e51b815260206004820152602c602482015260008051602061161283398151915260448201526b6163746976652070726f787960a01b6064820152608490fd5b6001600160a01b037f0000000000000000000000000000000000000000000000000000000000000000811691906107fd30841415610724565b61081a600080516020611632833981519152938285541614610774565b8060008051602061169283398151915254163314156108f257604051906108408261038f565b6000825260003660208401376000805160206115f28339815191525460ff161561087257505061087091506109ff565b565b6020600491604094939451928380926352d1902d60e01b825286165afa600091816108d2575b506108bf57505050505060405162461bcd60e51b8152806108bb60048201610982565b0390fd5b610870936108cd9114610923565b610a91565b6108eb9192506108e23d826103d2565b3d810190610907565b9038610898565b505050506004604051632f7a8ee160e01b8152fd5b90816020910312610564575190565b506040513d6000823e3d90fd5b1561092a57565b5060405162461bcd60e51b815260206004820152602960248201527f45524331393637557067726164653a20756e737570706f727465642070726f786044820152681a58589b195555525160ba1b6064820152608490fd5b60809060208152602e60208201527f45524331393637557067726164653a206e657720696d706c656d656e7461746960408201526d6f6e206973206e6f74205555505360901b60608201520190565b60008051602061169283398151915280546001600160a01b0319166001600160a01b03909216919091179055565b803b15610a345760008051602061163283398151915280546001600160a01b0319166001600160a01b03909216919091179055565b505060405162461bcd60e51b815260206004820152602d60248201527f455243313936373a206e657720696d706c656d656e746174696f6e206973206e60448201526c1bdd08184818dbdb9d1c9858dd609a1b6064820152608490fd5b610a9a816109ff565b604051906000906001600160a01b0381166000805160206116728339815191528385a2835115801590610b54575b610ad3575b50505050565b8180610b4195610ae2866103b7565b602786526000805160206116d28339815191526020870152660819985a5b195960ca1b6040870152602081519101845af4903d15610b4b573d610b248161056b565b90610b3260405192836103d2565b8152809360203d92013e610d37565b5038808080610acd565b60609250610d37565b5081610ac8565b610b64816109ff565b604051906001600160a01b038116600080516020611672833981519152600084a2825115801590610c13575b610b9957505050565b600080610c0894610ba9856103b7565b602785526000805160206116d28339815191526020860152660819985a5b195960ca1b6040860152602081519101845af43d15610c0b573d91610beb8361056b565b92610bf960405194856103d2565b83523d6000602085013e610d37565b50565b606091610d37565b506001610b90565b6001600160a01b037f000000000000000000000000000000000000000000000000000000000000000081169290610c5430851415610724565b610c71600080516020611632833981519152948286541614610774565b806000805160206116928339815191525416331415610d21576000805160206115f28339815191525460ff1615610cae57505061087091506109ff565b6020600491604094939451928380926352d1902d60e01b825286165afa60009181610d0a575b50610cf757505050505060405162461bcd60e51b8152806108bb60048201610982565b61087093610d059114610923565b610b5b565b610d1a9192506108e23d826103d2565b9038610cd4565b50505050506004604051632f7a8ee160e01b8152fd5b91929015610d9b5750815115610d4b575090565b3b15610d545790565b505060405162461bcd60e51b815260206004820152601d60248201527f416464726573733a2063616c6c20746f206e6f6e2d636f6e74726163740000006044820152606490fd5b825192935091159050610db15750805190602001fd5b60405162461bcd60e51b815260206004820152915081906108bb9060248301905b91908251928382526000905b848210610e0b575092806020939411610dfe575b601f01601f1916010190565b6000838284010152610df2565b90602090818082850101519082860101520190610dde565b600080516020611692833981519152546001600160a01b0391908216338114156108f257610870928216906000805160206116528339815191526000604051a36109d1565b6108709060018060a01b03806000805160206116928339815191525416908216906000805160206116528339815191526000604051a36109d1565b6000549060ff8260081c161580928193610fc2575b8115610fa2575b5015610f4357610ee59082610edc600160ff196000541617600055565b610f2a57610e68565b610eeb57565b610efb61ff001960005416600055565b604051600181527f7f26b83ff96e1f2b6a682f133852f6798a09c465da95921460cefb384740249890602090a1565b610f3e61010061ff00196000541617600055565b610e68565b505060405162461bcd60e51b815260206004820152602e60248201527f496e697469616c697a61626c653a20636f6e747261637420697320616c72656160448201526d191e481a5b9a5d1a585b1a5e995960921b606482015260849150fd5b303b15915081610fb4575b5038610ebf565b6001915060ff161438610fad565b600160ff8216109150610eb8565b92919060018060a01b0360008051602061169283398151915254163314156108f25780518451811490816110d8575b50156110985760005b8151811015611091578061106461103261102561108c948661110a565b516001600160a01b031690565b61104561103f848a61110a565b51611137565b80546001600160a01b0319166001600160a01b03909216919091179055565b611087611074611025838761110a565b611045611081848a61110a565b51611154565b6110e3565b611008565b5050509050565b50505050606460405162461bcd60e51b81526020600482015260156024820152740c2e4e4c2f240d8cadccee8d040dad2e6dac2e8c6d605b1b6044820152fd5b905082511438610fff565b60001981146110f25760010190565b5050634e487b7160e01b600052601160045260246000fd5b805182101561111e5760209160051b010190565b505050634e487b7160e01b600052603260045260246000fd5b6000526000805160206116f2833981519152602052604060002090565b6000526000805160206115d2833981519152602052604060002090565b600080516020611692833981519152546001600160a01b039081163314156111b7576000805160206116b283398151915280546001600160a01b03191691909216179055565b5050604051632f7a8ee160e01b815260049150fd5b6111da60559260439261147e565b604051903060388301526f5af43d82803e903d91602b57fd5bf3ff6024830152306014830152733d602d80600a3d3981f3363d3d373d3d3d363d73825260588201526037600c8201206078820152012090565b1561123457565b5060405162461bcd60e51b8152602060048201526015602482015274756e737570706f72746564206e616d65207479706560581b6044820152606490fd5b6001600160a01b03909116815260406020820181905261036392910190610dd2565b9190916112aa6112a4848361147e565b306113e7565b926112c46112b783611137565b546001600160a01b031690565b916112d16112b782611154565b6001600160a01b039361132e906112eb818716151561122d565b604051630fab9b2f60e11b602082015260248101859052604481018690526001600160a01b0391821660648201529216608480840191909152825260a4826103d2565b6000805160206116b2833981519152546001600160a01b031693861693843b156113db57604051633ab4c37560e21b81529160009183918291611375919060048401611272565b038183885af180156113ce575b6113b1575b507f0b11fc65b5a0ec99b1e191f7c049204b876dbbd95b52e39723de796b9be656466000604051a4565b6113c8906113bf3d826103d2565b3d810190610619565b38611387565b6113d6610916565b611382565b50505050505050600080fd5b6e5af43d82803e903d91602b57fd5bf390763d602d80600a3d3981f3363d3d373d3d3d363d7300000062ffffff8260881c161760005260781b17602052603760096000f5906001600160a01b0382161561143d57565b505060405162461bcd60e51b8152602060048201526017602482015276115490cc4c4d8dce8818dc99585d194c8819985a5b1959604a1b6044820152606490fd5b90604051906020820192835260408201526040815261149c816103b7565b51902090565b600080516020611692833981519152546001600160a01b0391908216331415610d21571691823b1561055b57602463ffffffff916000936040519586948593621cb65b60e51b85521660048401525af18015611518575b6115005750565b60009061150d3d826103d2565b3d8101031261032057565b611520610916565b6114f9565b600080516020611692833981519152546001600160a01b0392919083163314156108f257821691823b1561055b57602460009283604051958694859363611d2e7560e11b85521660048401525af18015611518576115005750565b600080516020611692833981519152546001600160a01b03919082163314156111b75716803b15610564576000809160046040518094819363bb9fe6bf60e01b83525af1801561151857611500575056fe92d0c395413de847981fcb85f922e3893b42947ac30341ae779793d33a59a9924910fdfa16fed3260ed0e7147f7cc6da11a60208b5b9406d12a635614ffd914346756e6374696f6e206d7573742062652063616c6c6564207468726f75676820360894a13ba1a3210667c828492db98dca3e2076cc3735a920a3ca505d382bbc8be0079c531659141344cd1fd0a4f28419497f9722a3daafe3b4186f6b6457e0bc7cd75a20ee27fd9adebab32041f755214dbc6bffa90cc0225b39da2e5c2d3b8a22373512790c48b83a1fe2efdd2888d4a917bcdc24d0adf63e60f67168046092d0c395413de847981fcb85f922e3893b42947ac30341ae779793d33a59a990416464726573733a206c6f772d6c6576656c2064656c65676174652063616c6c92d0c395413de847981fcb85f922e3893b42947ac30341ae779793d33a59a991a36469706673582212208cad2547275879479e73caa9119ec2db7f3e917941e166e62b36f6a8b367a09e6c6578706572696d656e74616cf564736f6c634300080c0041",
  "devdoc": {
    "kind": "dev",
    "methods": {
      "owner()": {
        "returns": {
          "_0": "conrtact owner"
        }
      },
      "proxiableUUID()": {
        "details": "Implementation of the ERC1822 {proxiableUUID} function. This returns the storage slot used by the implementation. It is used to validate the implementation's compatibility when performing an upgrade. IMPORTANT: A proxy pointing at a proxiable contract should not be considered proxiable itself, because this risks bricking a proxy that upgrades to it, by delegating to itself until out of gas. Thus it is critical that this function revert if invoked through a proxy. This is guaranteed by the `notDelegated` modifier."
      },
      "transferOwnership(address)": {
        "params": {
          "account": "address of new owner"
        }
      },
      "upgradeTo(address)": {
        "custom:oz-upgrades-unsafe-allow-reachable": "delegatecall",
        "details": "Upgrade the implementation of the proxy to `newImplementation`. Calls {_authorizeUpgrade}. Emits an {Upgraded} event."
      },
      "upgradeToAndCall(address,bytes)": {
        "custom:oz-upgrades-unsafe-allow-reachable": "delegatecall",
        "details": "Upgrade the implementation of the proxy to `newImplementation`, and subsequently execute the function call encoded in `data`. Calls {_authorizeUpgrade}. Emits an {Upgraded} event."
      }
    },
    "version": 1
  },
  "userdoc": {
    "kind": "user",
    "methods": {
      "deploy(bytes32,bytes32)": {
        "notice": "IAccountFactory "
      },
      "getOwnedAccount(bytes32,bytes32)": {
        "notice": "IERC4972 "
      },
      "owner()": {
        "notice": "get the ERC173 contract owner"
      },
      "setAuthProviders(bytes32[],address[],address[])": {
        "notice": "Default Auth Provider "
      },
      "transferOwnership(address)": {
        "notice": "transfer contract ownership to new account"
      }
    },
    "version": 1
  },
  "storageLayout": {
    "storage": [
      {
        "astId": 1826,
        "contract": "contracts/hexlink/Hexlink.sol:Hexlink",
        "label": "_initialized",
        "offset": 0,
        "slot": "0",
        "type": "t_uint8"
      },
      {
        "astId": 1829,
        "contract": "contracts/hexlink/Hexlink.sol:Hexlink",
        "label": "_initializing",
        "offset": 1,
        "slot": "0",
        "type": "t_bool"
      }
    ],
    "types": {
      "t_bool": {
        "encoding": "inplace",
        "label": "bool",
        "numberOfBytes": "1"
      },
      "t_uint8": {
        "encoding": "inplace",
        "label": "uint8",
        "numberOfBytes": "1"
      }
    }
  }
}