{
  "address": "0xBAE9506BEE346f9D90577b9108aaa62Bd3f5dA79",
  "abi": [
    {
      "inputs": [
        {
          "internalType": "address",
          "name": "nameService_",
          "type": "address"
        },
        {
          "internalType": "address",
          "name": "authRegistry_",
          "type": "address"
        }
      ],
      "stateMutability": "nonpayable",
      "type": "constructor"
    },
    {
      "inputs": [
        {
          "internalType": "uint256",
          "name": "current",
          "type": "uint256"
        },
        {
          "internalType": "uint256",
          "name": "next",
          "type": "uint256"
        }
      ],
      "name": "InvalidAccountVersion",
      "type": "error"
    },
    {
      "inputs": [
        {
          "internalType": "uint256",
          "name": "start",
          "type": "uint256"
        },
        {
          "internalType": "uint256",
          "name": "end",
          "type": "uint256"
        }
      ],
      "name": "InvalidVersionRange",
      "type": "error"
    },
    {
      "inputs": [],
      "name": "Ownable__NotOwner",
      "type": "error"
    },
    {
      "inputs": [],
      "name": "Ownable__NotTransitiveOwner",
      "type": "error"
    },
    {
      "anonymous": false,
      "inputs": [
        {
          "indexed": true,
          "internalType": "bytes32",
          "name": "name",
          "type": "bytes32"
        },
        {
          "indexed": true,
          "internalType": "address",
          "name": "account",
          "type": "address"
        }
      ],
      "name": "AccountDeployed",
      "type": "event"
    },
    {
      "anonymous": false,
      "inputs": [
        {
          "indexed": false,
          "internalType": "address",
          "name": "previousAdmin",
          "type": "address"
        },
        {
          "indexed": false,
          "internalType": "address",
          "name": "newAdmin",
          "type": "address"
        }
      ],
      "name": "AdminChanged",
      "type": "event"
    },
    {
      "anonymous": false,
      "inputs": [
        {
          "indexed": true,
          "internalType": "address",
          "name": "beacon",
          "type": "address"
        }
      ],
      "name": "BeaconUpgraded",
      "type": "event"
    },
    {
      "anonymous": false,
      "inputs": [
        {
          "indexed": false,
          "internalType": "uint8",
          "name": "version",
          "type": "uint8"
        }
      ],
      "name": "Initialized",
      "type": "event"
    },
    {
      "anonymous": false,
      "inputs": [
        {
          "indexed": true,
          "internalType": "address",
          "name": "previousOwner",
          "type": "address"
        },
        {
          "indexed": true,
          "internalType": "address",
          "name": "newOwner",
          "type": "address"
        }
      ],
      "name": "OwnershipTransferred",
      "type": "event"
    },
    {
      "anonymous": false,
      "inputs": [
        {
          "indexed": true,
          "internalType": "address",
          "name": "implementation",
          "type": "address"
        }
      ],
      "name": "Upgraded",
      "type": "event"
    },
    {
      "inputs": [
        {
          "internalType": "address",
          "name": "entrypoint",
          "type": "address"
        },
        {
          "internalType": "uint256",
          "name": "toStake",
          "type": "uint256"
        },
        {
          "internalType": "uint32",
          "name": "unstakeDelaySec",
          "type": "uint32"
        }
      ],
      "name": "addStake",
      "outputs": [],
      "stateMutability": "payable",
      "type": "function"
    },
    {
      "inputs": [
        {
          "internalType": "bytes32",
          "name": "name",
          "type": "bytes32"
        }
      ],
      "name": "deploy",
      "outputs": [
        {
          "internalType": "address",
          "name": "account",
          "type": "address"
        }
      ],
      "stateMutability": "nonpayable",
      "type": "function"
    },
    {
      "inputs": [],
      "name": "getAccountImplementation",
      "outputs": [
        {
          "internalType": "address",
          "name": "",
          "type": "address"
        }
      ],
      "stateMutability": "view",
      "type": "function"
    },
    {
      "inputs": [
        {
          "internalType": "uint256",
          "name": "start",
          "type": "uint256"
        },
        {
          "internalType": "uint256",
          "name": "end",
          "type": "uint256"
        }
      ],
      "name": "getAccountImplementations",
      "outputs": [
        {
          "internalType": "address[]",
          "name": "",
          "type": "address[]"
        }
      ],
      "stateMutability": "view",
      "type": "function"
    },
    {
      "inputs": [],
      "name": "getAuthRegistry",
      "outputs": [
        {
          "internalType": "contract IAuthRegistry",
          "name": "",
          "type": "address"
        }
      ],
      "stateMutability": "view",
      "type": "function"
    },
    {
      "inputs": [],
      "name": "getNameService",
      "outputs": [
        {
          "internalType": "contract INameService",
          "name": "",
          "type": "address"
        }
      ],
      "stateMutability": "view",
      "type": "function"
    },
    {
      "inputs": [
        {
          "internalType": "bytes32",
          "name": "name",
          "type": "bytes32"
        }
      ],
      "name": "getOwnedAccount",
      "outputs": [
        {
          "internalType": "address",
          "name": "",
          "type": "address"
        }
      ],
      "stateMutability": "view",
      "type": "function"
    },
    {
      "inputs": [],
      "name": "implementation",
      "outputs": [
        {
          "internalType": "address",
          "name": "",
          "type": "address"
        }
      ],
      "stateMutability": "view",
      "type": "function"
    },
    {
      "inputs": [
        {
          "internalType": "address",
          "name": "owner",
          "type": "address"
        },
        {
          "internalType": "address",
          "name": "accountImpl",
          "type": "address"
        }
      ],
      "name": "initialize",
      "outputs": [],
      "stateMutability": "nonpayable",
      "type": "function"
    },
    {
      "inputs": [],
      "name": "owner",
      "outputs": [
        {
          "internalType": "address",
          "name": "",
          "type": "address"
        }
      ],
      "stateMutability": "view",
      "type": "function"
    },
    {
      "inputs": [],
      "name": "proxiableUUID",
      "outputs": [
        {
          "internalType": "bytes32",
          "name": "",
          "type": "bytes32"
        }
      ],
      "stateMutability": "view",
      "type": "function"
    },
    {
      "inputs": [
        {
          "internalType": "address",
          "name": "impl",
          "type": "address"
        }
      ],
      "name": "setAccountImplementation",
      "outputs": [],
      "stateMutability": "nonpayable",
      "type": "function"
    },
    {
      "inputs": [
        {
          "internalType": "address",
          "name": "account",
          "type": "address"
        }
      ],
      "name": "transferOwnership",
      "outputs": [],
      "stateMutability": "nonpayable",
      "type": "function"
    },
    {
      "inputs": [
        {
          "internalType": "address",
          "name": "entrypoint",
          "type": "address"
        }
      ],
      "name": "unlockStake",
      "outputs": [],
      "stateMutability": "nonpayable",
      "type": "function"
    },
    {
      "inputs": [
        {
          "internalType": "address",
          "name": "newImplementation",
          "type": "address"
        }
      ],
      "name": "upgradeTo",
      "outputs": [],
      "stateMutability": "nonpayable",
      "type": "function"
    },
    {
      "inputs": [
        {
          "internalType": "address",
          "name": "newImplementation",
          "type": "address"
        },
        {
          "internalType": "bytes",
          "name": "data",
          "type": "bytes"
        }
      ],
      "name": "upgradeToAndCall",
      "outputs": [],
      "stateMutability": "payable",
      "type": "function"
    },
    {
      "inputs": [
        {
          "internalType": "address",
          "name": "entrypoint",
          "type": "address"
        },
        {
          "internalType": "address payable",
          "name": "withdrawTo",
          "type": "address"
        }
      ],
      "name": "withdrawStake",
      "outputs": [],
      "stateMutability": "nonpayable",
      "type": "function"
    },
    {
      "stateMutability": "payable",
      "type": "receive"
    }
  ],
  "transactionHash": "0xe0b08b2072ed819ddef5e245a1f21b40cb8027154c838c88d939795b804ab617",
  "args": [
    "0x0DEcEd0592b239d23Cc93b94a341f8e1bd0128a3",
    "0x0D0F0A9282e7126642683b51788652159470B743"
  ],
  "numDeployments": 5,
  "solcInputHash": "cffe5083de3c9b1f36dcc9ed41f5c25b",
  "bytecode": "0x60e080604052346100b157601f61182838819003918201601f19168301916001600160401b038311848410176100b75780849260409485528339810103126100b1578061005a6020610053610072946100d1565b92016100d1565b306080526001600160a01b0391821660a0521660c052565b60405161173a90816100ee82396080518181816105f0015281816107410152610b98015260a05181818161011a01526112b6015260c051816101f20152f35b50600080fd5b50505050634e487b7160e01b600052604160045260246000fd5b51906001600160a01b0382168214156100e657565b5050600080fdfe604060808152600436101561001d575b50361561001b57600080fd5b005b600090813560e01c8063094099301461036d57806309766da2146103565780632b85ba381461033a5780633659cfe614610323578063485cc9551461030b5780634a1ce599146102f45780634f1ef286146102e157806352d1902d146102b65780635c60da1b1461027e5780638da5cb5b146102465780639d825bc51461022a578063a843338014610217578063b2e242ad146101da578063b36f9705146101c2578063cd2a3aac14610148578063ced73bf3146101025763f2fde38b146100e5575061000f565b346100fe576100fb6100f636610407565b610d96565b51f35b5080fd5b5090346101435750610113366105a3565b518061013f7f000000000000000000000000000000000000000000000000000000000000000082610434565b0390f35b809150fd5b50346100fe5761013f91506101b761015f36610422565b6043605591604051903060388301526f5af43d82803e903d91602b57fd5bf3ff6024830152306014830152733d602d80600a3d3981f3363d3d373d3d3d363d73825260588201526037600c8201206078820152012090565b905191829182610434565b50346100fe576100fb6101d436610447565b90611515565b50903461014357506101eb366105a3565b518061013f7f000000000000000000000000000000000000000000000000000000000000000082610434565b506100fb610224366105bc565b91611492565b50346100fe5761013f915061023e366105a3565b6101b7610f69565b50346100fe5761013f915061025a366105a3565b6000805160206116b78339815191525490519182916001600160a01b031682610434565b50346100fe5761013f9150610292366105a3565b6000805160206116578339815191525490519182916001600160a01b031682610434565b50346100fe5761013f91506102ca366105a3565b6102d26105ed565b90519081529081906020820190565b506100fb6102ee36610513565b90610b8e565b50346100fe576100fb61030636610407565b611570565b50346100fe576100fb61031d36610447565b90610ddb565b50346100fe576100fb61033536610407565b610737565b50346100fe5761013f91506101b761035136610422565b611283565b50346100fe576100fb61036836610407565b610fa1565b50346100fe5761013f915061038a61038436610395565b90611145565b9051918291826103b1565b60409060031901126103ab576004359060243590565b50600080fd5b6020908160408183019282815285518094520193019160005b8281106103d8575050505090565b83516001600160a01b0316855293810193928101926001016103ca565b6001600160a01b03811614156103ab57565b60209060031901126103ab5760043561041f816103f5565b90565b60209060031901126103ab5760043590565b6001600160a01b03909116815260200190565b60409060031901126103ab5760043561045f816103f5565b9060243561041f816103f5565b50634e487b7160e01b600052604160045260246000fd5b602081019081106001600160401b0382111761049e57604052565b6104a661046c565b604052565b606081019081106001600160401b0382111761049e57604052565b601f909101601f19168101906001600160401b0382119082101761049e57604052565b6020906001600160401b038111610506575b601f01601f19160190565b61050e61046c565b6104fb565b90604060031983011261059c5760043561052c816103f5565b916024356001600160401b038111610593578160238201121561059357806004013590610558826104e9565b9261056660405194856104c6565b828452602483830101116105895781600092602460209301838601378301015290565b5050505050600080fd5b50505050600080fd5b5050600080fd5b60009060031901126103ab57565b60009103126103ab57565b60609060031901126103ab576004356105d4816103f5565b906024359060443563ffffffff81168114156105935790565b307f00000000000000000000000000000000000000000000000000000000000000006001600160a01b031614156106305760008051602061165783398151915290565b5060405162461bcd60e51b815260206004820152603860248201527f555550535570677261646561626c653a206d757374206e6f742062652063616c6044820152771b1959081d1a1c9bdd59da0819195b1959d85d1958d85b1b60421b6064820152608490fd5b1561069e57565b5060405162461bcd60e51b815260206004820152602c602482015260008051602061163783398151915260448201526b19195b1959d85d1958d85b1b60a21b6064820152608490fd5b156106ee57565b5060405162461bcd60e51b815260206004820152602c602482015260008051602061163783398151915260448201526b6163746976652070726f787960a01b6064820152608490fd5b6001600160a01b037f00000000000000000000000000000000000000000000000000000000000000008116919061077030841415610697565b61078d6000805160206116578339815191529382855416146106e7565b806000805160206116b7833981519152541633141561086557604051906107b382610483565b6000825260003660208401376000805160206115f78339815191525460ff16156107e55750506107e39150610972565b565b6020600491604094939451928380926352d1902d60e01b825286165afa60009181610845575b5061083257505050505060405162461bcd60e51b81528061082e600482016108f5565b0390fd5b6107e3936108409114610896565b610a04565b61085e9192506108553d826104c6565b3d81019061087a565b903861080b565b505050506004604051632f7a8ee160e01b8152fd5b9081602091031261059c575190565b506040513d6000823e3d90fd5b1561089d57565b5060405162461bcd60e51b815260206004820152602960248201527f45524331393637557067726164653a20756e737570706f727465642070726f786044820152681a58589b195555525160ba1b6064820152608490fd5b60809060208152602e60208201527f45524331393637557067726164653a206e657720696d706c656d656e7461746960408201526d6f6e206973206e6f74205555505360901b60608201520190565b6000805160206116b783398151915280546001600160a01b0319166001600160a01b03909216919091179055565b803b156109a75760008051602061165783398151915280546001600160a01b0319166001600160a01b03909216919091179055565b505060405162461bcd60e51b815260206004820152602d60248201527f455243313936373a206e657720696d706c656d656e746174696f6e206973206e60448201526c1bdd08184818dbdb9d1c9858dd609a1b6064820152608490fd5b610a0d81610972565b604051906000906001600160a01b0381166000805160206116978339815191528385a2835115801590610ac7575b610a46575b50505050565b8180610ab495610a55866104ab565b602786526000805160206116d78339815191526020870152660819985a5b195960ca1b6040870152602081519101845af4903d15610abe573d610a97816104e9565b90610aa560405192836104c6565b8152809360203d92013e610caa565b5038808080610a40565b60609250610caa565b5081610a3b565b610ad781610972565b604051906001600160a01b038116600080516020611697833981519152600084a2825115801590610b86575b610b0c57505050565b600080610b7b94610b1c856104ab565b602785526000805160206116d78339815191526020860152660819985a5b195960ca1b6040860152602081519101845af43d15610b7e573d91610b5e836104e9565b92610b6c60405194856104c6565b83523d6000602085013e610caa565b50565b606091610caa565b506001610b03565b6001600160a01b037f000000000000000000000000000000000000000000000000000000000000000081169290610bc730851415610697565b610be46000805160206116578339815191529482865416146106e7565b806000805160206116b78339815191525416331415610c94576000805160206115f78339815191525460ff1615610c215750506107e39150610972565b6020600491604094939451928380926352d1902d60e01b825286165afa60009181610c7d575b50610c6a57505050505060405162461bcd60e51b81528061082e600482016108f5565b6107e393610c789114610896565b610ace565b610c8d9192506108553d826104c6565b9038610c47565b50505050506004604051632f7a8ee160e01b8152fd5b91929015610d0e5750815115610cbe575090565b3b15610cc75790565b505060405162461bcd60e51b815260206004820152601d60248201527f416464726573733a2063616c6c20746f206e6f6e2d636f6e74726163740000006044820152606490fd5b825192935091159050610d245750805190602001fd5b60405162461bcd60e51b8152602060048201529150819061082e9060248301905b91908251928382526000905b848210610d7e575092806020939411610d71575b601f01601f1916010190565b6000838284010152610d65565b90602090818082850101519082860101520190610d51565b6000805160206116b7833981519152546001600160a01b039190821633811415610865576107e3928216906000805160206116778339815191526000604051a3610944565b6000549160ff8360081c161580938194610efa575b8115610eda575b5015610e7b57610e1d9183610e14600160ff196000541617600055565b610e6257610f08565b610e2357565b610e3361ff001960005416600055565b604051600181527f7f26b83ff96e1f2b6a682f133852f6798a09c465da95921460cefb384740249890602090a1565b610e7661010061ff00196000541617600055565b610f08565b50505050608460405162461bcd60e51b815260206004820152602e60248201527f496e697469616c697a61626c653a20636f6e747261637420697320616c72656160448201526d191e481a5b9a5d1a585b1a5e995960921b6064820152fd5b303b15915081610eec575b5038610df7565b6001915060ff161438610ee5565b600160ff8216109150610df0565b90610f476107e39260018060a01b03806000805160206116b78339815191525416908216906000805160206116778339815191526000604051a3610944565b611011565b600052600080516020611617833981519152602052604060002090565b6000805160206115d783398151915254600090815260008051602061161783398151915260205260409020546001600160a01b031690565b6000805160206116b7833981519152546001600160a01b0316331415610fca576107e390611011565b5050604051632f7a8ee160e01b8152600490fd5b50634e487b7160e01b600052601160045260246000fd5b6001906001198111611005570190565b61100d610fde565b0190565b60405163054fd4d560e41b8152906001600160a01b0316602082600481845afa9182156110be575b6000926110a7575b506000805160206115d783398151915290815461105d81610ff5565b841415611082575061106e83610f4c565b80546001600160a01b031916909117905555565b60405163d2b6280160e01b815260048101919091526024810193909352506044925050fd5b6110b79192506108553d826104c6565b9038611041565b6110c6610889565b611039565b8181106110d6570390565b6110de610fde565b0390565b6020906001600160401b0381116110fb575b60051b0190565b61110361046c565b6110f4565b6001906000198114611005570190565b805182101561112c5760209160051b010190565b505050634e487b7160e01b600052603260045260246000fd5b906000805160206115d783398151915254818311908115611241575b8115611237575b506112175781811061120a575b611180828203610ff5565b9161118a836110e2565b9261119860405194856104c6565b8084526111a7601f19916110e2565b01366020850137805b828111156111be5750505090565b806112006111de6111d161120594610f4c565b546001600160a01b031690565b6111f16111eb86856110cb565b88611118565b6001600160a01b039091169052565b611108565b6111b0565b611212610fde565b611175565b60405163926c7b0760e01b81526004810192909252602482015260449150fd5b9050811138611168565b600184109150611161565b9081602091031261059c575161041f816103f5565b6001600160a01b03909116815260406020820181905261041f92910190610d45565b9061128e82306113fb565b6040516317de2f1f60e01b815290926001600160a01b039161131b90611329906020816004817f000000000000000000000000000000000000000000000000000000000000000089165afa9081156113ee575b6000916113d0575b50604051631a4438cd60e21b6020820152602481018590526001600160a01b0390911660448201529182906064820190565b03601f1981018352826104c6565b611331610f69565b92851692833b156113c557604051633ab4c37560e21b8152916000918391829161135f919060048401611261565b038183875af180156113b8575b61139b575b507fc8c3d9202a1e1a55d43501eb20e9521386e5a89e7c02c0aa6b2a638068ae91cf6000604051a3565b6113b2906113a93d826104c6565b3d8101906105b1565b38611371565b6113c0610889565b61136c565b505050505050600080fd5b6113e891506113df3d826104c6565b3d81019061124c565b386112e9565b6113f6610889565b6112e1565b6e5af43d82803e903d91602b57fd5bf390763d602d80600a3d3981f3363d3d373d3d3d363d7300000062ffffff8260881c161760005260781b17602052603760096000f5906001600160a01b0382161561145157565b505060405162461bcd60e51b8152602060048201526017602482015276115490cc4c4d8dce8818dc99585d194c8819985a5b1959604a1b6044820152606490fd5b6000805160206116b7833981519152546001600160a01b0391908216331415610c94571691823b1561059357602463ffffffff916000936040519586948593621cb65b60e51b85521660048401525af18015611508575b6114f05750565b6000906114fd3d826104c6565b3d810103126103ab57565b611510610889565b6114e9565b6000805160206116b7833981519152546001600160a01b03929190831633141561086557821691823b1561059357602460009283604051958694859363611d2e7560e11b85521660048401525af18015611508576114f05750565b6000805160206116b7833981519152546001600160a01b03919082163314156115c15716803b1561059c576000809160046040518094819363bb9fe6bf60e01b83525af18015611508576114f05750565b5050604051632f7a8ee160e01b815260049150fdfeb9ffa4138287e6acfa2fa3141aee3b9527c60260c5ffbb6d773a508b43bd0bbc4910fdfa16fed3260ed0e7147f7cc6da11a60208b5b9406d12a635614ffd9143b9ffa4138287e6acfa2fa3141aee3b9527c60260c5ffbb6d773a508b43bd0bbb46756e6374696f6e206d7573742062652063616c6c6564207468726f75676820360894a13ba1a3210667c828492db98dca3e2076cc3735a920a3ca505d382bbc8be0079c531659141344cd1fd0a4f28419497f9722a3daafe3b4186f6b6457e0bc7cd75a20ee27fd9adebab32041f755214dbc6bffa90cc0225b39da2e5c2d3b8a22373512790c48b83a1fe2efdd2888d4a917bcdc24d0adf63e60f671680460416464726573733a206c6f772d6c6576656c2064656c65676174652063616c6ca364697066735822122077e28665dc278b418d900c8d7ce621e220a9e772c68beaf9910fca5151e8424f6c6578706572696d656e74616cf564736f6c634300080c0041",
  "devdoc": {
    "kind": "dev",
    "methods": {
      "owner()": {
        "returns": {
          "_0": "conrtact owner"
        }
      },
      "proxiableUUID()": {
        "details": "Implementation of the ERC1822 {proxiableUUID} function. This returns the storage slot used by the implementation. It is used to validate the implementation's compatibility when performing an upgrade. IMPORTANT: A proxy pointing at a proxiable contract should not be considered proxiable itself, because this risks bricking a proxy that upgrades to it, by delegating to itself until out of gas. Thus it is critical that this function revert if invoked through a proxy. This is guaranteed by the `notDelegated` modifier."
      },
      "transferOwnership(address)": {
        "params": {
          "account": "address of new owner"
        }
      },
      "upgradeTo(address)": {
        "custom:oz-upgrades-unsafe-allow-reachable": "delegatecall",
        "details": "Upgrade the implementation of the proxy to `newImplementation`. Calls {_authorizeUpgrade}. Emits an {Upgraded} event."
      },
      "upgradeToAndCall(address,bytes)": {
        "custom:oz-upgrades-unsafe-allow-reachable": "delegatecall",
        "details": "Upgrade the implementation of the proxy to `newImplementation`, and subsequently execute the function call encoded in `data`. Calls {_authorizeUpgrade}. Emits an {Upgraded} event."
      }
    },
    "version": 1
  },
  "userdoc": {
    "kind": "user",
    "methods": {
      "deploy(bytes32)": {
        "notice": "IAccountFactory "
      },
      "getAccountImplementation()": {
        "notice": "IAccountFactory "
      },
      "getOwnedAccount(bytes32)": {
        "notice": "IERC4972Registry "
      },
      "implementation()": {
        "notice": "UUPSUpgradeable "
      },
      "owner()": {
        "notice": "get the ERC173 contract owner"
      },
      "transferOwnership(address)": {
        "notice": "transfer contract ownership to new account"
      }
    },
    "version": 1
  },
  "storageLayout": {
    "storage": [
      {
        "astId": 1013,
        "contract": "contracts/hexlink/Hexlink.sol:Hexlink",
        "label": "_initialized",
        "offset": 0,
        "slot": "0",
        "type": "t_uint8"
      },
      {
        "astId": 1016,
        "contract": "contracts/hexlink/Hexlink.sol:Hexlink",
        "label": "_initializing",
        "offset": 1,
        "slot": "0",
        "type": "t_bool"
      }
    ],
    "types": {
      "t_bool": {
        "encoding": "inplace",
        "label": "bool",
        "numberOfBytes": "1"
      },
      "t_uint8": {
        "encoding": "inplace",
        "label": "uint8",
        "numberOfBytes": "1"
      }
    }
  }
}