{
  "address": "0x001e9684c2E9986EEC686915A288247ABe23eCd2",
  "abi": [
    {
      "inputs": [
        {
          "internalType": "address",
          "name": "accountBase_",
          "type": "address"
        },
        {
          "internalType": "address",
          "name": "authModule_",
          "type": "address"
        }
      ],
      "stateMutability": "nonpayable",
      "type": "constructor"
    },
    {
      "inputs": [],
      "name": "Ownable__NotOwner",
      "type": "error"
    },
    {
      "inputs": [],
      "name": "Ownable__NotTransitiveOwner",
      "type": "error"
    },
    {
      "anonymous": false,
      "inputs": [
        {
          "indexed": false,
          "internalType": "address",
          "name": "previousAdmin",
          "type": "address"
        },
        {
          "indexed": false,
          "internalType": "address",
          "name": "newAdmin",
          "type": "address"
        }
      ],
      "name": "AdminChanged",
      "type": "event"
    },
    {
      "anonymous": false,
      "inputs": [
        {
          "indexed": true,
          "internalType": "address",
          "name": "beacon",
          "type": "address"
        }
      ],
      "name": "BeaconUpgraded",
      "type": "event"
    },
    {
      "anonymous": false,
      "inputs": [
        {
          "indexed": true,
          "internalType": "bytes32",
          "name": "nameType",
          "type": "bytes32"
        },
        {
          "indexed": true,
          "internalType": "bytes32",
          "name": "name",
          "type": "bytes32"
        },
        {
          "indexed": true,
          "internalType": "address",
          "name": "account",
          "type": "address"
        }
      ],
      "name": "Deployed",
      "type": "event"
    },
    {
      "anonymous": false,
      "inputs": [
        {
          "indexed": false,
          "internalType": "uint8",
          "name": "version",
          "type": "uint8"
        }
      ],
      "name": "Initialized",
      "type": "event"
    },
    {
      "anonymous": false,
      "inputs": [
        {
          "indexed": true,
          "internalType": "address",
          "name": "previousOwner",
          "type": "address"
        },
        {
          "indexed": true,
          "internalType": "address",
          "name": "newOwner",
          "type": "address"
        }
      ],
      "name": "OwnershipTransferred",
      "type": "event"
    },
    {
      "anonymous": false,
      "inputs": [
        {
          "indexed": true,
          "internalType": "address",
          "name": "implementation",
          "type": "address"
        }
      ],
      "name": "Upgraded",
      "type": "event"
    },
    {
      "inputs": [],
      "name": "accountBase",
      "outputs": [
        {
          "internalType": "address",
          "name": "",
          "type": "address"
        }
      ],
      "stateMutability": "view",
      "type": "function"
    },
    {
      "inputs": [
        {
          "internalType": "address",
          "name": "entrypoint",
          "type": "address"
        },
        {
          "internalType": "uint256",
          "name": "toStake",
          "type": "uint256"
        },
        {
          "internalType": "uint32",
          "name": "unstakeDelaySec",
          "type": "uint32"
        }
      ],
      "name": "addStake",
      "outputs": [],
      "stateMutability": "payable",
      "type": "function"
    },
    {
      "inputs": [],
      "name": "defaultAuthModule",
      "outputs": [
        {
          "internalType": "address",
          "name": "",
          "type": "address"
        }
      ],
      "stateMutability": "view",
      "type": "function"
    },
    {
      "inputs": [
        {
          "internalType": "bytes32",
          "name": "nameType",
          "type": "bytes32"
        },
        {
          "internalType": "bytes32",
          "name": "name",
          "type": "bytes32"
        }
      ],
      "name": "deploy",
      "outputs": [
        {
          "internalType": "address",
          "name": "account",
          "type": "address"
        }
      ],
      "stateMutability": "nonpayable",
      "type": "function"
    },
    {
      "inputs": [
        {
          "internalType": "address",
          "name": "owner",
          "type": "address"
        }
      ],
      "name": "initialize",
      "outputs": [],
      "stateMutability": "nonpayable",
      "type": "function"
    },
    {
      "inputs": [
        {
          "internalType": "bytes32",
          "name": "nameType",
          "type": "bytes32"
        },
        {
          "internalType": "bytes32",
          "name": "name",
          "type": "bytes32"
        }
      ],
      "name": "ownedAccount",
      "outputs": [
        {
          "internalType": "address",
          "name": "",
          "type": "address"
        }
      ],
      "stateMutability": "view",
      "type": "function"
    },
    {
      "inputs": [],
      "name": "owner",
      "outputs": [
        {
          "internalType": "address",
          "name": "",
          "type": "address"
        }
      ],
      "stateMutability": "view",
      "type": "function"
    },
    {
      "inputs": [],
      "name": "proxiableUUID",
      "outputs": [
        {
          "internalType": "bytes32",
          "name": "",
          "type": "bytes32"
        }
      ],
      "stateMutability": "view",
      "type": "function"
    },
    {
      "inputs": [
        {
          "internalType": "address",
          "name": "account",
          "type": "address"
        }
      ],
      "name": "transferOwnership",
      "outputs": [],
      "stateMutability": "nonpayable",
      "type": "function"
    },
    {
      "inputs": [
        {
          "internalType": "address",
          "name": "entrypoint",
          "type": "address"
        }
      ],
      "name": "unlockStake",
      "outputs": [],
      "stateMutability": "nonpayable",
      "type": "function"
    },
    {
      "inputs": [
        {
          "internalType": "address",
          "name": "newImplementation",
          "type": "address"
        }
      ],
      "name": "upgradeTo",
      "outputs": [],
      "stateMutability": "nonpayable",
      "type": "function"
    },
    {
      "inputs": [
        {
          "internalType": "address",
          "name": "newImplementation",
          "type": "address"
        },
        {
          "internalType": "bytes",
          "name": "data",
          "type": "bytes"
        }
      ],
      "name": "upgradeToAndCall",
      "outputs": [],
      "stateMutability": "payable",
      "type": "function"
    },
    {
      "inputs": [
        {
          "internalType": "address",
          "name": "entrypoint",
          "type": "address"
        },
        {
          "internalType": "address payable",
          "name": "withdrawTo",
          "type": "address"
        }
      ],
      "name": "withdrawStake",
      "outputs": [],
      "stateMutability": "nonpayable",
      "type": "function"
    },
    {
      "stateMutability": "payable",
      "type": "receive"
    }
  ],
  "transactionHash": "0xe9974149ce438ae67ede7d89fc841057453b1e026a203d1bc797484a9147ea78",
  "args": [
    "0x508A264102b3D22d5815A3Bc9D74F6B0B1d5B30e",
    "0x507c0affbd09bf50de324898b1ce4eee993e2311"
  ],
  "numDeployments": 16,
  "solcInputHash": "52d933e1ca262b6132608b2a543fe046",
  "bytecode": "0x60e080604052346100ac57601f6113ca38819003918201601f19168301916001600160401b038311848410176100b25780849260409485528339810103126100ac578061005a6020610053610067946100cc565b92016100cc565b903060805260a05260c052565b6040516112e190816100e98239608051818181610489015281816105da0152610a31015260a05181818160ee0152610f23015260c05181818161019e0152610ec40152f35b50600080fd5b50505050634e487b7160e01b600052604160045260246000fd5b51906001600160a01b0382168214156100e157565b5050600080fdfe604060808152600436101561001d575b50361561001b57600080fd5b005b600090813560e01c8063171223dd146102675780633659cfe6146102505780634a1ce599146102395780634f1ef2861461022657806352d1902d146101fb5780638da5cb5b146101c357806399df0d1214610186578063a843338014610173578063ace9f2fc1461014b578063b36f970514610133578063c4d66de81461011c578063cd6a84b3146100d65763f2fde38b146100b9575061000f565b346100d2576100cf6100ca366102c5565b610c2f565b51f35b5080fd5b50903461011757506100e736610417565b51806101137f0000000000000000000000000000000000000000000000000000000000000000826102a0565b0390f35b809150fd5b50346100d2576100cf61012e366102c5565b610caf565b50346100d2576100cf61014536610461565b906110fc565b50346100d257610113915061016861016236610284565b90610ddc565b9051918291826102a0565b506100cf61018036610430565b91611079565b509034610117575061019736610417565b51806101137f0000000000000000000000000000000000000000000000000000000000000000826102a0565b50346100d25761011391506101d736610417565b60008051602061125e8339815191525490519182916001600160a01b0316826102a0565b50346100d257610113915061020f36610417565b610217610486565b90519081529081906020820190565b506100cf61023336610387565b90610a27565b50346100d2576100cf61024b366102c5565b611157565b50346100d2576100cf610262366102c5565b6105d0565b50346100d257610113915061016861027e36610284565b90610e5f565b604090600319011261029a576004359060243590565b50600080fd5b6001600160a01b03909116815260200190565b6001600160a01b038116141561029a57565b602090600319011261029a576004356102dd816102b3565b90565b50634e487b7160e01b600052604160045260246000fd5b602081019081106001600160401b0382111761031257604052565b61031a6102e0565b604052565b606081019081106001600160401b0382111761031257604052565b601f909101601f19168101906001600160401b0382119082101761031257604052565b6020906001600160401b03811161037a575b601f01601f19160190565b6103826102e0565b61036f565b906040600319830112610410576004356103a0816102b3565b916024356001600160401b0381116104075781602382011215610407578060040135906103cc8261035d565b926103da604051948561033a565b828452602483830101116103fd5781600092602460209301838601378301015290565b5050505050600080fd5b50505050600080fd5b5050600080fd5b600090600319011261029a57565b600091031261029a57565b606090600319011261029a57600435610448816102b3565b906024359060443563ffffffff81168114156104075790565b604090600319011261029a57600435610479816102b3565b906024356102dd816102b3565b307f00000000000000000000000000000000000000000000000000000000000000006001600160a01b031614156104c9576000805160206111fe83398151915290565b5060405162461bcd60e51b815260206004820152603860248201527f555550535570677261646561626c653a206d757374206e6f742062652063616c6044820152771b1959081d1a1c9bdd59da0819195b1959d85d1958d85b1b60421b6064820152608490fd5b1561053757565b5060405162461bcd60e51b815260206004820152602c60248201526000805160206111de83398151915260448201526b19195b1959d85d1958d85b1b60a21b6064820152608490fd5b1561058757565b5060405162461bcd60e51b815260206004820152602c60248201526000805160206111de83398151915260448201526b6163746976652070726f787960a01b6064820152608490fd5b6001600160a01b037f00000000000000000000000000000000000000000000000000000000000000008116919061060930841415610530565b6106266000805160206111fe833981519152938285541614610580565b8060008051602061125e83398151915254163314156106fe576040519061064c826102f7565b6000825260003660208401376000805160206111be8339815191525460ff161561067e57505061067c915061080b565b565b6020600491604094939451928380926352d1902d60e01b825286165afa600091816106de575b506106cb57505050505060405162461bcd60e51b8152806106c76004820161078e565b0390fd5b61067c936106d9911461072f565b61089d565b6106f79192506106ee3d8261033a565b3d810190610713565b90386106a4565b505050506004604051632f7a8ee160e01b8152fd5b90816020910312610410575190565b506040513d6000823e3d90fd5b1561073657565b5060405162461bcd60e51b815260206004820152602960248201527f45524331393637557067726164653a20756e737570706f727465642070726f786044820152681a58589b195555525160ba1b6064820152608490fd5b60809060208152602e60208201527f45524331393637557067726164653a206e657720696d706c656d656e7461746960408201526d6f6e206973206e6f74205555505360901b60608201520190565b60008051602061125e83398151915280546001600160a01b0319166001600160a01b03909216919091179055565b803b15610840576000805160206111fe83398151915280546001600160a01b0319166001600160a01b03909216919091179055565b505060405162461bcd60e51b815260206004820152602d60248201527f455243313936373a206e657720696d706c656d656e746174696f6e206973206e60448201526c1bdd08184818dbdb9d1c9858dd609a1b6064820152608490fd5b6108a68161080b565b604051906000906001600160a01b03811660008051602061123e8339815191528385a2835115801590610960575b6108df575b50505050565b818061094d956108ee8661031f565b6027865260008051602061127e8339815191526020870152660819985a5b195960ca1b6040870152602081519101845af4903d15610957573d6109308161035d565b9061093e604051928361033a565b8152809360203d92013e610b43565b50388080806108d9565b60609250610b43565b50816108d4565b6109708161080b565b604051906001600160a01b03811660008051602061123e833981519152600084a2825115801590610a1f575b6109a557505050565b600080610a14946109b58561031f565b6027855260008051602061127e8339815191526020860152660819985a5b195960ca1b6040860152602081519101845af43d15610a17573d916109f78361035d565b92610a05604051948561033a565b83523d6000602085013e610b43565b50565b606091610b43565b50600161099c565b6001600160a01b037f000000000000000000000000000000000000000000000000000000000000000081169290610a6030851415610530565b610a7d6000805160206111fe833981519152948286541614610580565b8060008051602061125e8339815191525416331415610b2d576000805160206111be8339815191525460ff1615610aba57505061067c915061080b565b6020600491604094939451928380926352d1902d60e01b825286165afa60009181610b16575b50610b0357505050505060405162461bcd60e51b8152806106c76004820161078e565b61067c93610b11911461072f565b610967565b610b269192506106ee3d8261033a565b9038610ae0565b50505050506004604051632f7a8ee160e01b8152fd5b91929015610ba75750815115610b57575090565b3b15610b605790565b505060405162461bcd60e51b815260206004820152601d60248201527f416464726573733a2063616c6c20746f206e6f6e2d636f6e74726163740000006044820152606490fd5b825192935091159050610bbd5750805190602001fd5b60405162461bcd60e51b815260206004820152915081906106c79060248301905b91908251928382526000905b848210610c17575092806020939411610c0a575b601f01601f1916010190565b6000838284010152610bfe565b90602090818082850101519082860101520190610bea565b60008051602061125e833981519152546001600160a01b0391908216338114156106fe5761067c9282169060008051602061121e8339815191526000604051a36107dd565b61067c9060018060a01b038060008051602061125e83398151915254169082169060008051602061121e8339815191526000604051a36107dd565b6000549060ff8260081c161580928193610dce575b8115610dae575b5015610d4f57610cf19082610ce8600160ff196000541617600055565b610d3657610c74565b610cf757565b610d0761ff001960005416600055565b604051600181527f7f26b83ff96e1f2b6a682f133852f6798a09c465da95921460cefb384740249890602090a1565b610d4a61010061ff00196000541617600055565b610c74565b505060405162461bcd60e51b815260206004820152602e60248201527f496e697469616c697a61626c653a20636f6e747261637420697320616c72656160448201526d191e481a5b9a5d1a585b1a5e995960921b606482015260849150fd5b303b15915081610dc0575b5038610ccb565b6001915060ff161438610db9565b600160ff8216109150610cc4565b610dea605592604392611053565b604051903060388301526f5af43d82803e903d91602b57fd5bf3ff6024830152306014830152733d602d80600a3d3981f3363d3d373d3d3d363d73825260588201526037600c8201206078820152012090565b6001600160a01b0390911681526040602082018190526102dd92910190610bde565b9190610eec90610e78610e728286611053565b30610fbc565b604051637caddc8f60e11b60208201526024810186905260448082018490528152909490610ef890601f1990610eaf60648261033a565b60405163347d5e2560e21b60208201529586917f000000000000000000000000000000000000000000000000000000000000000060248401610e3d565b0390810185528461033a565b6001600160a01b03851692833b15610fb1576000610f4b9160405180938192633ab4c37560e21b83527f000000000000000000000000000000000000000000000000000000000000000060048401610e3d565b038183885af18015610fa4575b610f87575b507f27b8e3132afa95254770e1c1d214eafde52bc47d1b6e1f5dfcbb380c3ca3f5326000604051a4565b610f9e90610f953d8261033a565b3d810190610425565b38610f5d565b610fac610722565b610f58565b505050505050600080fd5b6e5af43d82803e903d91602b57fd5bf390763d602d80600a3d3981f3363d3d373d3d3d363d7300000062ffffff8260881c161760005260781b17602052603760096000f5906001600160a01b0382161561101257565b505060405162461bcd60e51b8152602060048201526017602482015276115490cc4c4d8dce8818dc99585d194c8819985a5b1959604a1b6044820152606490fd5b60408051602081019283528082019390935282529061107360608261033a565b51902090565b60008051602061125e833981519152546001600160a01b0391908216331415610b2d571691823b1561040757602463ffffffff916000936040519586948593621cb65b60e51b85521660048401525af180156110ef575b6110d75750565b6000906110e43d8261033a565b3d8101031261029a57565b6110f7610722565b6110d0565b60008051602061125e833981519152546001600160a01b0392919083163314156106fe57821691823b1561040757602460009283604051958694859363611d2e7560e11b85521660048401525af180156110ef576110d75750565b60008051602061125e833981519152546001600160a01b03919082163314156111a85716803b15610410576000809160046040518094819363bb9fe6bf60e01b83525af180156110ef576110d75750565b5050604051632f7a8ee160e01b815260049150fdfe4910fdfa16fed3260ed0e7147f7cc6da11a60208b5b9406d12a635614ffd914346756e6374696f6e206d7573742062652063616c6c6564207468726f75676820360894a13ba1a3210667c828492db98dca3e2076cc3735a920a3ca505d382bbc8be0079c531659141344cd1fd0a4f28419497f9722a3daafe3b4186f6b6457e0bc7cd75a20ee27fd9adebab32041f755214dbc6bffa90cc0225b39da2e5c2d3b8a22373512790c48b83a1fe2efdd2888d4a917bcdc24d0adf63e60f671680460416464726573733a206c6f772d6c6576656c2064656c65676174652063616c6ca36469706673582212207fb0993170f504849c1aaf1f7ee9430cf11b689ce18c45c18bba65ed2562a81c6c6578706572696d656e74616cf564736f6c634300080c0041",
  "devdoc": {
    "kind": "dev",
    "methods": {
      "owner()": {
        "returns": {
          "_0": "conrtact owner"
        }
      },
      "proxiableUUID()": {
        "details": "Implementation of the ERC1822 {proxiableUUID} function. This returns the storage slot used by the implementation. It is used to validate the implementation's compatibility when performing an upgrade. IMPORTANT: A proxy pointing at a proxiable contract should not be considered proxiable itself, because this risks bricking a proxy that upgrades to it, by delegating to itself until out of gas. Thus it is critical that this function revert if invoked through a proxy. This is guaranteed by the `notDelegated` modifier."
      },
      "transferOwnership(address)": {
        "params": {
          "account": "address of new owner"
        }
      },
      "upgradeTo(address)": {
        "details": "Upgrade the implementation of the proxy to `newImplementation`. Calls {_authorizeUpgrade}. Emits an {Upgraded} event."
      },
      "upgradeToAndCall(address,bytes)": {
        "details": "Upgrade the implementation of the proxy to `newImplementation`, and subsequently execute the function call encoded in `data`. Calls {_authorizeUpgrade}. Emits an {Upgraded} event."
      }
    },
    "version": 1
  },
  "userdoc": {
    "kind": "user",
    "methods": {
      "deploy(bytes32,bytes32)": {
        "notice": "IAccountFactory "
      },
      "ownedAccount(bytes32,bytes32)": {
        "notice": "IERC4972 "
      },
      "owner()": {
        "notice": "get the ERC173 contract owner"
      },
      "transferOwnership(address)": {
        "notice": "transfer contract ownership to new account"
      }
    },
    "version": 1
  },
  "storageLayout": {
    "storage": [
      {
        "astId": 1812,
        "contract": "contracts/hexlink/Hexlink.sol:Hexlink",
        "label": "_initialized",
        "offset": 0,
        "slot": "0",
        "type": "t_uint8"
      },
      {
        "astId": 1815,
        "contract": "contracts/hexlink/Hexlink.sol:Hexlink",
        "label": "_initializing",
        "offset": 1,
        "slot": "0",
        "type": "t_bool"
      }
    ],
    "types": {
      "t_bool": {
        "encoding": "inplace",
        "label": "bool",
        "numberOfBytes": "1"
      },
      "t_uint8": {
        "encoding": "inplace",
        "label": "uint8",
        "numberOfBytes": "1"
      }
    }
  }
}