{
  "address": "0x0923108Fa43B7EC6bD45C89bBf64293D1E9Ee96d",
  "abi": [
    {
      "inputs": [],
      "name": "ERC1967ProxyAlreadyInitiated",
      "type": "error"
    },
    {
      "anonymous": false,
      "inputs": [
        {
          "indexed": false,
          "internalType": "address",
          "name": "previousAdmin",
          "type": "address"
        },
        {
          "indexed": false,
          "internalType": "address",
          "name": "newAdmin",
          "type": "address"
        }
      ],
      "name": "AdminChanged",
      "type": "event"
    },
    {
      "anonymous": false,
      "inputs": [
        {
          "indexed": true,
          "internalType": "address",
          "name": "beacon",
          "type": "address"
        }
      ],
      "name": "BeaconUpgraded",
      "type": "event"
    },
    {
      "anonymous": false,
      "inputs": [
        {
          "indexed": true,
          "internalType": "address",
          "name": "implementation",
          "type": "address"
        }
      ],
      "name": "Upgraded",
      "type": "event"
    },
    {
      "stateMutability": "payable",
      "type": "fallback"
    },
    {
      "inputs": [
        {
          "internalType": "address",
          "name": "logic",
          "type": "address"
        },
        {
          "internalType": "bytes",
          "name": "data",
          "type": "bytes"
        }
      ],
      "name": "initProxy",
      "outputs": [],
      "stateMutability": "nonpayable",
      "type": "function"
    },
    {
      "stateMutability": "payable",
      "type": "receive"
    }
  ],
  "transactionHash": "0xfe9f1faa5f76b7a5b4d7ea369a368ffc024d1fbfab7aca53712ba8fd4bc14940",
  "args": [],
  "numDeployments": 1,
  "solcInputHash": "05f8779df53197b0a13c68193124fb8a",
  "bytecode": "0x608080604052346100165761048b908161001d8239f35b50600080fdfe6080604052600436101561002c575b361561001f575b61001d61014f565b005b61002761014f565b610015565b6000803560e01c63ead30dd414610043575061000e565b346100d95760403660031901126100d9576004356001600160a01b0381168114156100d5576024356001600160401b0381116100d057366023820112156100d0578060040135918361009c61009785610125565b6100f3565b9284845236602486830101116100c957846100c495602460209301838701378401015261018a565b604051f35b5092505050fd5b505080fd5b5080fd5b80fd5b50634e487b7160e01b600052604160045260246000fd5b6040519190601f01601f191682016001600160401b0381118382101761011857604052565b6101206100dc565b604052565b6020906001600160401b038111610142575b601f01601f19160190565b61014a6100dc565b610137565b5060008051602061042883398151915254600090819081906001600160a01b0316368280378136915af43d82803e15610186573d90f35b3d90fd5b6000805160206104288339815191528054906001600160a01b0380831661027957833b15610219578316809260018060a01b0319161790557fbc7cd75a20ee27fd9adebab32041f755214dbc6bffa90cc0225b39da2e5c2d3b6000604051a2815115801590610211575b6101fc575050565b61020e91610208610290565b916102f7565b50565b5060006101f4565b505050505050608460405162461bcd60e51b815260206004820152602d60248201527f455243313936373a206e657720696d706c656d656e746174696f6e206973206e60448201526c1bdd08184818dbdb9d1c9858dd609a1b6064820152fd5b505050505050600460405163170e3e3d60e21b8152fd5b60405190606082016001600160401b038111838210176102ea575b60405260278252660819985a5b195960ca1b6040837f416464726573733a206c6f772d6c6576656c2064656c65676174652063616c6c60208201520152565b6102f26100dc565b6102ab565b60008061032c9493602081519101845af43d1561032f573d9161031c61009784610125565b9283523d6000602085013e610384565b90565b606091610384565b1561033e57565b5060405162461bcd60e51b815260206004820152601d60248201527f416464726573733a2063616c6c20746f206e6f6e2d636f6e74726163740000006044820152606490fd5b919290156103a45750815115610398575090565b61032c903b1515610337565b8251929350911590506103ba5750805190602001fd5b90506040519062461bcd60e51b82528160208060048301528251928360248401526000915b84831061040e575050918060449311610401575b601f01601f19168101030190fd5b60008382840101526103f3565b81830181015186840160440152859350918201916103df56fe360894a13ba1a3210667c828492db98dca3e2076cc3735a920a3ca505d382bbca3646970667358221220004a8079d0ad0a40d525c42ee5fbc3998a9de3277970e1dd45ce723ca13ccaec6c6578706572696d656e74616cf564736f6c634300080c0041",
  "devdoc": {
    "kind": "dev",
    "methods": {},
    "version": 1
  },
  "userdoc": {
    "kind": "user",
    "methods": {},
    "version": 1
  },
  "storageLayout": {
    "storage": [],
    "types": null
  }
}