{
  "address": "0x83b213437904DDA45FCbabE91E582225d212791b",
  "abi": [
    {
      "anonymous": false,
      "inputs": [
        {
          "indexed": true,
          "internalType": "address",
          "name": "owner",
          "type": "address"
        },
        {
          "indexed": true,
          "internalType": "address",
          "name": "approved",
          "type": "address"
        },
        {
          "indexed": true,
          "internalType": "uint256",
          "name": "tokenId",
          "type": "uint256"
        }
      ],
      "name": "Approval",
      "type": "event"
    },
    {
      "anonymous": false,
      "inputs": [
        {
          "indexed": true,
          "internalType": "address",
          "name": "owner",
          "type": "address"
        },
        {
          "indexed": true,
          "internalType": "address",
          "name": "operator",
          "type": "address"
        },
        {
          "indexed": false,
          "internalType": "bool",
          "name": "approved",
          "type": "bool"
        }
      ],
      "name": "ApprovalForAll",
      "type": "event"
    },
    {
      "anonymous": false,
      "inputs": [
        {
          "indexed": true,
          "internalType": "address",
          "name": "receiver",
          "type": "address"
        },
        {
          "indexed": false,
          "internalType": "uint256",
          "name": "payment",
          "type": "uint256"
        }
      ],
      "name": "GasSponsorship",
      "type": "event"
    },
    {
      "anonymous": false,
      "inputs": [
        {
          "indexed": false,
          "internalType": "uint8",
          "name": "version",
          "type": "uint8"
        }
      ],
      "name": "Initialized",
      "type": "event"
    },
    {
      "anonymous": false,
      "inputs": [
        {
          "indexed": true,
          "internalType": "address",
          "name": "previousOwner",
          "type": "address"
        },
        {
          "indexed": true,
          "internalType": "address",
          "name": "newOwner",
          "type": "address"
        }
      ],
      "name": "OwnershipTransferred",
      "type": "event"
    },
    {
      "anonymous": false,
      "inputs": [
        {
          "indexed": true,
          "internalType": "address",
          "name": "from",
          "type": "address"
        },
        {
          "indexed": true,
          "internalType": "address",
          "name": "to",
          "type": "address"
        },
        {
          "indexed": true,
          "internalType": "uint256",
          "name": "tokenId",
          "type": "uint256"
        }
      ],
      "name": "Transfer",
      "type": "event"
    },
    {
      "inputs": [
        {
          "internalType": "address",
          "name": "to",
          "type": "address"
        },
        {
          "internalType": "uint256",
          "name": "tokenId",
          "type": "uint256"
        }
      ],
      "name": "approve",
      "outputs": [],
      "stateMutability": "nonpayable",
      "type": "function"
    },
    {
      "inputs": [
        {
          "internalType": "address",
          "name": "owner",
          "type": "address"
        }
      ],
      "name": "balanceOf",
      "outputs": [
        {
          "internalType": "uint256",
          "name": "",
          "type": "uint256"
        }
      ],
      "stateMutability": "view",
      "type": "function"
    },
    {
      "inputs": [],
      "name": "baseTokenURI",
      "outputs": [
        {
          "internalType": "string",
          "name": "",
          "type": "string"
        }
      ],
      "stateMutability": "view",
      "type": "function"
    },
    {
      "inputs": [],
      "name": "deposit",
      "outputs": [],
      "stateMutability": "payable",
      "type": "function"
    },
    {
      "inputs": [],
      "name": "gasSponsorship",
      "outputs": [
        {
          "internalType": "uint256",
          "name": "",
          "type": "uint256"
        }
      ],
      "stateMutability": "view",
      "type": "function"
    },
    {
      "inputs": [
        {
          "internalType": "uint256",
          "name": "tokenId",
          "type": "uint256"
        }
      ],
      "name": "getApproved",
      "outputs": [
        {
          "internalType": "address",
          "name": "",
          "type": "address"
        }
      ],
      "stateMutability": "view",
      "type": "function"
    },
    {
      "inputs": [
        {
          "internalType": "address",
          "name": "user",
          "type": "address"
        }
      ],
      "name": "getMintedCount",
      "outputs": [
        {
          "internalType": "uint256",
          "name": "",
          "type": "uint256"
        }
      ],
      "stateMutability": "view",
      "type": "function"
    },
    {
      "inputs": [
        {
          "internalType": "string",
          "name": "name_",
          "type": "string"
        },
        {
          "internalType": "string",
          "name": "symbol_",
          "type": "string"
        },
        {
          "internalType": "string",
          "name": "baseTokenURI_",
          "type": "string"
        },
        {
          "internalType": "uint256",
          "name": "maxSupply_",
          "type": "uint256"
        },
        {
          "internalType": "address",
          "name": "validator_",
          "type": "address"
        },
        {
          "internalType": "bool",
          "name": "transferrable_",
          "type": "bool"
        }
      ],
      "name": "init",
      "outputs": [],
      "stateMutability": "nonpayable",
      "type": "function"
    },
    {
      "inputs": [
        {
          "internalType": "address",
          "name": "owner",
          "type": "address"
        },
        {
          "internalType": "address",
          "name": "operator",
          "type": "address"
        }
      ],
      "name": "isApprovedForAll",
      "outputs": [
        {
          "internalType": "bool",
          "name": "",
          "type": "bool"
        }
      ],
      "stateMutability": "view",
      "type": "function"
    },
    {
      "inputs": [],
      "name": "maxSupply",
      "outputs": [
        {
          "internalType": "uint256",
          "name": "",
          "type": "uint256"
        }
      ],
      "stateMutability": "view",
      "type": "function"
    },
    {
      "inputs": [
        {
          "internalType": "address",
          "name": "recipient",
          "type": "address"
        },
        {
          "internalType": "address",
          "name": "refundReceiver",
          "type": "address"
        },
        {
          "internalType": "bytes",
          "name": "signature",
          "type": "bytes"
        }
      ],
      "name": "mint",
      "outputs": [],
      "stateMutability": "nonpayable",
      "type": "function"
    },
    {
      "inputs": [],
      "name": "name",
      "outputs": [
        {
          "internalType": "string",
          "name": "",
          "type": "string"
        }
      ],
      "stateMutability": "view",
      "type": "function"
    },
    {
      "inputs": [],
      "name": "owner",
      "outputs": [
        {
          "internalType": "address",
          "name": "",
          "type": "address"
        }
      ],
      "stateMutability": "view",
      "type": "function"
    },
    {
      "inputs": [
        {
          "internalType": "uint256",
          "name": "tokenId",
          "type": "uint256"
        }
      ],
      "name": "ownerOf",
      "outputs": [
        {
          "internalType": "address",
          "name": "",
          "type": "address"
        }
      ],
      "stateMutability": "view",
      "type": "function"
    },
    {
      "inputs": [],
      "name": "renounceOwnership",
      "outputs": [],
      "stateMutability": "nonpayable",
      "type": "function"
    },
    {
      "inputs": [
        {
          "internalType": "address",
          "name": "from",
          "type": "address"
        },
        {
          "internalType": "address",
          "name": "to",
          "type": "address"
        },
        {
          "internalType": "uint256",
          "name": "tokenId",
          "type": "uint256"
        }
      ],
      "name": "safeTransferFrom",
      "outputs": [],
      "stateMutability": "nonpayable",
      "type": "function"
    },
    {
      "inputs": [
        {
          "internalType": "address",
          "name": "from",
          "type": "address"
        },
        {
          "internalType": "address",
          "name": "to",
          "type": "address"
        },
        {
          "internalType": "uint256",
          "name": "tokenId",
          "type": "uint256"
        },
        {
          "internalType": "bytes",
          "name": "data",
          "type": "bytes"
        }
      ],
      "name": "safeTransferFrom",
      "outputs": [],
      "stateMutability": "nonpayable",
      "type": "function"
    },
    {
      "inputs": [
        {
          "internalType": "address",
          "name": "operator",
          "type": "address"
        },
        {
          "internalType": "bool",
          "name": "approved",
          "type": "bool"
        }
      ],
      "name": "setApprovalForAll",
      "outputs": [],
      "stateMutability": "nonpayable",
      "type": "function"
    },
    {
      "inputs": [
        {
          "internalType": "address",
          "name": "_validator",
          "type": "address"
        }
      ],
      "name": "setValidator",
      "outputs": [],
      "stateMutability": "nonpayable",
      "type": "function"
    },
    {
      "inputs": [
        {
          "internalType": "bytes4",
          "name": "interfaceId",
          "type": "bytes4"
        }
      ],
      "name": "supportsInterface",
      "outputs": [
        {
          "internalType": "bool",
          "name": "",
          "type": "bool"
        }
      ],
      "stateMutability": "view",
      "type": "function"
    },
    {
      "inputs": [],
      "name": "symbol",
      "outputs": [
        {
          "internalType": "string",
          "name": "",
          "type": "string"
        }
      ],
      "stateMutability": "view",
      "type": "function"
    },
    {
      "inputs": [],
      "name": "tokenId",
      "outputs": [
        {
          "internalType": "uint256",
          "name": "",
          "type": "uint256"
        }
      ],
      "stateMutability": "view",
      "type": "function"
    },
    {
      "inputs": [
        {
          "internalType": "uint256",
          "name": "",
          "type": "uint256"
        }
      ],
      "name": "tokenURI",
      "outputs": [
        {
          "internalType": "string",
          "name": "",
          "type": "string"
        }
      ],
      "stateMutability": "view",
      "type": "function"
    },
    {
      "inputs": [
        {
          "internalType": "address",
          "name": "from",
          "type": "address"
        },
        {
          "internalType": "address",
          "name": "to",
          "type": "address"
        },
        {
          "internalType": "uint256",
          "name": "tokenId",
          "type": "uint256"
        }
      ],
      "name": "transferFrom",
      "outputs": [],
      "stateMutability": "nonpayable",
      "type": "function"
    },
    {
      "inputs": [
        {
          "internalType": "address",
          "name": "newOwner",
          "type": "address"
        }
      ],
      "name": "transferOwnership",
      "outputs": [],
      "stateMutability": "nonpayable",
      "type": "function"
    },
    {
      "inputs": [],
      "name": "transferrable",
      "outputs": [
        {
          "internalType": "bool",
          "name": "",
          "type": "bool"
        }
      ],
      "stateMutability": "view",
      "type": "function"
    },
    {
      "inputs": [],
      "name": "validator",
      "outputs": [
        {
          "internalType": "address",
          "name": "",
          "type": "address"
        }
      ],
      "stateMutability": "view",
      "type": "function"
    },
    {
      "inputs": [],
      "name": "withdraw",
      "outputs": [],
      "stateMutability": "nonpayable",
      "type": "function"
    }
  ],
  "transactionHash": "0xf7e16ecbc3adaeed8743009f5ead17a265353b1ab00c843670d7cdf1b68bde94",
  "args": [],
  "numDeployments": 4,
  "solcInputHash": "26726a0be896f9c76ec642cc89783cb2",
  "bytecode": "0x6080604052600060cc5534801561001557600080fd5b506142e6806100256000396000f3fe6080604052600436106101b75760003560e01c806370a08231116100ec578063c87b56dd1161008a578063d5abeb0111610064578063d5abeb01146105d9578063e985e9c514610604578063f1ddecf914610641578063f2fde38b1461066a576101b7565b8063c87b56dd14610567578063d0e30db0146105a4578063d547cfb7146105ae576101b7565b806395d89b41116100c657806395d89b41146104ad57806397d6696b146104d8578063a22cb46514610515578063b88d4fde1461053e576101b7565b806370a082311461042e578063715018a61461046b5780638da5cb5b14610482576101b7565b806322aa0eb1116101595780633a5381b5116101335780633a5381b5146103865780633ccfd60b146103b157806342842e0e146103c85780636352211e146103f1576101b7565b806322aa0eb11461030957806323b872dd14610334578063248ec42e1461035d576101b7565b8063081812fc11610195578063081812fc1461024f578063095ea7b31461028c5780631327d3d8146102b557806317d70f7c146102de576101b7565b806301ffc9a7146101bc578063047a7ef1146101f957806306fdde0314610224575b600080fd5b3480156101c857600080fd5b506101e360048036038101906101de9190612a8b565b610693565b6040516101f09190612ad3565b60405180910390f35b34801561020557600080fd5b5061020e610775565b60405161021b9190612ad3565b60405180910390f35b34801561023057600080fd5b50610239610788565b6040516102469190612b87565b60405180910390f35b34801561025b57600080fd5b5061027660048036038101906102719190612bdf565b61081a565b6040516102839190612c4d565b60405180910390f35b34801561029857600080fd5b506102b360048036038101906102ae9190612c94565b610860565b005b3480156102c157600080fd5b506102dc60048036038101906102d79190612cd4565b610978565b005b3480156102ea57600080fd5b506102f36109c4565b6040516103009190612d10565b60405180910390f35b34801561031557600080fd5b5061031e6109ca565b60405161032b9190612d10565b60405180910390f35b34801561034057600080fd5b5061035b60048036038101906103569190612d2b565b6109d0565b005b34801561036957600080fd5b50610384600480360381019061037f9190612edf565b610a30565b005b34801561039257600080fd5b5061039b610bf7565b6040516103a89190612c4d565b60405180910390f35b3480156103bd57600080fd5b506103c6610c1d565b005b3480156103d457600080fd5b506103ef60048036038101906103ea9190612d2b565b610c3b565b005b3480156103fd57600080fd5b5061041860048036038101906104139190612bdf565b610c5b565b6040516104259190612c4d565b60405180910390f35b34801561043a57600080fd5b5061045560048036038101906104509190612cd4565b610ce2565b6040516104629190612d10565b60405180910390f35b34801561047757600080fd5b50610480610d9a565b005b34801561048e57600080fd5b50610497610dae565b6040516104a49190612c4d565b60405180910390f35b3480156104b957600080fd5b506104c2610dd8565b6040516104cf9190612b87565b60405180910390f35b3480156104e457600080fd5b506104ff60048036038101906104fa9190612cd4565b610e6a565b60405161050c9190612d10565b60405180910390f35b34801561052157600080fd5b5061053c60048036038101906105379190612fc0565b610eb3565b005b34801561054a57600080fd5b50610565600480360381019061056091906130a1565b610ec9565b005b34801561057357600080fd5b5061058e60048036038101906105899190612bdf565b610f2b565b60405161059b9190612b87565b60405180910390f35b6105ac610fbf565b005b3480156105ba57600080fd5b506105c3610fda565b6040516105d09190612b87565b60405180910390f35b3480156105e557600080fd5b506105ee611068565b6040516105fb9190612d10565b60405180910390f35b34801561061057600080fd5b5061062b60048036038101906106269190613124565b61106e565b6040516106389190612ad3565b60405180910390f35b34801561064d57600080fd5b5061066860048036038101906106639190613164565b611102565b005b34801561067657600080fd5b50610691600480360381019061068c9190612cd4565b61121e565b005b60007f80ac58cd000000000000000000000000000000000000000000000000000000007bffffffffffffffffffffffffffffffffffffffffffffffffffffffff1916827bffffffffffffffffffffffffffffffffffffffffffffffffffffffff1916148061075e57507f5b5e139f000000000000000000000000000000000000000000000000000000007bffffffffffffffffffffffffffffffffffffffffffffffffffffffff1916827bffffffffffffffffffffffffffffffffffffffffffffffffffffffff1916145b8061076e575061076d826112a2565b5b9050919050565b60cd60149054906101000a900460ff1681565b60606097805461079790613202565b80601f01602080910402602001604051908101604052809291908181526020018280546107c390613202565b80156108105780601f106107e557610100808354040283529160200191610810565b820191906000526020600020905b8154815290600101906020018083116107f357829003601f168201915b5050505050905090565b60006108258261130c565b609b600083815260200190815260200160002060009054906101000a900473ffffffffffffffffffffffffffffffffffffffff169050919050565b600061086b82610c5b565b90508073ffffffffffffffffffffffffffffffffffffffff168373ffffffffffffffffffffffffffffffffffffffff1614156108dc576040517f08c379a00000000000000000000000000000000000000000000000000000000081526004016108d3906132a6565b60405180910390fd5b8073ffffffffffffffffffffffffffffffffffffffff166108fb611357565b73ffffffffffffffffffffffffffffffffffffffff16148061092a575061092981610924611357565b61106e565b5b610969576040517f08c379a000000000000000000000000000000000000000000000000000000000815260040161096090613338565b60405180910390fd5b610973838361135f565b505050565b610980611418565b8060cd60006101000a81548173ffffffffffffffffffffffffffffffffffffffff021916908373ffffffffffffffffffffffffffffffffffffffff16021790555050565b60cc5481565b60ce5481565b6109e16109db611357565b82611496565b610a20576040517f08c379a0000000000000000000000000000000000000000000000000000000008152600401610a17906133ca565b60405180910390fd5b610a2b83838361152b565b505050565b60008060019054906101000a900460ff16159050808015610a615750600160008054906101000a900460ff1660ff16105b80610a8e5750610a7030611825565b158015610a8d5750600160008054906101000a900460ff1660ff16145b5b610acd576040517f08c379a0000000000000000000000000000000000000000000000000000000008152600401610ac49061345c565b60405180910390fd5b60016000806101000a81548160ff021916908360ff1602179055508015610b0a576001600060016101000a81548160ff0219169083151502179055505b610b148787611848565b610b1c6118a5565b8360cb819055508260cd60006101000a81548173ffffffffffffffffffffffffffffffffffffffff021916908373ffffffffffffffffffffffffffffffffffffffff1602179055508460ca9080519060200190610b7a92919061297c565b508160cd60146101000a81548160ff0219169083151502179055508015610bee5760008060016101000a81548160ff0219169083151502179055507f7f26b83ff96e1f2b6a682f133852f6798a09c465da95921460cefb38474024986001604051610be591906134ce565b60405180910390a15b50505050505050565b60cd60009054906101000a900473ffffffffffffffffffffffffffffffffffffffff1681565b610c25611418565b600060ce81905550610c393360ce546118fe565b565b610c5683838360405180602001604052806000815250610ec9565b505050565b600080610c67836119f2565b9050600073ffffffffffffffffffffffffffffffffffffffff168173ffffffffffffffffffffffffffffffffffffffff161415610cd9576040517f08c379a0000000000000000000000000000000000000000000000000000000008152600401610cd090613535565b60405180910390fd5b80915050919050565b60008073ffffffffffffffffffffffffffffffffffffffff168273ffffffffffffffffffffffffffffffffffffffff161415610d53576040517f08c379a0000000000000000000000000000000000000000000000000000000008152600401610d4a906135c7565b60405180910390fd5b609a60008373ffffffffffffffffffffffffffffffffffffffff1673ffffffffffffffffffffffffffffffffffffffff168152602001908152602001600020549050919050565b610da2611418565b610dac6000611a2f565b565b6000603360009054906101000a900473ffffffffffffffffffffffffffffffffffffffff16905090565b606060988054610de790613202565b80601f0160208091040260200160405190810160405280929190818152602001828054610e1390613202565b8015610e605780601f10610e3557610100808354040283529160200191610e60565b820191906000526020600020905b815481529060010190602001808311610e4357829003601f168201915b5050505050905090565b600060c960008373ffffffffffffffffffffffffffffffffffffffff1673ffffffffffffffffffffffffffffffffffffffff168152602001908152602001600020549050919050565b610ec5610ebe611357565b8383611af5565b5050565b610eda610ed4611357565b83611496565b610f19576040517f08c379a0000000000000000000000000000000000000000000000000000000008152600401610f10906133ca565b60405180910390fd5b610f2584848484611c62565b50505050565b606060ca8054610f3a90613202565b80601f0160208091040260200160405190810160405280929190818152602001828054610f6690613202565b8015610fb35780601f10610f8857610100808354040283529160200191610fb3565b820191906000526020600020905b815481529060010190602001808311610f9657829003601f168201915b50505050509050919050565b3460ce6000828254610fd19190613616565b92505081905550565b60ca8054610fe790613202565b80601f016020809104026020016040519081016040528092919081815260200182805461101390613202565b80156110605780601f1061103557610100808354040283529160200191611060565b820191906000526020600020905b81548152906001019060200180831161104357829003601f168201915b505050505081565b60cb5481565b6000609c60008473ffffffffffffffffffffffffffffffffffffffff1673ffffffffffffffffffffffffffffffffffffffff16815260200190815260200160002060008373ffffffffffffffffffffffffffffffffffffffff1673ffffffffffffffffffffffffffffffffffffffff16815260200190815260200160002060009054906101000a900460ff16905092915050565b60005a9050600160cc600082825461111a9190613616565b9250508190555060cb5460cc541115611168576040517f08c379a000000000000000000000000000000000000000000000000000000000815260040161115f906136b8565b60405180910390fd5b611173848484611cbe565b61117b611da5565b6111878460cc54611e80565b600060ce541180156111c65750600073ffffffffffffffffffffffffffffffffffffffff168373ffffffffffffffffffffffffffffffffffffffff1614155b156112185760003a61ea605a846111dd91906136d8565b6111e79190613616565b6111f1919061370c565b90508060ce600082825461120591906136d8565b925050819055506112168185611e9e565b505b50505050565b611226611418565b600073ffffffffffffffffffffffffffffffffffffffff168173ffffffffffffffffffffffffffffffffffffffff161415611296576040517f08c379a000000000000000000000000000000000000000000000000000000000815260040161128d906137d8565b60405180910390fd5b61129f81611a2f565b50565b60007f01ffc9a7000000000000000000000000000000000000000000000000000000007bffffffffffffffffffffffffffffffffffffffffffffffffffffffff1916827bffffffffffffffffffffffffffffffffffffffffffffffffffffffff1916149050919050565b61131581611f9d565b611354576040517f08c379a000000000000000000000000000000000000000000000000000000000815260040161134b90613535565b60405180910390fd5b50565b600033905090565b81609b600083815260200190815260200160002060006101000a81548173ffffffffffffffffffffffffffffffffffffffff021916908373ffffffffffffffffffffffffffffffffffffffff160217905550808273ffffffffffffffffffffffffffffffffffffffff166113d283610c5b565b73ffffffffffffffffffffffffffffffffffffffff167f8c5be1e5ebec7d5bd14f71427d1e84f3dd0314c0f7b2291e5b200ac8c7c3b92560405160405180910390a45050565b611420611357565b73ffffffffffffffffffffffffffffffffffffffff1661143e610dae565b73ffffffffffffffffffffffffffffffffffffffff1614611494576040517f08c379a000000000000000000000000000000000000000000000000000000000815260040161148b90613844565b60405180910390fd5b565b6000806114a283610c5b565b90508073ffffffffffffffffffffffffffffffffffffffff168473ffffffffffffffffffffffffffffffffffffffff1614806114e457506114e3818561106e565b5b8061152257508373ffffffffffffffffffffffffffffffffffffffff1661150a8461081a565b73ffffffffffffffffffffffffffffffffffffffff16145b91505092915050565b8273ffffffffffffffffffffffffffffffffffffffff1661154b82610c5b565b73ffffffffffffffffffffffffffffffffffffffff16146115a1576040517f08c379a0000000000000000000000000000000000000000000000000000000008152600401611598906138d6565b60405180910390fd5b600073ffffffffffffffffffffffffffffffffffffffff168273ffffffffffffffffffffffffffffffffffffffff161415611611576040517f08c379a000000000000000000000000000000000000000000000000000000000815260040161160890613968565b60405180910390fd5b61161e8383836001611fde565b8273ffffffffffffffffffffffffffffffffffffffff1661163e82610c5b565b73ffffffffffffffffffffffffffffffffffffffff1614611694576040517f08c379a000000000000000000000000000000000000000000000000000000000815260040161168b906138d6565b60405180910390fd5b609b600082815260200190815260200160002060006101000a81549073ffffffffffffffffffffffffffffffffffffffff02191690556001609a60008573ffffffffffffffffffffffffffffffffffffffff1673ffffffffffffffffffffffffffffffffffffffff168152602001908152602001600020600082825403925050819055506001609a60008473ffffffffffffffffffffffffffffffffffffffff1673ffffffffffffffffffffffffffffffffffffffff16815260200190815260200160002060008282540192505081905550816099600083815260200190815260200160002060006101000a81548173ffffffffffffffffffffffffffffffffffffffff021916908373ffffffffffffffffffffffffffffffffffffffff160217905550808273ffffffffffffffffffffffffffffffffffffffff168473ffffffffffffffffffffffffffffffffffffffff167fddf252ad1be2c89b69c2b068fc378daa952ba7f163c4a11628f55a4df523b3ef60405160405180910390a46118208383836001612104565b505050565b6000808273ffffffffffffffffffffffffffffffffffffffff163b119050919050565b600060019054906101000a900460ff16611897576040517f08c379a000000000000000000000000000000000000000000000000000000000815260040161188e906139fa565b60405180910390fd5b6118a18282612190565b5050565b600060019054906101000a900460ff166118f4576040517f08c379a00000000000000000000000000000000000000000000000000000000081526004016118eb906139fa565b60405180910390fd5b6118fc612211565b565b80471015611941576040517f08c379a000000000000000000000000000000000000000000000000000000000815260040161193890613a66565b60405180910390fd5b60008273ffffffffffffffffffffffffffffffffffffffff168260405161196790613ab7565b60006040518083038185875af1925050503d80600081146119a4576040519150601f19603f3d011682016040523d82523d6000602084013e6119a9565b606091505b50509050806119ed576040517f08c379a00000000000000000000000000000000000000000000000000000000081526004016119e490613b3e565b60405180910390fd5b505050565b60006099600083815260200190815260200160002060009054906101000a900473ffffffffffffffffffffffffffffffffffffffff169050919050565b6000603360009054906101000a900473ffffffffffffffffffffffffffffffffffffffff16905081603360006101000a81548173ffffffffffffffffffffffffffffffffffffffff021916908373ffffffffffffffffffffffffffffffffffffffff1602179055508173ffffffffffffffffffffffffffffffffffffffff168173ffffffffffffffffffffffffffffffffffffffff167f8be0079c531659141344cd1fd0a4f28419497f9722a3daafe3b4186f6b6457e060405160405180910390a35050565b8173ffffffffffffffffffffffffffffffffffffffff168373ffffffffffffffffffffffffffffffffffffffff161415611b64576040517f08c379a0000000000000000000000000000000000000000000000000000000008152600401611b5b90613baa565b60405180910390fd5b80609c60008573ffffffffffffffffffffffffffffffffffffffff1673ffffffffffffffffffffffffffffffffffffffff16815260200190815260200160002060008473ffffffffffffffffffffffffffffffffffffffff1673ffffffffffffffffffffffffffffffffffffffff16815260200190815260200160002060006101000a81548160ff0219169083151502179055508173ffffffffffffffffffffffffffffffffffffffff168373ffffffffffffffffffffffffffffffffffffffff167f17307eab39ab6107e8899845ad3d59bd9653f200f220920489ca2b5937696c3183604051611c559190612ad3565b60405180910390a3505050565b611c6d84848461152b565b611c7984848484612272565b611cb8576040517f08c379a0000000000000000000000000000000000000000000000000000000008152600401611caf90613c3c565b60405180910390fd5b50505050565b600046308585604051602001611cd79493929190613c5c565b6040516020818303038152906040528051906020012090506000611cfa82612409565b9050611d0f838261243990919063ffffffff16565b73ffffffffffffffffffffffffffffffffffffffff1660cd60009054906101000a900473ffffffffffffffffffffffffffffffffffffffff1673ffffffffffffffffffffffffffffffffffffffff1614611d9e576040517f08c379a0000000000000000000000000000000000000000000000000000000008152600401611d9590613ced565b60405180910390fd5b5050505050565b600060c960003373ffffffffffffffffffffffffffffffffffffffff1673ffffffffffffffffffffffffffffffffffffffff1681526020019081526020016000205414611e27576040517f08c379a0000000000000000000000000000000000000000000000000000000008152600401611e1e90613d59565b60405180910390fd5b600160c960003373ffffffffffffffffffffffffffffffffffffffff1673ffffffffffffffffffffffffffffffffffffffff1681526020019081526020016000206000828254611e779190613616565b92505081905550565b611e9a828260405180602001604052806000815250612460565b5050565b60008173ffffffffffffffffffffffffffffffffffffffff1683604051611ec490613ab7565b60006040518083038185875af1925050503d8060008114611f01576040519150601f19603f3d011682016040523d82523d6000602084013e611f06565b606091505b5050905080611f4a576040517f08c379a0000000000000000000000000000000000000000000000000000000008152600401611f4190613dc5565b60405180910390fd5b8173ffffffffffffffffffffffffffffffffffffffff167f3728afc7eaa9ba3128dbfdbf1b575e543cd11ed43eecdb8b2b25da1b8178569384604051611f909190612d10565b60405180910390a2505050565b60008073ffffffffffffffffffffffffffffffffffffffff16611fbf836119f2565b73ffffffffffffffffffffffffffffffffffffffff1614159050919050565b60018111156120fe57600073ffffffffffffffffffffffffffffffffffffffff168473ffffffffffffffffffffffffffffffffffffffff16146120725780609a60008673ffffffffffffffffffffffffffffffffffffffff1673ffffffffffffffffffffffffffffffffffffffff168152602001908152602001600020600082825461206a91906136d8565b925050819055505b600073ffffffffffffffffffffffffffffffffffffffff168373ffffffffffffffffffffffffffffffffffffffff16146120fd5780609a60008573ffffffffffffffffffffffffffffffffffffffff1673ffffffffffffffffffffffffffffffffffffffff16815260200190815260200160002060008282546120f59190613616565b925050819055505b5b50505050565b600073ffffffffffffffffffffffffffffffffffffffff168473ffffffffffffffffffffffffffffffffffffffff16148061214b575060cd60149054906101000a900460ff165b61218a576040517f08c379a000000000000000000000000000000000000000000000000000000000815260040161218190613e31565b60405180910390fd5b50505050565b600060019054906101000a900460ff166121df576040517f08c379a00000000000000000000000000000000000000000000000000000000081526004016121d6906139fa565b60405180910390fd5b81609790805190602001906121f592919061297c565b50806098908051906020019061220c92919061297c565b505050565b600060019054906101000a900460ff16612260576040517f08c379a0000000000000000000000000000000000000000000000000000000008152600401612257906139fa565b60405180910390fd5b61227061226b611357565b611a2f565b565b60006122938473ffffffffffffffffffffffffffffffffffffffff16611825565b156123fc578373ffffffffffffffffffffffffffffffffffffffff1663150b7a026122bc611357565b8786866040518563ffffffff1660e01b81526004016122de9493929190613ea6565b602060405180830381600087803b1580156122f857600080fd5b505af192505050801561232957506040513d601f19601f820116820180604052508101906123269190613f07565b60015b6123ac573d8060008114612359576040519150601f19603f3d011682016040523d82523d6000602084013e61235e565b606091505b506000815114156123a4576040517f08c379a000000000000000000000000000000000000000000000000000000000815260040161239b90613c3c565b60405180910390fd5b805181602001fd5b63150b7a0260e01b7bffffffffffffffffffffffffffffffffffffffffffffffffffffffff1916817bffffffffffffffffffffffffffffffffffffffffffffffffffffffff191614915050612401565b600190505b949350505050565b60008160405160200161241c9190613fb6565b604051602081830303815290604052805190602001209050919050565b600080600061244885856124bb565b915091506124558161250d565b819250505092915050565b61246a838361267b565b6124776000848484612272565b6124b6576040517f08c379a00000000000000000000000000000000000000000000000000000000081526004016124ad90613c3c565b60405180910390fd5b505050565b6000806041835114156124fd5760008060006020860151925060408601519150606086015160001a90506124f187828585612899565b94509450505050612506565b60006002915091505b9250929050565b6000600481111561252157612520613fdc565b5b81600481111561253457612533613fdc565b5b141561253f57612678565b6001600481111561255357612552613fdc565b5b81600481111561256657612565613fdc565b5b14156125a7576040517f08c379a000000000000000000000000000000000000000000000000000000000815260040161259e90614057565b60405180910390fd5b600260048111156125bb576125ba613fdc565b5b8160048111156125ce576125cd613fdc565b5b141561260f576040517f08c379a0000000000000000000000000000000000000000000000000000000008152600401612606906140c3565b60405180910390fd5b6003600481111561262357612622613fdc565b5b81600481111561263657612635613fdc565b5b1415612677576040517f08c379a000000000000000000000000000000000000000000000000000000000815260040161266e90614155565b60405180910390fd5b5b50565b600073ffffffffffffffffffffffffffffffffffffffff168273ffffffffffffffffffffffffffffffffffffffff1614156126eb576040517f08c379a00000000000000000000000000000000000000000000000000000000081526004016126e2906141c1565b60405180910390fd5b6126f481611f9d565b15612734576040517f08c379a000000000000000000000000000000000000000000000000000000000815260040161272b9061422d565b60405180910390fd5b612742600083836001611fde565b61274b81611f9d565b1561278b576040517f08c379a00000000000000000000000000000000000000000000000000000000081526004016127829061422d565b60405180910390fd5b6001609a60008473ffffffffffffffffffffffffffffffffffffffff1673ffffffffffffffffffffffffffffffffffffffff16815260200190815260200160002060008282540192505081905550816099600083815260200190815260200160002060006101000a81548173ffffffffffffffffffffffffffffffffffffffff021916908373ffffffffffffffffffffffffffffffffffffffff160217905550808273ffffffffffffffffffffffffffffffffffffffff16600073ffffffffffffffffffffffffffffffffffffffff167fddf252ad1be2c89b69c2b068fc378daa952ba7f163c4a11628f55a4df523b3ef60405160405180910390a4612895600083836001612104565b5050565b6000807f7fffffffffffffffffffffffffffffff5d576e7357a4501ddfe92f46681b20a08360001c11156128d4576000600391509150612973565b6000600187878787604051600081526020016040526040516128f9949392919061426b565b6020604051602081039080840390855afa15801561291b573d6000803e3d6000fd5b505050602060405103519050600073ffffffffffffffffffffffffffffffffffffffff168173ffffffffffffffffffffffffffffffffffffffff16141561296a57600060019250925050612973565b80600092509250505b94509492505050565b82805461298890613202565b90600052602060002090601f0160209004810192826129aa57600085556129f1565b82601f106129c357805160ff19168380011785556129f1565b828001600101855582156129f1579182015b828111156129f05782518255916020019190600101906129d5565b5b5090506129fe9190612a02565b5090565b5b80821115612a1b576000816000905550600101612a03565b5090565b6000604051905090565b600080fd5b600080fd5b60007fffffffff0000000000000000000000000000000000000000000000000000000082169050919050565b612a6881612a33565b8114612a7357600080fd5b50565b600081359050612a8581612a5f565b92915050565b600060208284031215612aa157612aa0612a29565b5b6000612aaf84828501612a76565b91505092915050565b60008115159050919050565b612acd81612ab8565b82525050565b6000602082019050612ae86000830184612ac4565b92915050565b600081519050919050565b600082825260208201905092915050565b60005b83811015612b28578082015181840152602081019050612b0d565b83811115612b37576000848401525b50505050565b6000601f19601f8301169050919050565b6000612b5982612aee565b612b638185612af9565b9350612b73818560208601612b0a565b612b7c81612b3d565b840191505092915050565b60006020820190508181036000830152612ba18184612b4e565b905092915050565b6000819050919050565b612bbc81612ba9565b8114612bc757600080fd5b50565b600081359050612bd981612bb3565b92915050565b600060208284031215612bf557612bf4612a29565b5b6000612c0384828501612bca565b91505092915050565b600073ffffffffffffffffffffffffffffffffffffffff82169050919050565b6000612c3782612c0c565b9050919050565b612c4781612c2c565b82525050565b6000602082019050612c626000830184612c3e565b92915050565b612c7181612c2c565b8114612c7c57600080fd5b50565b600081359050612c8e81612c68565b92915050565b60008060408385031215612cab57612caa612a29565b5b6000612cb985828601612c7f565b9250506020612cca85828601612bca565b9150509250929050565b600060208284031215612cea57612ce9612a29565b5b6000612cf884828501612c7f565b91505092915050565b612d0a81612ba9565b82525050565b6000602082019050612d256000830184612d01565b92915050565b600080600060608486031215612d4457612d43612a29565b5b6000612d5286828701612c7f565b9350506020612d6386828701612c7f565b9250506040612d7486828701612bca565b9150509250925092565b600080fd5b600080fd5b7f4e487b7100000000000000000000000000000000000000000000000000000000600052604160045260246000fd5b612dc082612b3d565b810181811067ffffffffffffffff82111715612ddf57612dde612d88565b5b80604052505050565b6000612df2612a1f565b9050612dfe8282612db7565b919050565b600067ffffffffffffffff821115612e1e57612e1d612d88565b5b612e2782612b3d565b9050602081019050919050565b82818337600083830152505050565b6000612e56612e5184612e03565b612de8565b905082815260208101848484011115612e7257612e71612d83565b5b612e7d848285612e34565b509392505050565b600082601f830112612e9a57612e99612d7e565b5b8135612eaa848260208601612e43565b91505092915050565b612ebc81612ab8565b8114612ec757600080fd5b50565b600081359050612ed981612eb3565b92915050565b60008060008060008060c08789031215612efc57612efb612a29565b5b600087013567ffffffffffffffff811115612f1a57612f19612a2e565b5b612f2689828a01612e85565b965050602087013567ffffffffffffffff811115612f4757612f46612a2e565b5b612f5389828a01612e85565b955050604087013567ffffffffffffffff811115612f7457612f73612a2e565b5b612f8089828a01612e85565b9450506060612f9189828a01612bca565b9350506080612fa289828a01612c7f565b92505060a0612fb389828a01612eca565b9150509295509295509295565b60008060408385031215612fd757612fd6612a29565b5b6000612fe585828601612c7f565b9250506020612ff685828601612eca565b9150509250929050565b600067ffffffffffffffff82111561301b5761301a612d88565b5b61302482612b3d565b9050602081019050919050565b600061304461303f84613000565b612de8565b9050828152602081018484840111156130605761305f612d83565b5b61306b848285612e34565b509392505050565b600082601f83011261308857613087612d7e565b5b8135613098848260208601613031565b91505092915050565b600080600080608085870312156130bb576130ba612a29565b5b60006130c987828801612c7f565b94505060206130da87828801612c7f565b93505060406130eb87828801612bca565b925050606085013567ffffffffffffffff81111561310c5761310b612a2e565b5b61311887828801613073565b91505092959194509250565b6000806040838503121561313b5761313a612a29565b5b600061314985828601612c7f565b925050602061315a85828601612c7f565b9150509250929050565b60008060006060848603121561317d5761317c612a29565b5b600061318b86828701612c7f565b935050602061319c86828701612c7f565b925050604084013567ffffffffffffffff8111156131bd576131bc612a2e565b5b6131c986828701613073565b9150509250925092565b7f4e487b7100000000000000000000000000000000000000000000000000000000600052602260045260246000fd5b6000600282049050600182168061321a57607f821691505b6020821081141561322e5761322d6131d3565b5b50919050565b7f4552433732313a20617070726f76616c20746f2063757272656e74206f776e6560008201527f7200000000000000000000000000000000000000000000000000000000000000602082015250565b6000613290602183612af9565b915061329b82613234565b604082019050919050565b600060208201905081810360008301526132bf81613283565b9050919050565b7f4552433732313a20617070726f76652063616c6c6572206973206e6f7420746f60008201527f6b656e206f776e6572206f7220617070726f76656420666f7220616c6c000000602082015250565b6000613322603d83612af9565b915061332d826132c6565b604082019050919050565b6000602082019050818103600083015261335181613315565b9050919050565b7f4552433732313a2063616c6c6572206973206e6f7420746f6b656e206f776e6560008201527f72206f7220617070726f76656400000000000000000000000000000000000000602082015250565b60006133b4602d83612af9565b91506133bf82613358565b604082019050919050565b600060208201905081810360008301526133e3816133a7565b9050919050565b7f496e697469616c697a61626c653a20636f6e747261637420697320616c72656160008201527f647920696e697469616c697a6564000000000000000000000000000000000000602082015250565b6000613446602e83612af9565b9150613451826133ea565b604082019050919050565b6000602082019050818103600083015261347581613439565b9050919050565b6000819050919050565b600060ff82169050919050565b6000819050919050565b60006134b86134b36134ae8461347c565b613493565b613486565b9050919050565b6134c88161349d565b82525050565b60006020820190506134e360008301846134bf565b92915050565b7f4552433732313a20696e76616c696420746f6b656e2049440000000000000000600082015250565b600061351f601883612af9565b915061352a826134e9565b602082019050919050565b6000602082019050818103600083015261354e81613512565b9050919050565b7f4552433732313a2061646472657373207a65726f206973206e6f74206120766160008201527f6c6964206f776e65720000000000000000000000000000000000000000000000602082015250565b60006135b1602983612af9565b91506135bc82613555565b604082019050919050565b600060208201905081810360008301526135e0816135a4565b9050919050565b7f4e487b7100000000000000000000000000000000000000000000000000000000600052601160045260246000fd5b600061362182612ba9565b915061362c83612ba9565b9250827fffffffffffffffffffffffffffffffffffffffffffffffffffffffffffffffff03821115613661576136606135e7565b5b828201905092915050565b7f457863656564696e67206d617820737570706c79000000000000000000000000600082015250565b60006136a2601483612af9565b91506136ad8261366c565b602082019050919050565b600060208201905081810360008301526136d181613695565b9050919050565b60006136e382612ba9565b91506136ee83612ba9565b925082821015613701576137006135e7565b5b828203905092915050565b600061371782612ba9565b915061372283612ba9565b9250817fffffffffffffffffffffffffffffffffffffffffffffffffffffffffffffffff048311821515161561375b5761375a6135e7565b5b828202905092915050565b7f4f776e61626c653a206e6577206f776e657220697320746865207a65726f206160008201527f6464726573730000000000000000000000000000000000000000000000000000602082015250565b60006137c2602683612af9565b91506137cd82613766565b604082019050919050565b600060208201905081810360008301526137f1816137b5565b9050919050565b7f4f776e61626c653a2063616c6c6572206973206e6f7420746865206f776e6572600082015250565b600061382e602083612af9565b9150613839826137f8565b602082019050919050565b6000602082019050818103600083015261385d81613821565b9050919050565b7f4552433732313a207472616e736665722066726f6d20696e636f72726563742060008201527f6f776e6572000000000000000000000000000000000000000000000000000000602082015250565b60006138c0602583612af9565b91506138cb82613864565b604082019050919050565b600060208201905081810360008301526138ef816138b3565b9050919050565b7f4552433732313a207472616e7366657220746f20746865207a65726f2061646460008201527f7265737300000000000000000000000000000000000000000000000000000000602082015250565b6000613952602483612af9565b915061395d826138f6565b604082019050919050565b6000602082019050818103600083015261398181613945565b9050919050565b7f496e697469616c697a61626c653a20636f6e7472616374206973206e6f74206960008201527f6e697469616c697a696e67000000000000000000000000000000000000000000602082015250565b60006139e4602b83612af9565b91506139ef82613988565b604082019050919050565b60006020820190508181036000830152613a13816139d7565b9050919050565b7f416464726573733a20696e73756666696369656e742062616c616e6365000000600082015250565b6000613a50601d83612af9565b9150613a5b82613a1a565b602082019050919050565b60006020820190508181036000830152613a7f81613a43565b9050919050565b600081905092915050565b50565b6000613aa1600083613a86565b9150613aac82613a91565b600082019050919050565b6000613ac282613a94565b9150819050919050565b7f416464726573733a20756e61626c6520746f2073656e642076616c75652c207260008201527f6563697069656e74206d61792068617665207265766572746564000000000000602082015250565b6000613b28603a83612af9565b9150613b3382613acc565b604082019050919050565b60006020820190508181036000830152613b5781613b1b565b9050919050565b7f4552433732313a20617070726f766520746f2063616c6c657200000000000000600082015250565b6000613b94601983612af9565b9150613b9f82613b5e565b602082019050919050565b60006020820190508181036000830152613bc381613b87565b9050919050565b7f4552433732313a207472616e7366657220746f206e6f6e20455243373231526560008201527f63656976657220696d706c656d656e7465720000000000000000000000000000602082015250565b6000613c26603283612af9565b9150613c3182613bca565b604082019050919050565b60006020820190508181036000830152613c5581613c19565b9050919050565b6000608082019050613c716000830187612d01565b613c7e6020830186612c3e565b613c8b6040830185612c3e565b613c986060830184612c3e565b95945050505050565b7f696e76616c6964207369676e6174757265000000000000000000000000000000600082015250565b6000613cd7601183612af9565b9150613ce282613ca1565b602082019050919050565b60006020820190508181036000830152613d0681613cca565b9050919050565b7f416c7265616479206d696e746564000000000000000000000000000000000000600082015250565b6000613d43600e83612af9565b9150613d4e82613d0d565b602082019050919050565b60006020820190508181036000830152613d7281613d36565b9050919050565b7f4845584c30323000000000000000000000000000000000000000000000000000600082015250565b6000613daf600783612af9565b9150613dba82613d79565b602082019050919050565b60006020820190508181036000830152613dde81613da2565b9050919050565b7f5472616e73666572206e6f7420616c6c6f776564000000000000000000000000600082015250565b6000613e1b601483612af9565b9150613e2682613de5565b602082019050919050565b60006020820190508181036000830152613e4a81613e0e565b9050919050565b600081519050919050565b600082825260208201905092915050565b6000613e7882613e51565b613e828185613e5c565b9350613e92818560208601612b0a565b613e9b81612b3d565b840191505092915050565b6000608082019050613ebb6000830187612c3e565b613ec86020830186612c3e565b613ed56040830185612d01565b8181036060830152613ee78184613e6d565b905095945050505050565b600081519050613f0181612a5f565b92915050565b600060208284031215613f1d57613f1c612a29565b5b6000613f2b84828501613ef2565b91505092915050565b600081905092915050565b7f19457468657265756d205369676e6564204d6573736167653a0a333200000000600082015250565b6000613f75601c83613f34565b9150613f8082613f3f565b601c82019050919050565b6000819050919050565b6000819050919050565b613fb0613fab82613f8b565b613f95565b82525050565b6000613fc182613f68565b9150613fcd8284613f9f565b60208201915081905092915050565b7f4e487b7100000000000000000000000000000000000000000000000000000000600052602160045260246000fd5b7f45434453413a20696e76616c6964207369676e61747572650000000000000000600082015250565b6000614041601883612af9565b915061404c8261400b565b602082019050919050565b6000602082019050818103600083015261407081614034565b9050919050565b7f45434453413a20696e76616c6964207369676e6174757265206c656e67746800600082015250565b60006140ad601f83612af9565b91506140b882614077565b602082019050919050565b600060208201905081810360008301526140dc816140a0565b9050919050565b7f45434453413a20696e76616c6964207369676e6174757265202773272076616c60008201527f7565000000000000000000000000000000000000000000000000000000000000602082015250565b600061413f602283612af9565b915061414a826140e3565b604082019050919050565b6000602082019050818103600083015261416e81614132565b9050919050565b7f4552433732313a206d696e7420746f20746865207a65726f2061646472657373600082015250565b60006141ab602083612af9565b91506141b682614175565b602082019050919050565b600060208201905081810360008301526141da8161419e565b9050919050565b7f4552433732313a20746f6b656e20616c7265616479206d696e74656400000000600082015250565b6000614217601c83612af9565b9150614222826141e1565b602082019050919050565b600060208201905081810360008301526142468161420a565b9050919050565b61425681613f8b565b82525050565b61426581613486565b82525050565b6000608082019050614280600083018761424d565b61428d602083018661425c565b61429a604083018561424d565b6142a7606083018461424d565b9594505050505056fea26469706673582212209f827ce059343aef384d7a08ea3fdf746e78a05ded759579bc7b448c8491061864736f6c63430008080033",
  "devdoc": {
    "kind": "dev",
    "methods": {
      "approve(address,uint256)": {
        "details": "See {IERC721-approve}."
      },
      "balanceOf(address)": {
        "details": "See {IERC721-balanceOf}."
      },
      "getApproved(uint256)": {
        "details": "See {IERC721-getApproved}."
      },
      "isApprovedForAll(address,address)": {
        "details": "See {IERC721-isApprovedForAll}."
      },
      "name()": {
        "details": "See {IERC721Metadata-name}."
      },
      "owner()": {
        "details": "Returns the address of the current owner."
      },
      "ownerOf(uint256)": {
        "details": "See {IERC721-ownerOf}."
      },
      "renounceOwnership()": {
        "details": "Leaves the contract without owner. It will not be possible to call `onlyOwner` functions anymore. Can only be called by the current owner. NOTE: Renouncing ownership will leave the contract without an owner, thereby removing any functionality that is only available to the owner."
      },
      "safeTransferFrom(address,address,uint256)": {
        "details": "See {IERC721-safeTransferFrom}."
      },
      "safeTransferFrom(address,address,uint256,bytes)": {
        "details": "See {IERC721-safeTransferFrom}."
      },
      "setApprovalForAll(address,bool)": {
        "details": "See {IERC721-setApprovalForAll}."
      },
      "supportsInterface(bytes4)": {
        "details": "See {IERC165-supportsInterface}."
      },
      "symbol()": {
        "details": "See {IERC721Metadata-symbol}."
      },
      "transferFrom(address,address,uint256)": {
        "details": "See {IERC721-transferFrom}."
      },
      "transferOwnership(address)": {
        "details": "Transfers ownership of the contract to a new account (`newOwner`). Can only be called by the current owner."
      }
    },
    "version": 1
  },
  "userdoc": {
    "kind": "user",
    "methods": {},
    "version": 1
  },
  "storageLayout": {
    "storage": [
      {
        "astId": 138,
        "contract": "contracts/tokens/HexlinkErc721Impl.sol:HexlinkErc721Impl",
        "label": "_initialized",
        "offset": 0,
        "slot": "0",
        "type": "t_uint8"
      },
      {
        "astId": 141,
        "contract": "contracts/tokens/HexlinkErc721Impl.sol:HexlinkErc721Impl",
        "label": "_initializing",
        "offset": 1,
        "slot": "0",
        "type": "t_bool"
      },
      {
        "astId": 1756,
        "contract": "contracts/tokens/HexlinkErc721Impl.sol:HexlinkErc721Impl",
        "label": "__gap",
        "offset": 0,
        "slot": "1",
        "type": "t_array(t_uint256)50_storage"
      },
      {
        "astId": 10,
        "contract": "contracts/tokens/HexlinkErc721Impl.sol:HexlinkErc721Impl",
        "label": "_owner",
        "offset": 0,
        "slot": "51",
        "type": "t_address"
      },
      {
        "astId": 130,
        "contract": "contracts/tokens/HexlinkErc721Impl.sol:HexlinkErc721Impl",
        "label": "__gap",
        "offset": 0,
        "slot": "52",
        "type": "t_array(t_uint256)49_storage"
      },
      {
        "astId": 1975,
        "contract": "contracts/tokens/HexlinkErc721Impl.sol:HexlinkErc721Impl",
        "label": "__gap",
        "offset": 0,
        "slot": "101",
        "type": "t_array(t_uint256)50_storage"
      },
      {
        "astId": 329,
        "contract": "contracts/tokens/HexlinkErc721Impl.sol:HexlinkErc721Impl",
        "label": "_name",
        "offset": 0,
        "slot": "151",
        "type": "t_string_storage"
      },
      {
        "astId": 331,
        "contract": "contracts/tokens/HexlinkErc721Impl.sol:HexlinkErc721Impl",
        "label": "_symbol",
        "offset": 0,
        "slot": "152",
        "type": "t_string_storage"
      },
      {
        "astId": 335,
        "contract": "contracts/tokens/HexlinkErc721Impl.sol:HexlinkErc721Impl",
        "label": "_owners",
        "offset": 0,
        "slot": "153",
        "type": "t_mapping(t_uint256,t_address)"
      },
      {
        "astId": 339,
        "contract": "contracts/tokens/HexlinkErc721Impl.sol:HexlinkErc721Impl",
        "label": "_balances",
        "offset": 0,
        "slot": "154",
        "type": "t_mapping(t_address,t_uint256)"
      },
      {
        "astId": 343,
        "contract": "contracts/tokens/HexlinkErc721Impl.sol:HexlinkErc721Impl",
        "label": "_tokenApprovals",
        "offset": 0,
        "slot": "155",
        "type": "t_mapping(t_uint256,t_address)"
      },
      {
        "astId": 349,
        "contract": "contracts/tokens/HexlinkErc721Impl.sol:HexlinkErc721Impl",
        "label": "_operatorApprovals",
        "offset": 0,
        "slot": "156",
        "type": "t_mapping(t_address,t_mapping(t_address,t_bool))"
      },
      {
        "astId": 1269,
        "contract": "contracts/tokens/HexlinkErc721Impl.sol:HexlinkErc721Impl",
        "label": "__gap",
        "offset": 0,
        "slot": "157",
        "type": "t_array(t_uint256)44_storage"
      },
      {
        "astId": 4688,
        "contract": "contracts/tokens/HexlinkErc721Impl.sol:HexlinkErc721Impl",
        "label": "minted_",
        "offset": 0,
        "slot": "201",
        "type": "t_mapping(t_address,t_uint256)"
      },
      {
        "astId": 4690,
        "contract": "contracts/tokens/HexlinkErc721Impl.sol:HexlinkErc721Impl",
        "label": "baseTokenURI",
        "offset": 0,
        "slot": "202",
        "type": "t_string_storage"
      },
      {
        "astId": 4692,
        "contract": "contracts/tokens/HexlinkErc721Impl.sol:HexlinkErc721Impl",
        "label": "maxSupply",
        "offset": 0,
        "slot": "203",
        "type": "t_uint256"
      },
      {
        "astId": 4695,
        "contract": "contracts/tokens/HexlinkErc721Impl.sol:HexlinkErc721Impl",
        "label": "tokenId",
        "offset": 0,
        "slot": "204",
        "type": "t_uint256"
      },
      {
        "astId": 4697,
        "contract": "contracts/tokens/HexlinkErc721Impl.sol:HexlinkErc721Impl",
        "label": "validator",
        "offset": 0,
        "slot": "205",
        "type": "t_address"
      },
      {
        "astId": 4699,
        "contract": "contracts/tokens/HexlinkErc721Impl.sol:HexlinkErc721Impl",
        "label": "transferrable",
        "offset": 20,
        "slot": "205",
        "type": "t_bool"
      },
      {
        "astId": 4701,
        "contract": "contracts/tokens/HexlinkErc721Impl.sol:HexlinkErc721Impl",
        "label": "gasSponsorship",
        "offset": 0,
        "slot": "206",
        "type": "t_uint256"
      }
    ],
    "types": {
      "t_address": {
        "encoding": "inplace",
        "label": "address",
        "numberOfBytes": "20"
      },
      "t_array(t_uint256)44_storage": {
        "base": "t_uint256",
        "encoding": "inplace",
        "label": "uint256[44]",
        "numberOfBytes": "1408"
      },
      "t_array(t_uint256)49_storage": {
        "base": "t_uint256",
        "encoding": "inplace",
        "label": "uint256[49]",
        "numberOfBytes": "1568"
      },
      "t_array(t_uint256)50_storage": {
        "base": "t_uint256",
        "encoding": "inplace",
        "label": "uint256[50]",
        "numberOfBytes": "1600"
      },
      "t_bool": {
        "encoding": "inplace",
        "label": "bool",
        "numberOfBytes": "1"
      },
      "t_mapping(t_address,t_bool)": {
        "encoding": "mapping",
        "key": "t_address",
        "label": "mapping(address => bool)",
        "numberOfBytes": "32",
        "value": "t_bool"
      },
      "t_mapping(t_address,t_mapping(t_address,t_bool))": {
        "encoding": "mapping",
        "key": "t_address",
        "label": "mapping(address => mapping(address => bool))",
        "numberOfBytes": "32",
        "value": "t_mapping(t_address,t_bool)"
      },
      "t_mapping(t_address,t_uint256)": {
        "encoding": "mapping",
        "key": "t_address",
        "label": "mapping(address => uint256)",
        "numberOfBytes": "32",
        "value": "t_uint256"
      },
      "t_mapping(t_uint256,t_address)": {
        "encoding": "mapping",
        "key": "t_uint256",
        "label": "mapping(uint256 => address)",
        "numberOfBytes": "32",
        "value": "t_address"
      },
      "t_string_storage": {
        "encoding": "bytes",
        "label": "string",
        "numberOfBytes": "32"
      },
      "t_uint256": {
        "encoding": "inplace",
        "label": "uint256",
        "numberOfBytes": "32"
      },
      "t_uint8": {
        "encoding": "inplace",
        "label": "uint8",
        "numberOfBytes": "1"
      }
    }
  }
}