{
  "address": "0xB785d7be12531c2D9939a1F3E3C1C10355106409",
  "abi": [
    {
      "inputs": [
        {
          "internalType": "address",
          "name": "owner",
          "type": "address"
        }
      ],
      "stateMutability": "nonpayable",
      "type": "constructor"
    },
    {
      "inputs": [],
      "name": "Ownable__NotOwner",
      "type": "error"
    },
    {
      "inputs": [],
      "name": "Ownable__NotTransitiveOwner",
      "type": "error"
    },
    {
      "anonymous": false,
      "inputs": [
        {
          "indexed": true,
          "internalType": "address",
          "name": "previousOwner",
          "type": "address"
        },
        {
          "indexed": true,
          "internalType": "address",
          "name": "newOwner",
          "type": "address"
        }
      ],
      "name": "OwnershipTransferred",
      "type": "event"
    },
    {
      "inputs": [
        {
          "internalType": "bytes",
          "name": "bytecode",
          "type": "bytes"
        },
        {
          "internalType": "bytes32",
          "name": "salt",
          "type": "bytes32"
        },
        {
          "internalType": "bytes",
          "name": "data",
          "type": "bytes"
        }
      ],
      "name": "deployAndCall",
      "outputs": [],
      "stateMutability": "payable",
      "type": "function"
    },
    {
      "inputs": [
        {
          "internalType": "bytes",
          "name": "bytecode",
          "type": "bytes"
        },
        {
          "internalType": "bytes32",
          "name": "salt",
          "type": "bytes32"
        }
      ],
      "name": "getAddress",
      "outputs": [
        {
          "internalType": "address",
          "name": "",
          "type": "address"
        }
      ],
      "stateMutability": "view",
      "type": "function"
    },
    {
      "inputs": [],
      "name": "owner",
      "outputs": [
        {
          "internalType": "address",
          "name": "",
          "type": "address"
        }
      ],
      "stateMutability": "view",
      "type": "function"
    },
    {
      "inputs": [
        {
          "internalType": "address",
          "name": "account",
          "type": "address"
        }
      ],
      "name": "transferOwnership",
      "outputs": [],
      "stateMutability": "nonpayable",
      "type": "function"
    }
  ],
  "transactionHash": "0x130981bdd87fce16e045a7b5809bc9b5fb5312170c16b70cd062fc52e2681747",
  "args": [
    "0xa4b368e3a9D49Ff15b58f70Fb976724A98B6D149"
  ],
  "numDeployments": 1,
  "solcInputHash": "05f8779df53197b0a13c68193124fb8a",
  "bytecode": "0x6080604052346100715761069b388190036080601f8201601f19168101906001600160401b0382119082101761007657602092829160405260803912610071576080516001600160a01b03811681141561006b5761005c9061008f565b6040516105a390816100f88239f35b50600080fd5b600080fd5b505050634e487b7160e01b600052604160045260246000fd5b7f8a22373512790c48b83a1fe2efdd2888d4a917bcdc24d0adf63e60f67168046090815460018060a01b03809216809282167f8be0079c531659141344cd1fd0a4f28419497f9722a3daafe3b4186f6b6457e06000604051a36001600160a01b03191617905556fe6080604052600436101561001257600080fd5b6000803560e01c806348aac392146100b85780638da5cb5b1461007b578063d1925ed4146100685763f2fde38b1461004a5750600080fd5b346100655761006061005b36610277565b61029a565b604051f35b80fd5b5061006061007536610223565b91610312565b5034610065575061008b3661020f565b600080516020610540833981519152546040519081906100b4906001600160a01b0316826101fc565b0390f35b503461006557506100b46100d46100ce366101c4565b906104d2565b604051918291826101fc565b50634e487b7160e01b600052604160045260246000fd5b604081019081106001600160401b0382111761011257604052565b61011a6100e0565b604052565b601f909101601f19168101906001600160401b0382119082101761011257604052565b6020906001600160401b03811161015f575b601f01601f19160190565b6101676100e0565b610154565b81601f820112156101bc5780359061018382610142565b92610191604051948561011f565b828452602083830101116101b357816000926020809301838601378301015290565b50505050600080fd5b505050600080fd5b60406003198201126101f557600435906001600160401b0382116101bc576101ee9160040161016c565b9060243590565b5050600080fd5b6001600160a01b03909116815260200190565b600090600319011261021d57565b50600080fd5b60606003198201126101f5576001600160401b03916004358381116101b3578261024f9160040161016c565b926024359260443591821161026d5761026a9160040161016c565b90565b5050505050600080fd5b602090600319011261021d576004356001600160a01b0381168114156101f55790565b600080516020610540833981519152805490916001600160a01b038083169291338414156102fb571680927f8be0079c531659141344cd1fd0a4f28419497f9722a3daafe3b4186f6b6457e06000604051a36001600160a01b031916179055565b5050505050506004604051632f7a8ee160e01b8152fd5b600080516020610540833981519152546001600160a01b03163314156103cd5760208151910134f590813b156101bc57805161034c575050565b6103c29160008060405193610360856100f7565b601e85527f416464726573733a206c6f772d6c6576656c2063616c6c206661696c65640000602086015260208151910182855af13d156103c5573d916103a583610142565b926103b3604051948561011f565b83523d6000602085013e61042f565b50565b60609161042f565b505050506004604051632f7a8ee160e01b8152fd5b156103e957565b5060405162461bcd60e51b815260206004820152601d60248201527f416464726573733a2063616c6c20746f206e6f6e2d636f6e74726163740000006044820152606490fd5b9192901561044f5750815115610443575090565b61026a903b15156103e2565b8251929350911590506104655750805190602001fd5b90506040519062461bcd60e51b82528160208060048301528251928360248401526000915b8483106104b95750509180604493116104ac575b601f01601f19168101030190fd5b600083828401015261049e565b818301810151868401604401528593509182019161048a565b80516020918201206040516001600160f81b03199281019283523060601b602182015260358101939093526055808401919091528252608082016001600160401b03811183821017610532575b604052905190206001600160a01b031690565b61053a6100e0565b61051f56fe8a22373512790c48b83a1fe2efdd2888d4a917bcdc24d0adf63e60f671680460a36469706673582212203877a6f4c4aab214fae1e220c2af24238eaabd18328f3078a1443a466134ad916c6578706572696d656e74616cf564736f6c634300080c0041",
  "devdoc": {
    "kind": "dev",
    "methods": {
      "owner()": {
        "returns": {
          "_0": "conrtact owner"
        }
      },
      "transferOwnership(address)": {
        "params": {
          "account": "address of new owner"
        }
      }
    },
    "version": 1
  },
  "userdoc": {
    "kind": "user",
    "methods": {
      "owner()": {
        "notice": "get the ERC173 contract owner"
      },
      "transferOwnership(address)": {
        "notice": "transfer contract ownership to new account"
      }
    },
    "version": 1
  },
  "storageLayout": {
    "storage": [],
    "types": null
  }
}