{
  "address": "0xB4B950e49e97EE0A17464Cb232072078f4e07e4A",
  "abi": [
    {
      "inputs": [
        {
          "internalType": "address",
          "name": "erc1967Proxy_",
          "type": "address"
        },
        {
          "internalType": "address",
          "name": "nameService_",
          "type": "address"
        },
        {
          "internalType": "address",
          "name": "authRegistry_",
          "type": "address"
        }
      ],
      "stateMutability": "nonpayable",
      "type": "constructor"
    },
    {
      "inputs": [],
      "name": "Ownable__NotOwner",
      "type": "error"
    },
    {
      "inputs": [],
      "name": "Ownable__NotTransitiveOwner",
      "type": "error"
    },
    {
      "anonymous": false,
      "inputs": [
        {
          "indexed": true,
          "internalType": "bytes32",
          "name": "name",
          "type": "bytes32"
        },
        {
          "indexed": true,
          "internalType": "address",
          "name": "account",
          "type": "address"
        }
      ],
      "name": "AccountDeployed",
      "type": "event"
    },
    {
      "anonymous": false,
      "inputs": [
        {
          "indexed": false,
          "internalType": "address",
          "name": "previousAdmin",
          "type": "address"
        },
        {
          "indexed": false,
          "internalType": "address",
          "name": "newAdmin",
          "type": "address"
        }
      ],
      "name": "AdminChanged",
      "type": "event"
    },
    {
      "anonymous": false,
      "inputs": [
        {
          "indexed": true,
          "internalType": "address",
          "name": "beacon",
          "type": "address"
        }
      ],
      "name": "BeaconUpgraded",
      "type": "event"
    },
    {
      "anonymous": false,
      "inputs": [
        {
          "indexed": false,
          "internalType": "uint8",
          "name": "version",
          "type": "uint8"
        }
      ],
      "name": "Initialized",
      "type": "event"
    },
    {
      "anonymous": false,
      "inputs": [
        {
          "indexed": true,
          "internalType": "address",
          "name": "previousOwner",
          "type": "address"
        },
        {
          "indexed": true,
          "internalType": "address",
          "name": "newOwner",
          "type": "address"
        }
      ],
      "name": "OwnershipTransferred",
      "type": "event"
    },
    {
      "anonymous": false,
      "inputs": [
        {
          "indexed": true,
          "internalType": "address",
          "name": "implementation",
          "type": "address"
        }
      ],
      "name": "Upgraded",
      "type": "event"
    },
    {
      "inputs": [
        {
          "internalType": "address",
          "name": "entrypoint",
          "type": "address"
        },
        {
          "internalType": "uint256",
          "name": "toStake",
          "type": "uint256"
        },
        {
          "internalType": "uint32",
          "name": "unstakeDelaySec",
          "type": "uint32"
        }
      ],
      "name": "addStake",
      "outputs": [],
      "stateMutability": "payable",
      "type": "function"
    },
    {
      "inputs": [
        {
          "internalType": "bytes32",
          "name": "name",
          "type": "bytes32"
        }
      ],
      "name": "deploy",
      "outputs": [
        {
          "internalType": "address",
          "name": "account",
          "type": "address"
        }
      ],
      "stateMutability": "nonpayable",
      "type": "function"
    },
    {
      "inputs": [],
      "name": "getAccountImplementation",
      "outputs": [
        {
          "internalType": "address",
          "name": "",
          "type": "address"
        }
      ],
      "stateMutability": "view",
      "type": "function"
    },
    {
      "inputs": [],
      "name": "getAuthRegistry",
      "outputs": [
        {
          "internalType": "contract IAuthRegistry",
          "name": "",
          "type": "address"
        }
      ],
      "stateMutability": "view",
      "type": "function"
    },
    {
      "inputs": [],
      "name": "getNameService",
      "outputs": [
        {
          "internalType": "contract INameService",
          "name": "",
          "type": "address"
        }
      ],
      "stateMutability": "view",
      "type": "function"
    },
    {
      "inputs": [
        {
          "internalType": "bytes32",
          "name": "name",
          "type": "bytes32"
        }
      ],
      "name": "getOwnedAccount",
      "outputs": [
        {
          "internalType": "address",
          "name": "",
          "type": "address"
        }
      ],
      "stateMutability": "view",
      "type": "function"
    },
    {
      "inputs": [],
      "name": "implementation",
      "outputs": [
        {
          "internalType": "address",
          "name": "",
          "type": "address"
        }
      ],
      "stateMutability": "view",
      "type": "function"
    },
    {
      "inputs": [
        {
          "internalType": "address",
          "name": "owner",
          "type": "address"
        },
        {
          "internalType": "address",
          "name": "accountImpl",
          "type": "address"
        }
      ],
      "name": "initialize",
      "outputs": [],
      "stateMutability": "nonpayable",
      "type": "function"
    },
    {
      "inputs": [],
      "name": "owner",
      "outputs": [
        {
          "internalType": "address",
          "name": "",
          "type": "address"
        }
      ],
      "stateMutability": "view",
      "type": "function"
    },
    {
      "inputs": [],
      "name": "proxiableUUID",
      "outputs": [
        {
          "internalType": "bytes32",
          "name": "",
          "type": "bytes32"
        }
      ],
      "stateMutability": "view",
      "type": "function"
    },
    {
      "inputs": [
        {
          "internalType": "address",
          "name": "impl",
          "type": "address"
        }
      ],
      "name": "setAccountImplementation",
      "outputs": [],
      "stateMutability": "nonpayable",
      "type": "function"
    },
    {
      "inputs": [
        {
          "internalType": "address",
          "name": "account",
          "type": "address"
        }
      ],
      "name": "transferOwnership",
      "outputs": [],
      "stateMutability": "nonpayable",
      "type": "function"
    },
    {
      "inputs": [
        {
          "internalType": "address",
          "name": "entrypoint",
          "type": "address"
        }
      ],
      "name": "unlockStake",
      "outputs": [],
      "stateMutability": "nonpayable",
      "type": "function"
    },
    {
      "inputs": [
        {
          "internalType": "address",
          "name": "newImplementation",
          "type": "address"
        }
      ],
      "name": "upgradeTo",
      "outputs": [],
      "stateMutability": "nonpayable",
      "type": "function"
    },
    {
      "inputs": [
        {
          "internalType": "address",
          "name": "newImplementation",
          "type": "address"
        },
        {
          "internalType": "bytes",
          "name": "data",
          "type": "bytes"
        }
      ],
      "name": "upgradeToAndCall",
      "outputs": [],
      "stateMutability": "payable",
      "type": "function"
    },
    {
      "inputs": [
        {
          "internalType": "address",
          "name": "entrypoint",
          "type": "address"
        },
        {
          "internalType": "address payable",
          "name": "withdrawTo",
          "type": "address"
        }
      ],
      "name": "withdrawStake",
      "outputs": [],
      "stateMutability": "nonpayable",
      "type": "function"
    },
    {
      "stateMutability": "payable",
      "type": "receive"
    }
  ],
  "transactionHash": "0x16bf0cf0cab4397a42115b1cf3a60d60efa1dcc8bbceed68cadc5b3256c9116b",
  "args": [
    "0xdbD7De61c482342653518C54a6383B4eC443C1e0",
    "0x0DEcEd0592b239d23Cc93b94a341f8e1bd0128a3",
    "0x0D0F0A9282e7126642683b51788652159470B743"
  ],
  "numDeployments": 1,
  "solcInputHash": "05f8779df53197b0a13c68193124fb8a",
  "bytecode": "0x61010080604052346100d657601f61156e38819003918201601f19168301916001600160401b038311848410176100dc578084926060946040528339810103126100d65780610050610087926100f6565b906100696040610062602084016100f6565b92016100f6565b3060805260a0929092526001600160a01b0390811660c0521660e052565b60405161145b9081610113823960805181818161059f015281816106f00152610b47015260a05181818161017b0152610faf015260c05181818161010f0152610ffb015260e051816102070152f35b50600080fd5b50505050634e487b7160e01b600052604160045260246000fd5b51906001600160a01b03821682141561010b57565b5050600080fdfe604060808152600436101561001d575b50361561001b57600080fd5b005b600090813560e01c806309766da2146103875780632b85ba381461036b5780633659cfe614610354578063485cc9551461033c5780634a1ce599146103255780634f1ef2861461031257806352d1902d146102e75780635c60da1b146102af5780638da5cb5b146102775780639d825bc51461023f578063a84333801461022c578063b2e242ad146101ef578063b36f9705146101d7578063cd2a3aac1461013d578063ced73bf3146100f75763f2fde38b146100da575061000f565b346100f3576100f06100eb366103b6565b610d45565b51f35b5080fd5b509034610138575061010836610552565b51806101347f0000000000000000000000000000000000000000000000000000000000000000826103e3565b0390f35b809150fd5b50346100f35761013491506101cc610154366103d1565b6043605591604051903060388301526f5af43d82803e903d91602b57fd5bf3ff60248301527f00000000000000000000000000000000000000000000000000000000000000006014830152733d602d80600a3d3981f3363d3d373d3d3d363d73825260588201526037600c8201206078820152012090565b9051918291826103e3565b50346100f3576100f06101e9366103f6565b9061126b565b509034610138575061020036610552565b51806101347f0000000000000000000000000000000000000000000000000000000000000000826103e3565b506100f06102393661056b565b916111e8565b50346100f357610134915061025336610552565b6000805160206113b88339815191525490519182916001600160a01b0316826103e3565b50346100f357610134915061028b36610552565b6000805160206113d88339815191525490519182916001600160a01b0316826103e3565b50346100f35761013491506102c336610552565b6000805160206113588339815191525490519182916001600160a01b0316826103e3565b50346100f35761013491506102fb36610552565b61030361059c565b90519081529081906020820190565b506100f061031f366104c2565b90610b3d565b50346100f3576100f0610337366103b6565b6112c6565b50346100f3576100f061034e366103f6565b90610d8a565b50346100f3576100f0610366366103b6565b6106e6565b50346100f35761013491506101cc610382366103d1565b610fa8565b50346100f3576100f0610399366103b6565b610f16565b6001600160a01b03811614156103b057565b50600080fd5b60209060031901126103b0576004356103ce8161039e565b90565b60209060031901126103b05760043590565b6001600160a01b03909116815260200190565b60409060031901126103b05760043561040e8161039e565b906024356103ce8161039e565b50634e487b7160e01b600052604160045260246000fd5b602081019081106001600160401b0382111761044d57604052565b61045561041b565b604052565b606081019081106001600160401b0382111761044d57604052565b601f909101601f19168101906001600160401b0382119082101761044d57604052565b6020906001600160401b0381116104b5575b601f01601f19160190565b6104bd61041b565b6104aa565b90604060031983011261054b576004356104db8161039e565b916024356001600160401b03811161054257816023820112156105425780600401359061050782610498565b926105156040519485610475565b828452602483830101116105385781600092602460209301838601378301015290565b5050505050600080fd5b50505050600080fd5b5050600080fd5b60009060031901126103b057565b60009103126103b057565b60609060031901126103b0576004356105838161039e565b906024359060443563ffffffff81168114156105425790565b307f00000000000000000000000000000000000000000000000000000000000000006001600160a01b031614156105df5760008051602061135883398151915290565b5060405162461bcd60e51b815260206004820152603860248201527f555550535570677261646561626c653a206d757374206e6f742062652063616c6044820152771b1959081d1a1c9bdd59da0819195b1959d85d1958d85b1b60421b6064820152608490fd5b1561064d57565b5060405162461bcd60e51b815260206004820152602c602482015260008051602061133883398151915260448201526b19195b1959d85d1958d85b1b60a21b6064820152608490fd5b1561069d57565b5060405162461bcd60e51b815260206004820152602c602482015260008051602061133883398151915260448201526b6163746976652070726f787960a01b6064820152608490fd5b6001600160a01b037f00000000000000000000000000000000000000000000000000000000000000008116919061071f30841415610646565b61073c600080516020611358833981519152938285541614610696565b806000805160206113d88339815191525416331415610814576040519061076282610432565b6000825260003660208401376000805160206113188339815191525460ff16156107945750506107929150610921565b565b6020600491604094939451928380926352d1902d60e01b825286165afa600091816107f4575b506107e157505050505060405162461bcd60e51b8152806107dd600482016108a4565b0390fd5b610792936107ef9114610845565b6109b3565b61080d9192506108043d82610475565b3d810190610829565b90386107ba565b505050506004604051632f7a8ee160e01b8152fd5b9081602091031261054b575190565b506040513d6000823e3d90fd5b1561084c57565b5060405162461bcd60e51b815260206004820152602960248201527f45524331393637557067726164653a20756e737570706f727465642070726f786044820152681a58589b195555525160ba1b6064820152608490fd5b60809060208152602e60208201527f45524331393637557067726164653a206e657720696d706c656d656e7461746960408201526d6f6e206973206e6f74205555505360901b60608201520190565b6000805160206113d883398151915280546001600160a01b0319166001600160a01b03909216919091179055565b803b156109565760008051602061135883398151915280546001600160a01b0319166001600160a01b03909216919091179055565b505060405162461bcd60e51b815260206004820152602d60248201527f455243313936373a206e657720696d706c656d656e746174696f6e206973206e60448201526c1bdd08184818dbdb9d1c9858dd609a1b6064820152608490fd5b6109bc81610921565b604051906000906001600160a01b0381166000805160206113988339815191528385a2835115801590610a76575b6109f5575b50505050565b8180610a6395610a048661045a565b602786526000805160206113f88339815191526020870152660819985a5b195960ca1b6040870152602081519101845af4903d15610a6d573d610a4681610498565b90610a546040519283610475565b8152809360203d92013e610c59565b50388080806109ef565b60609250610c59565b50816109ea565b610a8681610921565b604051906001600160a01b038116600080516020611398833981519152600084a2825115801590610b35575b610abb57505050565b600080610b2a94610acb8561045a565b602785526000805160206113f88339815191526020860152660819985a5b195960ca1b6040860152602081519101845af43d15610b2d573d91610b0d83610498565b92610b1b6040519485610475565b83523d6000602085013e610c59565b50565b606091610c59565b506001610ab2565b6001600160a01b037f000000000000000000000000000000000000000000000000000000000000000081169290610b7630851415610646565b610b93600080516020611358833981519152948286541614610696565b806000805160206113d88339815191525416331415610c43576000805160206113188339815191525460ff1615610bd05750506107929150610921565b6020600491604094939451928380926352d1902d60e01b825286165afa60009181610c2c575b50610c1957505050505060405162461bcd60e51b8152806107dd600482016108a4565b61079293610c279114610845565b610a7d565b610c3c9192506108043d82610475565b9038610bf6565b50505050506004604051632f7a8ee160e01b8152fd5b91929015610cbd5750815115610c6d575090565b3b15610c765790565b505060405162461bcd60e51b815260206004820152601d60248201527f416464726573733a2063616c6c20746f206e6f6e2d636f6e74726163740000006044820152606490fd5b825192935091159050610cd35750805190602001fd5b60405162461bcd60e51b815260206004820152915081906107dd9060248301905b91908251928382526000905b848210610d2d575092806020939411610d20575b601f01601f1916010190565b6000838284010152610d14565b90602090818082850101519082860101520190610d00565b6000805160206113d8833981519152546001600160a01b03919082163381141561081457610792928216906000805160206113788339815191526000604051a36108f3565b6000549160ff8360081c161580938194610ea9575b8115610e89575b5015610e2a57610dcc9183610dc3600160ff196000541617600055565b610e1157610eb7565b610dd257565b610de261ff001960005416600055565b604051600181527f7f26b83ff96e1f2b6a682f133852f6798a09c465da95921460cefb384740249890602090a1565b610e2561010061ff00196000541617600055565b610eb7565b50505050608460405162461bcd60e51b815260206004820152602e60248201527f496e697469616c697a61626c653a20636f6e747261637420697320616c72656160448201526d191e481a5b9a5d1a585b1a5e995960921b6064820152fd5b303b15915081610e9b575b5038610da6565b6001915060ff161438610e94565b600160ff8216109150610d9f565b610ef260018060a01b0391826000805160206113d88339815191525416838216906000805160206113788339815191526000604051a36108f3565b6000805160206113b883398151915280546001600160a01b03191691909216179055565b6000805160206113d8833981519152546001600160a01b03908116331415610f5c576000805160206113b883398151915280546001600160a01b03191691909216179055565b5050604051632f7a8ee160e01b815260049150fd5b9081602091031261054b57516103ce8161039e565b6001600160a01b0390911681526040602082018190526103ce92910190610cf4565b90610fd3827f0000000000000000000000000000000000000000000000000000000000000000611151565b6040516317de2f1f60e01b815290926001600160a01b03916110609061106e906020816004817f000000000000000000000000000000000000000000000000000000000000000089165afa908115611144575b600091611126575b50604051631a4438cd60e21b6020820152602481018590526001600160a01b0390911660448201529182906064820190565b03601f198101835282610475565b6000805160206113b8833981519152546001600160a01b031692851692833b1561111b57604051633ab4c37560e21b815291600091839182916110b5919060048401610f86565b038183875af1801561110e575b6110f1575b507fc8c3d9202a1e1a55d43501eb20e9521386e5a89e7c02c0aa6b2a638068ae91cf6000604051a3565b611108906110ff3d82610475565b3d810190610560565b386110c7565b611116610838565b6110c2565b505050505050600080fd5b61113e91506111353d82610475565b3d810190610f71565b3861102e565b61114c610838565b611026565b6e5af43d82803e903d91602b57fd5bf390763d602d80600a3d3981f3363d3d373d3d3d363d7300000062ffffff8260881c161760005260781b17602052603760096000f5906001600160a01b038216156111a757565b505060405162461bcd60e51b8152602060048201526017602482015276115490cc4c4d8dce8818dc99585d194c8819985a5b1959604a1b6044820152606490fd5b6000805160206113d8833981519152546001600160a01b0391908216331415610c43571691823b1561054257602463ffffffff916000936040519586948593621cb65b60e51b85521660048401525af1801561125e575b6112465750565b6000906112533d82610475565b3d810103126103b057565b611266610838565b61123f565b6000805160206113d8833981519152546001600160a01b03929190831633141561081457821691823b1561054257602460009283604051958694859363611d2e7560e11b85521660048401525af1801561125e576112465750565b6000805160206113d8833981519152546001600160a01b0391908216331415610f5c5716803b1561054b576000809160046040518094819363bb9fe6bf60e01b83525af1801561125e57611246575056fe4910fdfa16fed3260ed0e7147f7cc6da11a60208b5b9406d12a635614ffd914346756e6374696f6e206d7573742062652063616c6c6564207468726f75676820360894a13ba1a3210667c828492db98dca3e2076cc3735a920a3ca505d382bbc8be0079c531659141344cd1fd0a4f28419497f9722a3daafe3b4186f6b6457e0bc7cd75a20ee27fd9adebab32041f755214dbc6bffa90cc0225b39da2e5c2d3bb9ffa4138287e6acfa2fa3141aee3b9527c60260c5ffbb6d773a508b43bd0bb98a22373512790c48b83a1fe2efdd2888d4a917bcdc24d0adf63e60f671680460416464726573733a206c6f772d6c6576656c2064656c65676174652063616c6ca3646970667358221220217d4548907be77ccf8f97edfd4cfec01abfc9853c8c33d6890927bfb61882256c6578706572696d656e74616cf564736f6c634300080c0041",
  "devdoc": {
    "kind": "dev",
    "methods": {
      "owner()": {
        "returns": {
          "_0": "conrtact owner"
        }
      },
      "proxiableUUID()": {
        "details": "Implementation of the ERC1822 {proxiableUUID} function. This returns the storage slot used by the implementation. It is used to validate the implementation's compatibility when performing an upgrade. IMPORTANT: A proxy pointing at a proxiable contract should not be considered proxiable itself, because this risks bricking a proxy that upgrades to it, by delegating to itself until out of gas. Thus it is critical that this function revert if invoked through a proxy. This is guaranteed by the `notDelegated` modifier."
      },
      "transferOwnership(address)": {
        "params": {
          "account": "address of new owner"
        }
      },
      "upgradeTo(address)": {
        "custom:oz-upgrades-unsafe-allow-reachable": "delegatecall",
        "details": "Upgrade the implementation of the proxy to `newImplementation`. Calls {_authorizeUpgrade}. Emits an {Upgraded} event."
      },
      "upgradeToAndCall(address,bytes)": {
        "custom:oz-upgrades-unsafe-allow-reachable": "delegatecall",
        "details": "Upgrade the implementation of the proxy to `newImplementation`, and subsequently execute the function call encoded in `data`. Calls {_authorizeUpgrade}. Emits an {Upgraded} event."
      }
    },
    "version": 1
  },
  "userdoc": {
    "kind": "user",
    "methods": {
      "deploy(bytes32)": {
        "notice": "IAccountFactory "
      },
      "getAccountImplementation()": {
        "notice": "IAccountFactory "
      },
      "getOwnedAccount(bytes32)": {
        "notice": "IERC4972Registry "
      },
      "implementation()": {
        "notice": "UUPSUpgradeable "
      },
      "owner()": {
        "notice": "get the ERC173 contract owner"
      },
      "transferOwnership(address)": {
        "notice": "transfer contract ownership to new account"
      }
    },
    "version": 1
  },
  "storageLayout": {
    "storage": [
      {
        "astId": 5837,
        "contract": "contracts/hexlink/Hexlink.sol:Hexlink",
        "label": "_initialized",
        "offset": 0,
        "slot": "0",
        "type": "t_uint8"
      },
      {
        "astId": 5840,
        "contract": "contracts/hexlink/Hexlink.sol:Hexlink",
        "label": "_initializing",
        "offset": 1,
        "slot": "0",
        "type": "t_bool"
      }
    ],
    "types": {
      "t_bool": {
        "encoding": "inplace",
        "label": "bool",
        "numberOfBytes": "1"
      },
      "t_uint8": {
        "encoding": "inplace",
        "label": "uint8",
        "numberOfBytes": "1"
      }
    }
  }
}