{
  "address": "0x2793F9A05F88BF711379E8EA51E5E81e8C1503Bf",
  "abi": [
    {
      "inputs": [
        {
          "internalType": "address",
          "name": "validator_",
          "type": "address"
        }
      ],
      "stateMutability": "nonpayable",
      "type": "constructor"
    },
    {
      "inputs": [
        {
          "internalType": "bytes32",
          "name": "name",
          "type": "bytes32"
        },
        {
          "internalType": "bytes32",
          "name": "message",
          "type": "bytes32"
        },
        {
          "internalType": "bytes",
          "name": "signature",
          "type": "bytes"
        }
      ],
      "name": "validate",
      "outputs": [
        {
          "internalType": "uint256",
          "name": "",
          "type": "uint256"
        }
      ],
      "stateMutability": "view",
      "type": "function"
    }
  ],
  "transactionHash": "0x5ed46acbc0bdcb2e4005d8a3d512dbc189873db986976ab3ea8f917ba6e3fc75",
  "args": [
    "0x943fAbe0D1ae7130fc48Cf2ABc85F01fC987Ec81"
  ],
  "numDeployments": 1,
  "solcInputHash": "cfab4c3b3160e9c00e35b6905611c38f",
  "bytecode": "0x60a0806040523461006f57601f6104c638819003918201601f19168301916001600160401b038311848410176100755780849260209460405283398101031261006f57516001600160a01b03811681141561006f5760805260405161043690816100908239608051816101b60152f35b50600080fd5b50505050634e487b7160e01b600052604160045260246000fdfe6080604052600436101561001257600080fd5b6000803560e01c636310b8bb146100295750600080fd5b346100da5760603660031901126100da576044356001600160401b038082116100d557366023830112156100d55781600401359081116100c8575b6040519161007c601f8301601f19166020018461011c565b81835236602483830101116100c257926020826100ae949360246100be9701838601378301015260243560043561013f565b6040519081529081906020820190565b0390f35b50505080fd5b6100d06100dd565b610064565b505080fd5b80fd5b50634e487b7160e01b600052604160045260246000fd5b606081019081106001600160401b0382111761010f57604052565b6101176100dd565b604052565b601f909101601f19168101906001600160401b0382119082101761010f57604052565b916101b4926101ac926040519060208201928352604082015260408152610165816100f4565b51902060405160208101917b0ca2ba3432b932bab69029b4b3b732b21026b2b9b9b0b3b29d05199960211b8352603c820152603c81526101a4816100f4565b519020610335565b919091610213565b7f00000000000000000000000000000000000000000000000000000000000000006001600160a01b03908116911614156101ed57600090565b600190565b600511156101fc57565b50634e487b7160e01b600052602160045260246000fd5b61021c816101f2565b806102245750565b61022d816101f2565b600181141561027857505060405162461bcd60e51b815260206004820152601860248201527745434453413a20696e76616c6964207369676e617475726560401b6044820152606490fd5b610281816101f2565b60028114156102d157505060405162461bcd60e51b815260206004820152601f60248201527f45434453413a20696e76616c6964207369676e6174757265206c656e677468006044820152606490fd5b806102dd6003926101f2565b146102e457565b5060405162461bcd60e51b815260206004820152602260248201527f45434453413a20696e76616c6964207369676e6174757265202773272076616c604482015261756560f01b6064820152608490fd5b9060418151146000146103635761035f916020820151906060604084015193015160001a9061036d565b9091565b5050600090600290565b9291906fa2a8918ca85bafe22016d0b997e4df60600160ff1b0383116103e65791608094939160ff602094604051948552168484015260408301526060820152600093849182805260015afa156103d95781516001600160a01b038116156103d3579190565b50600190565b50604051903d90823e3d90fd5b5050505060009060039056fea3646970667358221220584945d9053c6d95a6e4cde48c276f6e534d47c0cb9a8c6359c362b753531edb6c6578706572696d656e74616cf564736f6c634300080c0041",
  "devdoc": {
    "kind": "dev",
    "methods": {},
    "version": 1
  },
  "userdoc": {
    "kind": "user",
    "methods": {
      "validate(bytes32,bytes32,bytes)": {
        "notice": "INameValidator "
      }
    },
    "version": 1
  },
  "storageLayout": {
    "storage": [],
    "types": null
  }
}