{
  "address": "0x30aDa76578B2E00b6B1D434080D2f5Fd3fFAcd31",
  "abi": [
    {
      "inputs": [
        {
          "internalType": "address",
          "name": "validator",
          "type": "address"
        }
      ],
      "stateMutability": "nonpayable",
      "type": "constructor"
    },
    {
      "inputs": [],
      "name": "defaultOwner",
      "outputs": [
        {
          "internalType": "address",
          "name": "",
          "type": "address"
        }
      ],
      "stateMutability": "view",
      "type": "function"
    },
    {
      "inputs": [
        {
          "internalType": "bytes32",
          "name": "",
          "type": "bytes32"
        }
      ],
      "name": "owner",
      "outputs": [
        {
          "internalType": "address",
          "name": "",
          "type": "address"
        }
      ],
      "stateMutability": "view",
      "type": "function"
    }
  ],
  "transactionHash": "0x29fda66eb9ccd2f60ddc29dfa6a8b471e86fbecd7282bd87b1c2518c5ce10284",
  "args": [
    "0xa4b368e3a9D49Ff15b58f70Fb976724A98B6D149"
  ],
  "numDeployments": 1,
  "solcInputHash": "5ca3ec68157dda7ca9ae37c895da754b",
  "bytecode": "0x60a0806040523461007457601f6101ae38819003918201601f19168301916001600160401b0383118484101761007a5780849260209460405283398101031261007457516001600160a01b038116811415610074576080526040516101199081610095823960805181818160490152608c0152f35b50600080fd5b50505050634e487b7160e01b600052604160045260246000fdfe60808060405260043610156014575b50600080fd5b600090813560e01c90816302571be314607457506317de2f1f14603557600e565b346071575060413660c8565b60405180606d7f00000000000000000000000000000000000000000000000000000000000000008260b5565b0390f35b80fd5b9190503460b057602036600319011260b0575080606d7f00000000000000000000000000000000000000000000000000000000000000008260b5565b809150fd5b6001600160a01b03909116815260200190565b6000906003190112600e5756fea36469706673582212202dcb95a76ee86b19c5e8b3a1aa1b8ce7ba1be2d6f39ded1b4b496708905a95a66c6578706572696d656e74616cf564736f6c634300080c0041",
  "devdoc": {
    "kind": "dev",
    "methods": {},
    "version": 1
  },
  "userdoc": {
    "kind": "user",
    "methods": {},
    "version": 1
  },
  "storageLayout": {
    "storage": [],
    "types": null
  }
}