{
  "address": "0xe91B4B035349eF2EB743d73D8Dd2cb4d172980De",
  "abi": [
    {
      "inputs": [
        {
          "internalType": "address",
          "name": "owner",
          "type": "address"
        }
      ],
      "stateMutability": "nonpayable",
      "type": "constructor"
    },
    {
      "inputs": [],
      "name": "Ownable__NotOwner",
      "type": "error"
    },
    {
      "inputs": [],
      "name": "Ownable__NotTransitiveOwner",
      "type": "error"
    },
    {
      "anonymous": false,
      "inputs": [
        {
          "indexed": true,
          "internalType": "address",
          "name": "previousOwner",
          "type": "address"
        },
        {
          "indexed": true,
          "internalType": "address",
          "name": "newOwner",
          "type": "address"
        }
      ],
      "name": "OwnershipTransferred",
      "type": "event"
    },
    {
      "inputs": [
        {
          "internalType": "bytes",
          "name": "bytecode",
          "type": "bytes"
        },
        {
          "internalType": "uint256",
          "name": "salt",
          "type": "uint256"
        }
      ],
      "name": "deploy",
      "outputs": [],
      "stateMutability": "payable",
      "type": "function"
    },
    {
      "inputs": [
        {
          "internalType": "bytes",
          "name": "bytecode",
          "type": "bytes"
        },
        {
          "internalType": "uint256",
          "name": "salt",
          "type": "uint256"
        }
      ],
      "name": "getAddress",
      "outputs": [
        {
          "internalType": "address",
          "name": "",
          "type": "address"
        }
      ],
      "stateMutability": "view",
      "type": "function"
    },
    {
      "inputs": [],
      "name": "owner",
      "outputs": [
        {
          "internalType": "address",
          "name": "",
          "type": "address"
        }
      ],
      "stateMutability": "view",
      "type": "function"
    },
    {
      "inputs": [
        {
          "internalType": "address",
          "name": "account",
          "type": "address"
        }
      ],
      "name": "transferOwnership",
      "outputs": [],
      "stateMutability": "nonpayable",
      "type": "function"
    }
  ],
  "transactionHash": "0x3aed9f4d4eabb3d0b8e9028c6f0b2aa65075d2fa3111bf0b24c84c42ec9e6f94",
  "args": [
    "0xa4b368e3a9D49Ff15b58f70Fb976724A98B6D149"
  ],
  "numDeployments": 1,
  "solcInputHash": "c1304da1d922f7a04f6195808fc5bb58",
  "bytecode": "0x608060405234801561001057600080fd5b5060405161098e38038061098e833981810160405281019061003291906101c4565b6100418161004760201b60201c565b506101f1565b6100568161005960201b60201c565b50565b600061006d61013460201b61024b1760201c565b90508173ffffffffffffffffffffffffffffffffffffffff168160000160009054906101000a900473ffffffffffffffffffffffffffffffffffffffff1673ffffffffffffffffffffffffffffffffffffffff167f8be0079c531659141344cd1fd0a4f28419497f9722a3daafe3b4186f6b6457e060405160405180910390a3818160000160006101000a81548173ffffffffffffffffffffffffffffffffffffffff021916908373ffffffffffffffffffffffffffffffffffffffff1602179055505050565b6000807f8a22373512790c48b83a1fe2efdd2888d4a917bcdc24d0adf63e60f67168046090508091505090565b600080fd5b600073ffffffffffffffffffffffffffffffffffffffff82169050919050565b600061019182610166565b9050919050565b6101a181610186565b81146101ac57600080fd5b50565b6000815190506101be81610198565b92915050565b6000602082840312156101da576101d9610161565b5b60006101e8848285016101af565b91505092915050565b61078e806102006000396000f3fe60806040526004361061003f5760003560e01c80638da5cb5b1461004457806394ca2cb51461006f5780639c4ae2d0146100ac578063f2fde38b146100c8575b600080fd5b34801561005057600080fd5b506100596100f1565b60405161006691906103c9565b60405180910390f35b34801561007b57600080fd5b5061009660048036038101906100919190610574565b610100565b6040516100a391906103c9565b60405180910390f35b6100c660048036038101906100c19190610574565b61014a565b005b3480156100d457600080fd5b506100ef60048036038101906100ea91906105fc565b6101d3565b005b60006100fb610278565b905090565b60008060ff60f81b30848680519060200120604051602001610125949392919061070a565b6040516020818303038152906040528051906020012090508060001c91505092915050565b610152610278565b73ffffffffffffffffffffffffffffffffffffffff163373ffffffffffffffffffffffffffffffffffffffff16146101b6576040517f2f7a8ee100000000000000000000000000000000000000000000000000000000815260040160405180910390fd5b60008183516020850134f59050803b6101ce57600080fd5b505050565b6101db610278565b73ffffffffffffffffffffffffffffffffffffffff163373ffffffffffffffffffffffffffffffffffffffff161461023f576040517f2f7a8ee100000000000000000000000000000000000000000000000000000000815260040160405180910390fd5b610248816102ab565b50565b6000807f8a22373512790c48b83a1fe2efdd2888d4a917bcdc24d0adf63e60f67168046090508091505090565b600061028261024b565b60000160009054906101000a900473ffffffffffffffffffffffffffffffffffffffff16905090565b6102b4816102b7565b50565b60006102c161024b565b90508173ffffffffffffffffffffffffffffffffffffffff168160000160009054906101000a900473ffffffffffffffffffffffffffffffffffffffff1673ffffffffffffffffffffffffffffffffffffffff167f8be0079c531659141344cd1fd0a4f28419497f9722a3daafe3b4186f6b6457e060405160405180910390a3818160000160006101000a81548173ffffffffffffffffffffffffffffffffffffffff021916908373ffffffffffffffffffffffffffffffffffffffff1602179055505050565b600073ffffffffffffffffffffffffffffffffffffffff82169050919050565b60006103b382610388565b9050919050565b6103c3816103a8565b82525050565b60006020820190506103de60008301846103ba565b92915050565b6000604051905090565b600080fd5b600080fd5b600080fd5b600080fd5b6000601f19601f8301169050919050565b7f4e487b7100000000000000000000000000000000000000000000000000000000600052604160045260246000fd5b61044b82610402565b810181811067ffffffffffffffff8211171561046a57610469610413565b5b80604052505050565b600061047d6103e4565b90506104898282610442565b919050565b600067ffffffffffffffff8211156104a9576104a8610413565b5b6104b282610402565b9050602081019050919050565b82818337600083830152505050565b60006104e16104dc8461048e565b610473565b9050828152602081018484840111156104fd576104fc6103fd565b5b6105088482856104bf565b509392505050565b600082601f830112610525576105246103f8565b5b81356105358482602086016104ce565b91505092915050565b6000819050919050565b6105518161053e565b811461055c57600080fd5b50565b60008135905061056e81610548565b92915050565b6000806040838503121561058b5761058a6103ee565b5b600083013567ffffffffffffffff8111156105a9576105a86103f3565b5b6105b585828601610510565b92505060206105c68582860161055f565b9150509250929050565b6105d9816103a8565b81146105e457600080fd5b50565b6000813590506105f6816105d0565b92915050565b600060208284031215610612576106116103ee565b5b6000610620848285016105e7565b91505092915050565b60007fff0000000000000000000000000000000000000000000000000000000000000082169050919050565b6000819050919050565b61067061066b82610629565b610655565b82525050565b60008160601b9050919050565b600061068e82610676565b9050919050565b60006106a082610683565b9050919050565b6106b86106b3826103a8565b610695565b82525050565b6000819050919050565b6106d96106d48261053e565b6106be565b82525050565b6000819050919050565b6000819050919050565b6107046106ff826106df565b6106e9565b82525050565b6000610716828761065f565b60018201915061072682866106a7565b60148201915061073682856106c8565b60208201915061074682846106f3565b6020820191508190509594505050505056fea2646970667358221220846e47d3469f36ba3b1bcd390687162f75f76a55492ff742d33af8e641eb79b564736f6c634300080c0033",
  "devdoc": {
    "kind": "dev",
    "methods": {
      "owner()": {
        "returns": {
          "_0": "conrtact owner"
        }
      },
      "transferOwnership(address)": {
        "params": {
          "account": "address of new owner"
        }
      }
    },
    "version": 1
  },
  "userdoc": {
    "kind": "user",
    "methods": {
      "owner()": {
        "notice": "get the ERC173 contract owner"
      },
      "transferOwnership(address)": {
        "notice": "transfer contract ownership to new account"
      }
    },
    "version": 1
  },
  "storageLayout": {
    "storage": [],
    "types": null
  }
}