{
  "address": "0x4d4b3D9c0Cc5F74eC459a1345fcd59206cd20e3f",
  "abi": [
    {
      "inputs": [],
      "name": "Ownable__NotOwner",
      "type": "error"
    },
    {
      "inputs": [],
      "name": "Ownable__NotTransitiveOwner",
      "type": "error"
    },
    {
      "anonymous": false,
      "inputs": [
        {
          "indexed": false,
          "internalType": "address",
          "name": "previousAdmin",
          "type": "address"
        },
        {
          "indexed": false,
          "internalType": "address",
          "name": "newAdmin",
          "type": "address"
        }
      ],
      "name": "AdminChanged",
      "type": "event"
    },
    {
      "anonymous": false,
      "inputs": [
        {
          "indexed": true,
          "internalType": "address",
          "name": "beacon",
          "type": "address"
        }
      ],
      "name": "BeaconUpgraded",
      "type": "event"
    },
    {
      "anonymous": false,
      "inputs": [
        {
          "indexed": true,
          "internalType": "bytes32",
          "name": "name",
          "type": "bytes32"
        },
        {
          "indexed": true,
          "internalType": "address",
          "name": "account",
          "type": "address"
        }
      ],
      "name": "Deployed",
      "type": "event"
    },
    {
      "anonymous": false,
      "inputs": [
        {
          "indexed": true,
          "internalType": "address",
          "name": "previousOwner",
          "type": "address"
        },
        {
          "indexed": true,
          "internalType": "address",
          "name": "newOwner",
          "type": "address"
        }
      ],
      "name": "OwnershipTransferred",
      "type": "event"
    },
    {
      "anonymous": false,
      "inputs": [
        {
          "indexed": true,
          "internalType": "address",
          "name": "implementation",
          "type": "address"
        }
      ],
      "name": "Upgraded",
      "type": "event"
    },
    {
      "inputs": [],
      "name": "accountImplementation",
      "outputs": [
        {
          "internalType": "address",
          "name": "",
          "type": "address"
        }
      ],
      "stateMutability": "view",
      "type": "function"
    },
    {
      "inputs": [
        {
          "components": [
            {
              "internalType": "bytes32",
              "name": "schema",
              "type": "bytes32"
            },
            {
              "internalType": "bytes32",
              "name": "domain",
              "type": "bytes32"
            },
            {
              "internalType": "bytes32",
              "name": "handle",
              "type": "bytes32"
            }
          ],
          "internalType": "struct Name",
          "name": "name",
          "type": "tuple"
        },
        {
          "internalType": "bytes",
          "name": "data",
          "type": "bytes"
        },
        {
          "internalType": "bytes",
          "name": "authProof",
          "type": "bytes"
        }
      ],
      "name": "deploy",
      "outputs": [
        {
          "internalType": "address",
          "name": "account",
          "type": "address"
        }
      ],
      "stateMutability": "nonpayable",
      "type": "function"
    },
    {
      "inputs": [
        {
          "internalType": "bytes32",
          "name": "schema",
          "type": "bytes32"
        },
        {
          "internalType": "bytes32",
          "name": "domain",
          "type": "bytes32"
        }
      ],
      "name": "getRegistry",
      "outputs": [
        {
          "internalType": "address",
          "name": "",
          "type": "address"
        }
      ],
      "stateMutability": "view",
      "type": "function"
    },
    {
      "inputs": [],
      "name": "implementation",
      "outputs": [
        {
          "internalType": "address",
          "name": "",
          "type": "address"
        }
      ],
      "stateMutability": "view",
      "type": "function"
    },
    {
      "inputs": [
        {
          "internalType": "address",
          "name": "owner",
          "type": "address"
        },
        {
          "internalType": "address",
          "name": "accountImpl",
          "type": "address"
        },
        {
          "internalType": "address[]",
          "name": "registries",
          "type": "address[]"
        }
      ],
      "name": "init",
      "outputs": [],
      "stateMutability": "nonpayable",
      "type": "function"
    },
    {
      "inputs": [
        {
          "internalType": "bytes32",
          "name": "name",
          "type": "bytes32"
        }
      ],
      "name": "ownedAccount",
      "outputs": [
        {
          "internalType": "address",
          "name": "",
          "type": "address"
        }
      ],
      "stateMutability": "view",
      "type": "function"
    },
    {
      "inputs": [],
      "name": "owner",
      "outputs": [
        {
          "internalType": "address",
          "name": "",
          "type": "address"
        }
      ],
      "stateMutability": "view",
      "type": "function"
    },
    {
      "inputs": [],
      "name": "proxiableUUID",
      "outputs": [
        {
          "internalType": "bytes32",
          "name": "",
          "type": "bytes32"
        }
      ],
      "stateMutability": "view",
      "type": "function"
    },
    {
      "inputs": [
        {
          "internalType": "address",
          "name": "registry",
          "type": "address"
        }
      ],
      "name": "setRegistry",
      "outputs": [],
      "stateMutability": "nonpayable",
      "type": "function"
    },
    {
      "inputs": [
        {
          "internalType": "address",
          "name": "account",
          "type": "address"
        }
      ],
      "name": "transferOwnership",
      "outputs": [],
      "stateMutability": "nonpayable",
      "type": "function"
    },
    {
      "inputs": [
        {
          "internalType": "address",
          "name": "accountImpl",
          "type": "address"
        }
      ],
      "name": "upgradeAccount",
      "outputs": [],
      "stateMutability": "nonpayable",
      "type": "function"
    },
    {
      "inputs": [
        {
          "internalType": "address",
          "name": "newImplementation",
          "type": "address"
        }
      ],
      "name": "upgradeTo",
      "outputs": [],
      "stateMutability": "nonpayable",
      "type": "function"
    },
    {
      "inputs": [
        {
          "internalType": "address",
          "name": "newImplementation",
          "type": "address"
        },
        {
          "internalType": "bytes",
          "name": "data",
          "type": "bytes"
        }
      ],
      "name": "upgradeToAndCall",
      "outputs": [],
      "stateMutability": "payable",
      "type": "function"
    }
  ],
  "transactionHash": "0xd83958ba991d4536a43d997bc6aa112c72aff348b9d5e0f71efe6c6609654883",
  "args": [],
  "numDeployments": 7,
  "solcInputHash": "ef55a61d5dc115b88b49033d23bb5b2e",
  "bytecode": "0x60a08060405234610031573060805261186e908161003882396080518181816105f8015281816107490152610bc20152f35b50600080fdfe6040608081526004361015610015575b50600080fd5b600090813560e01c80630b5ef9981461029f57806311464fbe146102775780633659cfe61461026057806343013c24146102495780634589fd16146102315780634f1ef2861461021e57806352d1902d146101f35780635c60da1b146101bb5780638da5cb5b14610183578063a91ee0dc1461016c578063ef4cdac8146100fd578063f2fde38b146100e35763fd813d12146100b1575061000f565b346100df576100db91506100d06100c736610581565b929190916111bc565b9051918291826102d2565b0390f35b5080fd5b50346100df576100fa6100f536610348565b610dd6565b51f35b50346100df576100db91506100d06101143661056f565b6043605591604051903060388301526f5af43d82803e903d91602b57fd5bf3ff6024830152306014830152733d602d80600a3d3981f3363d3d373d3d3d363d73825260588201526037600c8201206078820152012090565b50346100df576100fa61017e36610348565b611555565b50346100df576100db9150610197366102e5565b6000805160206117eb8339815191525490519182916001600160a01b0316826102d2565b50346100df576100db91506101cf366102e5565b60008051602061178b8339815191525490519182916001600160a01b0316826102d2565b50346100df576100db9150610207366102e5565b61020f6105f5565b90519081529081906020820190565b506100fa61022b3661052c565b90610bb8565b50346100df576100fa610243366103e8565b91610eec565b50346100df576100fa61025b36610348565b611033565b50346100df576100fa61027236610348565b61073f565b50346100df576100db9161028a366102e5565b5490519182916001600160a01b0316826102d2565b50346100df576100db91506100d06102b6366102bc565b906116c6565b604090600319011261000f576004359060243590565b6001600160a01b03909116815260200190565b600090600319011261000f57565b600091031261000f57565b600435906001600160a01b03821682141561031557565b5050600080fd5b602435906001600160a01b03821682141561031557565b35906001600160a01b03821682141561031557565b602090600319011261000f576004356001600160a01b0381168114156103155790565b50634e487b7160e01b600052604160045260246000fd5b602081019081106001600160401b0382111761039d57604052565b6103a561036b565b604052565b606081019081106001600160401b0382111761039d57604052565b601f909101601f19168101906001600160401b0382119082101761039d57604052565b6060600319820112610315576103fc6102fe565b9161040561031c565b91604435906001600160401b039081831161049f578060238401121561049f578260040135918211610492575b8160051b60405193602093610449858401876103c5565b855260248486019282010192831161048557602401905b82821061046e575050505090565b83809161047a84610333565b815201910190610460565b5050505050505050600080fd5b61049a61036b565b610432565b505050505050600080fd5b6020906001600160401b0381116104c7575b601f01601f19160190565b6104cf61036b565b6104bc565b81601f82011215610524578035906104eb826104aa565b926104f960405194856103c5565b8284526020838301011161051b57816000926020809301838601378301015290565b50505050600080fd5b505050600080fd5b906040600319830112610315576004356001600160a01b0381168114156105245791602435906001600160401b03821161051b5761056c916004016104d4565b90565b602090600319011261000f5760043590565b600319810160a0811261052457606013610315576004916001600160401b03906064358281116105eb57836105b79186016104d4565b926084359083821161049f578060238301121561049f578186013593841161049f57602484830101116105eb576024019190565b5050505050600080fd5b307f00000000000000000000000000000000000000000000000000000000000000006001600160a01b031614156106385760008051602061178b83398151915290565b5060405162461bcd60e51b815260206004820152603860248201527f555550535570677261646561626c653a206d757374206e6f742062652063616c6044820152771b1959081d1a1c9bdd59da0819195b1959d85d1958d85b1b60421b6064820152608490fd5b156106a657565b5060405162461bcd60e51b815260206004820152602c602482015260008051602061176b83398151915260448201526b19195b1959d85d1958d85b1b60a21b6064820152608490fd5b156106f657565b5060405162461bcd60e51b815260206004820152602c602482015260008051602061176b83398151915260448201526b6163746976652070726f787960a01b6064820152608490fd5b6001600160a01b037f0000000000000000000000000000000000000000000000000000000000000000811691906107783084141561069f565b61079560008051602061178b8339815191529382855416146106ef565b806000805160206117eb833981519152541633141561086d57604051906107bb82610382565b60008252600036602084013760008051602061172b8339815191525460ff16156107ed5750506107eb915061099c565b565b6020600491604094939451928380926352d1902d60e01b825286165afa6000918161084d575b5061083a57505050505060405162461bcd60e51b815280610836600482016108fd565b0390fd5b6107eb93610848911461089e565b610a2e565b61086691925061085d3d826103c5565b3d810190610882565b9038610813565b505050506004604051632f7a8ee160e01b8152fd5b90816020910312610315575190565b506040513d6000823e3d90fd5b156108a557565b5060405162461bcd60e51b815260206004820152602960248201527f45524331393637557067726164653a20756e737570706f727465642070726f786044820152681a58589b195555525160ba1b6064820152608490fd5b60809060208152602e60208201527f45524331393637557067726164653a206e657720696d706c656d656e7461746960408201526d6f6e206973206e6f74205555505360901b60608201520190565b6000805160206117eb83398151915280546001600160a01b0319166001600160a01b03909216919091179055565b600080546001600160a01b0319166001600160a01b0392909216919091179055565b803b156109d15760008051602061178b83398151915280546001600160a01b0319166001600160a01b03909216919091179055565b505060405162461bcd60e51b815260206004820152602d60248201527f455243313936373a206e657720696d706c656d656e746174696f6e206973206e60448201526c1bdd08184818dbdb9d1c9858dd609a1b6064820152608490fd5b610a378161099c565b604051906000906001600160a01b0381166000805160206117cb8339815191528385a2835115801590610af1575b610a70575b50505050565b8180610ade95610a7f866103aa565b6027865260008051602061180b8339815191526020870152660819985a5b195960ca1b6040870152602081519101845af4903d15610ae8573d610ac1816104aa565b90610acf60405192836103c5565b8152809360203d92013e610cd4565b5038808080610a6a565b60609250610cd4565b5081610a65565b610b018161099c565b604051906001600160a01b0381166000805160206117cb833981519152600084a2825115801590610bb0575b610b3657505050565b600080610ba594610b46856103aa565b6027855260008051602061180b8339815191526020860152660819985a5b195960ca1b6040860152602081519101845af43d15610ba8573d91610b88836104aa565b92610b9660405194856103c5565b83523d6000602085013e610cd4565b50565b606091610cd4565b506001610b2d565b6001600160a01b037f000000000000000000000000000000000000000000000000000000000000000081169290610bf13085141561069f565b610c0e60008051602061178b8339815191529482865416146106ef565b806000805160206117eb8339815191525416331415610cbe5760008051602061172b8339815191525460ff1615610c4b5750506107eb915061099c565b6020600491604094939451928380926352d1902d60e01b825286165afa60009181610ca7575b50610c9457505050505060405162461bcd60e51b815280610836600482016108fd565b6107eb93610ca2911461089e565b610af8565b610cb791925061085d3d826103c5565b9038610c71565b50505050506004604051632f7a8ee160e01b8152fd5b91929015610d385750815115610ce8575090565b3b15610cf15790565b505060405162461bcd60e51b815260206004820152601d60248201527f416464726573733a2063616c6c20746f206e6f6e2d636f6e74726163740000006044820152606490fd5b825192935091159050610d4e5750805190602001fd5b60405162461bcd60e51b8152915081906108369060048301610dc5565b918091926000905b828210610d8b575011610d84575050565b6000910152565b91508060209183015181860152018291610d73565b90602091610db981518092818552858086019101610d6b565b601f01601f1916010190565b90602061056c928181520190610da0565b6000805160206117eb833981519152546001600160a01b03919082163381141561086d576107eb928216906000805160206117ab8339815191526000604051a361094c565b6107eb9060018060a01b03806000805160206117eb8339815191525416908216906000805160206117ab8339815191526000604051a361094c565b15610e5d57565b5060405162461bcd60e51b815260206004820152601260248201527134b73b30b634b21034b734ba1037bbb732b960711b6044820152606490fd5b6000198114610ea75760010190565b5050634e487b7160e01b600052601160045260246000fd5b8051821015610ed35760209160051b010190565b505050634e487b7160e01b600052603260045260246000fd5b6000805160206117eb83398151915254929392610f2f9291610f2a91610f25906001600160a01b03908116159081611027575b50610e56565b610e1b565b61097a565b60005b82518110156110225780610fd2610f6e610f62610f62610f55610fd79689610ebf565b516001600160a01b031690565b6001600160a01b031690565b60408051630358917f60e51b8152916004916020919082858581855afa948515611015575b600095610ffe575b505163b68d180960e01b815292839182905afa908115610ff1575b600091610fdc575b50610fcc610f558589610ebf565b91611682565b610e98565b610f32565b610feb915061085d3d826103c5565b38610fbe565b610ff9610891565b610fb6565b61100e91955061085d3d826103c5565b9338610f9b565b61101d610891565b610f93565b509050565b90508216151538610f1f565b6000805160206117eb833981519152546001600160a01b031633141561105c576107eb9061097a565b5050604051632f7a8ee160e01b8152600490fd5b1561107757565b5060405162461bcd60e51b81526020600482015260126024820152711c9959da5cdd1c9e481b9bdd08199bdd5b9960721b6044820152606490fd5b6001600160e01b031990911681526001600160a01b039091166020820152604081019190915260806060820181905261056c92910190610da0565b928492608095928552602085015260606040850152816060850152848401376000828201840152601f01601f1916010190565b906107eb603660405180947503730b6b2903b30b634b230ba34b7b71032b93937b9160551b602083015261115d8151809260208686019101610d6b565b81010360168101855201836103c5565b156111755750565b60405162461bcd60e51b81526020600482015291508190610836906024830190610da0565b6001600160a01b03909116815260406020820181905261056c92910190610da0565b9061127b61124f60208395979660018060a01b0398896111e08489013589356116c6565b16906111ed821515611070565b60405160009761123091868101916112279082906112199046308f356001600160e01b031916886110b2565b03601f1981018352826103c5565b51902098611634565b976040519586948593849363e758a2b760e01b85528c600486016110ed565b03915afa908115611342575b839161132d575b5061127461126f82611418565b611120565b901561116d565b611285823061134f565b81549095861693906001600160a01b0316843b1561132357827fe491e278e37782abe0872fe7c7b549cd7b0713d0c5c1e84a81899a5fdf32087b93926112e0926040519384928392633ab4c37560e21b84526004840161119a565b038183895af18015611316575b6112f9575b50604051a3565b611310906113073d826103c5565b3d8101906102f3565b386112f2565b61131e610891565b6112ed565b5050935050505080fd5b61133c915061085d3d826103c5565b38611262565b61134a610891565b61125b565b6e5af43d82803e903d91602b57fd5bf390763d602d80600a3d3981f3363d3d373d3d3d363d7300000062ffffff8260881c161760005260781b17602052603760096000f5906001600160a01b038216156113a557565b505060405162461bcd60e51b8152602060048201526017602482015276115490cc4c4d8dce8818dc99585d194c8819985a5b1959604a1b6044820152606490fd5b906113f0826104aa565b6113fd60405191826103c5565b828152809261140e601f19916104aa565b0190602036910137565b6000908072184f03e93ff9f4daa797ed6e38ed64bf6a1f0160401b80821015611547575b506904ee2d6d415b85acef8160201b80831015611538575b50662386f26fc1000080831015611529575b506305f5e1008083101561151a575b506127108083101561150b575b5060648210156114fb575b600a809210156114f1575b6001908160216114a98287016113e6565b95860101905b6114bb575b5050505090565b600019019083906f181899199a1a9b1b9c1cb0b131b232b360811b8282061a8353049182156114ec579190826114af565b6114b4565b9160010191611498565b919060646002910491019161148d565b60049193920491019138611482565b60089193920491019138611475565b60109193920491019138611466565b60209193920491019138611454565b60409350810491503861143c565b6000805160206117eb833981519152546001600160a01b039190821633141561161f57604051630358917f60e51b81526107eb926004919083166020828481845afa918215611612575b6000926115f8575b506020906040519384809263b68d180960e01b82525afa9182156115eb575b6000926115d4575b50611682565b6115e491925061085d3d826103c5565b90386115ce565b6115f3610891565b6115c6565b602091925061160b9061085d3d826103c5565b91906115a7565b61161a610891565b61159f565b5050604051632f7a8ee160e01b815260049150fd5b604051604060208201928035845260208101358284015201356060820152606081526080810181811060018060401b03821117611675575b60405251902090565b61167d61036b565b61166c565b600090815260008051602061174b833981519152602090815260408083209383529290522080546001600160a01b0319166001600160a01b03909216919091179055565b600081815260008051602061174b83398151915260208181526040808420958452949052928120546001600160a01b039081169493909285156117095750505050565b60409394955082526020528181208180526020522054169038808080610a6a56fe4910fdfa16fed3260ed0e7147f7cc6da11a60208b5b9406d12a635614ffd9143f2030018f2975eff2ae542b8f2260e6f90d91acbf9d059f27dca311d3c2a914446756e6374696f6e206d7573742062652063616c6c6564207468726f75676820360894a13ba1a3210667c828492db98dca3e2076cc3735a920a3ca505d382bbc8be0079c531659141344cd1fd0a4f28419497f9722a3daafe3b4186f6b6457e0bc7cd75a20ee27fd9adebab32041f755214dbc6bffa90cc0225b39da2e5c2d3b8a22373512790c48b83a1fe2efdd2888d4a917bcdc24d0adf63e60f671680460416464726573733a206c6f772d6c6576656c2064656c65676174652063616c6ca36469706673582212208c9d136034c58c04ba75d17c27ffdc3884770c68ab2561ba224f03ce14b309406c6578706572696d656e74616cf564736f6c634300080c0041",
  "devdoc": {
    "kind": "dev",
    "methods": {
      "owner()": {
        "returns": {
          "_0": "conrtact owner"
        }
      },
      "proxiableUUID()": {
        "details": "Implementation of the ERC1822 {proxiableUUID} function. This returns the storage slot used by the implementation. It is used to validate the implementation's compatibility when performing an upgrade. IMPORTANT: A proxy pointing at a proxiable contract should not be considered proxiable itself, because this risks bricking a proxy that upgrades to it, by delegating to itself until out of gas. Thus it is critical that this function revert if invoked through a proxy. This is guaranteed by the `notDelegated` modifier."
      },
      "transferOwnership(address)": {
        "params": {
          "account": "address of new owner"
        }
      },
      "upgradeTo(address)": {
        "details": "Upgrade the implementation of the proxy to `newImplementation`. Calls {_authorizeUpgrade}. Emits an {Upgraded} event."
      },
      "upgradeToAndCall(address,bytes)": {
        "details": "Upgrade the implementation of the proxy to `newImplementation`, and subsequently execute the function call encoded in `data`. Calls {_authorizeUpgrade}. Emits an {Upgraded} event."
      }
    },
    "version": 1
  },
  "userdoc": {
    "kind": "user",
    "methods": {
      "deploy((bytes32,bytes32,bytes32),bytes,bytes)": {
        "notice": "IAccountFactory Functions "
      },
      "implementation()": {
        "notice": "UUPSUpgradeable "
      },
      "ownedAccount(bytes32)": {
        "notice": "EIP-4972 Functions "
      },
      "owner()": {
        "notice": "get the ERC173 contract owner"
      },
      "setRegistry(address)": {
        "notice": "name registry functions "
      },
      "transferOwnership(address)": {
        "notice": "transfer contract ownership to new account"
      }
    },
    "version": 1
  },
  "storageLayout": {
    "storage": [
      {
        "astId": 15747,
        "contract": "contracts/hexlink/Hexlink.sol:Hexlink",
        "label": "accountImplementation",
        "offset": 0,
        "slot": "0",
        "type": "t_address"
      }
    ],
    "types": {
      "t_address": {
        "encoding": "inplace",
        "label": "address",
        "numberOfBytes": "20"
      }
    }
  }
}