{
  "address": "0x54D8EAC73ef4F16Ee7FEecf49C232AF288D0263F",
  "abi": [
    {
      "inputs": [],
      "name": "Ownable__NotOwner",
      "type": "error"
    },
    {
      "inputs": [],
      "name": "Ownable__NotTransitiveOwner",
      "type": "error"
    },
    {
      "anonymous": false,
      "inputs": [
        {
          "indexed": false,
          "internalType": "address",
          "name": "previousAdmin",
          "type": "address"
        },
        {
          "indexed": false,
          "internalType": "address",
          "name": "newAdmin",
          "type": "address"
        }
      ],
      "name": "AdminChanged",
      "type": "event"
    },
    {
      "anonymous": false,
      "inputs": [
        {
          "indexed": true,
          "internalType": "address",
          "name": "beacon",
          "type": "address"
        }
      ],
      "name": "BeaconUpgraded",
      "type": "event"
    },
    {
      "anonymous": false,
      "inputs": [
        {
          "indexed": true,
          "internalType": "bytes32",
          "name": "name",
          "type": "bytes32"
        },
        {
          "indexed": true,
          "internalType": "address",
          "name": "account",
          "type": "address"
        }
      ],
      "name": "Deployed",
      "type": "event"
    },
    {
      "anonymous": false,
      "inputs": [
        {
          "indexed": true,
          "internalType": "address",
          "name": "previousOwner",
          "type": "address"
        },
        {
          "indexed": true,
          "internalType": "address",
          "name": "newOwner",
          "type": "address"
        }
      ],
      "name": "OwnershipTransferred",
      "type": "event"
    },
    {
      "anonymous": false,
      "inputs": [
        {
          "indexed": true,
          "internalType": "address",
          "name": "implementation",
          "type": "address"
        }
      ],
      "name": "Upgraded",
      "type": "event"
    },
    {
      "inputs": [],
      "name": "accountImplementation",
      "outputs": [
        {
          "internalType": "address",
          "name": "",
          "type": "address"
        }
      ],
      "stateMutability": "view",
      "type": "function"
    },
    {
      "inputs": [
        {
          "components": [
            {
              "internalType": "bytes32",
              "name": "schema",
              "type": "bytes32"
            },
            {
              "internalType": "bytes32",
              "name": "domain",
              "type": "bytes32"
            },
            {
              "internalType": "bytes32",
              "name": "handle",
              "type": "bytes32"
            }
          ],
          "internalType": "struct Name",
          "name": "name",
          "type": "tuple"
        },
        {
          "internalType": "address",
          "name": "accountImpl",
          "type": "address"
        },
        {
          "internalType": "bytes",
          "name": "data",
          "type": "bytes"
        },
        {
          "internalType": "bytes",
          "name": "authProof",
          "type": "bytes"
        }
      ],
      "name": "deploy",
      "outputs": [
        {
          "internalType": "address",
          "name": "account",
          "type": "address"
        }
      ],
      "stateMutability": "nonpayable",
      "type": "function"
    },
    {
      "inputs": [
        {
          "internalType": "bytes32",
          "name": "schema",
          "type": "bytes32"
        },
        {
          "internalType": "bytes32",
          "name": "domain",
          "type": "bytes32"
        }
      ],
      "name": "getRegistry",
      "outputs": [
        {
          "internalType": "address",
          "name": "",
          "type": "address"
        }
      ],
      "stateMutability": "view",
      "type": "function"
    },
    {
      "inputs": [],
      "name": "implementation",
      "outputs": [
        {
          "internalType": "address",
          "name": "",
          "type": "address"
        }
      ],
      "stateMutability": "view",
      "type": "function"
    },
    {
      "inputs": [
        {
          "internalType": "address",
          "name": "owner",
          "type": "address"
        },
        {
          "internalType": "address",
          "name": "accountImpl",
          "type": "address"
        },
        {
          "internalType": "address[]",
          "name": "registries",
          "type": "address[]"
        }
      ],
      "name": "init",
      "outputs": [],
      "stateMutability": "nonpayable",
      "type": "function"
    },
    {
      "inputs": [
        {
          "internalType": "bytes32",
          "name": "name",
          "type": "bytes32"
        }
      ],
      "name": "ownedAccount",
      "outputs": [
        {
          "internalType": "address",
          "name": "",
          "type": "address"
        }
      ],
      "stateMutability": "view",
      "type": "function"
    },
    {
      "inputs": [],
      "name": "owner",
      "outputs": [
        {
          "internalType": "address",
          "name": "",
          "type": "address"
        }
      ],
      "stateMutability": "view",
      "type": "function"
    },
    {
      "inputs": [],
      "name": "proxiableUUID",
      "outputs": [
        {
          "internalType": "bytes32",
          "name": "",
          "type": "bytes32"
        }
      ],
      "stateMutability": "view",
      "type": "function"
    },
    {
      "inputs": [
        {
          "internalType": "address",
          "name": "registry",
          "type": "address"
        }
      ],
      "name": "setRegistry",
      "outputs": [],
      "stateMutability": "nonpayable",
      "type": "function"
    },
    {
      "inputs": [
        {
          "internalType": "address",
          "name": "account",
          "type": "address"
        }
      ],
      "name": "transferOwnership",
      "outputs": [],
      "stateMutability": "nonpayable",
      "type": "function"
    },
    {
      "inputs": [
        {
          "internalType": "address",
          "name": "accountImpl",
          "type": "address"
        }
      ],
      "name": "upgradeAccount",
      "outputs": [],
      "stateMutability": "nonpayable",
      "type": "function"
    },
    {
      "inputs": [
        {
          "internalType": "address",
          "name": "newImplementation",
          "type": "address"
        }
      ],
      "name": "upgradeTo",
      "outputs": [],
      "stateMutability": "nonpayable",
      "type": "function"
    },
    {
      "inputs": [
        {
          "internalType": "address",
          "name": "newImplementation",
          "type": "address"
        },
        {
          "internalType": "bytes",
          "name": "data",
          "type": "bytes"
        }
      ],
      "name": "upgradeToAndCall",
      "outputs": [],
      "stateMutability": "payable",
      "type": "function"
    }
  ],
  "transactionHash": "0x0358f5bd742e1ddd942973f5c311494b68f3c6afd2b6e49a6b6bb147e97c4a52",
  "args": [],
  "numDeployments": 5,
  "solcInputHash": "2abeb67ca645a2f7041f90a18e0910c6",
  "bytecode": "0x60a08060405234610031573060805261189b9081610038823960805181818161061b0152818161076c0152610be50152f35b50600080fdfe6040608081526004361015610015575b50600080fd5b600090813560e01c80630b5ef9981461029f57806311464fbe146102775780633659cfe61461026057806343013c24146102495780634589fd16146102315780634f1ef2861461021e57806352d1902d146101f35780635c60da1b146101bb5780638da5cb5b14610183578063a91ee0dc1461016c578063d8defc3c1461014c578063ef4cdac8146100ce5763f2fde38b146100b1575061000f565b346100ca576100c76100c23661035f565b610df9565b51f35b5080fd5b50346100ca57610148915061013d6100e536610606565b6043605591604051903060388301526f5af43d82803e903d91602b57fd5bf3ff6024830152306014830152733d602d80600a3d3981f3363d3d373d3d3d363d73825260588201526037600c8201206078820152012090565b9051918291826102d2565b0390f35b50346100ca57610148915061013d61016336610586565b939290926111df565b50346100ca576100c761017e3661035f565b611582565b50346100ca576101489150610197366102e5565b6000805160206118188339815191525490519182916001600160a01b0316826102d2565b50346100ca5761014891506101cf366102e5565b6000805160206117b88339815191525490519182916001600160a01b0316826102d2565b50346100ca576101489150610207366102e5565b61020f610618565b90519081529081906020820190565b506100c761022b36610543565b90610bdb565b50346100ca576100c7610243366103ff565b91610f0f565b50346100ca576100c761025b3661035f565b611056565b50346100ca576100c76102723661035f565b610762565b50346100ca576101489161028a366102e5565b5490519182916001600160a01b0316826102d2565b50346100ca57610148915061013d6102b6366102bc565b906116f3565b604090600319011261000f576004359060243590565b6001600160a01b03909116815260200190565b600090600319011261000f57565b600091031261000f57565b600435906001600160a01b03821682141561031557565b5050600080fd5b602435906001600160a01b03821682141561031557565b606435906001600160a01b03821682141561031557565b35906001600160a01b03821682141561031557565b602090600319011261000f576004356001600160a01b0381168114156103155790565b50634e487b7160e01b600052604160045260246000fd5b602081019081106001600160401b038211176103b457604052565b6103bc610382565b604052565b606081019081106001600160401b038211176103b457604052565b601f909101601f19168101906001600160401b038211908210176103b457604052565b6060600319820112610315576104136102fe565b9161041c61031c565b91604435906001600160401b03908183116104b657806023840112156104b65782600401359182116104a9575b8160051b60405193602093610460858401876103dc565b855260248486019282010192831161049c57602401905b828210610485575050505090565b8380916104918461034a565b815201910190610477565b5050505050505050600080fd5b6104b1610382565b610449565b505050505050600080fd5b6020906001600160401b0381116104de575b601f01601f19160190565b6104e6610382565b6104d3565b81601f8201121561053b57803590610502826104c1565b9261051060405194856103dc565b8284526020838301011161053257816000926020809301838601378301015290565b50505050600080fd5b505050600080fd5b906040600319830112610315576004356001600160a01b03811681141561053b5791602435906001600160401b03821161053257610583916004016104eb565b90565b90600319820160c0811261053b57606013610315576004916105a6610333565b916001600160401b03906084358281116104b657836105c69187016104eb565b9260a435908382116105fa57806023830112156105fa57818701359384116105fa57602484830101116104b6576024019190565b50505050505050600080fd5b602090600319011261000f5760043590565b307f00000000000000000000000000000000000000000000000000000000000000006001600160a01b0316141561065b576000805160206117b883398151915290565b5060405162461bcd60e51b815260206004820152603860248201527f555550535570677261646561626c653a206d757374206e6f742062652063616c6044820152771b1959081d1a1c9bdd59da0819195b1959d85d1958d85b1b60421b6064820152608490fd5b156106c957565b5060405162461bcd60e51b815260206004820152602c602482015260008051602061179883398151915260448201526b19195b1959d85d1958d85b1b60a21b6064820152608490fd5b1561071957565b5060405162461bcd60e51b815260206004820152602c602482015260008051602061179883398151915260448201526b6163746976652070726f787960a01b6064820152608490fd5b6001600160a01b037f00000000000000000000000000000000000000000000000000000000000000008116919061079b308414156106c2565b6107b86000805160206117b8833981519152938285541614610712565b80600080516020611818833981519152541633141561089057604051906107de82610399565b6000825260003660208401376000805160206117588339815191525460ff161561081057505061080e91506109bf565b565b6020600491604094939451928380926352d1902d60e01b825286165afa60009181610870575b5061085d57505050505060405162461bcd60e51b81528061085960048201610920565b0390fd5b61080e9361086b91146108c1565b610a51565b6108899192506108803d826103dc565b3d8101906108a5565b9038610836565b505050506004604051632f7a8ee160e01b8152fd5b90816020910312610315575190565b506040513d6000823e3d90fd5b156108c857565b5060405162461bcd60e51b815260206004820152602960248201527f45524331393637557067726164653a20756e737570706f727465642070726f786044820152681a58589b195555525160ba1b6064820152608490fd5b60809060208152602e60208201527f45524331393637557067726164653a206e657720696d706c656d656e7461746960408201526d6f6e206973206e6f74205555505360901b60608201520190565b60008051602061181883398151915280546001600160a01b0319166001600160a01b03909216919091179055565b600080546001600160a01b0319166001600160a01b0392909216919091179055565b803b156109f4576000805160206117b883398151915280546001600160a01b0319166001600160a01b03909216919091179055565b505060405162461bcd60e51b815260206004820152602d60248201527f455243313936373a206e657720696d706c656d656e746174696f6e206973206e60448201526c1bdd08184818dbdb9d1c9858dd609a1b6064820152608490fd5b610a5a816109bf565b604051906000906001600160a01b0381166000805160206117f88339815191528385a2835115801590610b14575b610a93575b50505050565b8180610b0195610aa2866103c1565b602786526000805160206118388339815191526020870152660819985a5b195960ca1b6040870152602081519101845af4903d15610b0b573d610ae4816104c1565b90610af260405192836103dc565b8152809360203d92013e610cf7565b5038808080610a8d565b60609250610cf7565b5081610a88565b610b24816109bf565b604051906001600160a01b0381166000805160206117f8833981519152600084a2825115801590610bd3575b610b5957505050565b600080610bc894610b69856103c1565b602785526000805160206118388339815191526020860152660819985a5b195960ca1b6040860152602081519101845af43d15610bcb573d91610bab836104c1565b92610bb960405194856103dc565b83523d6000602085013e610cf7565b50565b606091610cf7565b506001610b50565b6001600160a01b037f000000000000000000000000000000000000000000000000000000000000000081169290610c14308514156106c2565b610c316000805160206117b8833981519152948286541614610712565b806000805160206118188339815191525416331415610ce1576000805160206117588339815191525460ff1615610c6e57505061080e91506109bf565b6020600491604094939451928380926352d1902d60e01b825286165afa60009181610cca575b50610cb757505050505060405162461bcd60e51b81528061085960048201610920565b61080e93610cc591146108c1565b610b1b565b610cda9192506108803d826103dc565b9038610c94565b50505050506004604051632f7a8ee160e01b8152fd5b91929015610d5b5750815115610d0b575090565b3b15610d145790565b505060405162461bcd60e51b815260206004820152601d60248201527f416464726573733a2063616c6c20746f206e6f6e2d636f6e74726163740000006044820152606490fd5b825192935091159050610d715750805190602001fd5b60405162461bcd60e51b8152915081906108599060048301610de8565b918091926000905b828210610dae575011610da7575050565b6000910152565b91508060209183015181860152018291610d96565b90602091610ddc81518092818552858086019101610d8e565b601f01601f1916010190565b906020610583928181520190610dc3565b600080516020611818833981519152546001600160a01b0391908216338114156108905761080e928216906000805160206117d88339815191526000604051a361096f565b61080e9060018060a01b03806000805160206118188339815191525416908216906000805160206117d88339815191526000604051a361096f565b15610e8057565b5060405162461bcd60e51b815260206004820152601260248201527134b73b30b634b21034b734ba1037bbb732b960711b6044820152606490fd5b6000198114610eca5760010190565b5050634e487b7160e01b600052601160045260246000fd5b8051821015610ef65760209160051b010190565b505050634e487b7160e01b600052603260045260246000fd5b60008051602061181883398151915254929392610f529291610f4d91610f48906001600160a01b0390811615908161104a575b50610e79565b610e3e565b61099d565b60005b82518110156110455780610ff5610f91610f85610f85610f78610ffa9689610ee2565b516001600160a01b031690565b6001600160a01b031690565b60408051630358917f60e51b8152916004916020919082858581855afa948515611038575b600095611021575b505163b68d180960e01b815292839182905afa908115611014575b600091610fff575b50610fef610f788589610ee2565b916116af565b610ebb565b610f55565b61100e91506108803d826103dc565b38610fe1565b61101c6108b4565b610fd9565b6110319195506108803d826103dc565b9338610fbe565b6110406108b4565b610fb6565b509050565b90508216151538610f42565b600080516020611818833981519152546001600160a01b031633141561107f5761080e9061099d565b5050604051632f7a8ee160e01b8152600490fd5b1561109a57565b5060405162461bcd60e51b81526020600482015260126024820152711c9959da5cdd1c9e481b9bdd08199bdd5b9960721b6044820152606490fd5b6001600160e01b031990911681526001600160a01b039091166020820152604081019190915260806060820181905261058392910190610dc3565b928492608095928552602085015260606040850152816060850152848401376000828201840152601f01601f1916010190565b9061080e603660405180947503730b6b2903b30b634b230ba34b7b71032b93937b9160551b60208301526111808151809260208686019101610d8e565b81010360168101855201836103dc565b156111985750565b60405162461bcd60e51b81526020600482015291508190610859906024830190610dc3565b6001600160a01b03909116815260406020820181905261058392910190610dc3565b9161129c61127060208394989760018060a01b039788611203848a01358a356116f3565b1690611210821515611093565b611251604051858101906112488161123a60009d8e4690309063ffffffff60e01b903516886110d5565b03601f1981018352826103dc565b51902099611661565b986040519586948593849363e758a2b760e01b85528d60048601611110565b03915afa90811561136f575b849161135a575b5061129561129082611445565b611143565b9015611190565b6112a6833061137c565b95848716948116611355575081546001600160a01b03165b843b1561134b57827fe491e278e37782abe0872fe7c7b549cd7b0713d0c5c1e84a81899a5fdf32087b9392611308926040519384928392633ab4c37560e21b8452600484016111bd565b038183895af1801561133e575b611321575b50604051a3565b6113389061132f3d826103dc565b3d8101906102f3565b3861131a565b6113466108b4565b611315565b5050935050505080fd5b6112be565b61136991506108803d826103dc565b38611283565b6113776108b4565b61127c565b6e5af43d82803e903d91602b57fd5bf390763d602d80600a3d3981f3363d3d373d3d3d363d7300000062ffffff8260881c161760005260781b17602052603760096000f5906001600160a01b038216156113d257565b505060405162461bcd60e51b8152602060048201526017602482015276115490cc4c4d8dce8818dc99585d194c8819985a5b1959604a1b6044820152606490fd5b9061141d826104c1565b61142a60405191826103dc565b828152809261143b601f19916104c1565b0190602036910137565b6000908072184f03e93ff9f4daa797ed6e38ed64bf6a1f0160401b80821015611574575b506904ee2d6d415b85acef8160201b80831015611565575b50662386f26fc1000080831015611556575b506305f5e10080831015611547575b5061271080831015611538575b506064821015611528575b600a8092101561151e575b6001908160216114d6828701611413565b95860101905b6114e8575b5050505090565b600019019083906f181899199a1a9b1b9c1cb0b131b232b360811b8282061a835304918215611519579190826114dc565b6114e1565b91600101916114c5565b91906064600291049101916114ba565b600491939204910191386114af565b600891939204910191386114a2565b60109193920491019138611493565b60209193920491019138611481565b604093508104915038611469565b600080516020611818833981519152546001600160a01b039190821633141561164c57604051630358917f60e51b815261080e926004919083166020828481845afa91821561163f575b600092611625575b506020906040519384809263b68d180960e01b82525afa918215611618575b600092611601575b506116af565b6116119192506108803d826103dc565b90386115fb565b6116206108b4565b6115f3565b6020919250611638906108803d826103dc565b91906115d4565b6116476108b4565b6115cc565b5050604051632f7a8ee160e01b815260049150fd5b604051604060208201928035845260208101358284015201356060820152606081526080810181811060018060401b038211176116a2575b60405251902090565b6116aa610382565b611699565b6000908152600080516020611778833981519152602090815260408083209383529290522080546001600160a01b0319166001600160a01b03909216919091179055565b600081815260008051602061177883398151915260208181526040808420958452949052928120546001600160a01b039081169493909285156117365750505050565b60409394955082526020528181208180526020522054169038808080610a8d56fe4910fdfa16fed3260ed0e7147f7cc6da11a60208b5b9406d12a635614ffd9143f2030018f2975eff2ae542b8f2260e6f90d91acbf9d059f27dca311d3c2a914446756e6374696f6e206d7573742062652063616c6c6564207468726f75676820360894a13ba1a3210667c828492db98dca3e2076cc3735a920a3ca505d382bbc8be0079c531659141344cd1fd0a4f28419497f9722a3daafe3b4186f6b6457e0bc7cd75a20ee27fd9adebab32041f755214dbc6bffa90cc0225b39da2e5c2d3b8a22373512790c48b83a1fe2efdd2888d4a917bcdc24d0adf63e60f671680460416464726573733a206c6f772d6c6576656c2064656c65676174652063616c6ca3646970667358221220a2611cd5540a705dcfb75a9cefe46d5d034f96bc55e5c9f69783885b4c3104406c6578706572696d656e74616cf564736f6c634300080c0041",
  "devdoc": {
    "kind": "dev",
    "methods": {
      "owner()": {
        "returns": {
          "_0": "conrtact owner"
        }
      },
      "proxiableUUID()": {
        "details": "Implementation of the ERC1822 {proxiableUUID} function. This returns the storage slot used by the implementation. It is used to validate the implementation's compatibility when performing an upgrade. IMPORTANT: A proxy pointing at a proxiable contract should not be considered proxiable itself, because this risks bricking a proxy that upgrades to it, by delegating to itself until out of gas. Thus it is critical that this function revert if invoked through a proxy. This is guaranteed by the `notDelegated` modifier."
      },
      "transferOwnership(address)": {
        "params": {
          "account": "address of new owner"
        }
      },
      "upgradeTo(address)": {
        "details": "Upgrade the implementation of the proxy to `newImplementation`. Calls {_authorizeUpgrade}. Emits an {Upgraded} event."
      },
      "upgradeToAndCall(address,bytes)": {
        "details": "Upgrade the implementation of the proxy to `newImplementation`, and subsequently execute the function call encoded in `data`. Calls {_authorizeUpgrade}. Emits an {Upgraded} event."
      }
    },
    "version": 1
  },
  "userdoc": {
    "kind": "user",
    "methods": {
      "deploy((bytes32,bytes32,bytes32),address,bytes,bytes)": {
        "notice": "IAccountFactory Functions "
      },
      "implementation()": {
        "notice": "UUPSUpgradeable "
      },
      "ownedAccount(bytes32)": {
        "notice": "EIP-4972 Functions "
      },
      "owner()": {
        "notice": "get the ERC173 contract owner"
      },
      "setRegistry(address)": {
        "notice": "name registry functions "
      },
      "transferOwnership(address)": {
        "notice": "transfer contract ownership to new account"
      }
    },
    "version": 1
  },
  "storageLayout": {
    "storage": [
      {
        "astId": 2764,
        "contract": "contracts/hexlink/Hexlink.sol:Hexlink",
        "label": "accountImplementation",
        "offset": 0,
        "slot": "0",
        "type": "t_address"
      }
    ],
    "types": {
      "t_address": {
        "encoding": "inplace",
        "label": "address",
        "numberOfBytes": "20"
      }
    }
  }
}