{
  "address": "0xaA2c9A5e271b0519d9B3A8BB94f87331462a0352",
  "abi": [
    {
      "inputs": [],
      "name": "Ownable__NotOwner",
      "type": "error"
    },
    {
      "inputs": [],
      "name": "Ownable__NotTransitiveOwner",
      "type": "error"
    },
    {
      "anonymous": false,
      "inputs": [
        {
          "indexed": true,
          "internalType": "address",
          "name": "previousOwner",
          "type": "address"
        },
        {
          "indexed": true,
          "internalType": "address",
          "name": "newOwner",
          "type": "address"
        }
      ],
      "name": "OwnershipTransferred",
      "type": "event"
    },
    {
      "anonymous": false,
      "inputs": [
        {
          "indexed": true,
          "internalType": "address",
          "name": "validator",
          "type": "address"
        },
        {
          "indexed": false,
          "internalType": "bool",
          "name": "registered",
          "type": "bool"
        }
      ],
      "name": "Registered",
      "type": "event"
    },
    {
      "inputs": [],
      "name": "getDomain",
      "outputs": [
        {
          "internalType": "bytes32",
          "name": "",
          "type": "bytes32"
        }
      ],
      "stateMutability": "view",
      "type": "function"
    },
    {
      "inputs": [],
      "name": "getSchema",
      "outputs": [
        {
          "internalType": "bytes32",
          "name": "",
          "type": "bytes32"
        }
      ],
      "stateMutability": "view",
      "type": "function"
    },
    {
      "inputs": [
        {
          "internalType": "bytes32",
          "name": "schema",
          "type": "bytes32"
        },
        {
          "internalType": "bytes32",
          "name": "domain",
          "type": "bytes32"
        },
        {
          "internalType": "address",
          "name": "owner",
          "type": "address"
        },
        {
          "internalType": "address[]",
          "name": "validators",
          "type": "address[]"
        }
      ],
      "name": "init",
      "outputs": [],
      "stateMutability": "nonpayable",
      "type": "function"
    },
    {
      "inputs": [
        {
          "internalType": "address",
          "name": "validator",
          "type": "address"
        }
      ],
      "name": "isRegistered",
      "outputs": [
        {
          "internalType": "bool",
          "name": "",
          "type": "bool"
        }
      ],
      "stateMutability": "view",
      "type": "function"
    },
    {
      "inputs": [],
      "name": "owner",
      "outputs": [
        {
          "internalType": "address",
          "name": "",
          "type": "address"
        }
      ],
      "stateMutability": "view",
      "type": "function"
    },
    {
      "inputs": [
        {
          "internalType": "address",
          "name": "validator",
          "type": "address"
        },
        {
          "internalType": "bool",
          "name": "registered",
          "type": "bool"
        }
      ],
      "name": "registerValidator",
      "outputs": [],
      "stateMutability": "nonpayable",
      "type": "function"
    },
    {
      "inputs": [
        {
          "internalType": "address",
          "name": "account",
          "type": "address"
        }
      ],
      "name": "transferOwnership",
      "outputs": [],
      "stateMutability": "nonpayable",
      "type": "function"
    },
    {
      "inputs": [
        {
          "internalType": "bytes32",
          "name": "name",
          "type": "bytes32"
        },
        {
          "internalType": "bytes32",
          "name": "requestInfo",
          "type": "bytes32"
        },
        {
          "internalType": "bytes",
          "name": "authProof",
          "type": "bytes"
        }
      ],
      "name": "validateName",
      "outputs": [
        {
          "internalType": "uint256",
          "name": "",
          "type": "uint256"
        }
      ],
      "stateMutability": "view",
      "type": "function"
    }
  ],
  "transactionHash": "0x4d97974c917a426410aa548dce3bdd6394113d521416ddd0c16b8b34871e51d9",
  "args": [],
  "numDeployments": 1,
  "solcInputHash": "c1304da1d922f7a04f6195808fc5bb58",
  "bytecode": "0x608060405234801561001057600080fd5b50611678806100206000396000f3fe608060405234801561001057600080fd5b50600436106100885760003560e01c8063b68d18091161005b578063b68d180914610101578063c3c5a5471461011f578063e758a2b71461014f578063f2fde38b1461017f57610088565b80636b122fe01461008d57806370b7620a146100ab5780638da5cb5b146100c7578063ac517d92146100e5575b600080fd5b61009561019b565b6040516100a29190610ad5565b60405180910390f35b6100c560048036038101906100c09190610ce7565b6101a4565b005b6100cf6102c9565b6040516100dc9190610d79565b60405180910390f35b6100ff60048036038101906100fa9190610dcc565b6102d8565b005b61010961045d565b6040516101169190610ad5565b60405180910390f35b61013960048036038101906101349190610e0c565b610467565b6040516101469190610e48565b60405180910390f35b61016960048036038101906101649190610f18565b6104bd565b6040516101769190610fa0565b60405180910390f35b61019960048036038101906101949190610e0c565b61060d565b005b60008054905090565b600073ffffffffffffffffffffffffffffffffffffffff166101c4610685565b73ffffffffffffffffffffffffffffffffffffffff161461021a576040517f08c379a000000000000000000000000000000000000000000000000000000000815260040161021190611018565b60405180910390fd5b610223826106b8565b60005b81518110156102b45760016002600084848151811061024857610247611038565b5b602002602001015173ffffffffffffffffffffffffffffffffffffffff1673ffffffffffffffffffffffffffffffffffffffff16815260200190815260200160002060006101000a81548160ff02191690831515021790555080806102ac90611096565b915050610226565b50836000819055508260018190555050505050565b60006102d3610685565b905090565b6102e0610685565b73ffffffffffffffffffffffffffffffffffffffff163373ffffffffffffffffffffffffffffffffffffffff1614610344576040517f2f7a8ee100000000000000000000000000000000000000000000000000000000815260040160405180910390fd5b600073ffffffffffffffffffffffffffffffffffffffff168273ffffffffffffffffffffffffffffffffffffffff1614156103b4576040517f08c379a00000000000000000000000000000000000000000000000000000000081526004016103ab9061112b565b60405180910390fd5b80600260008473ffffffffffffffffffffffffffffffffffffffff1673ffffffffffffffffffffffffffffffffffffffff16815260200190815260200160002060006101000a81548160ff0219169083151502179055508173ffffffffffffffffffffffffffffffffffffffff167f472c2fec85816a6e426ac9b8a4971b1224a52b6289cb30147b3918fb91dfce53826040516104519190610e48565b60405180910390a25050565b6000600154905090565b6000600260008373ffffffffffffffffffffffffffffffffffffffff1673ffffffffffffffffffffffffffffffffffffffff16815260200190815260200160002060009054906101000a900460ff169050919050565b600080828060200190518101906104d49190611290565b9050428160000151116104eb576001915050610606565b600085858360000151604051602001610506939291906112d9565b6040516020818303038152906040528051906020012090506000808360200151806020019051810190610539919061134e565b91509150600260008373ffffffffffffffffffffffffffffffffffffffff1673ffffffffffffffffffffffffffffffffffffffff16815260200190815260200160002060009054906101000a900460ff161561059c576001945050505050610606565b60006105a7846106c4565b90506105bc82826106f490919063ffffffff16565b73ffffffffffffffffffffffffffffffffffffffff168373ffffffffffffffffffffffffffffffffffffffff16146105fc57600395505050505050610606565b6000955050505050505b9392505050565b610615610685565b73ffffffffffffffffffffffffffffffffffffffff163373ffffffffffffffffffffffffffffffffffffffff1614610679576040517f2f7a8ee100000000000000000000000000000000000000000000000000000000815260040160405180910390fd5b610682816106b8565b50565b600061068f61071b565b60000160009054906101000a900473ffffffffffffffffffffffffffffffffffffffff16905090565b6106c181610748565b50565b6000816040516020016106d79190611422565b604051602081830303815290604052805190602001209050919050565b60008060006107038585610819565b915091506107108161086b565b819250505092915050565b6000807f8a22373512790c48b83a1fe2efdd2888d4a917bcdc24d0adf63e60f67168046090508091505090565b600061075261071b565b90508173ffffffffffffffffffffffffffffffffffffffff168160000160009054906101000a900473ffffffffffffffffffffffffffffffffffffffff1673ffffffffffffffffffffffffffffffffffffffff167f8be0079c531659141344cd1fd0a4f28419497f9722a3daafe3b4186f6b6457e060405160405180910390a3818160000160006101000a81548173ffffffffffffffffffffffffffffffffffffffff021916908373ffffffffffffffffffffffffffffffffffffffff1602179055505050565b60008060418351141561085b5760008060006020860151925060408601519150606086015160001a905061084f878285856109d9565b94509450505050610864565b60006002915091505b9250929050565b6000600481111561087f5761087e611448565b5b81600481111561089257610891611448565b5b141561089d576109d6565b600160048111156108b1576108b0611448565b5b8160048111156108c4576108c3611448565b5b1415610905576040517f08c379a00000000000000000000000000000000000000000000000000000000081526004016108fc906114c3565b60405180910390fd5b6002600481111561091957610918611448565b5b81600481111561092c5761092b611448565b5b141561096d576040517f08c379a00000000000000000000000000000000000000000000000000000000081526004016109649061152f565b60405180910390fd5b6003600481111561098157610980611448565b5b81600481111561099457610993611448565b5b14156109d5576040517f08c379a00000000000000000000000000000000000000000000000000000000081526004016109cc906115c1565b60405180910390fd5b5b50565b6000807f7fffffffffffffffffffffffffffffff5d576e7357a4501ddfe92f46681b20a08360001c1115610a14576000600391509150610ab3565b600060018787878760405160008152602001604052604051610a3994939291906115fd565b6020604051602081039080840390855afa158015610a5b573d6000803e3d6000fd5b505050602060405103519050600073ffffffffffffffffffffffffffffffffffffffff168173ffffffffffffffffffffffffffffffffffffffff161415610aaa57600060019250925050610ab3565b80600092509250505b94509492505050565b6000819050919050565b610acf81610abc565b82525050565b6000602082019050610aea6000830184610ac6565b92915050565b6000604051905090565b600080fd5b600080fd5b610b0d81610abc565b8114610b1857600080fd5b50565b600081359050610b2a81610b04565b92915050565b600073ffffffffffffffffffffffffffffffffffffffff82169050919050565b6000610b5b82610b30565b9050919050565b610b6b81610b50565b8114610b7657600080fd5b50565b600081359050610b8881610b62565b92915050565b600080fd5b6000601f19601f8301169050919050565b7f4e487b7100000000000000000000000000000000000000000000000000000000600052604160045260246000fd5b610bdc82610b93565b810181811067ffffffffffffffff82111715610bfb57610bfa610ba4565b5b80604052505050565b6000610c0e610af0565b9050610c1a8282610bd3565b919050565b600067ffffffffffffffff821115610c3a57610c39610ba4565b5b602082029050602081019050919050565b600080fd5b6000610c63610c5e84610c1f565b610c04565b90508083825260208201905060208402830185811115610c8657610c85610c4b565b5b835b81811015610caf5780610c9b8882610b79565b845260208401935050602081019050610c88565b5050509392505050565b600082601f830112610cce57610ccd610b8e565b5b8135610cde848260208601610c50565b91505092915050565b60008060008060808587031215610d0157610d00610afa565b5b6000610d0f87828801610b1b565b9450506020610d2087828801610b1b565b9350506040610d3187828801610b79565b925050606085013567ffffffffffffffff811115610d5257610d51610aff565b5b610d5e87828801610cb9565b91505092959194509250565b610d7381610b50565b82525050565b6000602082019050610d8e6000830184610d6a565b92915050565b60008115159050919050565b610da981610d94565b8114610db457600080fd5b50565b600081359050610dc681610da0565b92915050565b60008060408385031215610de357610de2610afa565b5b6000610df185828601610b79565b9250506020610e0285828601610db7565b9150509250929050565b600060208284031215610e2257610e21610afa565b5b6000610e3084828501610b79565b91505092915050565b610e4281610d94565b82525050565b6000602082019050610e5d6000830184610e39565b92915050565b600080fd5b600067ffffffffffffffff821115610e8357610e82610ba4565b5b610e8c82610b93565b9050602081019050919050565b82818337600083830152505050565b6000610ebb610eb684610e68565b610c04565b905082815260208101848484011115610ed757610ed6610e63565b5b610ee2848285610e99565b509392505050565b600082601f830112610eff57610efe610b8e565b5b8135610f0f848260208601610ea8565b91505092915050565b600080600060608486031215610f3157610f30610afa565b5b6000610f3f86828701610b1b565b9350506020610f5086828701610b1b565b925050604084013567ffffffffffffffff811115610f7157610f70610aff565b5b610f7d86828701610eea565b9150509250925092565b6000819050919050565b610f9a81610f87565b82525050565b6000602082019050610fb56000830184610f91565b92915050565b600082825260208201905092915050565b7f4845584c30313500000000000000000000000000000000000000000000000000600082015250565b6000611002600783610fbb565b915061100d82610fcc565b602082019050919050565b6000602082019050818103600083015261103181610ff5565b9050919050565b7f4e487b7100000000000000000000000000000000000000000000000000000000600052603260045260246000fd5b7f4e487b7100000000000000000000000000000000000000000000000000000000600052601160045260246000fd5b60006110a182610f87565b91507fffffffffffffffffffffffffffffffffffffffffffffffffffffffffffffffff8214156110d4576110d3611067565b5b600182019050919050565b7f696e76616c69642076616c696461746f72000000000000000000000000000000600082015250565b6000611115601183610fbb565b9150611120826110df565b602082019050919050565b6000602082019050818103600083015261114481611108565b9050919050565b600080fd5b600080fd5b61115e81610f87565b811461116957600080fd5b50565b60008151905061117b81611155565b92915050565b60005b8381101561119f578082015181840152602081019050611184565b838111156111ae576000848401525b50505050565b60006111c76111c284610e68565b610c04565b9050828152602081018484840111156111e3576111e2610e63565b5b6111ee848285611181565b509392505050565b600082601f83011261120b5761120a610b8e565b5b815161121b8482602086016111b4565b91505092915050565b60006040828403121561123a5761123961114b565b5b6112446040610c04565b905060006112548482850161116c565b600083015250602082015167ffffffffffffffff81111561127857611277611150565b5b611284848285016111f6565b60208301525092915050565b6000602082840312156112a6576112a5610afa565b5b600082015167ffffffffffffffff8111156112c4576112c3610aff565b5b6112d084828501611224565b91505092915050565b60006060820190506112ee6000830186610ac6565b6112fb6020830185610ac6565b6113086040830184610f91565b949350505050565b600061131b82610b30565b9050919050565b61132b81611310565b811461133657600080fd5b50565b60008151905061134881611322565b92915050565b6000806040838503121561136557611364610afa565b5b600061137385828601611339565b925050602083015167ffffffffffffffff81111561139457611393610aff565b5b6113a0858286016111f6565b9150509250929050565b600081905092915050565b7f19457468657265756d205369676e6564204d6573736167653a0a333200000000600082015250565b60006113eb601c836113aa565b91506113f6826113b5565b601c82019050919050565b6000819050919050565b61141c61141782610abc565b611401565b82525050565b600061142d826113de565b9150611439828461140b565b60208201915081905092915050565b7f4e487b7100000000000000000000000000000000000000000000000000000000600052602160045260246000fd5b7f45434453413a20696e76616c6964207369676e61747572650000000000000000600082015250565b60006114ad601883610fbb565b91506114b882611477565b602082019050919050565b600060208201905081810360008301526114dc816114a0565b9050919050565b7f45434453413a20696e76616c6964207369676e6174757265206c656e67746800600082015250565b6000611519601f83610fbb565b9150611524826114e3565b602082019050919050565b600060208201905081810360008301526115488161150c565b9050919050565b7f45434453413a20696e76616c6964207369676e6174757265202773272076616c60008201527f7565000000000000000000000000000000000000000000000000000000000000602082015250565b60006115ab602283610fbb565b91506115b68261154f565b604082019050919050565b600060208201905081810360008301526115da8161159e565b9050919050565b600060ff82169050919050565b6115f7816115e1565b82525050565b60006080820190506116126000830187610ac6565b61161f60208301866115ee565b61162c6040830185610ac6565b6116396060830184610ac6565b9594505050505056fea2646970667358221220c511e23704449f95603d45c144e8656ca149098d261111f1927081a5f394a61b64736f6c634300080c0033",
  "devdoc": {
    "kind": "dev",
    "methods": {
      "owner()": {
        "returns": {
          "_0": "conrtact owner"
        }
      },
      "transferOwnership(address)": {
        "params": {
          "account": "address of new owner"
        }
      }
    },
    "version": 1
  },
  "userdoc": {
    "kind": "user",
    "methods": {
      "getSchema()": {
        "notice": "INameRegistry "
      },
      "init(bytes32,bytes32,address,address[])": {
        "notice": "help functions to create name registry "
      },
      "isRegistered(address)": {
        "notice": "validator registration "
      },
      "owner()": {
        "notice": "get the ERC173 contract owner"
      },
      "transferOwnership(address)": {
        "notice": "transfer contract ownership to new account"
      }
    },
    "version": 1
  },
  "storageLayout": {
    "storage": [
      {
        "astId": 13254,
        "contract": "contracts/registry/NameRegistry.sol:NameRegistry",
        "label": "schema_",
        "offset": 0,
        "slot": "0",
        "type": "t_bytes32"
      },
      {
        "astId": 13256,
        "contract": "contracts/registry/NameRegistry.sol:NameRegistry",
        "label": "domain_",
        "offset": 0,
        "slot": "1",
        "type": "t_bytes32"
      },
      {
        "astId": 13260,
        "contract": "contracts/registry/NameRegistry.sol:NameRegistry",
        "label": "validators_",
        "offset": 0,
        "slot": "2",
        "type": "t_mapping(t_address,t_bool)"
      }
    ],
    "types": {
      "t_address": {
        "encoding": "inplace",
        "label": "address",
        "numberOfBytes": "20"
      },
      "t_bool": {
        "encoding": "inplace",
        "label": "bool",
        "numberOfBytes": "1"
      },
      "t_bytes32": {
        "encoding": "inplace",
        "label": "bytes32",
        "numberOfBytes": "32"
      },
      "t_mapping(t_address,t_bool)": {
        "encoding": "mapping",
        "key": "t_address",
        "label": "mapping(address => bool)",
        "numberOfBytes": "32",
        "value": "t_bool"
      }
    }
  }
}