{
  "address": "0xAAEECEf0FD77847fa84B0852EE228BC4a7A14034",
  "abi": [
    {
      "inputs": [
        {
          "internalType": "address",
          "name": "entrypoint",
          "type": "address"
        }
      ],
      "stateMutability": "nonpayable",
      "type": "constructor"
    },
    {
      "anonymous": false,
      "inputs": [
        {
          "indexed": false,
          "internalType": "address",
          "name": "previousAdmin",
          "type": "address"
        },
        {
          "indexed": false,
          "internalType": "address",
          "name": "newAdmin",
          "type": "address"
        }
      ],
      "name": "AdminChanged",
      "type": "event"
    },
    {
      "anonymous": false,
      "inputs": [
        {
          "indexed": true,
          "internalType": "address",
          "name": "beacon",
          "type": "address"
        }
      ],
      "name": "BeaconUpgraded",
      "type": "event"
    },
    {
      "anonymous": false,
      "inputs": [
        {
          "indexed": false,
          "internalType": "uint8",
          "name": "version",
          "type": "uint8"
        }
      ],
      "name": "Initialized",
      "type": "event"
    },
    {
      "anonymous": false,
      "inputs": [
        {
          "indexed": true,
          "internalType": "address",
          "name": "implementation",
          "type": "address"
        }
      ],
      "name": "Upgraded",
      "type": "event"
    },
    {
      "stateMutability": "nonpayable",
      "type": "fallback"
    },
    {
      "inputs": [],
      "name": "addDeposit",
      "outputs": [],
      "stateMutability": "payable",
      "type": "function"
    },
    {
      "inputs": [],
      "name": "entryPoint",
      "outputs": [
        {
          "internalType": "contract IEntryPoint",
          "name": "",
          "type": "address"
        }
      ],
      "stateMutability": "view",
      "type": "function"
    },
    {
      "inputs": [
        {
          "internalType": "address",
          "name": "dest",
          "type": "address"
        },
        {
          "internalType": "uint256",
          "name": "value",
          "type": "uint256"
        },
        {
          "internalType": "bytes",
          "name": "func",
          "type": "bytes"
        }
      ],
      "name": "exec",
      "outputs": [],
      "stateMutability": "payable",
      "type": "function"
    },
    {
      "inputs": [
        {
          "internalType": "address[]",
          "name": "dest",
          "type": "address[]"
        },
        {
          "internalType": "uint256[]",
          "name": "values",
          "type": "uint256[]"
        },
        {
          "internalType": "bytes[]",
          "name": "func",
          "type": "bytes[]"
        }
      ],
      "name": "execBatch",
      "outputs": [],
      "stateMutability": "payable",
      "type": "function"
    },
    {
      "inputs": [],
      "name": "getDeposit",
      "outputs": [
        {
          "internalType": "uint256",
          "name": "",
          "type": "uint256"
        }
      ],
      "stateMutability": "view",
      "type": "function"
    },
    {
      "inputs": [],
      "name": "getName",
      "outputs": [
        {
          "internalType": "bytes32",
          "name": "",
          "type": "bytes32"
        },
        {
          "internalType": "address",
          "name": "",
          "type": "address"
        }
      ],
      "stateMutability": "view",
      "type": "function"
    },
    {
      "inputs": [],
      "name": "getNonce",
      "outputs": [
        {
          "internalType": "uint256",
          "name": "",
          "type": "uint256"
        }
      ],
      "stateMutability": "view",
      "type": "function"
    },
    {
      "inputs": [],
      "name": "implementation",
      "outputs": [
        {
          "internalType": "address",
          "name": "",
          "type": "address"
        }
      ],
      "stateMutability": "view",
      "type": "function"
    },
    {
      "inputs": [
        {
          "internalType": "bytes32",
          "name": "name",
          "type": "bytes32"
        },
        {
          "internalType": "address",
          "name": "validator",
          "type": "address"
        }
      ],
      "name": "initialize",
      "outputs": [],
      "stateMutability": "nonpayable",
      "type": "function"
    },
    {
      "inputs": [],
      "name": "proxiableUUID",
      "outputs": [
        {
          "internalType": "bytes32",
          "name": "",
          "type": "bytes32"
        }
      ],
      "stateMutability": "view",
      "type": "function"
    },
    {
      "inputs": [
        {
          "internalType": "address",
          "name": "newImplementation",
          "type": "address"
        }
      ],
      "name": "upgradeTo",
      "outputs": [],
      "stateMutability": "nonpayable",
      "type": "function"
    },
    {
      "inputs": [
        {
          "internalType": "address",
          "name": "newImplementation",
          "type": "address"
        },
        {
          "internalType": "bytes",
          "name": "data",
          "type": "bytes"
        }
      ],
      "name": "upgradeToAndCall",
      "outputs": [],
      "stateMutability": "payable",
      "type": "function"
    },
    {
      "inputs": [
        {
          "components": [
            {
              "internalType": "address",
              "name": "sender",
              "type": "address"
            },
            {
              "internalType": "uint256",
              "name": "nonce",
              "type": "uint256"
            },
            {
              "internalType": "bytes",
              "name": "initCode",
              "type": "bytes"
            },
            {
              "internalType": "bytes",
              "name": "callData",
              "type": "bytes"
            },
            {
              "internalType": "uint256",
              "name": "callGasLimit",
              "type": "uint256"
            },
            {
              "internalType": "uint256",
              "name": "verificationGasLimit",
              "type": "uint256"
            },
            {
              "internalType": "uint256",
              "name": "preVerificationGas",
              "type": "uint256"
            },
            {
              "internalType": "uint256",
              "name": "maxFeePerGas",
              "type": "uint256"
            },
            {
              "internalType": "uint256",
              "name": "maxPriorityFeePerGas",
              "type": "uint256"
            },
            {
              "internalType": "bytes",
              "name": "paymasterAndData",
              "type": "bytes"
            },
            {
              "internalType": "bytes",
              "name": "signature",
              "type": "bytes"
            }
          ],
          "internalType": "struct UserOperation",
          "name": "userOp",
          "type": "tuple"
        },
        {
          "internalType": "bytes32",
          "name": "userOpHash",
          "type": "bytes32"
        },
        {
          "internalType": "uint256",
          "name": "missingAccountFunds",
          "type": "uint256"
        }
      ],
      "name": "validateUserOp",
      "outputs": [
        {
          "internalType": "uint256",
          "name": "validationData",
          "type": "uint256"
        }
      ],
      "stateMutability": "nonpayable",
      "type": "function"
    },
    {
      "inputs": [
        {
          "internalType": "address payable",
          "name": "withdrawAddress",
          "type": "address"
        },
        {
          "internalType": "uint256",
          "name": "amount",
          "type": "uint256"
        }
      ],
      "name": "withdrawDepositTo",
      "outputs": [],
      "stateMutability": "nonpayable",
      "type": "function"
    },
    {
      "stateMutability": "payable",
      "type": "receive"
    }
  ],
  "transactionHash": "0xdfd8039206973bc8b0278de9ff536a940c87f0a8eacd640778c59f7dde7a934c",
  "args": [
    "0x5FF137D4b0FDCD49DcA30c7CF57E578a026d2789"
  ],
  "numDeployments": 3,
  "solcInputHash": "cfab4c3b3160e9c00e35b6905611c38f",
  "bytecode": "0x60c080604052346100b457601f6115ca38819003918201601f19168301916001600160401b038311848410176100ba578084926020946040528339810103126100b457516001600160a01b0381168114156100b4573060805260a0526040516114f590816100d582396080518181816108290152818161097a0152610cb8015260a05181818161013f01528181610646015281816106b80152818161121701528181611255015281816112e9015261137a0152f35b50600080fd5b50505050634e487b7160e01b600052604160045260246000fdfe6040608081526004361015610032575b503615610030573461002b57610023610e93565b602081519101f35b600080fd5b005b600090813560e01c80630565bb67146102be57806317d7de7c1461026b5780633659cfe6146102545780633a871cdd146102375780634a58db19146102255780634d44560d1461020d5780634f1ef286146101fa57806352d1902d146101de5780635c60da1b146101a65780636910e3341461018e578063a4d8925114610172578063b0d691fe14610127578063c399ec881461010b5763d087d288146100d9575061000f565b346101075761010391506100ec36610363565b6100f4610624565b90519081529081906020820190565b0390f35b5080fd5b503461010757610103915061011f36610363565b6100f46111fc565b50903461016d575061013836610363565b51806101037f00000000000000000000000000000000000000000000000000000000000000006001600160a01b031682610538565b809150fd5b5061018b61017f36610597565b94939093929192611108565b51f35b50346101075761018b6101a03661054b565b90610eb4565b50346101075761010391506101ba36610363565b6000805160206114528339815191525490519182916001600160a01b031682610538565b50346101075761010391506101f236610363565b6100f4610826565b5061018b610207366104ef565b90610cae565b50346101075761018b61021f366103d7565b906112d7565b5061022f36610363565b61018b611253565b50346101075761010391506100f461024e3661038c565b916106a8565b50346101075761018b61026636610371565b610970565b503461010757610103915061027f36610363565b600080516020611492833981519152546000805160206114128339815191525491519081526001600160a01b0390911660208201529081906040820190565b5061018b6102cb366102ec565b92919091611053565b6001600160a01b03811614156102e657565b50600080fd5b90606060031983011261035c57600435610305816102d4565b91602435916001600160401b03916044359083821161035157806023830112156103515781600401359384116103515760248483010111610347576024019190565b5050505050600080fd5b505050505050600080fd5b5050600080fd5b60009060031901126102e657565b60209060031901126102e657600435610389816102d4565b90565b600319906060818301126103cf57600435916001600160401b0383116103c657826101609203011261035c57600401906024359060443590565b50505050600080fd5b505050600080fd5b60409060031901126102e6576004356103ef816102d4565b9060243590565b50634e487b7160e01b600052604160045260246000fd5b604081019081106001600160401b0382111761042857604052565b6104306103f6565b604052565b602081019081106001600160401b0382111761042857604052565b606081019081106001600160401b0382111761042857604052565b601f909101601f19168101906001600160401b0382119082101761042857604052565b6020906001600160401b0381116104ab575b601f01601f19160190565b6104b36103f6565b6104a0565b9291926104c48261048e565b916104d2604051938461046b565b829481845281830111610347578281602093846000960137010152565b90604060031983011261035c57600435610508816102d4565b91602435906001600160401b0382116103c657806023830112156103c657816024610389936004013591016104b8565b6001600160a01b03909116815260200190565b60409060031901126102e65760043590602435610389816102d4565b9181601f840112156103cf578235916001600160401b0383116103c6576020808501948460051b0101116103cf57565b90606060031983011261035c576001600160401b036004358181116103c657836105c391600401610567565b9390939260243583811161035157826105de91600401610567565b939093926044359182116105fc576105f891600401610567565b9091565b50505050505050600080fd5b9081602091031261035c575190565b506040513d6000823e3d90fd5b604051631aab3f0d60e11b8152306004820152600060248201526020816044817f00000000000000000000000000000000000000000000000000000000000000006001600160a01b03165afa90811561069b575b600091610683575090565b61038991506106923d8261046b565b3d810190610608565b6106a3610617565b610678565b9192916001600160a01b039190337f00000000000000000000000000000000000000000000000000000000000000008416141561078d5761076992602061072b81936040516106f68161040d565b6000805160206114928339815191525494858252600080516020611412833981519152541693849101526101408101906110b0565b604051636310b8bb60e01b81529586948593849361074e93909260048601611344565b03915afa908115610780575b60009161076b575b5092610805565b565b61077a91506106923d8261046b565b38610762565b610788610617565b61075a565b5050505050606460405162461bcd60e51b815260206004820152601c60248201527b1858d8dbdd5b9d0e881b9bdd08199c9bdb48115b9d1c9e541bda5b9d60221b6044820152fd5b3d15610800573d906107e68261048e565b916107f4604051938461046b565b82523d6000602084013e565b606090565b8061080d5750565b600080809260405190338319f1506108236107d5565b50565b307f00000000000000000000000000000000000000000000000000000000000000006001600160a01b031614156108695760008051602061145283398151915290565b5060405162461bcd60e51b815260206004820152603860248201527f555550535570677261646561626c653a206d757374206e6f742062652063616c6044820152771b1959081d1a1c9bdd59da0819195b1959d85d1958d85b1b60421b6064820152608490fd5b156108d757565b5060405162461bcd60e51b815260206004820152602c602482015260008051602061143283398151915260448201526b19195b1959d85d1958d85b1b60a21b6064820152608490fd5b1561092757565b5060405162461bcd60e51b815260206004820152602c602482015260008051602061143283398151915260448201526b6163746976652070726f787960a01b6064820152608490fd5b6001600160a01b037f0000000000000000000000000000000000000000000000000000000000000000811691906109a9308414156108d0565b6109c6600080516020611452833981519152938285541614610920565b6109ce611377565b604051906109db82610435565b6000825260003660208401376000805160206113f28339815191525460ff1615610a0b5750506107699150610b30565b6020600491604094939451928380926352d1902d60e01b825286165afa60009181610a6b575b50610a5857505050505060405162461bcd60e51b815280610a5460048201610ae1565b0390fd5b61076993610a669114610a82565b610bc2565b610a7b9192506106923d8261046b565b9038610a31565b15610a8957565b5060405162461bcd60e51b815260206004820152602960248201527f45524331393637557067726164653a20756e737570706f727465642070726f786044820152681a58589b195555525160ba1b6064820152608490fd5b60809060208152602e60208201527f45524331393637557067726164653a206e657720696d706c656d656e7461746960408201526d6f6e206973206e6f74205555505360901b60608201520190565b803b15610b655760008051602061145283398151915280546001600160a01b0319166001600160a01b03909216919091179055565b505060405162461bcd60e51b815260206004820152602d60248201527f455243313936373a206e657720696d706c656d656e746174696f6e206973206e60448201526c1bdd08184818dbdb9d1c9858dd609a1b6064820152608490fd5b610bcb81610b30565b604051906001600160a01b038116600080516020611472833981519152600084a2825115801590610c61575b610c0057505050565b60008061082394610c1085610450565b602785527f416464726573733a206c6f772d6c6576656c2064656c65676174652063616c6c6020860152660819985a5b195960ca1b6040860152602081519101845af4610c5b6107d5565b91610df0565b506000610bf7565b610c7281610b30565b604051906001600160a01b038116600080516020611472833981519152600084a2825115801590610ca657610c0057505050565b506001610bf7565b6001600160a01b037f000000000000000000000000000000000000000000000000000000000000000081169290610ce7308514156108d0565b610d04600080516020611452833981519152948286541614610920565b610d0c611377565b6000805160206113f28339815191525460ff1615610d305750506107699150610b30565b6020600491604094939451928380926352d1902d60e01b825286165afa60009181610d8c575b50610d7957505050505060405162461bcd60e51b815280610a5460048201610ae1565b61076993610d879114610a82565b610c69565b610d9c9192506106923d8261046b565b9038610d56565b15610daa57565b5060405162461bcd60e51b815260206004820152601d60248201527f416464726573733a2063616c6c20746f206e6f6e2d636f6e74726163740000006044820152606490fd5b91929015610e105750815115610e04575090565b610389903b1515610da3565b825192935091159050610e265750805190602001fd5b90506040519062461bcd60e51b82528160208060048301528251928360248401526000915b848310610e7a575050918060449311610e6d575b601f01601f19168101030190fd5b6000838284010152610e5f565b8183018101518684016044015285935091820191610e4b565b60405163ffffffff60e01b600035166020820152602081526103898161040d565b6000549160ff8360081c161580938194611045575b8115611025575b5015610fc657610f2f9183610eed600160ff196000541617600055565b610f74576000805160206114928339815191525560008051602061141283398151915280546001600160a01b0319166001600160a01b03909216919091179055565b610f3557565b610f4561ff001960005416600055565b604051600181527f7f26b83ff96e1f2b6a682f133852f6798a09c465da95921460cefb384740249890602090a1565b610f8861010061ff00196000541617600055565b6000805160206114928339815191525560008051602061141283398151915280546001600160a01b0319166001600160a01b03909216919091179055565b50505050608460405162461bcd60e51b815260206004820152602e60248201527f496e697469616c697a61626c653a20636f6e747261637420697320616c72656160448201526d191e481a5b9a5d1a585b1a5e995960921b6064820152fd5b303b15915081611037575b5038610ed0565b6001915060ff161438611030565b600160ff8216109150610ec9565b9161106b9061076994611064611377565b36916104b8565b916111d3565b50634e487b7160e01b600052603260045260246000fd5b9190811015611099575b60051b0190565b6110a1611071565b611092565b35610389816102d4565b903590601e19813603018212156103cf57018035906001600160401b0382116103cf576020019181360383136103cf57565b90916105f8928110156110fb575b60051b8101906110b0565b611103611071565b6110f0565b9490939192611115611377565b8185141561119257600094855b818110611133575050505050505050565b61116361114961114483858c611088565b6110a6565b61115483868a611088565b3561106b61106485898b6110e2565b600019811461117457600101611122565b5050634e487b7160e01b855250506011600452506024935090915050fd5b50505050505050606460405162461bcd60e51b815260206004820152601360248201527277726f6e67206172726179206c656e6774687360681b6044820152fd5b916000928392602083519301915af16111ea6107d5565b90156111f35750565b80519150602001fd5b6040516370a0823160e01b81523060048201526020816024817f00000000000000000000000000000000000000000000000000000000000000006001600160a01b03165afa90811561069b57600091610683575090565b7f00000000000000000000000000000000000000000000000000000000000000006001600160a01b0316803b1561035c5760006024916040519283809263b760faf960e01b825230600483015234905af180156112ca575b6112b25750565b6000906112bf3d8261046b565b3d810103126102e657565b6112d2610617565b6112ab565b6112df611377565b6001600160a01b037f00000000000000000000000000000000000000000000000000000000000000008116803b156103475760009283604492604051968795869463040b850f60e31b865216600485015260248401525af180156112ca576112b25750565b928492608095928552602085015260606040850152816060850152848401376000828201840152601f01601f1916010190565b337f00000000000000000000000000000000000000000000000000000000000000006001600160a01b03161480156113e8575b156113b157565b5060405162461bcd60e51b815260206004820152600e60248201526d34b73b30b634b21031b0b63632b960911b6044820152606490fd5b503033146113aa56fe4910fdfa16fed3260ed0e7147f7cc6da11a60208b5b9406d12a635614ffd91436588c4e81759316eba99e26df6de4e0a73813c61103c28083ade8d09e747c95646756e6374696f6e206d7573742062652063616c6c6564207468726f75676820360894a13ba1a3210667c828492db98dca3e2076cc3735a920a3ca505d382bbcbc7cd75a20ee27fd9adebab32041f755214dbc6bffa90cc0225b39da2e5c2d3b6588c4e81759316eba99e26df6de4e0a73813c61103c28083ade8d09e747c955a364697066735822122043cd445689b62bb9f0317cfacc2ada2b063d1a45b04889a48b449c68b88788786c6578706572696d656e74616cf564736f6c634300080c0041",
  "devdoc": {
    "kind": "dev",
    "methods": {
      "proxiableUUID()": {
        "details": "Implementation of the ERC1822 {proxiableUUID} function. This returns the storage slot used by the implementation. It is used to validate the implementation's compatibility when performing an upgrade. IMPORTANT: A proxy pointing at a proxiable contract should not be considered proxiable itself, because this risks bricking a proxy that upgrades to it, by delegating to itself until out of gas. Thus it is critical that this function revert if invoked through a proxy. This is guaranteed by the `notDelegated` modifier."
      },
      "upgradeTo(address)": {
        "details": "Upgrade the implementation of the proxy to `newImplementation`. Calls {_authorizeUpgrade}. Emits an {Upgraded} event."
      },
      "upgradeToAndCall(address,bytes)": {
        "details": "Upgrade the implementation of the proxy to `newImplementation`, and subsequently execute the function call encoded in `data`. Calls {_authorizeUpgrade}. Emits an {Upgraded} event."
      }
    },
    "version": 1
  },
  "userdoc": {
    "kind": "user",
    "methods": {
      "entryPoint()": {
        "notice": "ERC4337 BaseAccount "
      },
      "exec(address,uint256,bytes)": {
        "notice": "IExectuable "
      },
      "getDeposit()": {
        "notice": "Paymaster "
      },
      "getName()": {
        "notice": "IERC4972Account "
      },
      "getNonce()": {
        "notice": "Return the account nonce. This method returns the next sequential nonce. For a nonce of a specific key, use `entrypoint.getNonce(account, key)`"
      },
      "implementation()": {
        "notice": "UUPSUpgradeable "
      },
      "validateUserOp((address,uint256,bytes,bytes,uint256,uint256,uint256,uint256,uint256,bytes,bytes),bytes32,uint256)": {
        "notice": "Validate user's signature and nonce. subclass doesn't need to override this method. Instead, it should override the specific internal validation methods."
      }
    },
    "version": 1
  },
  "storageLayout": {
    "storage": [
      {
        "astId": 1503,
        "contract": "contracts/account/Account.sol:Account",
        "label": "_initialized",
        "offset": 0,
        "slot": "0",
        "type": "t_uint8"
      },
      {
        "astId": 1506,
        "contract": "contracts/account/Account.sol:Account",
        "label": "_initializing",
        "offset": 1,
        "slot": "0",
        "type": "t_bool"
      }
    ],
    "types": {
      "t_bool": {
        "encoding": "inplace",
        "label": "bool",
        "numberOfBytes": "1"
      },
      "t_uint8": {
        "encoding": "inplace",
        "label": "uint8",
        "numberOfBytes": "1"
      }
    }
  }
}