{
  "address": "0xfd78f93645882B1246a50cf9e9bb68B47d849572",
  "abi": [
    {
      "inputs": [
        {
          "internalType": "address",
          "name": "accountBase_",
          "type": "address"
        },
        {
          "internalType": "address",
          "name": "nameValidator_",
          "type": "address"
        }
      ],
      "stateMutability": "nonpayable",
      "type": "constructor"
    },
    {
      "inputs": [],
      "name": "Ownable__NotOwner",
      "type": "error"
    },
    {
      "inputs": [],
      "name": "Ownable__NotTransitiveOwner",
      "type": "error"
    },
    {
      "anonymous": false,
      "inputs": [
        {
          "indexed": false,
          "internalType": "address",
          "name": "previousAdmin",
          "type": "address"
        },
        {
          "indexed": false,
          "internalType": "address",
          "name": "newAdmin",
          "type": "address"
        }
      ],
      "name": "AdminChanged",
      "type": "event"
    },
    {
      "anonymous": false,
      "inputs": [
        {
          "indexed": true,
          "internalType": "address",
          "name": "beacon",
          "type": "address"
        }
      ],
      "name": "BeaconUpgraded",
      "type": "event"
    },
    {
      "anonymous": false,
      "inputs": [
        {
          "indexed": true,
          "internalType": "bytes32",
          "name": "name",
          "type": "bytes32"
        },
        {
          "indexed": true,
          "internalType": "address",
          "name": "account",
          "type": "address"
        }
      ],
      "name": "Deployed",
      "type": "event"
    },
    {
      "anonymous": false,
      "inputs": [
        {
          "indexed": false,
          "internalType": "uint8",
          "name": "version",
          "type": "uint8"
        }
      ],
      "name": "Initialized",
      "type": "event"
    },
    {
      "anonymous": false,
      "inputs": [
        {
          "indexed": true,
          "internalType": "address",
          "name": "previousOwner",
          "type": "address"
        },
        {
          "indexed": true,
          "internalType": "address",
          "name": "newOwner",
          "type": "address"
        }
      ],
      "name": "OwnershipTransferred",
      "type": "event"
    },
    {
      "anonymous": false,
      "inputs": [
        {
          "indexed": true,
          "internalType": "address",
          "name": "implementation",
          "type": "address"
        }
      ],
      "name": "Upgraded",
      "type": "event"
    },
    {
      "inputs": [],
      "name": "accountBase",
      "outputs": [
        {
          "internalType": "address",
          "name": "",
          "type": "address"
        }
      ],
      "stateMutability": "view",
      "type": "function"
    },
    {
      "inputs": [
        {
          "internalType": "bytes32",
          "name": "name",
          "type": "bytes32"
        }
      ],
      "name": "deploy",
      "outputs": [
        {
          "internalType": "address",
          "name": "account",
          "type": "address"
        }
      ],
      "stateMutability": "nonpayable",
      "type": "function"
    },
    {
      "inputs": [
        {
          "internalType": "address",
          "name": "owner",
          "type": "address"
        }
      ],
      "name": "initialize",
      "outputs": [],
      "stateMutability": "nonpayable",
      "type": "function"
    },
    {
      "inputs": [],
      "name": "nameValidator",
      "outputs": [
        {
          "internalType": "contract INameValidator",
          "name": "",
          "type": "address"
        }
      ],
      "stateMutability": "view",
      "type": "function"
    },
    {
      "inputs": [
        {
          "internalType": "bytes32",
          "name": "name",
          "type": "bytes32"
        }
      ],
      "name": "ownedAccount",
      "outputs": [
        {
          "internalType": "address",
          "name": "",
          "type": "address"
        }
      ],
      "stateMutability": "view",
      "type": "function"
    },
    {
      "inputs": [],
      "name": "owner",
      "outputs": [
        {
          "internalType": "address",
          "name": "",
          "type": "address"
        }
      ],
      "stateMutability": "view",
      "type": "function"
    },
    {
      "inputs": [],
      "name": "proxiableUUID",
      "outputs": [
        {
          "internalType": "bytes32",
          "name": "",
          "type": "bytes32"
        }
      ],
      "stateMutability": "view",
      "type": "function"
    },
    {
      "inputs": [
        {
          "internalType": "address",
          "name": "account",
          "type": "address"
        }
      ],
      "name": "transferOwnership",
      "outputs": [],
      "stateMutability": "nonpayable",
      "type": "function"
    },
    {
      "inputs": [
        {
          "internalType": "address",
          "name": "newImplementation",
          "type": "address"
        }
      ],
      "name": "upgradeTo",
      "outputs": [],
      "stateMutability": "nonpayable",
      "type": "function"
    },
    {
      "inputs": [
        {
          "internalType": "address",
          "name": "newImplementation",
          "type": "address"
        },
        {
          "internalType": "bytes",
          "name": "data",
          "type": "bytes"
        }
      ],
      "name": "upgradeToAndCall",
      "outputs": [],
      "stateMutability": "payable",
      "type": "function"
    }
  ],
  "transactionHash": "0x9bbee07801cd91ff5899fc4c2deb00fbb4a9909bd226176227239a05b4c775eb",
  "args": [
    "0xAAEECEf0FD77847fa84B0852EE228BC4a7A14034",
    "0x4FfF68a9A45b99c46AB4366E78eB2c390f7e6f0D"
  ],
  "numDeployments": 7,
  "solcInputHash": "43fc72ea1d82d376eae35e29c2336597",
  "bytecode": "0x60e080604052346100b857601f61115538819003918201601f19168301916001600160401b038311848410176100be5780849260409485528339810103126100b8578061005a6020610053610072946100d8565b92016100d8565b3060805260a0919091526001600160a01b031660c052565b60405161106090816100f582396080518181816104150152818161056601526109bd015260a0518181816101430152610e17015260c0518181816101d40152610db90152f35b50600080fd5b50505050634e487b7160e01b600052604160045260246000fd5b51906001600160a01b0382168214156100ed57565b5050600080fdfe6040608081526004361015610015575b50600080fd5b600090813560e01c80632b85ba381461024e5780633659cfe6146102375780634f1ef2861461022457806352d1902d146101f95780638c5269ff146101bc5780638da5cb5b14610184578063c4d66de81461016d578063cd6a84b31461012b578063ef4cdac8146100ad5763f2fde38b14610090575061000f565b346100a9576100a66100a13661028f565b610bbb565b51f35b5080fd5b50346100a957610127915061011c6100c43661026a565b6043605591604051903060388301526f5af43d82803e903d91602b57fd5bf3ff6024830152306014830152733d602d80600a3d3981f3363d3d373d3d3d363d73825260588201526037600c8201206078820152012090565b90519182918261027c565b0390f35b509034610168575061013c366103f9565b51806101277f00000000000000000000000000000000000000000000000000000000000000008261027c565b809150fd5b50346100a9576100a661017f3661028f565b610c3b565b50346100a9576101279150610198366103f9565b600080516020610fdd8339815191525490519182916001600160a01b03168261027c565b50903461016857506101cd366103f9565b51806101277f00000000000000000000000000000000000000000000000000000000000000008261027c565b50346100a957610127915061020d366103f9565b610215610412565b90519081529081906020820190565b506100a661023136610360565b906109b3565b50346100a9576100a66102493661028f565b61055c565b50346100a957610127915061011c6102653661026a565b610d8d565b602090600319011261000f5760043590565b6001600160a01b03909116815260200190565b602090600319011261000f576004356001600160a01b0381168114156102b25790565b5050600080fd5b50634e487b7160e01b600052604160045260246000fd5b602081019081106001600160401b038211176102eb57604052565b6102f36102b9565b604052565b606081019081106001600160401b038211176102eb57604052565b601f909101601f19168101906001600160401b038211908210176102eb57604052565b6020906001600160401b038111610353575b601f01601f19160190565b61035b6102b9565b610348565b9060406003198301126102b2576004356001600160a01b0381168114156103f157916024356001600160401b0381116103e857816023820112156103e8578060040135906103ad82610336565b926103bb6040519485610313565b828452602483830101116103de5781600092602460209301838601378301015290565b5050505050600080fd5b50505050600080fd5b505050600080fd5b600090600319011261000f57565b600091031261000f57565b307f00000000000000000000000000000000000000000000000000000000000000006001600160a01b0316141561045557600080516020610f7d83398151915290565b5060405162461bcd60e51b815260206004820152603860248201527f555550535570677261646561626c653a206d757374206e6f742062652063616c6044820152771b1959081d1a1c9bdd59da0819195b1959d85d1958d85b1b60421b6064820152608490fd5b156104c357565b5060405162461bcd60e51b815260206004820152602c6024820152600080516020610f5d83398151915260448201526b19195b1959d85d1958d85b1b60a21b6064820152608490fd5b1561051357565b5060405162461bcd60e51b815260206004820152602c6024820152600080516020610f5d83398151915260448201526b6163746976652070726f787960a01b6064820152608490fd5b6001600160a01b037f000000000000000000000000000000000000000000000000000000000000000081169190610595308414156104bc565b6105b2600080516020610f7d83398151915293828554161461050c565b80600080516020610fdd833981519152541633141561068a57604051906105d8826102d0565b600082526000366020840137600080516020610f3d8339815191525460ff161561060a5750506106089150610797565b565b6020600491604094939451928380926352d1902d60e01b825286165afa6000918161066a575b5061065757505050505060405162461bcd60e51b8152806106536004820161071a565b0390fd5b6106089361066591146106bb565b610829565b61068391925061067a3d82610313565b3d81019061069f565b9038610630565b505050506004604051632f7a8ee160e01b8152fd5b908160209103126102b2575190565b506040513d6000823e3d90fd5b156106c257565b5060405162461bcd60e51b815260206004820152602960248201527f45524331393637557067726164653a20756e737570706f727465642070726f786044820152681a58589b195555525160ba1b6064820152608490fd5b60809060208152602e60208201527f45524331393637557067726164653a206e657720696d706c656d656e7461746960408201526d6f6e206973206e6f74205555505360901b60608201520190565b600080516020610fdd83398151915280546001600160a01b0319166001600160a01b03909216919091179055565b803b156107cc57600080516020610f7d83398151915280546001600160a01b0319166001600160a01b03909216919091179055565b505060405162461bcd60e51b815260206004820152602d60248201527f455243313936373a206e657720696d706c656d656e746174696f6e206973206e60448201526c1bdd08184818dbdb9d1c9858dd609a1b6064820152608490fd5b61083281610797565b604051906000906001600160a01b038116600080516020610fbd8339815191528385a28351158015906108ec575b61086b575b50505050565b81806108d99561087a866102f8565b60278652600080516020610ffd8339815191526020870152660819985a5b195960ca1b6040870152602081519101845af4903d156108e3573d6108bc81610336565b906108ca6040519283610313565b8152809360203d92013e610acf565b5038808080610865565b60609250610acf565b5081610860565b6108fc81610797565b604051906001600160a01b038116600080516020610fbd833981519152600084a28251158015906109ab575b61093157505050565b6000806109a094610941856102f8565b60278552600080516020610ffd8339815191526020860152660819985a5b195960ca1b6040860152602081519101845af43d156109a3573d9161098383610336565b926109916040519485610313565b83523d6000602085013e610acf565b50565b606091610acf565b506001610928565b6001600160a01b037f0000000000000000000000000000000000000000000000000000000000000000811692906109ec308514156104bc565b610a09600080516020610f7d83398151915294828654161461050c565b80600080516020610fdd8339815191525416331415610ab957600080516020610f3d8339815191525460ff1615610a465750506106089150610797565b6020600491604094939451928380926352d1902d60e01b825286165afa60009181610aa2575b50610a8f57505050505060405162461bcd60e51b8152806106536004820161071a565b61060893610a9d91146106bb565b6108f3565b610ab291925061067a3d82610313565b9038610a6c565b50505050506004604051632f7a8ee160e01b8152fd5b91929015610b335750815115610ae3575090565b3b15610aec5790565b505060405162461bcd60e51b815260206004820152601d60248201527f416464726573733a2063616c6c20746f206e6f6e2d636f6e74726163740000006044820152606490fd5b825192935091159050610b495750805190602001fd5b60405162461bcd60e51b815260206004820152915081906106539060248301905b91908251928382526000905b848210610ba3575092806020939411610b96575b601f01601f1916010190565b6000838284010152610b8a565b90602090818082850101519082860101520190610b76565b600080516020610fdd833981519152546001600160a01b03919082163381141561068a5761060892821690600080516020610f9d8339815191526000604051a3610769565b6106089060018060a01b0380600080516020610fdd833981519152541690821690600080516020610f9d8339815191526000604051a3610769565b6000549060ff8260081c161580928193610d5a575b8115610d3a575b5015610cdb57610c7d9082610c74600160ff196000541617600055565b610cc257610c00565b610c8357565b610c9361ff001960005416600055565b604051600181527f7f26b83ff96e1f2b6a682f133852f6798a09c465da95921460cefb384740249890602090a1565b610cd661010061ff00196000541617600055565b610c00565b505060405162461bcd60e51b815260206004820152602e60248201527f496e697469616c697a61626c653a20636f6e747261637420697320616c72656160448201526d191e481a5b9a5d1a585b1a5e995960921b606482015260849150fd5b303b15915081610d4c575b5038610c57565b6001915060ff161438610d45565b600160ff8216109150610c50565b6001600160a01b039091168152604060208201819052610d8a92910190610b6a565b90565b90610d988230610ea5565b604051631a4438cd60e21b6020820152602481018490526001600160a01b037f00000000000000000000000000000000000000000000000000000000000000008116604480840191909152825291939091610df4606484610313565b841691823b156103de576000610e3f9160405180938192633ab4c37560e21b83527f000000000000000000000000000000000000000000000000000000000000000060048401610d68565b038183875af18015610e98575b610e7b575b507fe491e278e37782abe0872fe7c7b549cd7b0713d0c5c1e84a81899a5fdf32087b6000604051a3565b610e9290610e893d82610313565b3d810190610407565b38610e51565b610ea06106ae565b610e4c565b6e5af43d82803e903d91602b57fd5bf390763d602d80600a3d3981f3363d3d373d3d3d363d7300000062ffffff8260881c161760005260781b17602052603760096000f5906001600160a01b03821615610efb57565b505060405162461bcd60e51b8152602060048201526017602482015276115490cc4c4d8dce8818dc99585d194c8819985a5b1959604a1b6044820152606490fdfe4910fdfa16fed3260ed0e7147f7cc6da11a60208b5b9406d12a635614ffd914346756e6374696f6e206d7573742062652063616c6c6564207468726f75676820360894a13ba1a3210667c828492db98dca3e2076cc3735a920a3ca505d382bbc8be0079c531659141344cd1fd0a4f28419497f9722a3daafe3b4186f6b6457e0bc7cd75a20ee27fd9adebab32041f755214dbc6bffa90cc0225b39da2e5c2d3b8a22373512790c48b83a1fe2efdd2888d4a917bcdc24d0adf63e60f671680460416464726573733a206c6f772d6c6576656c2064656c65676174652063616c6ca3646970667358221220a1eb72b9dad4b6f9441deb4e3f47410a621bd21a71886103307e4f313d7b26556c6578706572696d656e74616cf564736f6c634300080c0041",
  "devdoc": {
    "kind": "dev",
    "methods": {
      "owner()": {
        "returns": {
          "_0": "conrtact owner"
        }
      },
      "proxiableUUID()": {
        "details": "Implementation of the ERC1822 {proxiableUUID} function. This returns the storage slot used by the implementation. It is used to validate the implementation's compatibility when performing an upgrade. IMPORTANT: A proxy pointing at a proxiable contract should not be considered proxiable itself, because this risks bricking a proxy that upgrades to it, by delegating to itself until out of gas. Thus it is critical that this function revert if invoked through a proxy. This is guaranteed by the `notDelegated` modifier."
      },
      "transferOwnership(address)": {
        "params": {
          "account": "address of new owner"
        }
      },
      "upgradeTo(address)": {
        "details": "Upgrade the implementation of the proxy to `newImplementation`. Calls {_authorizeUpgrade}. Emits an {Upgraded} event."
      },
      "upgradeToAndCall(address,bytes)": {
        "details": "Upgrade the implementation of the proxy to `newImplementation`, and subsequently execute the function call encoded in `data`. Calls {_authorizeUpgrade}. Emits an {Upgraded} event."
      }
    },
    "version": 1
  },
  "userdoc": {
    "kind": "user",
    "methods": {
      "deploy(bytes32)": {
        "notice": "IAccountFactory "
      },
      "ownedAccount(bytes32)": {
        "notice": "IERC4972 "
      },
      "owner()": {
        "notice": "get the ERC173 contract owner"
      },
      "transferOwnership(address)": {
        "notice": "transfer contract ownership to new account"
      }
    },
    "version": 1
  },
  "storageLayout": {
    "storage": [
      {
        "astId": 431,
        "contract": "contracts/hexlink/Hexlink.sol:Hexlink",
        "label": "_initialized",
        "offset": 0,
        "slot": "0",
        "type": "t_uint8"
      },
      {
        "astId": 434,
        "contract": "contracts/hexlink/Hexlink.sol:Hexlink",
        "label": "_initializing",
        "offset": 1,
        "slot": "0",
        "type": "t_bool"
      }
    ],
    "types": {
      "t_bool": {
        "encoding": "inplace",
        "label": "bool",
        "numberOfBytes": "1"
      },
      "t_uint8": {
        "encoding": "inplace",
        "label": "uint8",
        "numberOfBytes": "1"
      }
    }
  }
}