{
  "address": "0xe4590689b09ca1D78604F74f616F2B53c7aca884",
  "abi": [
    {
      "inputs": [],
      "name": "Ownable__NotOwner",
      "type": "error"
    },
    {
      "inputs": [],
      "name": "Ownable__NotTransitiveOwner",
      "type": "error"
    },
    {
      "anonymous": false,
      "inputs": [
        {
          "indexed": true,
          "internalType": "address",
          "name": "previousOwner",
          "type": "address"
        },
        {
          "indexed": true,
          "internalType": "address",
          "name": "newOwner",
          "type": "address"
        }
      ],
      "name": "OwnershipTransferred",
      "type": "event"
    },
    {
      "anonymous": false,
      "inputs": [
        {
          "indexed": true,
          "internalType": "address",
          "name": "validator",
          "type": "address"
        },
        {
          "indexed": false,
          "internalType": "bool",
          "name": "registered",
          "type": "bool"
        }
      ],
      "name": "Registered",
      "type": "event"
    },
    {
      "inputs": [],
      "name": "getDomain",
      "outputs": [
        {
          "internalType": "bytes32",
          "name": "",
          "type": "bytes32"
        }
      ],
      "stateMutability": "view",
      "type": "function"
    },
    {
      "inputs": [],
      "name": "getSchema",
      "outputs": [
        {
          "internalType": "bytes32",
          "name": "",
          "type": "bytes32"
        }
      ],
      "stateMutability": "view",
      "type": "function"
    },
    {
      "inputs": [
        {
          "internalType": "bytes32",
          "name": "schema",
          "type": "bytes32"
        },
        {
          "internalType": "bytes32",
          "name": "domain",
          "type": "bytes32"
        },
        {
          "internalType": "address",
          "name": "owner",
          "type": "address"
        },
        {
          "internalType": "address[]",
          "name": "validators",
          "type": "address[]"
        }
      ],
      "name": "init",
      "outputs": [],
      "stateMutability": "nonpayable",
      "type": "function"
    },
    {
      "inputs": [
        {
          "internalType": "address",
          "name": "validator",
          "type": "address"
        }
      ],
      "name": "isRegistered",
      "outputs": [
        {
          "internalType": "bool",
          "name": "",
          "type": "bool"
        }
      ],
      "stateMutability": "view",
      "type": "function"
    },
    {
      "inputs": [],
      "name": "owner",
      "outputs": [
        {
          "internalType": "address",
          "name": "",
          "type": "address"
        }
      ],
      "stateMutability": "view",
      "type": "function"
    },
    {
      "inputs": [
        {
          "internalType": "address",
          "name": "validator",
          "type": "address"
        },
        {
          "internalType": "bool",
          "name": "registered",
          "type": "bool"
        }
      ],
      "name": "registerValidator",
      "outputs": [],
      "stateMutability": "nonpayable",
      "type": "function"
    },
    {
      "inputs": [
        {
          "internalType": "address",
          "name": "account",
          "type": "address"
        }
      ],
      "name": "transferOwnership",
      "outputs": [],
      "stateMutability": "nonpayable",
      "type": "function"
    },
    {
      "inputs": [
        {
          "internalType": "bytes32",
          "name": "name",
          "type": "bytes32"
        },
        {
          "internalType": "bytes32",
          "name": "requestInfo",
          "type": "bytes32"
        },
        {
          "internalType": "bytes",
          "name": "authProof",
          "type": "bytes"
        }
      ],
      "name": "validateName",
      "outputs": [
        {
          "internalType": "uint256",
          "name": "",
          "type": "uint256"
        }
      ],
      "stateMutability": "view",
      "type": "function"
    }
  ],
  "transactionHash": "0xc895aa66b428ca2c4f8e000d8773f9ecec4b3031d18e648c1264ccb57f89613f",
  "args": [],
  "numDeployments": 2,
  "solcInputHash": "cd2a9f51ce52707457587bb2d6e56569",
  "bytecode": "0x608060405234801561001057600080fd5b506115bc806100206000396000f3fe608060405234801561001057600080fd5b50600436106100885760003560e01c8063b68d18091161005b578063b68d180914610101578063c3c5a5471461011f578063e758a2b71461014f578063f2fde38b1461017f57610088565b80636b122fe01461008d57806370b7620a146100ab5780638da5cb5b146100c7578063ac517d92146100e5575b600080fd5b61009561019b565b6040516100a29190610ab7565b60405180910390f35b6100c560048036038101906100c09190610cc9565b6101a4565b005b6100cf6102c9565b6040516100dc9190610d5b565b60405180910390f35b6100ff60048036038101906100fa9190610dae565b6102d8565b005b61010961045d565b6040516101169190610ab7565b60405180910390f35b61013960048036038101906101349190610dee565b610467565b6040516101469190610e2a565b60405180910390f35b61016960048036038101906101649190610efa565b6104bd565b6040516101769190610f82565b60405180910390f35b61019960048036038101906101949190610dee565b6105ef565b005b60008054905090565b600073ffffffffffffffffffffffffffffffffffffffff166101c4610667565b73ffffffffffffffffffffffffffffffffffffffff161461021a576040517f08c379a000000000000000000000000000000000000000000000000000000000815260040161021190610ffa565b60405180910390fd5b6102238261069a565b60005b81518110156102b4576001600260008484815181106102485761024761101a565b5b602002602001015173ffffffffffffffffffffffffffffffffffffffff1673ffffffffffffffffffffffffffffffffffffffff16815260200190815260200160002060006101000a81548160ff02191690831515021790555080806102ac90611078565b915050610226565b50836000819055508260018190555050505050565b60006102d3610667565b905090565b6102e0610667565b73ffffffffffffffffffffffffffffffffffffffff163373ffffffffffffffffffffffffffffffffffffffff1614610344576040517f2f7a8ee100000000000000000000000000000000000000000000000000000000815260040160405180910390fd5b600073ffffffffffffffffffffffffffffffffffffffff168273ffffffffffffffffffffffffffffffffffffffff1614156103b4576040517f08c379a00000000000000000000000000000000000000000000000000000000081526004016103ab9061110d565b60405180910390fd5b80600260008473ffffffffffffffffffffffffffffffffffffffff1673ffffffffffffffffffffffffffffffffffffffff16815260200190815260200160002060006101000a81548160ff0219169083151502179055508173ffffffffffffffffffffffffffffffffffffffff167f472c2fec85816a6e426ac9b8a4971b1224a52b6289cb30147b3918fb91dfce53826040516104519190610e2a565b60405180910390a25050565b6000600154905090565b6000600260008373ffffffffffffffffffffffffffffffffffffffff1673ffffffffffffffffffffffffffffffffffffffff16815260200190815260200160002060009054906101000a900460ff169050919050565b600080600080848060200190518101906104d7919061123a565b9250925092504283116104f057600193505050506105e8565b600260008373ffffffffffffffffffffffffffffffffffffffff1673ffffffffffffffffffffffffffffffffffffffff16815260200190815260200160002060009054906101000a900460ff1661054d57600293505050506105e8565b60008787858560405160200161056694939291906112a9565b6040516020818303038152906040528051906020012090506000610589826106a6565b905061059e83826106d690919063ffffffff16565b73ffffffffffffffffffffffffffffffffffffffff168473ffffffffffffffffffffffffffffffffffffffff16146105de576003955050505050506105e8565b6000955050505050505b9392505050565b6105f7610667565b73ffffffffffffffffffffffffffffffffffffffff163373ffffffffffffffffffffffffffffffffffffffff161461065b576040517f2f7a8ee100000000000000000000000000000000000000000000000000000000815260040160405180910390fd5b6106648161069a565b50565b60006106716106fd565b60000160009054906101000a900473ffffffffffffffffffffffffffffffffffffffff16905090565b6106a38161072a565b50565b6000816040516020016106b99190611366565b604051602081830303815290604052805190602001209050919050565b60008060006106e585856107fb565b915091506106f28161084d565b819250505092915050565b6000807f8a22373512790c48b83a1fe2efdd2888d4a917bcdc24d0adf63e60f67168046090508091505090565b60006107346106fd565b90508173ffffffffffffffffffffffffffffffffffffffff168160000160009054906101000a900473ffffffffffffffffffffffffffffffffffffffff1673ffffffffffffffffffffffffffffffffffffffff167f8be0079c531659141344cd1fd0a4f28419497f9722a3daafe3b4186f6b6457e060405160405180910390a3818160000160006101000a81548173ffffffffffffffffffffffffffffffffffffffff021916908373ffffffffffffffffffffffffffffffffffffffff1602179055505050565b60008060418351141561083d5760008060006020860151925060408601519150606086015160001a9050610831878285856109bb565b94509450505050610846565b60006002915091505b9250929050565b600060048111156108615761086061138c565b5b8160048111156108745761087361138c565b5b141561087f576109b8565b600160048111156108935761089261138c565b5b8160048111156108a6576108a561138c565b5b14156108e7576040517f08c379a00000000000000000000000000000000000000000000000000000000081526004016108de90611407565b60405180910390fd5b600260048111156108fb576108fa61138c565b5b81600481111561090e5761090d61138c565b5b141561094f576040517f08c379a000000000000000000000000000000000000000000000000000000000815260040161094690611473565b60405180910390fd5b600360048111156109635761096261138c565b5b8160048111156109765761097561138c565b5b14156109b7576040517f08c379a00000000000000000000000000000000000000000000000000000000081526004016109ae90611505565b60405180910390fd5b5b50565b6000807f7fffffffffffffffffffffffffffffff5d576e7357a4501ddfe92f46681b20a08360001c11156109f6576000600391509150610a95565b600060018787878760405160008152602001604052604051610a1b9493929190611541565b6020604051602081039080840390855afa158015610a3d573d6000803e3d6000fd5b505050602060405103519050600073ffffffffffffffffffffffffffffffffffffffff168173ffffffffffffffffffffffffffffffffffffffff161415610a8c57600060019250925050610a95565b80600092509250505b94509492505050565b6000819050919050565b610ab181610a9e565b82525050565b6000602082019050610acc6000830184610aa8565b92915050565b6000604051905090565b600080fd5b600080fd5b610aef81610a9e565b8114610afa57600080fd5b50565b600081359050610b0c81610ae6565b92915050565b600073ffffffffffffffffffffffffffffffffffffffff82169050919050565b6000610b3d82610b12565b9050919050565b610b4d81610b32565b8114610b5857600080fd5b50565b600081359050610b6a81610b44565b92915050565b600080fd5b6000601f19601f8301169050919050565b7f4e487b7100000000000000000000000000000000000000000000000000000000600052604160045260246000fd5b610bbe82610b75565b810181811067ffffffffffffffff82111715610bdd57610bdc610b86565b5b80604052505050565b6000610bf0610ad2565b9050610bfc8282610bb5565b919050565b600067ffffffffffffffff821115610c1c57610c1b610b86565b5b602082029050602081019050919050565b600080fd5b6000610c45610c4084610c01565b610be6565b90508083825260208201905060208402830185811115610c6857610c67610c2d565b5b835b81811015610c915780610c7d8882610b5b565b845260208401935050602081019050610c6a565b5050509392505050565b600082601f830112610cb057610caf610b70565b5b8135610cc0848260208601610c32565b91505092915050565b60008060008060808587031215610ce357610ce2610adc565b5b6000610cf187828801610afd565b9450506020610d0287828801610afd565b9350506040610d1387828801610b5b565b925050606085013567ffffffffffffffff811115610d3457610d33610ae1565b5b610d4087828801610c9b565b91505092959194509250565b610d5581610b32565b82525050565b6000602082019050610d706000830184610d4c565b92915050565b60008115159050919050565b610d8b81610d76565b8114610d9657600080fd5b50565b600081359050610da881610d82565b92915050565b60008060408385031215610dc557610dc4610adc565b5b6000610dd385828601610b5b565b9250506020610de485828601610d99565b9150509250929050565b600060208284031215610e0457610e03610adc565b5b6000610e1284828501610b5b565b91505092915050565b610e2481610d76565b82525050565b6000602082019050610e3f6000830184610e1b565b92915050565b600080fd5b600067ffffffffffffffff821115610e6557610e64610b86565b5b610e6e82610b75565b9050602081019050919050565b82818337600083830152505050565b6000610e9d610e9884610e4a565b610be6565b905082815260208101848484011115610eb957610eb8610e45565b5b610ec4848285610e7b565b509392505050565b600082601f830112610ee157610ee0610b70565b5b8135610ef1848260208601610e8a565b91505092915050565b600080600060608486031215610f1357610f12610adc565b5b6000610f2186828701610afd565b9350506020610f3286828701610afd565b925050604084013567ffffffffffffffff811115610f5357610f52610ae1565b5b610f5f86828701610ecc565b9150509250925092565b6000819050919050565b610f7c81610f69565b82525050565b6000602082019050610f976000830184610f73565b92915050565b600082825260208201905092915050565b7f4845584c30313500000000000000000000000000000000000000000000000000600082015250565b6000610fe4600783610f9d565b9150610fef82610fae565b602082019050919050565b6000602082019050818103600083015261101381610fd7565b9050919050565b7f4e487b7100000000000000000000000000000000000000000000000000000000600052603260045260246000fd5b7f4e487b7100000000000000000000000000000000000000000000000000000000600052601160045260246000fd5b600061108382610f69565b91507fffffffffffffffffffffffffffffffffffffffffffffffffffffffffffffffff8214156110b6576110b5611049565b5b600182019050919050565b7f696e76616c69642076616c696461746f72000000000000000000000000000000600082015250565b60006110f7601183610f9d565b9150611102826110c1565b602082019050919050565b60006020820190508181036000830152611126816110ea565b9050919050565b61113681610f69565b811461114157600080fd5b50565b6000815190506111538161112d565b92915050565b600061116482610b12565b9050919050565b61117481611159565b811461117f57600080fd5b50565b6000815190506111918161116b565b92915050565b60005b838110156111b557808201518184015260208101905061119a565b838111156111c4576000848401525b50505050565b60006111dd6111d884610e4a565b610be6565b9050828152602081018484840111156111f9576111f8610e45565b5b611204848285611197565b509392505050565b600082601f83011261122157611220610b70565b5b81516112318482602086016111ca565b91505092915050565b60008060006060848603121561125357611252610adc565b5b600061126186828701611144565b935050602061127286828701611182565b925050604084015167ffffffffffffffff81111561129357611292610ae1565b5b61129f8682870161120c565b9150509250925092565b60006080820190506112be6000830187610aa8565b6112cb6020830186610aa8565b6112d86040830185610f73565b6112e56060830184610d4c565b95945050505050565b600081905092915050565b7f19457468657265756d205369676e6564204d6573736167653a0a333200000000600082015250565b600061132f601c836112ee565b915061133a826112f9565b601c82019050919050565b6000819050919050565b61136061135b82610a9e565b611345565b82525050565b600061137182611322565b915061137d828461134f565b60208201915081905092915050565b7f4e487b7100000000000000000000000000000000000000000000000000000000600052602160045260246000fd5b7f45434453413a20696e76616c6964207369676e61747572650000000000000000600082015250565b60006113f1601883610f9d565b91506113fc826113bb565b602082019050919050565b60006020820190508181036000830152611420816113e4565b9050919050565b7f45434453413a20696e76616c6964207369676e6174757265206c656e67746800600082015250565b600061145d601f83610f9d565b915061146882611427565b602082019050919050565b6000602082019050818103600083015261148c81611450565b9050919050565b7f45434453413a20696e76616c6964207369676e6174757265202773272076616c60008201527f7565000000000000000000000000000000000000000000000000000000000000602082015250565b60006114ef602283610f9d565b91506114fa82611493565b604082019050919050565b6000602082019050818103600083015261151e816114e2565b9050919050565b600060ff82169050919050565b61153b81611525565b82525050565b60006080820190506115566000830187610aa8565b6115636020830186611532565b6115706040830185610aa8565b61157d6060830184610aa8565b9594505050505056fea2646970667358221220916b08b2e7b968d103f4cbeb580e252f1c797106d943c24fd7df8c61663d80b864736f6c634300080c0033",
  "devdoc": {
    "kind": "dev",
    "methods": {
      "owner()": {
        "returns": {
          "_0": "conrtact owner"
        }
      },
      "transferOwnership(address)": {
        "params": {
          "account": "address of new owner"
        }
      }
    },
    "version": 1
  },
  "userdoc": {
    "kind": "user",
    "methods": {
      "getSchema()": {
        "notice": "INameRegistry "
      },
      "init(bytes32,bytes32,address,address[])": {
        "notice": "help functions to create name registry "
      },
      "isRegistered(address)": {
        "notice": "validator registration "
      },
      "owner()": {
        "notice": "get the ERC173 contract owner"
      },
      "transferOwnership(address)": {
        "notice": "transfer contract ownership to new account"
      }
    },
    "version": 1
  },
  "storageLayout": {
    "storage": [
      {
        "astId": 2181,
        "contract": "contracts/registry/NameRegistry.sol:NameRegistry",
        "label": "schema_",
        "offset": 0,
        "slot": "0",
        "type": "t_bytes32"
      },
      {
        "astId": 2183,
        "contract": "contracts/registry/NameRegistry.sol:NameRegistry",
        "label": "domain_",
        "offset": 0,
        "slot": "1",
        "type": "t_bytes32"
      },
      {
        "astId": 2187,
        "contract": "contracts/registry/NameRegistry.sol:NameRegistry",
        "label": "validators_",
        "offset": 0,
        "slot": "2",
        "type": "t_mapping(t_address,t_bool)"
      }
    ],
    "types": {
      "t_address": {
        "encoding": "inplace",
        "label": "address",
        "numberOfBytes": "20"
      },
      "t_bool": {
        "encoding": "inplace",
        "label": "bool",
        "numberOfBytes": "1"
      },
      "t_bytes32": {
        "encoding": "inplace",
        "label": "bytes32",
        "numberOfBytes": "32"
      },
      "t_mapping(t_address,t_bool)": {
        "encoding": "mapping",
        "key": "t_address",
        "label": "mapping(address => bool)",
        "numberOfBytes": "32",
        "value": "t_bool"
      }
    }
  }
}