{
  "address": "0xe2c59279D8B0B67dCEFC1a2C3273765cfC693C14",
  "abi": [
    {
      "inputs": [],
      "name": "AlreadyClaimed",
      "type": "error"
    },
    {
      "inputs": [],
      "name": "CampaignAlreadyEnded",
      "type": "error"
    },
    {
      "inputs": [],
      "name": "CampaignNotEnded",
      "type": "error"
    },
    {
      "inputs": [],
      "name": "CampaignNotExist",
      "type": "error"
    },
    {
      "inputs": [],
      "name": "CampaignNotStarted",
      "type": "error"
    },
    {
      "inputs": [
        {
          "internalType": "uint256",
          "name": "actual",
          "type": "uint256"
        },
        {
          "internalType": "uint256",
          "name": "expected",
          "type": "uint256"
        }
      ],
      "name": "InsufficientDeposit",
      "type": "error"
    },
    {
      "inputs": [],
      "name": "InvalidCampaignInput",
      "type": "error"
    },
    {
      "inputs": [],
      "name": "NotAuthorized",
      "type": "error"
    },
    {
      "inputs": [],
      "name": "NotCalledFromClaimer",
      "type": "error"
    },
    {
      "anonymous": false,
      "inputs": [
        {
          "indexed": false,
          "internalType": "address",
          "name": "previousAdmin",
          "type": "address"
        },
        {
          "indexed": false,
          "internalType": "address",
          "name": "newAdmin",
          "type": "address"
        }
      ],
      "name": "AdminChanged",
      "type": "event"
    },
    {
      "anonymous": false,
      "inputs": [
        {
          "indexed": true,
          "internalType": "address",
          "name": "beacon",
          "type": "address"
        }
      ],
      "name": "BeaconUpgraded",
      "type": "event"
    },
    {
      "anonymous": false,
      "inputs": [
        {
          "indexed": false,
          "internalType": "uint8",
          "name": "version",
          "type": "uint8"
        }
      ],
      "name": "Initialized",
      "type": "event"
    },
    {
      "anonymous": false,
      "inputs": [
        {
          "indexed": true,
          "internalType": "uint256",
          "name": "campaignId",
          "type": "uint256"
        },
        {
          "components": [
            {
              "internalType": "address",
              "name": "token",
              "type": "address"
            },
            {
              "internalType": "uint48",
              "name": "startAt",
              "type": "uint48"
            },
            {
              "internalType": "uint48",
              "name": "endAt",
              "type": "uint48"
            },
            {
              "internalType": "uint256",
              "name": "deposit",
              "type": "uint256"
            },
            {
              "internalType": "address",
              "name": "validator",
              "type": "address"
            },
            {
              "internalType": "address",
              "name": "owner",
              "type": "address"
            }
          ],
          "indexed": false,
          "internalType": "struct Airdrop.Campaign",
          "name": "campaign",
          "type": "tuple"
        }
      ],
      "name": "NewCampaign",
      "type": "event"
    },
    {
      "anonymous": false,
      "inputs": [
        {
          "indexed": true,
          "internalType": "uint256",
          "name": "campaignId",
          "type": "uint256"
        },
        {
          "indexed": true,
          "internalType": "address",
          "name": "claimer",
          "type": "address"
        },
        {
          "indexed": true,
          "internalType": "address",
          "name": "beneficiary",
          "type": "address"
        },
        {
          "indexed": false,
          "internalType": "uint256",
          "name": "amount",
          "type": "uint256"
        }
      ],
      "name": "NewClaim",
      "type": "event"
    },
    {
      "anonymous": false,
      "inputs": [
        {
          "indexed": true,
          "internalType": "address",
          "name": "previousOwner",
          "type": "address"
        },
        {
          "indexed": true,
          "internalType": "address",
          "name": "newOwner",
          "type": "address"
        }
      ],
      "name": "OwnershipTransferred",
      "type": "event"
    },
    {
      "anonymous": false,
      "inputs": [
        {
          "indexed": false,
          "internalType": "address",
          "name": "account",
          "type": "address"
        }
      ],
      "name": "Paused",
      "type": "event"
    },
    {
      "anonymous": false,
      "inputs": [
        {
          "indexed": false,
          "internalType": "address",
          "name": "account",
          "type": "address"
        }
      ],
      "name": "Unpaused",
      "type": "event"
    },
    {
      "anonymous": false,
      "inputs": [
        {
          "indexed": true,
          "internalType": "address",
          "name": "implementation",
          "type": "address"
        }
      ],
      "name": "Upgraded",
      "type": "event"
    },
    {
      "inputs": [
        {
          "internalType": "uint256",
          "name": "campaign",
          "type": "uint256"
        },
        {
          "internalType": "address",
          "name": "claimer",
          "type": "address"
        },
        {
          "internalType": "address",
          "name": "beneficiary",
          "type": "address"
        },
        {
          "internalType": "uint256",
          "name": "amount",
          "type": "uint256"
        },
        {
          "internalType": "bytes",
          "name": "proof",
          "type": "bytes"
        }
      ],
      "name": "claim",
      "outputs": [],
      "stateMutability": "nonpayable",
      "type": "function"
    },
    {
      "inputs": [
        {
          "components": [
            {
              "internalType": "address",
              "name": "token",
              "type": "address"
            },
            {
              "internalType": "uint48",
              "name": "startAt",
              "type": "uint48"
            },
            {
              "internalType": "uint48",
              "name": "endAt",
              "type": "uint48"
            },
            {
              "internalType": "uint256",
              "name": "deposit",
              "type": "uint256"
            },
            {
              "internalType": "address",
              "name": "validator",
              "type": "address"
            },
            {
              "internalType": "address",
              "name": "owner",
              "type": "address"
            }
          ],
          "internalType": "struct Airdrop.Campaign",
          "name": "c",
          "type": "tuple"
        }
      ],
      "name": "createCampaign",
      "outputs": [],
      "stateMutability": "nonpayable",
      "type": "function"
    },
    {
      "inputs": [
        {
          "internalType": "uint256",
          "name": "campaign",
          "type": "uint256"
        },
        {
          "internalType": "uint256",
          "name": "amount",
          "type": "uint256"
        }
      ],
      "name": "deposit",
      "outputs": [],
      "stateMutability": "nonpayable",
      "type": "function"
    },
    {
      "inputs": [
        {
          "internalType": "uint256",
          "name": "campaign",
          "type": "uint256"
        }
      ],
      "name": "getCampaign",
      "outputs": [
        {
          "components": [
            {
              "internalType": "address",
              "name": "token",
              "type": "address"
            },
            {
              "internalType": "uint48",
              "name": "startAt",
              "type": "uint48"
            },
            {
              "internalType": "uint48",
              "name": "endAt",
              "type": "uint48"
            },
            {
              "internalType": "uint256",
              "name": "deposit",
              "type": "uint256"
            },
            {
              "internalType": "address",
              "name": "validator",
              "type": "address"
            },
            {
              "internalType": "address",
              "name": "owner",
              "type": "address"
            }
          ],
          "internalType": "struct Airdrop.Campaign",
          "name": "",
          "type": "tuple"
        }
      ],
      "stateMutability": "view",
      "type": "function"
    },
    {
      "inputs": [],
      "name": "getNextCampaign",
      "outputs": [
        {
          "internalType": "uint256",
          "name": "",
          "type": "uint256"
        }
      ],
      "stateMutability": "view",
      "type": "function"
    },
    {
      "inputs": [
        {
          "internalType": "uint256",
          "name": "campaign",
          "type": "uint256"
        },
        {
          "internalType": "address",
          "name": "to",
          "type": "address"
        }
      ],
      "name": "hasClaimed",
      "outputs": [
        {
          "internalType": "bool",
          "name": "",
          "type": "bool"
        }
      ],
      "stateMutability": "view",
      "type": "function"
    },
    {
      "inputs": [],
      "name": "implementation",
      "outputs": [
        {
          "internalType": "address",
          "name": "",
          "type": "address"
        }
      ],
      "stateMutability": "view",
      "type": "function"
    },
    {
      "inputs": [
        {
          "internalType": "address",
          "name": "owner",
          "type": "address"
        }
      ],
      "name": "initialize",
      "outputs": [],
      "stateMutability": "nonpayable",
      "type": "function"
    },
    {
      "inputs": [],
      "name": "owner",
      "outputs": [
        {
          "internalType": "address",
          "name": "",
          "type": "address"
        }
      ],
      "stateMutability": "view",
      "type": "function"
    },
    {
      "inputs": [],
      "name": "pause",
      "outputs": [],
      "stateMutability": "nonpayable",
      "type": "function"
    },
    {
      "inputs": [],
      "name": "paused",
      "outputs": [
        {
          "internalType": "bool",
          "name": "",
          "type": "bool"
        }
      ],
      "stateMutability": "view",
      "type": "function"
    },
    {
      "inputs": [],
      "name": "proxiableUUID",
      "outputs": [
        {
          "internalType": "bytes32",
          "name": "",
          "type": "bytes32"
        }
      ],
      "stateMutability": "view",
      "type": "function"
    },
    {
      "inputs": [],
      "name": "renounceOwnership",
      "outputs": [],
      "stateMutability": "nonpayable",
      "type": "function"
    },
    {
      "inputs": [
        {
          "internalType": "address",
          "name": "newOwner",
          "type": "address"
        }
      ],
      "name": "transferOwnership",
      "outputs": [],
      "stateMutability": "nonpayable",
      "type": "function"
    },
    {
      "inputs": [],
      "name": "unpause",
      "outputs": [],
      "stateMutability": "nonpayable",
      "type": "function"
    },
    {
      "inputs": [
        {
          "internalType": "address",
          "name": "newImplementation",
          "type": "address"
        }
      ],
      "name": "upgradeTo",
      "outputs": [],
      "stateMutability": "nonpayable",
      "type": "function"
    },
    {
      "inputs": [
        {
          "internalType": "address",
          "name": "newImplementation",
          "type": "address"
        },
        {
          "internalType": "bytes",
          "name": "data",
          "type": "bytes"
        }
      ],
      "name": "upgradeToAndCall",
      "outputs": [],
      "stateMutability": "payable",
      "type": "function"
    },
    {
      "inputs": [
        {
          "internalType": "uint256",
          "name": "campaign",
          "type": "uint256"
        }
      ],
      "name": "withdraw",
      "outputs": [],
      "stateMutability": "nonpayable",
      "type": "function"
    }
  ],
  "transactionHash": "0x94c64dc6770237b4fd4296f625bb353768bbb8c8ba00a43fcc5db99814d73779",
  "args": [],
  "numDeployments": 1,
  "solcInputHash": "283ee56cacf4fb303ea9781a3c6a832b",
  "bytecode": "0x60a080604052346100935760008054336001600160a01b031982168117835590916001600160a01b038316907f8be0079c531659141344cd1fd0a4f28419497f9722a3daafe3b4186f6b6457e09085a330608052600162ff000160a01b0319163360ff60b01b1916176000908155600155611c9d908161009a8239608051818181610833015281816109840152610cea0152f35b50600080fdfe6040608081526004361015610015575b50600080fd5b600090813560e01c80632e1a7d4d146103315780633659cfe61461031a5780633f4ba83a146103035780634f1ef286146102f057806352d1902d146102c55780635598f8cc1461029e5780635c60da1b146102665780635c975abb146102395780636f53f81f14610222578063715018a61461020b5780638456cb59146101f4578063873f6f9e146101a15780638da5cb5b146101795780639a1e8c481461014f578063b3ef31ea14610134578063c4d66de81461011d578063e2bbb158146101055763f2fde38b146100e8575061000f565b34610101576100fe6100f93661039b565b61075f565b51f35b5080fd5b5034610101576100fe610117366106b2565b906113c5565b5034610101576100fe61012f3661039b565b610ef5565b5034610101576100fe61014636610645565b93929092611517565b5034610101576101759150610163366103be565b60015490519081529081906020820190565b0390f35b5034610101576101759161018c366103be565b5490519182916001600160a01b03168261057d565b50346101015761017591506101e36101dc6101c56101be3661061e565b919061117e565b9060018060a01b0316600052602052604060002090565b5460ff1690565b905190151581529081906020820190565b503461010157610203366103be565b6100fe611026565b50346101015761021a366103be565b6100fe6106c8565b5034610101576100fe610234366105a6565b611265565b50346101015760ff6101759261024e366103be565b54915160b09290921c16151581529081906020820190565b503461010157610175915061027a366103be565b600080516020611bfa8339815191525490519182916001600160a01b03168261057d565b50346101015761017591506102ba6102b536610348565b6111f6565b905191829182610529565b50346101015761017591506102d9366103be565b6102e1610830565b90519081529081906020820190565b506100fe6102fd366104e6565b90610ce0565b503461010157610312366103be565b6100fe6110bf565b5034610101576100fe61032c3661039b565b61097a565b5034610101576100fe61034336610348565b61145d565b602090600319011261000f5760043590565b6001600160a01b031690565b608435906001600160a01b03821682141561037d57565b5050600080fd5b60a435906001600160a01b03821682141561037d57565b602090600319011261000f576004356001600160a01b03811681141561037d5790565b600090600319011261000f57565b50634e487b7160e01b600052604160045260246000fd5b60c081019081106001600160401b038211176103fe57604052565b6104066103cc565b604052565b602081019081106001600160401b038211176103fe57604052565b606081019081106001600160401b038211176103fe57604052565b601f909101601f19168101906001600160401b038211908210176103fe57604052565b6020906001600160401b038111610481575b601f01601f19160190565b6104896103cc565b610476565b81601f820112156104de578035906104a582610464565b926104b36040519485610441565b828452602083830101116104d557816000926020809301838601378301015290565b50505050600080fd5b505050600080fd5b90604060031983011261037d576004356001600160a01b0381168114156104de5791602435906001600160401b0382116104d5576105269160040161048e565b90565b91909160a060c082019381600180821b039182815116855265ffffffffffff806020830151166020870152604082015116604086015260608101516060860152826080820151166080860152015116910152565b6001600160a01b03909116815260200190565b6044359065ffffffffffff821682141561037d57565b60c090600319011261000f576040516105be816103e3565b6004356001600160a01b0381168114156104de57815260243565ffffffffffff81168114156104de5760208201526105f4610590565b60408201526064356060820152610609610366565b6080820152610616610384565b60a082015290565b604090600319011261000f57600435906024356001600160a01b0381168114156104de5790565b60a060031982011261037d57600435916001600160a01b03916024358381168114156106a857926044359081168114156106a8579160643591608435906001600160401b03821161069c576105269160040161048e565b50505050505050600080fd5b5050505050600080fd5b604090600319011261000f576004359060243590565b6106d0610705565b600080546001600160a01b0319811682556040516001600160a01b0390911690600080516020611c1a833981519152908390a3565b6000546001600160a01b031633141561071a57565b50606460405162461bcd60e51b815260206004820152602060248201527f4f776e61626c653a2063616c6c6572206973206e6f7420746865206f776e65726044820152fd5b610767610705565b6001600160a01b038116156107815761077f906107f6565b565b505060405162461bcd60e51b815260206004820152602660248201527f4f776e61626c653a206e6577206f776e657220697320746865207a65726f206160448201526564647265737360d01b6064820152608490fd5b80546001600160a01b0319166001600160a01b03909216919091179055565b600080546001600160a01b039283166001600160a01b0319821681178355604051909390911691600080516020611c1a83398151915291a3565b307f00000000000000000000000000000000000000000000000000000000000000006001600160a01b0316141561087357600080516020611bfa83398151915290565b5060405162461bcd60e51b815260206004820152603860248201527f555550535570677261646561626c653a206d757374206e6f742062652063616c6044820152771b1959081d1a1c9bdd59da0819195b1959d85d1958d85b1b60421b6064820152608490fd5b156108e157565b5060405162461bcd60e51b815260206004820152602c6024820152600080516020611bda83398151915260448201526b19195b1959d85d1958d85b1b60a21b6064820152608490fd5b1561093157565b5060405162461bcd60e51b815260206004820152602c6024820152600080516020611bda83398151915260448201526b6163746976652070726f787960a01b6064820152608490fd5b6001600160a01b037f0000000000000000000000000000000000000000000000000000000000000000811691906109b3308414156108da565b6109d0600080516020611bfa83398151915293828554161461092a565b6109d8610705565b604051906109e58261040b565b600082526000366020840137600080516020611bba8339815191525460ff1615610a1557505061077f9150610b5f565b6020600491604094939451928380926352d1902d60e01b825286165afa60009181610a75575b50610a6257505050505060405162461bcd60e51b815280610a5e60048201610b10565b0390fd5b61077f93610a709114610ab1565b610bf1565b610a8e919250610a853d82610441565b3d810190610a95565b9038610a3b565b9081602091031261037d575190565b506040513d6000823e3d90fd5b15610ab857565b5060405162461bcd60e51b815260206004820152602960248201527f45524331393637557067726164653a20756e737570706f727465642070726f786044820152681a58589b195555525160ba1b6064820152608490fd5b60809060208152602e60208201527f45524331393637557067726164653a206e657720696d706c656d656e7461746960408201526d6f6e206973206e6f74205555505360901b60608201520190565b803b15610b9457600080516020611bfa83398151915280546001600160a01b0319166001600160a01b03909216919091179055565b505060405162461bcd60e51b815260206004820152602d60248201527f455243313936373a206e657720696d706c656d656e746174696f6e206973206e60448201526c1bdd08184818dbdb9d1c9858dd609a1b6064820152608490fd5b610bfa81610b5f565b604051906001600160a01b038116600080516020611c3a833981519152600084a2825115801590610c93575b610c2f57505050565b600080610c9094610c3f85610426565b602785527f416464726573733a206c6f772d6c6576656c2064656c65676174652063616c6c6020860152660819985a5b195960ca1b6040860152602081519101845af4610c8a610dd5565b91610e52565b50565b506000610c26565b610ca481610b5f565b604051906001600160a01b038116600080516020611c3a833981519152600084a2825115801590610cd857610c2f57505050565b506001610c26565b6001600160a01b037f000000000000000000000000000000000000000000000000000000000000000081169290610d19308514156108da565b610d36600080516020611bfa83398151915294828654161461092a565b610d3e610705565b600080516020611bba8339815191525460ff1615610d6257505061077f9150610b5f565b6020600491604094939451928380926352d1902d60e01b825286165afa60009181610dbe575b50610dab57505050505060405162461bcd60e51b815280610a5e60048201610b10565b61077f93610db99114610ab1565b610c9b565b610dce919250610a853d82610441565b9038610d88565b3d15610e00573d90610de682610464565b91610df46040519384610441565b82523d6000602084013e565b606090565b15610e0c57565b5060405162461bcd60e51b815260206004820152601d60248201527f416464726573733a2063616c6c20746f206e6f6e2d636f6e74726163740000006044820152606490fd5b91929015610e725750815115610e66575090565b610526903b1515610e05565b825192935091159050610e885750805190602001fd5b90506040519062461bcd60e51b82528160208060048301528251928360248401526000915b848310610edc575050918060449311610ecf575b601f01601f19168101030190fd5b6000838284010152610ec1565b8183018101518684016044015285935091820191610ead565b6000549060ff8260a81c161580928193611014575b8115610ff1575b5015610f92576000805460ff60a01b1916600160a01b179055610f389082610f7a576107f6565b610f3e57565b6000805460ff60a81b19169055604051600181527f7f26b83ff96e1f2b6a682f133852f6798a09c465da95921460cefb384740249890602090a1565b6000805460ff60a81b1916600160a81b1790556107f6565b505060405162461bcd60e51b815260206004820152602e60248201527f496e697469616c697a61626c653a20636f6e747261637420697320616c72656160448201526d191e481a5b9a5d1a585b1a5e995960921b606482015260849150fd5b303b15915081611003575b5038610f11565b60a01c60ff16600114905038610ffc565b9050600160ff8260a01c161090610f0a565b61102e610705565b611036611077565b6000805460ff60b01b1916600160b01b1790556040513381527f62e78cea01bee320cd4e420270b5ea74000d11b0c9f74754ebdbfc544b05a25890602090a1565b60ff60005460b01c1661108657565b5060405162461bcd60e51b815260206004820152601060248201526f14185d5cd8589b194e881c185d5cd95960821b6044820152606490fd5b6110c7610705565b60005460ff8160b01c161561110e5760ff60b01b19166000556040513381527f5db9ee0a495bf2e6ff9c91a7834c1ba4fdd244a5e8aa4e537bd38aeae4b073aa90602090a1565b505060405162461bcd60e51b815260206004820152601460248201527314185d5cd8589b194e881b9bdd081c185d5cd95960621b6044820152606490fd5b60405190611159826103e3565b8160a06000918281528260208201528260408201528260608201528260808201520152565b6000526003602052604060002090565b6000526002602052604060002090565b906040516111ab816103e3565b60a081936003815491600180851b0392838116865265ffffffffffff81861c16602087015260d01c604086015260018101546060860152826002820154166080860152015416910152565b6111fe61114c565b506000526002602052604060002060405190611219826103e3565b600381549160018060a01b0392838116855265ffffffffffff8160a01c16602086015260d01c60408501526001810154606085015282600282015416608085015201541660a082015290565b61126d611077565b6060810190815115801561137d575b6113685761135b6113639161132861077f9460018060a01b03906112a5828551168251906119fe565b6112b060015461118e565b916112be81865116846107d7565b602085015183546040870151921660a09190911b65ffffffffffff60a01b161760d09190911b6001600160d01b0319161782555160018201556080830151611312906113099061035a565b600283016107d7565b600361132160a085015161035a565b91016107d7565b7f88021dbb7076a804e21db4ac02fd774f976e660648adec776df9cf75921ce67860015492839260405191829182610529565b0390a26113a9565b600155565b5050604051639ff0aeb160e01b815260049150fd5b5060a08101516001600160a01b03161561127c565b50634e487b7160e01b600052601160045260246000fd5b60019060001981146113b9570190565b6113c1611392565b0190565b906113ce611077565b8160005260026020526113e4604060002061119e565b60a08101516001600160a01b039290831615801561144f575b61143957606082611416836001966114289651166119fe565b01518119811161142c575b019261118e565b0155565b611434611392565b611421565b50505050506004604051635fed7b5d60e11b8152fd5b5082608083015116156113fd565b611465611077565b6114766114718261118e565b61119e565b60a081019061148d611488835161035a565b61035a565b331415611502576114b56114aa604083015165ffffffffffff1690565b65ffffffffffff1690565b4211156114ed57600060016114cc61077f9561118e565b015560606114e46114dd835161035a565b935161035a565b91015191611a9a565b50505050600460405163cc76115360e01b8152fd5b50505050600460405163ea8e4eb560e01b8152fd5b91939293611523611077565b6001600160a01b0382811694909190338614156116f65761154a6101dc336101c58861117e565b6116dd576115578561193c565b90606082019485518981106116a857506040805146602082019081526001600160601b031930606090811b821694840194909452605483018b905293831b841660748301529186901b9092166088830152609c8083018b905282526115fd92916115f891906115c760bc82610441565b5190207b0ca2ba3432b932bab69029b4b3b732b21026b2b9b9b0b3b29d05199960211b600052601c52603c60002090565b611726565b8361160e611488608085015161035a565b9116141561168f57868261167c61168193611669847fc3fa706621bcd1e8aa80b4595edcc301df58f7ad9d8f8606542346e0fc0b5a23996116636116568d6101c5339161117e565b805460ff19166001179055565b5161170f565b60016116748b61118e565b01555161035a565b611a9a565b6040519586521693602090a4565b5050505050505050600460405163ea8e4eb560e01b8152fd5b6040516312e1fa3760e11b8152600481019190915260248101999099525096975087965050604486019450610a5e9350505050565b50505050505050506004604051630c8d9eab60e31b8152fd5b505050505050505060046040516312a5e93b60e21b8152fd5b81811061171a570390565b611722611392565b0390565b610526916117339161187e565b91909161175c565b6005111561174557565b50634e487b7160e01b600052602160045260246000fd5b6117658161173b565b8061176d5750565b6117768161173b565b60018114156117c157505060405162461bcd60e51b815260206004820152601860248201527745434453413a20696e76616c6964207369676e617475726560401b6044820152606490fd5b6117ca8161173b565b600281141561181a57505060405162461bcd60e51b815260206004820152601f60248201527f45434453413a20696e76616c6964207369676e6174757265206c656e677468006044820152606490fd5b8061182660039261173b565b1461182d57565b5060405162461bcd60e51b815260206004820152602260248201527f45434453413a20696e76616c6964207369676e6174757265202773272076616c604482015261756560f01b6064820152608490fd5b9060418151146000146118ac576118a8916020820151906060604084015193015160001a906118b6565b9091565b5050600090600290565b9291906fa2a8918ca85bafe22016d0b997e4df60600160ff1b0383116119305791608094939160ff602094604051948552168484015260408301526060820152600093849182805260015afa15611923575b81516001600160a01b0381161561191d579190565b50600190565b61192b610aa4565b611908565b50505050600090600390565b6114716119519161194b61114c565b5061118e565b60a08101516001600160a01b03906119689061035a565b16156119d1576119846114aa602083015165ffffffffffff1690565b42106119bd576119a06114aa604083015165ffffffffffff1690565b42116119a95790565b505060405163287e67e760e01b8152600490fd5b50506040516333f44d6160e01b8152600490fd5b5050604051635fed7b5d60e11b8152600490fd5b9081602091031261037d575180151581141561037d5790565b6001600160a01b031680611a385750803410611a175750565b6040516312e1fa3760e11b8152346004820152602481019190915260449150fd5b6040516323b872dd60e01b81523360048201523060248201526044810192909252602090829060649082906000905af18015611a8d575b611a765750565b610c9090611a843d82610441565b3d8101906119e5565b611a95610aa4565b611a6f565b9091906001600160a01b0390811680611b845750814710611b3c576000928392839260405192165af1611acb610dd5565b5015611ad357565b5060405162461bcd60e51b815260206004820152603a60248201527f416464726573733a20756e61626c6520746f2073656e642076616c75652c20726044820152791958da5c1a595b9d081b585e481a185d99481c995d995c9d195960321b6064820152608490fd5b50505050606460405162461bcd60e51b815260206004820152601d60248201527f416464726573733a20696e73756666696369656e742062616c616e63650000006044820152fd5b602092936000604492604051968795869463a9059cbb60e01b865216600485015260248401525af18015611a8d57611a76575056fe4910fdfa16fed3260ed0e7147f7cc6da11a60208b5b9406d12a635614ffd914346756e6374696f6e206d7573742062652063616c6c6564207468726f75676820360894a13ba1a3210667c828492db98dca3e2076cc3735a920a3ca505d382bbc8be0079c531659141344cd1fd0a4f28419497f9722a3daafe3b4186f6b6457e0bc7cd75a20ee27fd9adebab32041f755214dbc6bffa90cc0225b39da2e5c2d3ba36469706673582212204c866864099fb33a1821ac2cf593512378b29f6842ea23dd7c50ddda8943fead6c6578706572696d656e74616cf564736f6c634300080c0041",
  "devdoc": {
    "kind": "dev",
    "methods": {
      "owner()": {
        "details": "Returns the address of the current owner."
      },
      "paused()": {
        "details": "Returns true if the contract is paused, and false otherwise."
      },
      "proxiableUUID()": {
        "details": "Implementation of the ERC1822 {proxiableUUID} function. This returns the storage slot used by the implementation. It is used to validate the implementation's compatibility when performing an upgrade. IMPORTANT: A proxy pointing at a proxiable contract should not be considered proxiable itself, because this risks bricking a proxy that upgrades to it, by delegating to itself until out of gas. Thus it is critical that this function revert if invoked through a proxy. This is guaranteed by the `notDelegated` modifier."
      },
      "renounceOwnership()": {
        "details": "Leaves the contract without owner. It will not be possible to call `onlyOwner` functions. Can only be called by the current owner. NOTE: Renouncing ownership will leave the contract without an owner, thereby disabling any functionality that is only available to the owner."
      },
      "transferOwnership(address)": {
        "details": "Transfers ownership of the contract to a new account (`newOwner`). Can only be called by the current owner."
      },
      "upgradeTo(address)": {
        "custom:oz-upgrades-unsafe-allow-reachable": "delegatecall",
        "details": "Upgrade the implementation of the proxy to `newImplementation`. Calls {_authorizeUpgrade}. Emits an {Upgraded} event."
      },
      "upgradeToAndCall(address,bytes)": {
        "custom:oz-upgrades-unsafe-allow-reachable": "delegatecall",
        "details": "Upgrade the implementation of the proxy to `newImplementation`, and subsequently execute the function call encoded in `data`. Calls {_authorizeUpgrade}. Emits an {Upgraded} event."
      }
    },
    "version": 1
  },
  "userdoc": {
    "kind": "user",
    "methods": {
      "implementation()": {
        "notice": "UUPSUpgradeable "
      }
    },
    "version": 1
  },
  "storageLayout": {
    "storage": [
      {
        "astId": 1666,
        "contract": "contracts/airdrop/Airdrop.sol:Airdrop",
        "label": "_owner",
        "offset": 0,
        "slot": "0",
        "type": "t_address"
      },
      {
        "astId": 2126,
        "contract": "contracts/airdrop/Airdrop.sol:Airdrop",
        "label": "_initialized",
        "offset": 20,
        "slot": "0",
        "type": "t_uint8"
      },
      {
        "astId": 2129,
        "contract": "contracts/airdrop/Airdrop.sol:Airdrop",
        "label": "_initializing",
        "offset": 21,
        "slot": "0",
        "type": "t_bool"
      },
      {
        "astId": 2422,
        "contract": "contracts/airdrop/Airdrop.sol:Airdrop",
        "label": "_paused",
        "offset": 22,
        "slot": "0",
        "type": "t_bool"
      },
      {
        "astId": 4784,
        "contract": "contracts/airdrop/Airdrop.sol:Airdrop",
        "label": "nextCampaign",
        "offset": 0,
        "slot": "1",
        "type": "t_uint256"
      },
      {
        "astId": 4789,
        "contract": "contracts/airdrop/Airdrop.sol:Airdrop",
        "label": "campaigns",
        "offset": 0,
        "slot": "2",
        "type": "t_mapping(t_uint256,t_struct(Campaign)4764_storage)"
      },
      {
        "astId": 4795,
        "contract": "contracts/airdrop/Airdrop.sol:Airdrop",
        "label": "claimed",
        "offset": 0,
        "slot": "3",
        "type": "t_mapping(t_uint256,t_mapping(t_address,t_bool))"
      }
    ],
    "types": {
      "t_address": {
        "encoding": "inplace",
        "label": "address",
        "numberOfBytes": "20"
      },
      "t_bool": {
        "encoding": "inplace",
        "label": "bool",
        "numberOfBytes": "1"
      },
      "t_mapping(t_address,t_bool)": {
        "encoding": "mapping",
        "key": "t_address",
        "label": "mapping(address => bool)",
        "numberOfBytes": "32",
        "value": "t_bool"
      },
      "t_mapping(t_uint256,t_mapping(t_address,t_bool))": {
        "encoding": "mapping",
        "key": "t_uint256",
        "label": "mapping(uint256 => mapping(address => bool))",
        "numberOfBytes": "32",
        "value": "t_mapping(t_address,t_bool)"
      },
      "t_mapping(t_uint256,t_struct(Campaign)4764_storage)": {
        "encoding": "mapping",
        "key": "t_uint256",
        "label": "mapping(uint256 => struct Airdrop.Campaign)",
        "numberOfBytes": "32",
        "value": "t_struct(Campaign)4764_storage"
      },
      "t_struct(Campaign)4764_storage": {
        "encoding": "inplace",
        "label": "struct Airdrop.Campaign",
        "members": [
          {
            "astId": 4753,
            "contract": "contracts/airdrop/Airdrop.sol:Airdrop",
            "label": "token",
            "offset": 0,
            "slot": "0",
            "type": "t_address"
          },
          {
            "astId": 4755,
            "contract": "contracts/airdrop/Airdrop.sol:Airdrop",
            "label": "startAt",
            "offset": 20,
            "slot": "0",
            "type": "t_uint48"
          },
          {
            "astId": 4757,
            "contract": "contracts/airdrop/Airdrop.sol:Airdrop",
            "label": "endAt",
            "offset": 26,
            "slot": "0",
            "type": "t_uint48"
          },
          {
            "astId": 4759,
            "contract": "contracts/airdrop/Airdrop.sol:Airdrop",
            "label": "deposit",
            "offset": 0,
            "slot": "1",
            "type": "t_uint256"
          },
          {
            "astId": 4761,
            "contract": "contracts/airdrop/Airdrop.sol:Airdrop",
            "label": "validator",
            "offset": 0,
            "slot": "2",
            "type": "t_address"
          },
          {
            "astId": 4763,
            "contract": "contracts/airdrop/Airdrop.sol:Airdrop",
            "label": "owner",
            "offset": 0,
            "slot": "3",
            "type": "t_address"
          }
        ],
        "numberOfBytes": "128"
      },
      "t_uint256": {
        "encoding": "inplace",
        "label": "uint256",
        "numberOfBytes": "32"
      },
      "t_uint48": {
        "encoding": "inplace",
        "label": "uint48",
        "numberOfBytes": "6"
      },
      "t_uint8": {
        "encoding": "inplace",
        "label": "uint8",
        "numberOfBytes": "1"
      }
    }
  }
}